{
	"Rizo.sol": {
		"Rizo": {
			"abi": [
				{
					"inputs": [
						{
							"internalType": "string",
							"name": "_name",
							"type": "string"
						},
						{
							"internalType": "string",
							"name": "_symbol",
							"type": "string"
						},
						{
							"internalType": "uint8",
							"name": "_decimals",
							"type": "uint8"
						},
						{
							"internalType": "address",
							"name": "_owner",
							"type": "address"
						}
					],
					"stateMutability": "nonpayable",
					"type": "constructor"
				},
				{
					"anonymous": false,
					"inputs": [
						{
							"indexed": true,
							"internalType": "address",
							"name": "owner",
							"type": "address"
						},
						{
							"indexed": true,
							"internalType": "address",
							"name": "spender",
							"type": "address"
						},
						{
							"indexed": false,
							"internalType": "uint256",
							"name": "value",
							"type": "uint256"
						}
					],
					"name": "Approval",
					"type": "event"
				},
				{
					"anonymous": false,
					"inputs": [
						{
							"indexed": true,
							"internalType": "address",
							"name": "oldOwner",
							"type": "address"
						},
						{
							"indexed": true,
							"internalType": "address",
							"name": "newOwner",
							"type": "address"
						},
						{
							"indexed": true,
							"internalType": "uint256",
							"name": "effectiveTime",
							"type": "uint256"
						}
					],
					"name": "LogChangeDCRMOwner",
					"type": "event"
				},
				{
					"anonymous": false,
					"inputs": [
						{
							"indexed": true,
							"internalType": "bytes32",
							"name": "txhash",
							"type": "bytes32"
						},
						{
							"indexed": true,
							"internalType": "address",
							"name": "account",
							"type": "address"
						},
						{
							"indexed": false,
							"internalType": "uint256",
							"name": "amount",
							"type": "uint256"
						}
					],
					"name": "LogSwapin",
					"type": "event"
				},
				{
					"anonymous": false,
					"inputs": [
						{
							"indexed": true,
							"internalType": "address",
							"name": "account",
							"type": "address"
						},
						{
							"indexed": true,
							"internalType": "address",
							"name": "bindaddr",
							"type": "address"
						},
						{
							"indexed": false,
							"internalType": "uint256",
							"name": "amount",
							"type": "uint256"
						}
					],
					"name": "LogSwapout",
					"type": "event"
				},
				{
					"anonymous": false,
					"inputs": [
						{
							"indexed": true,
							"internalType": "address",
							"name": "from",
							"type": "address"
						},
						{
							"indexed": true,
							"internalType": "address",
							"name": "to",
							"type": "address"
						},
						{
							"indexed": false,
							"internalType": "uint256",
							"name": "value",
							"type": "uint256"
						}
					],
					"name": "Transfer",
					"type": "event"
				},
				{
					"inputs": [],
					"name": "DOMAIN_SEPARATOR",
					"outputs": [
						{
							"internalType": "bytes32",
							"name": "",
							"type": "bytes32"
						}
					],
					"stateMutability": "view",
					"type": "function"
				},
				{
					"inputs": [],
					"name": "PERMIT_TYPEHASH",
					"outputs": [
						{
							"internalType": "bytes32",
							"name": "",
							"type": "bytes32"
						}
					],
					"stateMutability": "view",
					"type": "function"
				},
				{
					"inputs": [
						{
							"internalType": "bytes32",
							"name": "txhash",
							"type": "bytes32"
						},
						{
							"internalType": "address",
							"name": "account",
							"type": "address"
						},
						{
							"internalType": "uint256",
							"name": "amount",
							"type": "uint256"
						}
					],
					"name": "Swapin",
					"outputs": [
						{
							"internalType": "bool",
							"name": "",
							"type": "bool"
						}
					],
					"stateMutability": "nonpayable",
					"type": "function"
				},
				{
					"inputs": [
						{
							"internalType": "uint256",
							"name": "amount",
							"type": "uint256"
						},
						{
							"internalType": "address",
							"name": "bindaddr",
							"type": "address"
						}
					],
					"name": "Swapout",
					"outputs": [
						{
							"internalType": "bool",
							"name": "",
							"type": "bool"
						}
					],
					"stateMutability": "nonpayable",
					"type": "function"
				},
				{
					"inputs": [],
					"name": "TRANSFER_TYPEHASH",
					"outputs": [
						{
							"internalType": "bytes32",
							"name": "",
							"type": "bytes32"
						}
					],
					"stateMutability": "view",
					"type": "function"
				},
				{
					"inputs": [
						{
							"internalType": "address",
							"name": "",
							"type": "address"
						},
						{
							"internalType": "address",
							"name": "",
							"type": "address"
						}
					],
					"name": "allowance",
					"outputs": [
						{
							"internalType": "uint256",
							"name": "",
							"type": "uint256"
						}
					],
					"stateMutability": "view",
					"type": "function"
				},
				{
					"inputs": [
						{
							"internalType": "address",
							"name": "spender",
							"type": "address"
						},
						{
							"internalType": "uint256",
							"name": "value",
							"type": "uint256"
						}
					],
					"name": "approve",
					"outputs": [
						{
							"internalType": "bool",
							"name": "",
							"type": "bool"
						}
					],
					"stateMutability": "nonpayable",
					"type": "function"
				},
				{
					"inputs": [
						{
							"internalType": "address",
							"name": "spender",
							"type": "address"
						},
						{
							"internalType": "uint256",
							"name": "value",
							"type": "uint256"
						},
						{
							"internalType": "bytes",
							"name": "data",
							"type": "bytes"
						}
					],
					"name": "approveAndCall",
					"outputs": [
						{
							"internalType": "bool",
							"name": "",
							"type": "bool"
						}
					],
					"stateMutability": "nonpayable",
					"type": "function"
				},
				{
					"inputs": [
						{
							"internalType": "address",
							"name": "",
							"type": "address"
						}
					],
					"name": "balanceOf",
					"outputs": [
						{
							"internalType": "uint256",
							"name": "",
							"type": "uint256"
						}
					],
					"stateMutability": "view",
					"type": "function"
				},
				{
					"inputs": [
						{
							"internalType": "address",
							"name": "newOwner",
							"type": "address"
						}
					],
					"name": "changeDCRMOwner",
					"outputs": [
						{
							"internalType": "bool",
							"name": "",
							"type": "bool"
						}
					],
					"stateMutability": "nonpayable",
					"type": "function"
				},
				{
					"inputs": [],
					"name": "decimals",
					"outputs": [
						{
							"internalType": "uint8",
							"name": "",
							"type": "uint8"
						}
					],
					"stateMutability": "view",
					"type": "function"
				},
				{
					"inputs": [],
					"name": "name",
					"outputs": [
						{
							"internalType": "string",
							"name": "",
							"type": "string"
						}
					],
					"stateMutability": "view",
					"type": "function"
				},
				{
					"inputs": [
						{
							"internalType": "address",
							"name": "",
							"type": "address"
						}
					],
					"name": "nonces",
					"outputs": [
						{
							"internalType": "uint256",
							"name": "",
							"type": "uint256"
						}
					],
					"stateMutability": "view",
					"type": "function"
				},
				{
					"inputs": [],
					"name": "owner",
					"outputs": [
						{
							"internalType": "address",
							"name": "",
							"type": "address"
						}
					],
					"stateMutability": "view",
					"type": "function"
				},
				{
					"inputs": [
						{
							"internalType": "address",
							"name": "target",
							"type": "address"
						},
						{
							"internalType": "address",
							"name": "spender",
							"type": "address"
						},
						{
							"internalType": "uint256",
							"name": "value",
							"type": "uint256"
						},
						{
							"internalType": "uint256",
							"name": "deadline",
							"type": "uint256"
						},
						{
							"internalType": "uint8",
							"name": "v",
							"type": "uint8"
						},
						{
							"internalType": "bytes32",
							"name": "r",
							"type": "bytes32"
						},
						{
							"internalType": "bytes32",
							"name": "s",
							"type": "bytes32"
						}
					],
					"name": "permit",
					"outputs": [],
					"stateMutability": "nonpayable",
					"type": "function"
				},
				{
					"inputs": [],
					"name": "symbol",
					"outputs": [
						{
							"internalType": "string",
							"name": "",
							"type": "string"
						}
					],
					"stateMutability": "view",
					"type": "function"
				},
				{
					"inputs": [],
					"name": "totalSupply",
					"outputs": [
						{
							"internalType": "uint256",
							"name": "",
							"type": "uint256"
						}
					],
					"stateMutability": "view",
					"type": "function"
				},
				{
					"inputs": [
						{
							"internalType": "address",
							"name": "to",
							"type": "address"
						},
						{
							"internalType": "uint256",
							"name": "value",
							"type": "uint256"
						}
					],
					"name": "transfer",
					"outputs": [
						{
							"internalType": "bool",
							"name": "",
							"type": "bool"
						}
					],
					"stateMutability": "nonpayable",
					"type": "function"
				},
				{
					"inputs": [
						{
							"internalType": "address",
							"name": "to",
							"type": "address"
						},
						{
							"internalType": "uint256",
							"name": "value",
							"type": "uint256"
						},
						{
							"internalType": "bytes",
							"name": "data",
							"type": "bytes"
						}
					],
					"name": "transferAndCall",
					"outputs": [
						{
							"internalType": "bool",
							"name": "",
							"type": "bool"
						}
					],
					"stateMutability": "nonpayable",
					"type": "function"
				},
				{
					"inputs": [
						{
							"internalType": "address",
							"name": "from",
							"type": "address"
						},
						{
							"internalType": "address",
							"name": "to",
							"type": "address"
						},
						{
							"internalType": "uint256",
							"name": "value",
							"type": "uint256"
						}
					],
					"name": "transferFrom",
					"outputs": [
						{
							"internalType": "bool",
							"name": "",
							"type": "bool"
						}
					],
					"stateMutability": "nonpayable",
					"type": "function"
				},
				{
					"inputs": [
						{
							"internalType": "address",
							"name": "target",
							"type": "address"
						},
						{
							"internalType": "address",
							"name": "to",
							"type": "address"
						},
						{
							"internalType": "uint256",
							"name": "value",
							"type": "uint256"
						},
						{
							"internalType": "uint256",
							"name": "deadline",
							"type": "uint256"
						},
						{
							"internalType": "uint8",
							"name": "v",
							"type": "uint8"
						},
						{
							"internalType": "bytes32",
							"name": "r",
							"type": "bytes32"
						},
						{
							"internalType": "bytes32",
							"name": "s",
							"type": "bytes32"
						}
					],
					"name": "transferWithPermit",
					"outputs": [
						{
							"internalType": "bool",
							"name": "",
							"type": "bool"
						}
					],
					"stateMutability": "nonpayable",
					"type": "function"
				}
			],
			"devdoc": {
				"details": "Wrapped Ether v10 (WERC10) is an Ether (ETH) ERC-20 wrapper. You can `deposit` ETH and obtain an WERC10 balance which can then be operated as an ERC-20 token. You can `withdraw` ETH from WERC10, which will then burn WERC10 token in your wallet. The amount of WERC10 token in any wallet is always identical to the balance of ETH deposited minus the ETH withdrawn with that specific wallet.",
				"kind": "dev",
				"methods": {
					"approve(address,uint256)": {
						"details": "Sets `value` as allowance of `spender` account over caller account's WERC10 token. Emits {Approval} event. Returns boolean value indicating whether operation succeeded."
					},
					"approveAndCall(address,uint256,bytes)": {
						"details": "Sets `value` as allowance of `spender` account over caller account's WERC10 token, after which a call is executed to an ERC677-compliant contract with the `data` parameter. Emits {Approval} event. Returns boolean value indicating whether operation succeeded. For more information on approveAndCall format, see https://github.com/ethereum/EIPs/issues/677."
					},
					"permit(address,address,uint256,uint256,uint8,bytes32,bytes32)": {
						"details": "Sets `value` as allowance of `spender` account over `owner` account's WERC10 token, given `owner` account's signed approval. Emits {Approval} event. Requirements:   - `deadline` must be timestamp in future.   - `v`, `r` and `s` must be valid `secp256k1` signature from `owner` account over EIP712-formatted function arguments.   - the signature must use `owner` account's current nonce (see {nonces}).   - the signer cannot be zero address and must be `owner` account. For more information on signature format, see https://eips.ethereum.org/EIPS/eip-2612#specification[relevant EIP section]. WERC10 token implementation adapted from https://github.com/albertocuestacanada/ERC20Permit/blob/master/contracts/ERC20Permit.sol."
					},
					"totalSupply()": {
						"details": "Returns the total supply of WERC10 token as the ETH held in this contract."
					},
					"transfer(address,uint256)": {
						"details": "Moves `value` WERC10 token from caller's account to account (`to`). A transfer to `address(0)` triggers an ETH withdraw matching the sent WERC10 token in favor of caller. Emits {Transfer} event. Returns boolean value indicating whether operation succeeded. Requirements:   - caller account must have at least `value` WERC10 token."
					},
					"transferAndCall(address,uint256,bytes)": {
						"details": "Moves `value` WERC10 token from caller's account to account (`to`),  after which a call is executed to an ERC677-compliant contract with the `data` parameter. A transfer to `address(0)` triggers an ETH withdraw matching the sent WERC10 token in favor of caller. Emits {Transfer} event. Returns boolean value indicating whether operation succeeded. Requirements:   - caller account must have at least `value` WERC10 token. For more information on transferAndCall format, see https://github.com/ethereum/EIPs/issues/677."
					},
					"transferFrom(address,address,uint256)": {
						"details": "Moves `value` WERC10 token from account (`from`) to account (`to`) using allowance mechanism. `value` is then deducted from caller account's allowance, unless set to `type(uint256).max`. A transfer to `address(0)` triggers an ETH withdraw matching the sent WERC10 token in favor of caller. Emits {Approval} event to reflect reduced allowance `value` for caller account to spend from account (`from`), unless allowance is set to `type(uint256).max` Emits {Transfer} event. Returns boolean value indicating whether operation succeeded. Requirements:   - `from` account must have at least `value` balance of WERC10 token.   - `from` account must have approved caller to spend at least `value` of WERC10 token, unless `from` and caller are the same account."
					}
				},
				"stateVariables": {
					"allowance": {
						"details": "Records number of WERC10 token that account (second) will be allowed to spend on behalf of another account (first) through {transferFrom}."
					},
					"balanceOf": {
						"details": "Records amount of WERC10 token owned by account."
					},
					"nonces": {
						"details": "Records current ERC2612 nonce for account. This value must be included whenever signature is generated for {permit}. Every successful call to {permit} increases account's nonce by one. This prevents signature from being used multiple times."
					}
				},
				"version": 1
			},
			"evm": {
				"assembly": "    /* \"Rizo.sol\":8478:21617  contract Rizo is IWERC10 {... */\n  mstore(0x40, 0xc0)\n    /* \"Rizo.sol\":11246:12056  constructor(string memory _name, string memory _symbol, uint8 _decimals, address _owner) {... */\n  callvalue\n  dup1\n  iszero\n  tag_1\n  jumpi\n  0x00\n  dup1\n  revert\ntag_1:\n  pop\n  mload(0x40)\n  sub(codesize, bytecodeSize)\n  dup1\n  bytecodeSize\n  dup4\n  codecopy\n  dup2\n  dup2\n  add\n  0x40\n  mstore\n  dup2\n  add\n  swap1\n  tag_2\n  swap2\n  swap1\n  tag_3\n  jump\t// in\ntag_2:\n    /* \"Rizo.sol\":11348:11353  _name */\n  dup4\n    /* \"Rizo.sol\":11341:11345  name */\n  0x00\n    /* \"Rizo.sol\":11341:11353  name = _name */\n  swap1\n  dup1\n  mload\n  swap1\n  0x20\n  add\n  swap1\n  tag_6\n  swap3\n  swap2\n  swap1\n  tag_7\n  jump\t// in\ntag_6:\n  pop\n    /* \"Rizo.sol\":11368:11375  _symbol */\n  dup3\n    /* \"Rizo.sol\":11359:11365  symbol */\n  0x01\n    /* \"Rizo.sol\":11359:11375  symbol = _symbol */\n  swap1\n  dup1\n  mload\n  swap1\n  0x20\n  add\n  swap1\n  tag_8\n  swap3\n  swap2\n  swap1\n  tag_7\n  jump\t// in\ntag_8:\n  pop\n    /* \"Rizo.sol\":11392:11401  _decimals */\n  dup2\n    /* \"Rizo.sol\":11381:11401  decimals = _decimals */\n  0xff\n  and\n  0x80\n  dup2\n  0xff\n  and\n  0xf8\n  shl\n  dup2\n  mstore\n  pop\n  pop\n    /* \"Rizo.sol\":11475:11496  uint256 initialSupply */\n  0x00\n    /* \"Rizo.sol\":11531:11540  _decimals */\n  dup3\n    /* \"Rizo.sol\":11523:11541  uint256(_decimals) */\n  0xff\n  and\n    /* \"Rizo.sol\":11517:11519  10 */\n  0x0a\n    /* \"Rizo.sol\":11517:11541  10 ** uint256(_decimals) */\n  tag_9\n  swap2\n  swap1\n  tag_10\n  jump\t// in\ntag_9:\n    /* \"Rizo.sol\":11499:11513  21000000000000 */\n  0x1319718a5000\n    /* \"Rizo.sol\":11499:11542  21000000000000 * (10 ** uint256(_decimals)) */\n  tag_11\n  swap2\n  swap1\n  tag_12\n  jump\t// in\ntag_11:\n    /* \"Rizo.sol\":11475:11542  uint256 initialSupply = 21000000000000 * (10 ** uint256(_decimals)) */\n  swap1\n  pop\n    /* \"Rizo.sol\":11548:11576  _mint(_owner, initialSupply) */\n  tag_13\n    /* \"Rizo.sol\":11554:11560  _owner */\n  dup3\n    /* \"Rizo.sol\":11562:11575  initialSupply */\n  dup3\n    /* \"Rizo.sol\":11548:11553  _mint */\n  shl(0x20, tag_14)\n    /* \"Rizo.sol\":11548:11576  _mint(_owner, initialSupply) */\n  0x20\n  shr\n  jump\t// in\ntag_13:\n    /* \"Rizo.sol\":11607:11613  _owner */\n  dup2\n    /* \"Rizo.sol\":11595:11604  _newOwner */\n  0x05\n  0x00\n    /* \"Rizo.sol\":11595:11613  _newOwner = _owner */\n  0x0100\n  exp\n  dup2\n  sload\n  dup2\n  0xffffffffffffffffffffffffffffffffffffffff\n  mul\n  not\n  and\n  swap1\n  dup4\n  0xffffffffffffffffffffffffffffffffffffffff\n  and\n  mul\n  or\n  swap1\n  sstore\n  pop\n    /* \"Rizo.sol\":11648:11663  block.timestamp */\n  timestamp\n    /* \"Rizo.sol\":11623:11645  _newOwnerEffectiveTime */\n  0x06\n    /* \"Rizo.sol\":11623:11663  _newOwnerEffectiveTime = block.timestamp */\n  dup2\n  swap1\n  sstore\n  pop\n    /* \"Rizo.sol\":11682:11697  uint256 chainId */\n  0x00\n    /* \"Rizo.sol\":11728:11737  chainid() */\n  chainid\n    /* \"Rizo.sol\":11717:11737  chainId := chainid() */\n  swap1\n  pop\n    /* \"Rizo.sol\":11817:11912  keccak256(\"EIP712Domain(string name,string version,uint256 chainId,address verifyingContract)\") */\n  0x8b73c3c69bb8fe3d512ecc4cf759cc79239f7b179b0ffacaa9a75d522b39400f\n    /* \"Rizo.sol\":11946:11950  name */\n  0x00\n    /* \"Rizo.sol\":11930:11952  keccak256(bytes(name)) */\n  mload(0x40)\n  tag_15\n  swap2\n  swap1\n  tag_16\n  jump\t// in\ntag_15:\n  mload(0x40)\n  dup1\n  swap2\n  sub\n  swap1\n  keccak256\n    /* \"Rizo.sol\":11980:11990  bytes(\"1\") */\n  mload(0x40)\n  dup1\n  0x40\n  add\n  0x40\n  mstore\n  dup1\n  0x01\n  dup2\n  mstore\n  0x20\n  add\n  0x3100000000000000000000000000000000000000000000000000000000000000\n  dup2\n  mstore\n  pop\n    /* \"Rizo.sol\":11970:11991  keccak256(bytes(\"1\")) */\n  dup1\n  mload\n  swap1\n  0x20\n  add\n  keccak256\n    /* \"Rizo.sol\":12009:12016  chainId */\n  dup4\n    /* \"Rizo.sol\":12042:12046  this */\n  address\n    /* \"Rizo.sol\":11789:12048  abi.encode(... */\n  add(0x20, mload(0x40))\n  tag_17\n  swap6\n  swap5\n  swap4\n  swap3\n  swap2\n  swap1\n  tag_18\n  jump\t// in\ntag_17:\n  mload(0x40)\n  0x20\n  dup2\n  dup4\n  sub\n  sub\n  dup2\n  mstore\n  swap1\n  0x40\n  mstore\n    /* \"Rizo.sol\":11766:12049  keccak256(... */\n  dup1\n  mload\n  swap1\n  0x20\n  add\n  keccak256\n    /* \"Rizo.sol\":11747:12049  DOMAIN_SEPARATOR = keccak256(... */\n  0xa0\n  dup2\n  dup2\n  mstore\n  pop\n  pop\n    /* \"Rizo.sol\":11246:12056  constructor(string memory _name, string memory _symbol, uint8 _decimals, address _owner) {... */\n  pop\n  pop\n  pop\n  pop\n  pop\n  pop\n    /* \"Rizo.sol\":8478:21617  contract Rizo is IWERC10 {... */\n  jump(tag_19)\n    /* \"Rizo.sol\":12528:12790  function _mint(address account, uint256 amount) internal {... */\ntag_14:\n    /* \"Rizo.sol\":12622:12623  0 */\n  0x00\n    /* \"Rizo.sol\":12603:12624  account != address(0) */\n  0xffffffffffffffffffffffffffffffffffffffff\n  and\n    /* \"Rizo.sol\":12603:12610  account */\n  dup3\n    /* \"Rizo.sol\":12603:12624  account != address(0) */\n  0xffffffffffffffffffffffffffffffffffffffff\n  and\n  eq\n  iszero\n    /* \"Rizo.sol\":12595:12660  require(account != address(0), \"ERC20: mint to the zero address\") */\n  tag_21\n  jumpi\n  mload(0x40)\n  0x08c379a000000000000000000000000000000000000000000000000000000000\n  dup2\n  mstore\n  0x04\n  add\n  tag_22\n  swap1\n  tag_23\n  jump\t// in\ntag_22:\n  mload(0x40)\n  dup1\n  swap2\n  sub\n  swap1\n  revert\ntag_21:\n    /* \"Rizo.sol\":12687:12693  amount */\n  dup1\n    /* \"Rizo.sol\":12671:12683  _totalSupply */\n  0x03\n  0x00\n    /* \"Rizo.sol\":12671:12693  _totalSupply += amount */\n  dup3\n  dup3\n  sload\n  tag_24\n  swap2\n  swap1\n  tag_25\n  jump\t// in\ntag_24:\n  swap3\n  pop\n  pop\n  dup2\n  swap1\n  sstore\n  pop\n    /* \"Rizo.sol\":12725:12731  amount */\n  dup1\n    /* \"Rizo.sol\":12703:12712  balanceOf */\n  0x02\n    /* \"Rizo.sol\":12703:12721  balanceOf[account] */\n  0x00\n    /* \"Rizo.sol\":12713:12720  account */\n  dup5\n    /* \"Rizo.sol\":12703:12721  balanceOf[account] */\n  0xffffffffffffffffffffffffffffffffffffffff\n  and\n  0xffffffffffffffffffffffffffffffffffffffff\n  and\n  dup2\n  mstore\n  0x20\n  add\n  swap1\n  dup2\n  mstore\n  0x20\n  add\n  0x00\n  keccak256\n  0x00\n    /* \"Rizo.sol\":12703:12731  balanceOf[account] += amount */\n  dup3\n  dup3\n  sload\n  tag_26\n  swap2\n  swap1\n  tag_25\n  jump\t// in\ntag_26:\n  swap3\n  pop\n  pop\n  dup2\n  swap1\n  sstore\n  pop\n    /* \"Rizo.sol\":12767:12774  account */\n  dup2\n    /* \"Rizo.sol\":12746:12783  Transfer(address(0), account, amount) */\n  0xffffffffffffffffffffffffffffffffffffffff\n  and\n    /* \"Rizo.sol\":12763:12764  0 */\n  0x00\n    /* \"Rizo.sol\":12746:12783  Transfer(address(0), account, amount) */\n  0xffffffffffffffffffffffffffffffffffffffff\n  and\n  0xddf252ad1be2c89b69c2b068fc378daa952ba7f163c4a11628f55a4df523b3ef\n    /* \"Rizo.sol\":12776:12782  amount */\n  dup4\n    /* \"Rizo.sol\":12746:12783  Transfer(address(0), account, amount) */\n  mload(0x40)\n  tag_27\n  swap2\n  swap1\n  tag_28\n  jump\t// in\ntag_27:\n  mload(0x40)\n  dup1\n  swap2\n  sub\n  swap1\n  log3\n    /* \"Rizo.sol\":12528:12790  function _mint(address account, uint256 amount) internal {... */\n  pop\n  pop\n  jump\t// out\n    /* \"Rizo.sol\":8478:21617  contract Rizo is IWERC10 {... */\ntag_7:\n  dup3\n  dup1\n  sload\n  tag_29\n  swap1\n  tag_30\n  jump\t// in\ntag_29:\n  swap1\n  0x00\n  mstore\n  keccak256(0x00, 0x20)\n  swap1\n  0x1f\n  add\n  0x20\n  swap1\n  div\n  dup2\n  add\n  swap3\n  dup3\n  tag_32\n  jumpi\n  0x00\n  dup6\n  sstore\n  jump(tag_31)\ntag_32:\n  dup3\n  0x1f\n  lt\n  tag_33\n  jumpi\n  dup1\n  mload\n  not(0xff)\n  and\n  dup4\n  dup1\n  add\n  or\n  dup6\n  sstore\n  jump(tag_31)\ntag_33:\n  dup3\n  dup1\n  add\n  0x01\n  add\n  dup6\n  sstore\n  dup3\n  iszero\n  tag_31\n  jumpi\n  swap2\n  dup3\n  add\ntag_34:\n  dup3\n  dup2\n  gt\n  iszero\n  tag_35\n  jumpi\n  dup3\n  mload\n  dup3\n  sstore\n  swap2\n  0x20\n  add\n  swap2\n  swap1\n  0x01\n  add\n  swap1\n  jump(tag_34)\ntag_35:\ntag_31:\n  pop\n  swap1\n  pop\n  tag_36\n  swap2\n  swap1\n  tag_37\n  jump\t// in\ntag_36:\n  pop\n  swap1\n  jump\t// out\ntag_37:\ntag_38:\n  dup1\n  dup3\n  gt\n  iszero\n  tag_39\n  jumpi\n  0x00\n  dup2\n  0x00\n  swap1\n  sstore\n  pop\n  0x01\n  add\n  jump(tag_38)\ntag_39:\n  pop\n  swap1\n  jump\t// out\n    /* \"#utility.yul\":7:361   */\ntag_41:\n  0x00\n    /* \"#utility.yul\":121:187   */\n  tag_43\n    /* \"#utility.yul\":137:186   */\n  tag_44\n    /* \"#utility.yul\":179:185   */\n  dup5\n    /* \"#utility.yul\":137:186   */\n  tag_45\n  jump\t// in\ntag_44:\n    /* \"#utility.yul\":121:187   */\n  tag_46\n  jump\t// in\ntag_43:\n    /* \"#utility.yul\":112:187   */\n  swap1\n  pop\n    /* \"#utility.yul\":210:216   */\n  dup3\n    /* \"#utility.yul\":203:208   */\n  dup2\n    /* \"#utility.yul\":196:217   */\n  mstore\n    /* \"#utility.yul\":248:252   */\n  0x20\n    /* \"#utility.yul\":241:246   */\n  dup2\n    /* \"#utility.yul\":237:253   */\n  add\n    /* \"#utility.yul\":286:289   */\n  dup5\n    /* \"#utility.yul\":277:283   */\n  dup5\n    /* \"#utility.yul\":272:275   */\n  dup5\n    /* \"#utility.yul\":268:284   */\n  add\n    /* \"#utility.yul\":265:290   */\n  gt\n    /* \"#utility.yul\":262:264   */\n  iszero\n  tag_47\n  jumpi\n    /* \"#utility.yul\":303:304   */\n  0x00\n    /* \"#utility.yul\":300:301   */\n  dup1\n    /* \"#utility.yul\":293:305   */\n  revert\n    /* \"#utility.yul\":262:264   */\ntag_47:\n    /* \"#utility.yul\":316:355   */\n  tag_48\n    /* \"#utility.yul\":348:354   */\n  dup5\n    /* \"#utility.yul\":343:346   */\n  dup3\n    /* \"#utility.yul\":338:341   */\n  dup6\n    /* \"#utility.yul\":316:355   */\n  tag_49\n  jump\t// in\ntag_48:\n    /* \"#utility.yul\":102:361   */\n  pop\n  swap4\n  swap3\n  pop\n  pop\n  pop\n  jump\t// out\n    /* \"#utility.yul\":367:510   */\ntag_50:\n  0x00\n    /* \"#utility.yul\":455:461   */\n  dup2\n    /* \"#utility.yul\":449:462   */\n  mload\n    /* \"#utility.yul\":440:462   */\n  swap1\n  pop\n    /* \"#utility.yul\":471:504   */\n  tag_52\n    /* \"#utility.yul\":498:503   */\n  dup2\n    /* \"#utility.yul\":471:504   */\n  tag_53\n  jump\t// in\ntag_52:\n    /* \"#utility.yul\":430:510   */\n  swap3\n  swap2\n  pop\n  pop\n  jump\t// out\n    /* \"#utility.yul\":530:818   */\ntag_54:\n  0x00\n    /* \"#utility.yul\":646:649   */\n  dup3\n    /* \"#utility.yul\":639:643   */\n  0x1f\n    /* \"#utility.yul\":631:637   */\n  dup4\n    /* \"#utility.yul\":627:644   */\n  add\n    /* \"#utility.yul\":623:650   */\n  slt\n    /* \"#utility.yul\":613:615   */\n  tag_56\n  jumpi\n    /* \"#utility.yul\":664:665   */\n  0x00\n    /* \"#utility.yul\":661:662   */\n  dup1\n    /* \"#utility.yul\":654:666   */\n  revert\n    /* \"#utility.yul\":613:615   */\ntag_56:\n    /* \"#utility.yul\":697:703   */\n  dup2\n    /* \"#utility.yul\":691:704   */\n  mload\n    /* \"#utility.yul\":722:812   */\n  tag_57\n    /* \"#utility.yul\":808:811   */\n  dup5\n    /* \"#utility.yul\":800:806   */\n  dup3\n    /* \"#utility.yul\":793:797   */\n  0x20\n    /* \"#utility.yul\":785:791   */\n  dup7\n    /* \"#utility.yul\":781:798   */\n  add\n    /* \"#utility.yul\":722:812   */\n  tag_41\n  jump\t// in\ntag_57:\n    /* \"#utility.yul\":713:812   */\n  swap2\n  pop\n    /* \"#utility.yul\":603:818   */\n  pop\n  swap3\n  swap2\n  pop\n  pop\n  jump\t// out\n    /* \"#utility.yul\":824:963   */\ntag_58:\n  0x00\n    /* \"#utility.yul\":910:916   */\n  dup2\n    /* \"#utility.yul\":904:917   */\n  mload\n    /* \"#utility.yul\":895:917   */\n  swap1\n  pop\n    /* \"#utility.yul\":926:957   */\n  tag_60\n    /* \"#utility.yul\":951:956   */\n  dup2\n    /* \"#utility.yul\":926:957   */\n  tag_61\n  jump\t// in\ntag_60:\n    /* \"#utility.yul\":885:963   */\n  swap3\n  swap2\n  pop\n  pop\n  jump\t// out\n    /* \"#utility.yul\":969:1930   */\ntag_3:\n  0x00\n  dup1\n  0x00\n  dup1\n    /* \"#utility.yul\":1157:1160   */\n  0x80\n    /* \"#utility.yul\":1145:1154   */\n  dup6\n    /* \"#utility.yul\":1136:1143   */\n  dup8\n    /* \"#utility.yul\":1132:1155   */\n  sub\n    /* \"#utility.yul\":1128:1161   */\n  slt\n    /* \"#utility.yul\":1125:1127   */\n  iszero\n  tag_63\n  jumpi\n    /* \"#utility.yul\":1174:1175   */\n  0x00\n    /* \"#utility.yul\":1171:1172   */\n  dup1\n    /* \"#utility.yul\":1164:1176   */\n  revert\n    /* \"#utility.yul\":1125:1127   */\ntag_63:\n    /* \"#utility.yul\":1238:1239   */\n  0x00\n    /* \"#utility.yul\":1227:1236   */\n  dup6\n    /* \"#utility.yul\":1223:1240   */\n  add\n    /* \"#utility.yul\":1217:1241   */\n  mload\n    /* \"#utility.yul\":1268:1286   */\n  0xffffffffffffffff\n    /* \"#utility.yul\":1260:1266   */\n  dup2\n    /* \"#utility.yul\":1257:1287   */\n  gt\n    /* \"#utility.yul\":1254:1256   */\n  iszero\n  tag_64\n  jumpi\n    /* \"#utility.yul\":1300:1301   */\n  0x00\n    /* \"#utility.yul\":1297:1298   */\n  dup1\n    /* \"#utility.yul\":1290:1302   */\n  revert\n    /* \"#utility.yul\":1254:1256   */\ntag_64:\n    /* \"#utility.yul\":1328:1402   */\n  tag_65\n    /* \"#utility.yul\":1394:1401   */\n  dup8\n    /* \"#utility.yul\":1385:1391   */\n  dup3\n    /* \"#utility.yul\":1374:1383   */\n  dup9\n    /* \"#utility.yul\":1370:1392   */\n  add\n    /* \"#utility.yul\":1328:1402   */\n  tag_54\n  jump\t// in\ntag_65:\n    /* \"#utility.yul\":1318:1402   */\n  swap5\n  pop\n    /* \"#utility.yul\":1188:1412   */\n  pop\n    /* \"#utility.yul\":1472:1474   */\n  0x20\n    /* \"#utility.yul\":1461:1470   */\n  dup6\n    /* \"#utility.yul\":1457:1475   */\n  add\n    /* \"#utility.yul\":1451:1476   */\n  mload\n    /* \"#utility.yul\":1503:1521   */\n  0xffffffffffffffff\n    /* \"#utility.yul\":1495:1501   */\n  dup2\n    /* \"#utility.yul\":1492:1522   */\n  gt\n    /* \"#utility.yul\":1489:1491   */\n  iszero\n  tag_66\n  jumpi\n    /* \"#utility.yul\":1535:1536   */\n  0x00\n    /* \"#utility.yul\":1532:1533   */\n  dup1\n    /* \"#utility.yul\":1525:1537   */\n  revert\n    /* \"#utility.yul\":1489:1491   */\ntag_66:\n    /* \"#utility.yul\":1563:1637   */\n  tag_67\n    /* \"#utility.yul\":1629:1636   */\n  dup8\n    /* \"#utility.yul\":1620:1626   */\n  dup3\n    /* \"#utility.yul\":1609:1618   */\n  dup9\n    /* \"#utility.yul\":1605:1627   */\n  add\n    /* \"#utility.yul\":1563:1637   */\n  tag_54\n  jump\t// in\ntag_67:\n    /* \"#utility.yul\":1553:1637   */\n  swap4\n  pop\n    /* \"#utility.yul\":1422:1647   */\n  pop\n    /* \"#utility.yul\":1686:1688   */\n  0x40\n    /* \"#utility.yul\":1712:1774   */\n  tag_68\n    /* \"#utility.yul\":1766:1773   */\n  dup8\n    /* \"#utility.yul\":1757:1763   */\n  dup3\n    /* \"#utility.yul\":1746:1755   */\n  dup9\n    /* \"#utility.yul\":1742:1764   */\n  add\n    /* \"#utility.yul\":1712:1774   */\n  tag_58\n  jump\t// in\ntag_68:\n    /* \"#utility.yul\":1702:1774   */\n  swap3\n  pop\n    /* \"#utility.yul\":1657:1784   */\n  pop\n    /* \"#utility.yul\":1823:1825   */\n  0x60\n    /* \"#utility.yul\":1849:1913   */\n  tag_69\n    /* \"#utility.yul\":1905:1912   */\n  dup8\n    /* \"#utility.yul\":1896:1902   */\n  dup3\n    /* \"#utility.yul\":1885:1894   */\n  dup9\n    /* \"#utility.yul\":1881:1903   */\n  add\n    /* \"#utility.yul\":1849:1913   */\n  tag_50\n  jump\t// in\ntag_69:\n    /* \"#utility.yul\":1839:1913   */\n  swap2\n  pop\n    /* \"#utility.yul\":1794:1923   */\n  pop\n    /* \"#utility.yul\":1115:1930   */\n  swap3\n  swap6\n  swap2\n  swap5\n  pop\n  swap3\n  pop\n  jump\t// out\n    /* \"#utility.yul\":1936:2054   */\ntag_70:\n    /* \"#utility.yul\":2023:2047   */\n  tag_72\n    /* \"#utility.yul\":2041:2046   */\n  dup2\n    /* \"#utility.yul\":2023:2047   */\n  tag_73\n  jump\t// in\ntag_72:\n    /* \"#utility.yul\":2018:2021   */\n  dup3\n    /* \"#utility.yul\":2011:2048   */\n  mstore\n    /* \"#utility.yul\":2001:2054   */\n  pop\n  pop\n  jump\t// out\n    /* \"#utility.yul\":2060:2178   */\ntag_74:\n    /* \"#utility.yul\":2147:2171   */\n  tag_76\n    /* \"#utility.yul\":2165:2170   */\n  dup2\n    /* \"#utility.yul\":2147:2171   */\n  tag_77\n  jump\t// in\ntag_76:\n    /* \"#utility.yul\":2142:2145   */\n  dup3\n    /* \"#utility.yul\":2135:2172   */\n  mstore\n    /* \"#utility.yul\":2125:2178   */\n  pop\n  pop\n  jump\t// out\n    /* \"#utility.yul\":2206:3055   */\ntag_78:\n  0x00\n    /* \"#utility.yul\":2348:2353   */\n  dup2\n    /* \"#utility.yul\":2342:2354   */\n  sload\n    /* \"#utility.yul\":2377:2413   */\n  tag_80\n    /* \"#utility.yul\":2403:2412   */\n  dup2\n    /* \"#utility.yul\":2377:2413   */\n  tag_30\n  jump\t// in\ntag_80:\n    /* \"#utility.yul\":2429:2517   */\n  tag_81\n    /* \"#utility.yul\":2510:2516   */\n  dup2\n    /* \"#utility.yul\":2505:2508   */\n  dup7\n    /* \"#utility.yul\":2429:2517   */\n  tag_82\n  jump\t// in\ntag_81:\n    /* \"#utility.yul\":2422:2517   */\n  swap5\n  pop\n    /* \"#utility.yul\":2548:2549   */\n  0x01\n    /* \"#utility.yul\":2537:2546   */\n  dup3\n    /* \"#utility.yul\":2533:2550   */\n  and\n    /* \"#utility.yul\":2564:2565   */\n  0x00\n    /* \"#utility.yul\":2559:2696   */\n  dup2\n  eq\n  tag_84\n  jumpi\n    /* \"#utility.yul\":2710:2711   */\n  0x01\n    /* \"#utility.yul\":2705:3049   */\n  dup2\n  eq\n  tag_85\n  jumpi\n    /* \"#utility.yul\":2526:3049   */\n  jump(tag_83)\n    /* \"#utility.yul\":2559:2696   */\ntag_84:\n    /* \"#utility.yul\":2643:2647   */\n  0xff\n    /* \"#utility.yul\":2639:2648   */\n  not\n    /* \"#utility.yul\":2628:2637   */\n  dup4\n    /* \"#utility.yul\":2624:2649   */\n  and\n    /* \"#utility.yul\":2619:2622   */\n  dup7\n    /* \"#utility.yul\":2612:2650   */\n  mstore\n    /* \"#utility.yul\":2679:2685   */\n  dup2\n    /* \"#utility.yul\":2674:2677   */\n  dup7\n    /* \"#utility.yul\":2670:2686   */\n  add\n    /* \"#utility.yul\":2663:2686   */\n  swap4\n  pop\n    /* \"#utility.yul\":2559:2696   */\n  jump(tag_83)\n    /* \"#utility.yul\":2705:3049   */\ntag_85:\n    /* \"#utility.yul\":2772:2813   */\n  tag_86\n    /* \"#utility.yul\":2807:2812   */\n  dup6\n    /* \"#utility.yul\":2772:2813   */\n  tag_87\n  jump\t// in\ntag_86:\n    /* \"#utility.yul\":2835:2836   */\n  0x00\n    /* \"#utility.yul\":2849:3003   */\ntag_88:\n    /* \"#utility.yul\":2863:2869   */\n  dup4\n    /* \"#utility.yul\":2860:2861   */\n  dup2\n    /* \"#utility.yul\":2857:2870   */\n  lt\n    /* \"#utility.yul\":2849:3003   */\n  iszero\n  tag_90\n  jumpi\n    /* \"#utility.yul\":2937:2944   */\n  dup2\n    /* \"#utility.yul\":2931:2945   */\n  sload\n    /* \"#utility.yul\":2927:2928   */\n  dup2\n    /* \"#utility.yul\":2922:2925   */\n  dup10\n    /* \"#utility.yul\":2918:2929   */\n  add\n    /* \"#utility.yul\":2911:2946   */\n  mstore\n    /* \"#utility.yul\":2987:2988   */\n  0x01\n    /* \"#utility.yul\":2978:2985   */\n  dup3\n    /* \"#utility.yul\":2974:2989   */\n  add\n    /* \"#utility.yul\":2963:2989   */\n  swap2\n  pop\n    /* \"#utility.yul\":2885:2889   */\n  0x20\n    /* \"#utility.yul\":2882:2883   */\n  dup2\n    /* \"#utility.yul\":2878:2890   */\n  add\n    /* \"#utility.yul\":2873:2890   */\n  swap1\n  pop\n    /* \"#utility.yul\":2849:3003   */\n  jump(tag_88)\ntag_90:\n    /* \"#utility.yul\":3032:3038   */\n  dup4\n    /* \"#utility.yul\":3027:3030   */\n  dup9\n    /* \"#utility.yul\":3023:3039   */\n  add\n    /* \"#utility.yul\":3016:3039   */\n  swap6\n  pop\n    /* \"#utility.yul\":2712:3049   */\n  pop\n  pop\n    /* \"#utility.yul\":2526:3049   */\ntag_83:\n  pop\n    /* \"#utility.yul\":2315:3055   */\n  pop\n  pop\n  swap3\n  swap2\n  pop\n  pop\n  jump\t// out\n    /* \"#utility.yul\":3061:3427   */\ntag_91:\n  0x00\n    /* \"#utility.yul\":3224:3291   */\n  tag_93\n    /* \"#utility.yul\":3288:3290   */\n  0x1f\n    /* \"#utility.yul\":3283:3286   */\n  dup4\n    /* \"#utility.yul\":3224:3291   */\n  tag_94\n  jump\t// in\ntag_93:\n    /* \"#utility.yul\":3217:3291   */\n  swap2\n  pop\n    /* \"#utility.yul\":3300:3393   */\n  tag_95\n    /* \"#utility.yul\":3389:3392   */\n  dup3\n    /* \"#utility.yul\":3300:3393   */\n  tag_96\n  jump\t// in\ntag_95:\n    /* \"#utility.yul\":3418:3420   */\n  0x20\n    /* \"#utility.yul\":3413:3416   */\n  dup3\n    /* \"#utility.yul\":3409:3421   */\n  add\n    /* \"#utility.yul\":3402:3421   */\n  swap1\n  pop\n    /* \"#utility.yul\":3207:3427   */\n  swap2\n  swap1\n  pop\n  jump\t// out\n    /* \"#utility.yul\":3433:3551   */\ntag_97:\n    /* \"#utility.yul\":3520:3544   */\n  tag_99\n    /* \"#utility.yul\":3538:3543   */\n  dup2\n    /* \"#utility.yul\":3520:3544   */\n  tag_100\n  jump\t// in\ntag_99:\n    /* \"#utility.yul\":3515:3518   */\n  dup3\n    /* \"#utility.yul\":3508:3545   */\n  mstore\n    /* \"#utility.yul\":3498:3551   */\n  pop\n  pop\n  jump\t// out\n    /* \"#utility.yul\":3557:3830   */\ntag_16:\n  0x00\n    /* \"#utility.yul\":3710:3804   */\n  tag_102\n    /* \"#utility.yul\":3800:3803   */\n  dup3\n    /* \"#utility.yul\":3791:3797   */\n  dup5\n    /* \"#utility.yul\":3710:3804   */\n  tag_78\n  jump\t// in\ntag_102:\n    /* \"#utility.yul\":3703:3804   */\n  swap2\n  pop\n    /* \"#utility.yul\":3821:3824   */\n  dup2\n    /* \"#utility.yul\":3814:3824   */\n  swap1\n  pop\n    /* \"#utility.yul\":3692:3830   */\n  swap3\n  swap2\n  pop\n  pop\n  jump\t// out\n    /* \"#utility.yul\":3836:4500   */\ntag_18:\n  0x00\n    /* \"#utility.yul\":4079:4082   */\n  0xa0\n    /* \"#utility.yul\":4068:4077   */\n  dup3\n    /* \"#utility.yul\":4064:4083   */\n  add\n    /* \"#utility.yul\":4056:4083   */\n  swap1\n  pop\n    /* \"#utility.yul\":4093:4164   */\n  tag_104\n    /* \"#utility.yul\":4161:4162   */\n  0x00\n    /* \"#utility.yul\":4150:4159   */\n  dup4\n    /* \"#utility.yul\":4146:4163   */\n  add\n    /* \"#utility.yul\":4137:4143   */\n  dup9\n    /* \"#utility.yul\":4093:4164   */\n  tag_74\n  jump\t// in\ntag_104:\n    /* \"#utility.yul\":4174:4246   */\n  tag_105\n    /* \"#utility.yul\":4242:4244   */\n  0x20\n    /* \"#utility.yul\":4231:4240   */\n  dup4\n    /* \"#utility.yul\":4227:4245   */\n  add\n    /* \"#utility.yul\":4218:4224   */\n  dup8\n    /* \"#utility.yul\":4174:4246   */\n  tag_74\n  jump\t// in\ntag_105:\n    /* \"#utility.yul\":4256:4328   */\n  tag_106\n    /* \"#utility.yul\":4324:4326   */\n  0x40\n    /* \"#utility.yul\":4313:4322   */\n  dup4\n    /* \"#utility.yul\":4309:4327   */\n  add\n    /* \"#utility.yul\":4300:4306   */\n  dup7\n    /* \"#utility.yul\":4256:4328   */\n  tag_74\n  jump\t// in\ntag_106:\n    /* \"#utility.yul\":4338:4410   */\n  tag_107\n    /* \"#utility.yul\":4406:4408   */\n  0x60\n    /* \"#utility.yul\":4395:4404   */\n  dup4\n    /* \"#utility.yul\":4391:4409   */\n  add\n    /* \"#utility.yul\":4382:4388   */\n  dup6\n    /* \"#utility.yul\":4338:4410   */\n  tag_97\n  jump\t// in\ntag_107:\n    /* \"#utility.yul\":4420:4493   */\n  tag_108\n    /* \"#utility.yul\":4488:4491   */\n  0x80\n    /* \"#utility.yul\":4477:4486   */\n  dup4\n    /* \"#utility.yul\":4473:4492   */\n  add\n    /* \"#utility.yul\":4464:4470   */\n  dup5\n    /* \"#utility.yul\":4420:4493   */\n  tag_70\n  jump\t// in\ntag_108:\n    /* \"#utility.yul\":4046:4500   */\n  swap7\n  swap6\n  pop\n  pop\n  pop\n  pop\n  pop\n  pop\n  jump\t// out\n    /* \"#utility.yul\":4506:4925   */\ntag_23:\n  0x00\n    /* \"#utility.yul\":4710:4712   */\n  0x20\n    /* \"#utility.yul\":4699:4708   */\n  dup3\n    /* \"#utility.yul\":4695:4713   */\n  add\n    /* \"#utility.yul\":4687:4713   */\n  swap1\n  pop\n    /* \"#utility.yul\":4759:4768   */\n  dup2\n    /* \"#utility.yul\":4753:4757   */\n  dup2\n    /* \"#utility.yul\":4749:4769   */\n  sub\n    /* \"#utility.yul\":4745:4746   */\n  0x00\n    /* \"#utility.yul\":4734:4743   */\n  dup4\n    /* \"#utility.yul\":4730:4747   */\n  add\n    /* \"#utility.yul\":4723:4770   */\n  mstore\n    /* \"#utility.yul\":4787:4918   */\n  tag_110\n    /* \"#utility.yul\":4913:4917   */\n  dup2\n    /* \"#utility.yul\":4787:4918   */\n  tag_91\n  jump\t// in\ntag_110:\n    /* \"#utility.yul\":4779:4918   */\n  swap1\n  pop\n    /* \"#utility.yul\":4677:4925   */\n  swap2\n  swap1\n  pop\n  jump\t// out\n    /* \"#utility.yul\":4931:5153   */\ntag_28:\n  0x00\n    /* \"#utility.yul\":5062:5064   */\n  0x20\n    /* \"#utility.yul\":5051:5060   */\n  dup3\n    /* \"#utility.yul\":5047:5065   */\n  add\n    /* \"#utility.yul\":5039:5065   */\n  swap1\n  pop\n    /* \"#utility.yul\":5075:5146   */\n  tag_112\n    /* \"#utility.yul\":5143:5144   */\n  0x00\n    /* \"#utility.yul\":5132:5141   */\n  dup4\n    /* \"#utility.yul\":5128:5145   */\n  add\n    /* \"#utility.yul\":5119:5125   */\n  dup5\n    /* \"#utility.yul\":5075:5146   */\n  tag_97\n  jump\t// in\ntag_112:\n    /* \"#utility.yul\":5029:5153   */\n  swap3\n  swap2\n  pop\n  pop\n  jump\t// out\n    /* \"#utility.yul\":5159:5288   */\ntag_46:\n  0x00\n    /* \"#utility.yul\":5220:5240   */\n  tag_114\n  tag_115\n  jump\t// in\ntag_114:\n    /* \"#utility.yul\":5210:5240   */\n  swap1\n  pop\n    /* \"#utility.yul\":5249:5282   */\n  tag_116\n    /* \"#utility.yul\":5277:5281   */\n  dup3\n    /* \"#utility.yul\":5269:5275   */\n  dup3\n    /* \"#utility.yul\":5249:5282   */\n  tag_117\n  jump\t// in\ntag_116:\n    /* \"#utility.yul\":5200:5288   */\n  swap2\n  swap1\n  pop\n  jump\t// out\n    /* \"#utility.yul\":5294:5369   */\ntag_115:\n  0x00\n    /* \"#utility.yul\":5360:5362   */\n  0x40\n    /* \"#utility.yul\":5354:5363   */\n  mload\n    /* \"#utility.yul\":5344:5363   */\n  swap1\n  pop\n    /* \"#utility.yul\":5334:5369   */\n  swap1\n  jump\t// out\n    /* \"#utility.yul\":5375:5683   */\ntag_45:\n  0x00\n    /* \"#utility.yul\":5527:5545   */\n  0xffffffffffffffff\n    /* \"#utility.yul\":5519:5525   */\n  dup3\n    /* \"#utility.yul\":5516:5546   */\n  gt\n    /* \"#utility.yul\":5513:5515   */\n  iszero\n  tag_120\n  jumpi\n    /* \"#utility.yul\":5549:5567   */\n  tag_121\n  tag_122\n  jump\t// in\ntag_121:\n    /* \"#utility.yul\":5513:5515   */\ntag_120:\n    /* \"#utility.yul\":5587:5616   */\n  tag_123\n    /* \"#utility.yul\":5609:5615   */\n  dup3\n    /* \"#utility.yul\":5587:5616   */\n  tag_124\n  jump\t// in\ntag_123:\n    /* \"#utility.yul\":5579:5616   */\n  swap1\n  pop\n    /* \"#utility.yul\":5671:5675   */\n  0x20\n    /* \"#utility.yul\":5665:5669   */\n  dup2\n    /* \"#utility.yul\":5661:5676   */\n  add\n    /* \"#utility.yul\":5653:5676   */\n  swap1\n  pop\n    /* \"#utility.yul\":5442:5683   */\n  swap2\n  swap1\n  pop\n  jump\t// out\n    /* \"#utility.yul\":5689:5833   */\ntag_87:\n  0x00\n    /* \"#utility.yul\":5764:5767   */\n  dup2\n    /* \"#utility.yul\":5756:5767   */\n  swap1\n  pop\n    /* \"#utility.yul\":5787:5790   */\n  dup2\n    /* \"#utility.yul\":5784:5785   */\n  0x00\n    /* \"#utility.yul\":5777:5791   */\n  mstore\n    /* \"#utility.yul\":5821:5825   */\n  0x20\n    /* \"#utility.yul\":5818:5819   */\n  0x00\n    /* \"#utility.yul\":5808:5826   */\n  keccak256\n    /* \"#utility.yul\":5800:5826   */\n  swap1\n  pop\n    /* \"#utility.yul\":5746:5833   */\n  swap2\n  swap1\n  pop\n  jump\t// out\n    /* \"#utility.yul\":5839:5986   */\ntag_82:\n  0x00\n    /* \"#utility.yul\":5977:5980   */\n  dup2\n    /* \"#utility.yul\":5962:5980   */\n  swap1\n  pop\n    /* \"#utility.yul\":5952:5986   */\n  swap3\n  swap2\n  pop\n  pop\n  jump\t// out\n    /* \"#utility.yul\":5992:6161   */\ntag_94:\n  0x00\n    /* \"#utility.yul\":6110:6116   */\n  dup3\n    /* \"#utility.yul\":6105:6108   */\n  dup3\n    /* \"#utility.yul\":6098:6117   */\n  mstore\n    /* \"#utility.yul\":6150:6154   */\n  0x20\n    /* \"#utility.yul\":6145:6148   */\n  dup3\n    /* \"#utility.yul\":6141:6155   */\n  add\n    /* \"#utility.yul\":6126:6155   */\n  swap1\n  pop\n    /* \"#utility.yul\":6088:6161   */\n  swap3\n  swap2\n  pop\n  pop\n  jump\t// out\n    /* \"#utility.yul\":6167:6472   */\ntag_25:\n  0x00\n    /* \"#utility.yul\":6226:6246   */\n  tag_129\n    /* \"#utility.yul\":6244:6245   */\n  dup3\n    /* \"#utility.yul\":6226:6246   */\n  tag_100\n  jump\t// in\ntag_129:\n    /* \"#utility.yul\":6221:6246   */\n  swap2\n  pop\n    /* \"#utility.yul\":6260:6280   */\n  tag_130\n    /* \"#utility.yul\":6278:6279   */\n  dup4\n    /* \"#utility.yul\":6260:6280   */\n  tag_100\n  jump\t// in\ntag_130:\n    /* \"#utility.yul\":6255:6280   */\n  swap3\n  pop\n    /* \"#utility.yul\":6414:6415   */\n  dup3\n    /* \"#utility.yul\":6346:6412   */\n  0xffffffffffffffffffffffffffffffffffffffffffffffffffffffffffffffff\n    /* \"#utility.yul\":6342:6416   */\n  sub\n    /* \"#utility.yul\":6339:6340   */\n  dup3\n    /* \"#utility.yul\":6336:6417   */\n  gt\n    /* \"#utility.yul\":6333:6335   */\n  iszero\n  tag_131\n  jumpi\n    /* \"#utility.yul\":6420:6438   */\n  tag_132\n  tag_133\n  jump\t// in\ntag_132:\n    /* \"#utility.yul\":6333:6335   */\ntag_131:\n    /* \"#utility.yul\":6464:6465   */\n  dup3\n    /* \"#utility.yul\":6461:6462   */\n  dup3\n    /* \"#utility.yul\":6457:6466   */\n  add\n    /* \"#utility.yul\":6450:6466   */\n  swap1\n  pop\n    /* \"#utility.yul\":6211:6472   */\n  swap3\n  swap2\n  pop\n  pop\n  jump\t// out\n    /* \"#utility.yul\":6478:7326   */\ntag_134:\n  0x00\n  dup1\n    /* \"#utility.yul\":6570:6576   */\n  dup3\n    /* \"#utility.yul\":6561:6576   */\n  swap2\n  pop\n    /* \"#utility.yul\":6594:6599   */\n  dup4\n    /* \"#utility.yul\":6585:6599   */\n  swap1\n  pop\n    /* \"#utility.yul\":6608:7320   */\ntag_136:\n    /* \"#utility.yul\":6629:6630   */\n  0x01\n    /* \"#utility.yul\":6619:6627   */\n  dup6\n    /* \"#utility.yul\":6616:6631   */\n  gt\n    /* \"#utility.yul\":6608:7320   */\n  iszero\n  tag_138\n  jumpi\n    /* \"#utility.yul\":6724:6728   */\n  dup1\n    /* \"#utility.yul\":6719:6722   */\n  dup7\n    /* \"#utility.yul\":6715:6729   */\n  div\n    /* \"#utility.yul\":6709:6713   */\n  dup2\n    /* \"#utility.yul\":6706:6730   */\n  gt\n    /* \"#utility.yul\":6703:6705   */\n  iszero\n  tag_139\n  jumpi\n    /* \"#utility.yul\":6733:6751   */\n  tag_140\n  tag_133\n  jump\t// in\ntag_140:\n    /* \"#utility.yul\":6703:6705   */\ntag_139:\n    /* \"#utility.yul\":6783:6784   */\n  0x01\n    /* \"#utility.yul\":6773:6781   */\n  dup6\n    /* \"#utility.yul\":6769:6785   */\n  and\n    /* \"#utility.yul\":6766:6768   */\n  iszero\n  tag_141\n  jumpi\n    /* \"#utility.yul\":7198:7202   */\n  dup1\n    /* \"#utility.yul\":7191:7196   */\n  dup3\n    /* \"#utility.yul\":7187:7203   */\n  mul\n    /* \"#utility.yul\":7178:7203   */\n  swap2\n  pop\n    /* \"#utility.yul\":6766:6768   */\ntag_141:\n    /* \"#utility.yul\":7248:7252   */\n  dup1\n    /* \"#utility.yul\":7242:7246   */\n  dup2\n    /* \"#utility.yul\":7238:7253   */\n  mul\n    /* \"#utility.yul\":7230:7253   */\n  swap1\n  pop\n    /* \"#utility.yul\":7278:7310   */\n  tag_142\n    /* \"#utility.yul\":7301:7309   */\n  dup6\n    /* \"#utility.yul\":7278:7310   */\n  tag_143\n  jump\t// in\ntag_142:\n    /* \"#utility.yul\":7266:7310   */\n  swap5\n  pop\n    /* \"#utility.yul\":6608:7320   */\n  jump(tag_136)\ntag_138:\n    /* \"#utility.yul\":6551:7326   */\n  swap5\n  pop\n  swap5\n  swap3\n  pop\n  pop\n  pop\n  jump\t// out\n    /* \"#utility.yul\":7332:7617   */\ntag_10:\n  0x00\n    /* \"#utility.yul\":7416:7439   */\n  tag_145\n    /* \"#utility.yul\":7434:7438   */\n  dup3\n    /* \"#utility.yul\":7416:7439   */\n  tag_100\n  jump\t// in\ntag_145:\n    /* \"#utility.yul\":7408:7439   */\n  swap2\n  pop\n    /* \"#utility.yul\":7460:7487   */\n  tag_146\n    /* \"#utility.yul\":7478:7486   */\n  dup4\n    /* \"#utility.yul\":7460:7487   */\n  tag_100\n  jump\t// in\ntag_146:\n    /* \"#utility.yul\":7448:7487   */\n  swap3\n  pop\n    /* \"#utility.yul\":7506:7610   */\n  tag_147\n    /* \"#utility.yul\":7543:7609   */\n  0xffffffffffffffffffffffffffffffffffffffffffffffffffffffffffffffff\n    /* \"#utility.yul\":7533:7541   */\n  dup5\n    /* \"#utility.yul\":7527:7531   */\n  dup5\n    /* \"#utility.yul\":7506:7610   */\n  tag_148\n  jump\t// in\ntag_147:\n    /* \"#utility.yul\":7497:7610   */\n  swap1\n  pop\n    /* \"#utility.yul\":7398:7617   */\n  swap3\n  swap2\n  pop\n  pop\n  jump\t// out\n    /* \"#utility.yul\":7623:8696   */\ntag_148:\n  0x00\n    /* \"#utility.yul\":7868:7876   */\n  dup3\n    /* \"#utility.yul\":7858:7860   */\n  tag_150\n  jumpi\n    /* \"#utility.yul\":7889:7890   */\n  0x01\n    /* \"#utility.yul\":7880:7890   */\n  swap1\n  pop\n    /* \"#utility.yul\":7891:7896   */\n  jump(tag_149)\n    /* \"#utility.yul\":7858:7860   */\ntag_150:\n    /* \"#utility.yul\":7917:7921   */\n  dup2\n    /* \"#utility.yul\":7907:7909   */\n  tag_151\n  jumpi\n    /* \"#utility.yul\":7934:7935   */\n  0x00\n    /* \"#utility.yul\":7925:7935   */\n  swap1\n  pop\n    /* \"#utility.yul\":7936:7941   */\n  jump(tag_149)\n    /* \"#utility.yul\":7907:7909   */\ntag_151:\n    /* \"#utility.yul\":8003:8007   */\n  dup2\n    /* \"#utility.yul\":8051:8052   */\n  0x01\n    /* \"#utility.yul\":8046:8073   */\n  dup2\n  eq\n  tag_153\n  jumpi\n    /* \"#utility.yul\":8087:8088   */\n  0x02\n    /* \"#utility.yul\":8082:8273   */\n  dup2\n  eq\n  tag_154\n  jumpi\n    /* \"#utility.yul\":7996:8273   */\n  jump(tag_152)\n    /* \"#utility.yul\":8046:8073   */\ntag_153:\n    /* \"#utility.yul\":8064:8065   */\n  0x01\n    /* \"#utility.yul\":8055:8065   */\n  swap2\n  pop\n    /* \"#utility.yul\":8066:8071   */\n  pop\n  jump(tag_149)\n    /* \"#utility.yul\":8082:8273   */\ntag_154:\n    /* \"#utility.yul\":8127:8130   */\n  0xff\n    /* \"#utility.yul\":8117:8125   */\n  dup5\n    /* \"#utility.yul\":8114:8131   */\n  gt\n    /* \"#utility.yul\":8111:8113   */\n  iszero\n  tag_155\n  jumpi\n    /* \"#utility.yul\":8134:8152   */\n  tag_156\n  tag_133\n  jump\t// in\ntag_156:\n    /* \"#utility.yul\":8111:8113   */\ntag_155:\n    /* \"#utility.yul\":8183:8191   */\n  dup4\n    /* \"#utility.yul\":8180:8181   */\n  0x02\n    /* \"#utility.yul\":8176:8192   */\n  exp\n    /* \"#utility.yul\":8167:8192   */\n  swap2\n  pop\n    /* \"#utility.yul\":8218:8221   */\n  dup5\n    /* \"#utility.yul\":8211:8216   */\n  dup3\n    /* \"#utility.yul\":8208:8222   */\n  gt\n    /* \"#utility.yul\":8205:8207   */\n  iszero\n  tag_157\n  jumpi\n    /* \"#utility.yul\":8225:8243   */\n  tag_158\n  tag_133\n  jump\t// in\ntag_158:\n    /* \"#utility.yul\":8205:8207   */\ntag_157:\n    /* \"#utility.yul\":8258:8263   */\n  pop\n  jump(tag_149)\n    /* \"#utility.yul\":7996:8273   */\ntag_152:\n  pop\n    /* \"#utility.yul\":8382:8384   */\n  0x20\n    /* \"#utility.yul\":8372:8380   */\n  dup4\n    /* \"#utility.yul\":8369:8385   */\n  lt\n    /* \"#utility.yul\":8363:8366   */\n  0x0133\n    /* \"#utility.yul\":8357:8361   */\n  dup4\n    /* \"#utility.yul\":8354:8367   */\n  lt\n    /* \"#utility.yul\":8350:8386   */\n  and\n    /* \"#utility.yul\":8332:8334   */\n  0x4e\n    /* \"#utility.yul\":8322:8330   */\n  dup5\n    /* \"#utility.yul\":8319:8335   */\n  lt\n    /* \"#utility.yul\":8314:8316   */\n  0x0b\n    /* \"#utility.yul\":8308:8312   */\n  dup5\n    /* \"#utility.yul\":8305:8317   */\n  lt\n    /* \"#utility.yul\":8301:8336   */\n  and\n    /* \"#utility.yul\":8285:8396   */\n  or\n    /* \"#utility.yul\":8282:8284   */\n  iszero\n  tag_159\n  jumpi\n    /* \"#utility.yul\":8438:8446   */\n  dup3\n    /* \"#utility.yul\":8432:8436   */\n  dup3\n    /* \"#utility.yul\":8428:8447   */\n  exp\n    /* \"#utility.yul\":8419:8447   */\n  swap1\n  pop\n    /* \"#utility.yul\":8473:8476   */\n  dup4\n    /* \"#utility.yul\":8466:8471   */\n  dup2\n    /* \"#utility.yul\":8463:8477   */\n  gt\n    /* \"#utility.yul\":8460:8462   */\n  iszero\n  tag_160\n  jumpi\n    /* \"#utility.yul\":8480:8498   */\n  tag_161\n  tag_133\n  jump\t// in\ntag_161:\n    /* \"#utility.yul\":8460:8462   */\ntag_160:\n    /* \"#utility.yul\":8513:8518   */\n  jump(tag_149)\n    /* \"#utility.yul\":8282:8284   */\ntag_159:\n    /* \"#utility.yul\":8553:8595   */\n  tag_162\n    /* \"#utility.yul\":8591:8594   */\n  dup5\n    /* \"#utility.yul\":8581:8589   */\n  dup5\n    /* \"#utility.yul\":8575:8579   */\n  dup5\n    /* \"#utility.yul\":8572:8573   */\n  0x01\n    /* \"#utility.yul\":8553:8595   */\n  tag_134\n  jump\t// in\ntag_162:\n    /* \"#utility.yul\":8538:8595   */\n  swap3\n  pop\n  swap1\n  pop\n    /* \"#utility.yul\":8627:8631   */\n  dup2\n    /* \"#utility.yul\":8622:8625   */\n  dup5\n    /* \"#utility.yul\":8618:8632   */\n  div\n    /* \"#utility.yul\":8611:8616   */\n  dup2\n    /* \"#utility.yul\":8608:8633   */\n  gt\n    /* \"#utility.yul\":8605:8607   */\n  iszero\n  tag_163\n  jumpi\n    /* \"#utility.yul\":8636:8654   */\n  tag_164\n  tag_133\n  jump\t// in\ntag_164:\n    /* \"#utility.yul\":8605:8607   */\ntag_163:\n    /* \"#utility.yul\":8685:8689   */\n  dup2\n    /* \"#utility.yul\":8678:8683   */\n  dup2\n    /* \"#utility.yul\":8674:8690   */\n  mul\n    /* \"#utility.yul\":8665:8690   */\n  swap1\n  pop\n    /* \"#utility.yul\":7683:8696   */\ntag_149:\n  swap4\n  swap3\n  pop\n  pop\n  pop\n  jump\t// out\n    /* \"#utility.yul\":8702:9050   */\ntag_12:\n  0x00\n    /* \"#utility.yul\":8765:8785   */\n  tag_166\n    /* \"#utility.yul\":8783:8784   */\n  dup3\n    /* \"#utility.yul\":8765:8785   */\n  tag_100\n  jump\t// in\ntag_166:\n    /* \"#utility.yul\":8760:8785   */\n  swap2\n  pop\n    /* \"#utility.yul\":8799:8819   */\n  tag_167\n    /* \"#utility.yul\":8817:8818   */\n  dup4\n    /* \"#utility.yul\":8799:8819   */\n  tag_100\n  jump\t// in\ntag_167:\n    /* \"#utility.yul\":8794:8819   */\n  swap3\n  pop\n    /* \"#utility.yul\":8987:8988   */\n  dup2\n    /* \"#utility.yul\":8919:8985   */\n  0xffffffffffffffffffffffffffffffffffffffffffffffffffffffffffffffff\n    /* \"#utility.yul\":8915:8989   */\n  div\n    /* \"#utility.yul\":8912:8913   */\n  dup4\n    /* \"#utility.yul\":8909:8990   */\n  gt\n    /* \"#utility.yul\":8904:8905   */\n  dup3\n    /* \"#utility.yul\":8897:8906   */\n  iszero\n    /* \"#utility.yul\":8890:8907   */\n  iszero\n    /* \"#utility.yul\":8886:8991   */\n  and\n    /* \"#utility.yul\":8883:8885   */\n  iszero\n  tag_168\n  jumpi\n    /* \"#utility.yul\":8994:9012   */\n  tag_169\n  tag_133\n  jump\t// in\ntag_169:\n    /* \"#utility.yul\":8883:8885   */\ntag_168:\n    /* \"#utility.yul\":9042:9043   */\n  dup3\n    /* \"#utility.yul\":9039:9040   */\n  dup3\n    /* \"#utility.yul\":9035:9044   */\n  mul\n    /* \"#utility.yul\":9024:9044   */\n  swap1\n  pop\n    /* \"#utility.yul\":8750:9050   */\n  swap3\n  swap2\n  pop\n  pop\n  jump\t// out\n    /* \"#utility.yul\":9056:9152   */\ntag_73:\n  0x00\n    /* \"#utility.yul\":9122:9146   */\n  tag_171\n    /* \"#utility.yul\":9140:9145   */\n  dup3\n    /* \"#utility.yul\":9122:9146   */\n  tag_172\n  jump\t// in\ntag_171:\n    /* \"#utility.yul\":9111:9146   */\n  swap1\n  pop\n    /* \"#utility.yul\":9101:9152   */\n  swap2\n  swap1\n  pop\n  jump\t// out\n    /* \"#utility.yul\":9158:9235   */\ntag_77:\n  0x00\n    /* \"#utility.yul\":9224:9229   */\n  dup2\n    /* \"#utility.yul\":9213:9229   */\n  swap1\n  pop\n    /* \"#utility.yul\":9203:9235   */\n  swap2\n  swap1\n  pop\n  jump\t// out\n    /* \"#utility.yul\":9241:9367   */\ntag_172:\n  0x00\n    /* \"#utility.yul\":9318:9360   */\n  0xffffffffffffffffffffffffffffffffffffffff\n    /* \"#utility.yul\":9311:9316   */\n  dup3\n    /* \"#utility.yul\":9307:9361   */\n  and\n    /* \"#utility.yul\":9296:9361   */\n  swap1\n  pop\n    /* \"#utility.yul\":9286:9367   */\n  swap2\n  swap1\n  pop\n  jump\t// out\n    /* \"#utility.yul\":9373:9450   */\ntag_100:\n  0x00\n    /* \"#utility.yul\":9439:9444   */\n  dup2\n    /* \"#utility.yul\":9428:9444   */\n  swap1\n  pop\n    /* \"#utility.yul\":9418:9450   */\n  swap2\n  swap1\n  pop\n  jump\t// out\n    /* \"#utility.yul\":9456:9542   */\ntag_176:\n  0x00\n    /* \"#utility.yul\":9531:9535   */\n  0xff\n    /* \"#utility.yul\":9524:9529   */\n  dup3\n    /* \"#utility.yul\":9520:9536   */\n  and\n    /* \"#utility.yul\":9509:9536   */\n  swap1\n  pop\n    /* \"#utility.yul\":9499:9542   */\n  swap2\n  swap1\n  pop\n  jump\t// out\n    /* \"#utility.yul\":9548:9855   */\ntag_49:\n    /* \"#utility.yul\":9616:9617   */\n  0x00\n    /* \"#utility.yul\":9626:9739   */\ntag_179:\n    /* \"#utility.yul\":9640:9646   */\n  dup4\n    /* \"#utility.yul\":9637:9638   */\n  dup2\n    /* \"#utility.yul\":9634:9647   */\n  lt\n    /* \"#utility.yul\":9626:9739   */\n  iszero\n  tag_181\n  jumpi\n    /* \"#utility.yul\":9725:9726   */\n  dup1\n    /* \"#utility.yul\":9720:9723   */\n  dup3\n    /* \"#utility.yul\":9716:9727   */\n  add\n    /* \"#utility.yul\":9710:9728   */\n  mload\n    /* \"#utility.yul\":9706:9707   */\n  dup2\n    /* \"#utility.yul\":9701:9704   */\n  dup5\n    /* \"#utility.yul\":9697:9708   */\n  add\n    /* \"#utility.yul\":9690:9729   */\n  mstore\n    /* \"#utility.yul\":9662:9664   */\n  0x20\n    /* \"#utility.yul\":9659:9660   */\n  dup2\n    /* \"#utility.yul\":9655:9665   */\n  add\n    /* \"#utility.yul\":9650:9665   */\n  swap1\n  pop\n    /* \"#utility.yul\":9626:9739   */\n  jump(tag_179)\ntag_181:\n    /* \"#utility.yul\":9757:9763   */\n  dup4\n    /* \"#utility.yul\":9754:9755   */\n  dup2\n    /* \"#utility.yul\":9751:9764   */\n  gt\n    /* \"#utility.yul\":9748:9750   */\n  iszero\n  tag_182\n  jumpi\n    /* \"#utility.yul\":9837:9838   */\n  0x00\n    /* \"#utility.yul\":9828:9834   */\n  dup5\n    /* \"#utility.yul\":9823:9826   */\n  dup5\n    /* \"#utility.yul\":9819:9835   */\n  add\n    /* \"#utility.yul\":9812:9839   */\n  mstore\n    /* \"#utility.yul\":9748:9750   */\ntag_182:\n    /* \"#utility.yul\":9597:9855   */\n  pop\n  pop\n  pop\n  pop\n  jump\t// out\n    /* \"#utility.yul\":9861:10181   */\ntag_30:\n  0x00\n    /* \"#utility.yul\":9942:9943   */\n  0x02\n    /* \"#utility.yul\":9936:9940   */\n  dup3\n    /* \"#utility.yul\":9932:9944   */\n  div\n    /* \"#utility.yul\":9922:9944   */\n  swap1\n  pop\n    /* \"#utility.yul\":9989:9990   */\n  0x01\n    /* \"#utility.yul\":9983:9987   */\n  dup3\n    /* \"#utility.yul\":9979:9991   */\n  and\n    /* \"#utility.yul\":10010:10028   */\n  dup1\n    /* \"#utility.yul\":10000:10002   */\n  tag_184\n  jumpi\n    /* \"#utility.yul\":10066:10070   */\n  0x7f\n    /* \"#utility.yul\":10058:10064   */\n  dup3\n    /* \"#utility.yul\":10054:10071   */\n  and\n    /* \"#utility.yul\":10044:10071   */\n  swap2\n  pop\n    /* \"#utility.yul\":10000:10002   */\ntag_184:\n    /* \"#utility.yul\":10128:10130   */\n  0x20\n    /* \"#utility.yul\":10120:10126   */\n  dup3\n    /* \"#utility.yul\":10117:10131   */\n  lt\n    /* \"#utility.yul\":10097:10115   */\n  dup2\n    /* \"#utility.yul\":10094:10132   */\n  eq\n    /* \"#utility.yul\":10091:10093   */\n  iszero\n  tag_185\n  jumpi\n    /* \"#utility.yul\":10147:10165   */\n  tag_186\n  tag_187\n  jump\t// in\ntag_186:\n    /* \"#utility.yul\":10091:10093   */\ntag_185:\n    /* \"#utility.yul\":9912:10181   */\n  pop\n  swap2\n  swap1\n  pop\n  jump\t// out\n    /* \"#utility.yul\":10187:10468   */\ntag_117:\n    /* \"#utility.yul\":10270:10297   */\n  tag_189\n    /* \"#utility.yul\":10292:10296   */\n  dup3\n    /* \"#utility.yul\":10270:10297   */\n  tag_124\n  jump\t// in\ntag_189:\n    /* \"#utility.yul\":10262:10268   */\n  dup2\n    /* \"#utility.yul\":10258:10298   */\n  add\n    /* \"#utility.yul\":10400:10406   */\n  dup2\n    /* \"#utility.yul\":10388:10398   */\n  dup2\n    /* \"#utility.yul\":10385:10407   */\n  lt\n    /* \"#utility.yul\":10364:10382   */\n  0xffffffffffffffff\n    /* \"#utility.yul\":10352:10362   */\n  dup3\n    /* \"#utility.yul\":10349:10383   */\n  gt\n    /* \"#utility.yul\":10346:10408   */\n  or\n    /* \"#utility.yul\":10343:10345   */\n  iszero\n  tag_190\n  jumpi\n    /* \"#utility.yul\":10411:10429   */\n  tag_191\n  tag_122\n  jump\t// in\ntag_191:\n    /* \"#utility.yul\":10343:10345   */\ntag_190:\n    /* \"#utility.yul\":10451:10461   */\n  dup1\n    /* \"#utility.yul\":10447:10449   */\n  0x40\n    /* \"#utility.yul\":10440:10462   */\n  mstore\n    /* \"#utility.yul\":10230:10468   */\n  pop\n  pop\n  pop\n  jump\t// out\n    /* \"#utility.yul\":10474:10654   */\ntag_133:\n    /* \"#utility.yul\":10522:10599   */\n  0x4e487b7100000000000000000000000000000000000000000000000000000000\n    /* \"#utility.yul\":10519:10520   */\n  0x00\n    /* \"#utility.yul\":10512:10600   */\n  mstore\n    /* \"#utility.yul\":10619:10623   */\n  0x11\n    /* \"#utility.yul\":10616:10617   */\n  0x04\n    /* \"#utility.yul\":10609:10624   */\n  mstore\n    /* \"#utility.yul\":10643:10647   */\n  0x24\n    /* \"#utility.yul\":10640:10641   */\n  0x00\n    /* \"#utility.yul\":10633:10648   */\n  revert\n    /* \"#utility.yul\":10660:10840   */\ntag_187:\n    /* \"#utility.yul\":10708:10785   */\n  0x4e487b7100000000000000000000000000000000000000000000000000000000\n    /* \"#utility.yul\":10705:10706   */\n  0x00\n    /* \"#utility.yul\":10698:10786   */\n  mstore\n    /* \"#utility.yul\":10805:10809   */\n  0x22\n    /* \"#utility.yul\":10802:10803   */\n  0x04\n    /* \"#utility.yul\":10795:10810   */\n  mstore\n    /* \"#utility.yul\":10829:10833   */\n  0x24\n    /* \"#utility.yul\":10826:10827   */\n  0x00\n    /* \"#utility.yul\":10819:10834   */\n  revert\n    /* \"#utility.yul\":10846:11026   */\ntag_122:\n    /* \"#utility.yul\":10894:10971   */\n  0x4e487b7100000000000000000000000000000000000000000000000000000000\n    /* \"#utility.yul\":10891:10892   */\n  0x00\n    /* \"#utility.yul\":10884:10972   */\n  mstore\n    /* \"#utility.yul\":10991:10995   */\n  0x41\n    /* \"#utility.yul\":10988:10989   */\n  0x04\n    /* \"#utility.yul\":10981:10996   */\n  mstore\n    /* \"#utility.yul\":11015:11019   */\n  0x24\n    /* \"#utility.yul\":11012:11013   */\n  0x00\n    /* \"#utility.yul\":11005:11020   */\n  revert\n    /* \"#utility.yul\":11032:11134   */\ntag_124:\n  0x00\n    /* \"#utility.yul\":11124:11126   */\n  0x1f\n    /* \"#utility.yul\":11120:11127   */\n  not\n    /* \"#utility.yul\":11115:11117   */\n  0x1f\n    /* \"#utility.yul\":11108:11113   */\n  dup4\n    /* \"#utility.yul\":11104:11118   */\n  add\n    /* \"#utility.yul\":11100:11128   */\n  and\n    /* \"#utility.yul\":11090:11128   */\n  swap1\n  pop\n    /* \"#utility.yul\":11080:11134   */\n  swap2\n  swap1\n  pop\n  jump\t// out\n    /* \"#utility.yul\":11140:11242   */\ntag_143:\n  0x00\n    /* \"#utility.yul\":11229:11234   */\n  dup2\n    /* \"#utility.yul\":11226:11227   */\n  0x01\n    /* \"#utility.yul\":11222:11235   */\n  shr\n    /* \"#utility.yul\":11201:11235   */\n  swap1\n  pop\n    /* \"#utility.yul\":11191:11242   */\n  swap2\n  swap1\n  pop\n  jump\t// out\n    /* \"#utility.yul\":11248:11429   */\ntag_96:\n    /* \"#utility.yul\":11388:11421   */\n  0x45524332303a206d696e7420746f20746865207a65726f206164647265737300\n    /* \"#utility.yul\":11384:11385   */\n  0x00\n    /* \"#utility.yul\":11376:11382   */\n  dup3\n    /* \"#utility.yul\":11372:11386   */\n  add\n    /* \"#utility.yul\":11365:11422   */\n  mstore\n    /* \"#utility.yul\":11354:11429   */\n  pop\n  jump\t// out\n    /* \"#utility.yul\":11435:11557   */\ntag_53:\n    /* \"#utility.yul\":11508:11532   */\n  tag_199\n    /* \"#utility.yul\":11526:11531   */\n  dup2\n    /* \"#utility.yul\":11508:11532   */\n  tag_73\n  jump\t// in\ntag_199:\n    /* \"#utility.yul\":11501:11506   */\n  dup2\n    /* \"#utility.yul\":11498:11533   */\n  eq\n    /* \"#utility.yul\":11488:11490   */\n  tag_200\n  jumpi\n    /* \"#utility.yul\":11547:11548   */\n  0x00\n    /* \"#utility.yul\":11544:11545   */\n  dup1\n    /* \"#utility.yul\":11537:11549   */\n  revert\n    /* \"#utility.yul\":11488:11490   */\ntag_200:\n    /* \"#utility.yul\":11478:11557   */\n  pop\n  jump\t// out\n    /* \"#utility.yul\":11563:11681   */\ntag_61:\n    /* \"#utility.yul\":11634:11656   */\n  tag_202\n    /* \"#utility.yul\":11650:11655   */\n  dup2\n    /* \"#utility.yul\":11634:11656   */\n  tag_176\n  jump\t// in\ntag_202:\n    /* \"#utility.yul\":11627:11632   */\n  dup2\n    /* \"#utility.yul\":11624:11657   */\n  eq\n    /* \"#utility.yul\":11614:11616   */\n  tag_203\n  jumpi\n    /* \"#utility.yul\":11671:11672   */\n  0x00\n    /* \"#utility.yul\":11668:11669   */\n  dup1\n    /* \"#utility.yul\":11661:11673   */\n  revert\n    /* \"#utility.yul\":11614:11616   */\ntag_203:\n    /* \"#utility.yul\":11604:11681   */\n  pop\n  jump\t// out\n    /* \"Rizo.sol\":8478:21617  contract Rizo is IWERC10 {... */\ntag_19:\n  shr(0xf8, mload(0x80))\n  mload(0xa0)\n  codecopy(0x00, dataOffset(sub_0), dataSize(sub_0))\n  0x00\n  assignImmutable(\"0x4eede269e0c53dc1774f9d2bc345d511093ea6f1ea5cfde86bf50918a800577d\")\n  0x00\n  assignImmutable(\"0xb67a880983cc792f456e97ad17b77e65412bfac33ee1a51a8da6db6a76c94155\")\n  return(0x00, dataSize(sub_0))\nstop\n\nsub_0: assembly {\n        /* \"Rizo.sol\":8478:21617  contract Rizo is IWERC10 {... */\n      mstore(0x40, 0x80)\n      callvalue\n      dup1\n      iszero\n      tag_1\n      jumpi\n      0x00\n      dup1\n      revert\n    tag_1:\n      pop\n      jumpi(tag_2, lt(calldatasize, 0x04))\n      shr(0xe0, calldataload(0x00))\n      dup1\n      0x628d6cba\n      gt\n      tag_24\n      jumpi\n      dup1\n      0xa9059cbb\n      gt\n      tag_25\n      jumpi\n      dup1\n      0xa9059cbb\n      eq\n      tag_18\n      jumpi\n      dup1\n      0xb524f3a5\n      eq\n      tag_19\n      jumpi\n      dup1\n      0xcae9ca51\n      eq\n      tag_20\n      jumpi\n      dup1\n      0xd505accf\n      eq\n      tag_21\n      jumpi\n      dup1\n      0xdd62ed3e\n      eq\n      tag_22\n      jumpi\n      dup1\n      0xec126c77\n      eq\n      tag_23\n      jumpi\n      jump(tag_2)\n    tag_25:\n      dup1\n      0x628d6cba\n      eq\n      tag_13\n      jumpi\n      dup1\n      0x70a08231\n      eq\n      tag_14\n      jumpi\n      dup1\n      0x7ecebe00\n      eq\n      tag_15\n      jumpi\n      dup1\n      0x8da5cb5b\n      eq\n      tag_16\n      jumpi\n      dup1\n      0x95d89b41\n      eq\n      tag_17\n      jumpi\n      jump(tag_2)\n    tag_24:\n      dup1\n      0x30adf81f\n      gt\n      tag_26\n      jumpi\n      dup1\n      0x30adf81f\n      eq\n      tag_8\n      jumpi\n      dup1\n      0x313ce567\n      eq\n      tag_9\n      jumpi\n      dup1\n      0x3644e515\n      eq\n      tag_10\n      jumpi\n      dup1\n      0x4000aea0\n      eq\n      tag_11\n      jumpi\n      dup1\n      0x605629d6\n      eq\n      tag_12\n      jumpi\n      jump(tag_2)\n    tag_26:\n      dup1\n      0xbf26f4\n      eq\n      tag_3\n      jumpi\n      dup1\n      0x06fdde03\n      eq\n      tag_4\n      jumpi\n      dup1\n      0x095ea7b3\n      eq\n      tag_5\n      jumpi\n      dup1\n      0x18160ddd\n      eq\n      tag_6\n      jumpi\n      dup1\n      0x23b872dd\n      eq\n      tag_7\n      jumpi\n    tag_2:\n      0x00\n      dup1\n      revert\n        /* \"Rizo.sol\":8773:8909  bytes32 public constant TRANSFER_TYPEHASH = keccak256(\"Transfer(address owner,address to,uint256 value,uint256 nonce,uint256 deadline)\") */\n    tag_3:\n      tag_27\n      tag_28\n      jump\t// in\n    tag_27:\n      mload(0x40)\n      tag_29\n      swap2\n      swap1\n      tag_30\n      jump\t// in\n    tag_29:\n      mload(0x40)\n      dup1\n      swap2\n      sub\n      swap1\n      return\n        /* \"Rizo.sol\":8541:8559  string public name */\n    tag_4:\n      tag_31\n      tag_32\n      jump\t// in\n    tag_31:\n      mload(0x40)\n      tag_33\n      swap2\n      swap1\n      tag_34\n      jump\t// in\n    tag_33:\n      mload(0x40)\n      dup1\n      swap2\n      sub\n      swap1\n      return\n        /* \"Rizo.sol\":13581:13840  function approve(address spender, uint256 value) external override returns (bool) {... */\n    tag_5:\n      tag_35\n      0x04\n      dup1\n      calldatasize\n      sub\n      dup2\n      add\n      swap1\n      tag_36\n      swap2\n      swap1\n      tag_37\n      jump\t// in\n    tag_36:\n      tag_38\n      jump\t// in\n    tag_35:\n      mload(0x40)\n      tag_39\n      swap2\n      swap1\n      tag_40\n      jump\t// in\n    tag_39:\n      mload(0x40)\n      dup1\n      swap2\n      sub\n      swap1\n      return\n        /* \"Rizo.sol\":12154:12254  function totalSupply() external view override returns (uint256) {... */\n    tag_6:\n      tag_41\n      tag_42\n      jump\t// in\n    tag_41:\n      mload(0x40)\n      tag_43\n      swap2\n      swap1\n      tag_44\n      jump\t// in\n    tag_43:\n      mload(0x40)\n      dup1\n      swap2\n      sub\n      swap1\n      return\n        /* \"Rizo.sol\":19603:20509  function transferFrom(address from, address to, uint256 value) external override returns (bool) {... */\n    tag_7:\n      tag_45\n      0x04\n      dup1\n      calldatasize\n      sub\n      dup2\n      add\n      swap1\n      tag_46\n      swap2\n      swap1\n      tag_47\n      jump\t// in\n    tag_46:\n      tag_48\n      jump\t// in\n    tag_45:\n      mload(0x40)\n      tag_49\n      swap2\n      swap1\n      tag_40\n      jump\t// in\n    tag_49:\n      mload(0x40)\n      dup1\n      swap2\n      sub\n      swap1\n      return\n        /* \"Rizo.sol\":8630:8767  bytes32 public constant PERMIT_TYPEHASH = keccak256(\"Permit(address owner,address spender,uint256 value,uint256 nonce,uint256 deadline)\") */\n    tag_8:\n      tag_50\n      tag_51\n      jump\t// in\n    tag_50:\n      mload(0x40)\n      tag_52\n      swap2\n      swap1\n      tag_30\n      jump\t// in\n    tag_52:\n      mload(0x40)\n      dup1\n      swap2\n      sub\n      swap1\n      return\n        /* \"Rizo.sol\":8591:8623  uint8  public immutable decimals */\n    tag_9:\n      tag_53\n      tag_54\n      jump\t// in\n    tag_53:\n      mload(0x40)\n      tag_55\n      swap2\n      swap1\n      tag_56\n      jump\t// in\n    tag_55:\n      mload(0x40)\n      dup1\n      swap2\n      sub\n      swap1\n      return\n        /* \"Rizo.sol\":8915:8956  bytes32 public immutable DOMAIN_SEPARATOR */\n    tag_10:\n      tag_57\n      tag_58\n      jump\t// in\n    tag_57:\n      mload(0x40)\n      tag_59\n      swap2\n      swap1\n      tag_30\n      jump\t// in\n    tag_59:\n      mload(0x40)\n      dup1\n      swap2\n      sub\n      swap1\n      return\n        /* \"Rizo.sol\":21103:21615  function transferAndCall(address to, uint value, bytes calldata data) external override returns (bool) {... */\n    tag_11:\n      tag_60\n      0x04\n      dup1\n      calldatasize\n      sub\n      dup2\n      add\n      swap1\n      tag_61\n      swap2\n      swap1\n      tag_62\n      jump\t// in\n    tag_61:\n      tag_63\n      jump\t// in\n    tag_60:\n      mload(0x40)\n      tag_64\n      swap2\n      swap1\n      tag_40\n      jump\t// in\n    tag_64:\n      mload(0x40)\n      dup1\n      swap2\n      sub\n      swap1\n      return\n        /* \"Rizo.sol\":16106:17011  function transferWithPermit(address target, address to, uint256 value, uint256 deadline, uint8 v, bytes32 r, bytes32 s) external returns (bool) {... */\n    tag_12:\n      tag_65\n      0x04\n      dup1\n      calldatasize\n      sub\n      dup2\n      add\n      swap1\n      tag_66\n      swap2\n      swap1\n      tag_67\n      jump\t// in\n    tag_66:\n      tag_68\n      jump\t// in\n    tag_65:\n      mload(0x40)\n      tag_69\n      swap2\n      swap1\n      tag_40\n      jump\t// in\n    tag_69:\n      mload(0x40)\n      dup1\n      swap2\n      sub\n      swap1\n      return\n        /* \"Rizo.sol\":10130:10398  function Swapout(uint256 amount, address bindaddr) public returns (bool) {... */\n    tag_13:\n      tag_70\n      0x04\n      dup1\n      calldatasize\n      sub\n      dup2\n      add\n      swap1\n      tag_71\n      swap2\n      swap1\n      tag_72\n      jump\t// in\n    tag_71:\n      tag_73\n      jump\t// in\n    tag_70:\n      mload(0x40)\n      tag_74\n      swap2\n      swap1\n      tag_40\n      jump\t// in\n    tag_74:\n      mload(0x40)\n      dup1\n      swap2\n      sub\n      swap1\n      return\n        /* \"Rizo.sol\":9025:9079  mapping (address => uint256) public override balanceOf */\n    tag_14:\n      tag_75\n      0x04\n      dup1\n      calldatasize\n      sub\n      dup2\n      add\n      swap1\n      tag_76\n      swap2\n      swap1\n      tag_77\n      jump\t// in\n    tag_76:\n      tag_78\n      jump\t// in\n    tag_75:\n      mload(0x40)\n      tag_79\n      swap2\n      swap1\n      tag_44\n      jump\t// in\n    tag_79:\n      mload(0x40)\n      dup1\n      swap2\n      sub\n      swap1\n      return\n        /* \"Rizo.sol\":10666:10717  mapping (address => uint256) public override nonces */\n    tag_15:\n      tag_80\n      0x04\n      dup1\n      calldatasize\n      sub\n      dup2\n      add\n      swap1\n      tag_81\n      swap2\n      swap1\n      tag_77\n      jump\t// in\n    tag_81:\n      tag_82\n      jump\t// in\n    tag_80:\n      mload(0x40)\n      tag_83\n      swap2\n      swap1\n      tag_44\n      jump\t// in\n    tag_83:\n      mload(0x40)\n      dup1\n      swap2\n      sub\n      swap1\n      return\n        /* \"Rizo.sol\":9343:9520  function owner() public view returns (address) {... */\n    tag_16:\n      tag_84\n      tag_85\n      jump\t// in\n    tag_84:\n      mload(0x40)\n      tag_86\n      swap2\n      swap1\n      tag_87\n      jump\t// in\n    tag_86:\n      mload(0x40)\n      dup1\n      swap2\n      sub\n      swap1\n      return\n        /* \"Rizo.sol\":8565:8585  string public symbol */\n    tag_17:\n      tag_88\n      tag_89\n      jump\t// in\n    tag_88:\n      mload(0x40)\n      tag_90\n      swap2\n      swap1\n      tag_34\n      jump\t// in\n    tag_90:\n      mload(0x40)\n      dup1\n      swap2\n      sub\n      swap1\n      return\n        /* \"Rizo.sol\":18330:18758  function transfer(address to, uint256 value) external override returns (bool) {... */\n    tag_18:\n      tag_91\n      0x04\n      dup1\n      calldatasize\n      sub\n      dup2\n      add\n      swap1\n      tag_92\n      swap2\n      swap1\n      tag_37\n      jump\t// in\n    tag_92:\n      tag_93\n      jump\t// in\n    tag_91:\n      mload(0x40)\n      tag_94\n      swap2\n      swap1\n      tag_40\n      jump\t// in\n    tag_94:\n      mload(0x40)\n      dup1\n      swap2\n      sub\n      swap1\n      return\n        /* \"Rizo.sol\":9535:9912  function changeDCRMOwner(address newOwner) public onlyOwner returns (bool) {... */\n    tag_19:\n      tag_95\n      0x04\n      dup1\n      calldatasize\n      sub\n      dup2\n      add\n      swap1\n      tag_96\n      swap2\n      swap1\n      tag_77\n      jump\t// in\n    tag_96:\n      tag_97\n      jump\t// in\n    tag_95:\n      mload(0x40)\n      tag_98\n      swap2\n      swap1\n      tag_40\n      jump\t// in\n    tag_98:\n      mload(0x40)\n      dup1\n      swap2\n      sub\n      swap1\n      return\n        /* \"Rizo.sol\":14246:14604  function approveAndCall(address spender, uint256 value, bytes calldata data) external override returns (bool) {... */\n    tag_20:\n      tag_99\n      0x04\n      dup1\n      calldatasize\n      sub\n      dup2\n      add\n      swap1\n      tag_100\n      swap2\n      swap1\n      tag_62\n      jump\t// in\n    tag_100:\n      tag_101\n      jump\t// in\n    tag_99:\n      mload(0x40)\n      tag_102\n      swap2\n      swap1\n      tag_40\n      jump\t// in\n    tag_102:\n      mload(0x40)\n      dup1\n      swap2\n      sub\n      swap1\n      return\n        /* \"Rizo.sol\":15410:16100  function permit(address target, address spender, uint256 value, uint256 deadline, uint8 v, bytes32 r, bytes32 s) external override {... */\n    tag_21:\n      tag_103\n      0x04\n      dup1\n      calldatasize\n      sub\n      dup2\n      add\n      swap1\n      tag_104\n      swap2\n      swap1\n      tag_67\n      jump\t// in\n    tag_104:\n      tag_105\n      jump\t// in\n    tag_103:\n      stop\n        /* \"Rizo.sol\":10876:10951  mapping (address => mapping (address => uint256)) public override allowance */\n    tag_22:\n      tag_106\n      0x04\n      dup1\n      calldatasize\n      sub\n      dup2\n      add\n      swap1\n      tag_107\n      swap2\n      swap1\n      tag_108\n      jump\t// in\n    tag_107:\n      tag_109\n      jump\t// in\n    tag_106:\n      mload(0x40)\n      tag_110\n      swap2\n      swap1\n      tag_44\n      jump\t// in\n    tag_110:\n      mload(0x40)\n      dup1\n      swap2\n      sub\n      swap1\n      return\n        /* \"Rizo.sol\":9918:10124  function Swapin(bytes32 txhash, address account, uint256 amount) public onlyOwner returns (bool) {... */\n    tag_23:\n      tag_111\n      0x04\n      dup1\n      calldatasize\n      sub\n      dup2\n      add\n      swap1\n      tag_112\n      swap2\n      swap1\n      tag_113\n      jump\t// in\n    tag_112:\n      tag_114\n      jump\t// in\n    tag_111:\n      mload(0x40)\n      tag_115\n      swap2\n      swap1\n      tag_40\n      jump\t// in\n    tag_115:\n      mload(0x40)\n      dup1\n      swap2\n      sub\n      swap1\n      return\n        /* \"Rizo.sol\":8773:8909  bytes32 public constant TRANSFER_TYPEHASH = keccak256(\"Transfer(address owner,address to,uint256 value,uint256 nonce,uint256 deadline)\") */\n    tag_28:\n        /* \"Rizo.sol\":8817:8909  keccak256(\"Transfer(address owner,address to,uint256 value,uint256 nonce,uint256 deadline)\") */\n      0x42ce63790c28229c123925d83266e77c04d28784552ab68b350a9003226cbd59\n        /* \"Rizo.sol\":8773:8909  bytes32 public constant TRANSFER_TYPEHASH = keccak256(\"Transfer(address owner,address to,uint256 value,uint256 nonce,uint256 deadline)\") */\n      dup2\n      jump\t// out\n        /* \"Rizo.sol\":8541:8559  string public name */\n    tag_32:\n      0x00\n      dup1\n      sload\n      tag_116\n      swap1\n      tag_117\n      jump\t// in\n    tag_116:\n      dup1\n      0x1f\n      add\n      0x20\n      dup1\n      swap2\n      div\n      mul\n      0x20\n      add\n      mload(0x40)\n      swap1\n      dup2\n      add\n      0x40\n      mstore\n      dup1\n      swap3\n      swap2\n      swap1\n      dup2\n      dup2\n      mstore\n      0x20\n      add\n      dup3\n      dup1\n      sload\n      tag_118\n      swap1\n      tag_117\n      jump\t// in\n    tag_118:\n      dup1\n      iszero\n      tag_119\n      jumpi\n      dup1\n      0x1f\n      lt\n      tag_120\n      jumpi\n      0x0100\n      dup1\n      dup4\n      sload\n      div\n      mul\n      dup4\n      mstore\n      swap2\n      0x20\n      add\n      swap2\n      jump(tag_119)\n    tag_120:\n      dup3\n      add\n      swap2\n      swap1\n      0x00\n      mstore\n      keccak256(0x00, 0x20)\n      swap1\n    tag_121:\n      dup2\n      sload\n      dup2\n      mstore\n      swap1\n      0x01\n      add\n      swap1\n      0x20\n      add\n      dup1\n      dup4\n      gt\n      tag_121\n      jumpi\n      dup3\n      swap1\n      sub\n      0x1f\n      and\n      dup3\n      add\n      swap2\n    tag_119:\n      pop\n      pop\n      pop\n      pop\n      pop\n      dup2\n      jump\t// out\n        /* \"Rizo.sol\":13581:13840  function approve(address spender, uint256 value) external override returns (bool) {... */\n    tag_38:\n        /* \"Rizo.sol\":13657:13661  bool */\n      0x00\n        /* \"Rizo.sol\":13755:13760  value */\n      dup2\n        /* \"Rizo.sol\":13722:13731  allowance */\n      0x08\n        /* \"Rizo.sol\":13722:13743  allowance[msg.sender] */\n      0x00\n        /* \"Rizo.sol\":13732:13742  msg.sender */\n      caller\n        /* \"Rizo.sol\":13722:13743  allowance[msg.sender] */\n      0xffffffffffffffffffffffffffffffffffffffff\n      and\n      0xffffffffffffffffffffffffffffffffffffffff\n      and\n      dup2\n      mstore\n      0x20\n      add\n      swap1\n      dup2\n      mstore\n      0x20\n      add\n      0x00\n      keccak256\n        /* \"Rizo.sol\":13722:13752  allowance[msg.sender][spender] */\n      0x00\n        /* \"Rizo.sol\":13744:13751  spender */\n      dup6\n        /* \"Rizo.sol\":13722:13752  allowance[msg.sender][spender] */\n      0xffffffffffffffffffffffffffffffffffffffff\n      and\n      0xffffffffffffffffffffffffffffffffffffffff\n      and\n      dup2\n      mstore\n      0x20\n      add\n      swap1\n      dup2\n      mstore\n      0x20\n      add\n      0x00\n      keccak256\n        /* \"Rizo.sol\":13722:13760  allowance[msg.sender][spender] = value */\n      dup2\n      swap1\n      sstore\n      pop\n        /* \"Rizo.sol\":13796:13803  spender */\n      dup3\n        /* \"Rizo.sol\":13775:13811  Approval(msg.sender, spender, value) */\n      0xffffffffffffffffffffffffffffffffffffffff\n      and\n        /* \"Rizo.sol\":13784:13794  msg.sender */\n      caller\n        /* \"Rizo.sol\":13775:13811  Approval(msg.sender, spender, value) */\n      0xffffffffffffffffffffffffffffffffffffffff\n      and\n      0x8c5be1e5ebec7d5bd14f71427d1e84f3dd0314c0f7b2291e5b200ac8c7c3b925\n        /* \"Rizo.sol\":13805:13810  value */\n      dup5\n        /* \"Rizo.sol\":13775:13811  Approval(msg.sender, spender, value) */\n      mload(0x40)\n      tag_123\n      swap2\n      swap1\n      tag_44\n      jump\t// in\n    tag_123:\n      mload(0x40)\n      dup1\n      swap2\n      sub\n      swap1\n      log3\n        /* \"Rizo.sol\":13829:13833  true */\n      0x01\n        /* \"Rizo.sol\":13822:13833  return true */\n      swap1\n      pop\n        /* \"Rizo.sol\":13581:13840  function approve(address spender, uint256 value) external override returns (bool) {... */\n      swap3\n      swap2\n      pop\n      pop\n      jump\t// out\n        /* \"Rizo.sol\":12154:12254  function totalSupply() external view override returns (uint256) {... */\n    tag_42:\n        /* \"Rizo.sol\":12209:12216  uint256 */\n      0x00\n        /* \"Rizo.sol\":12235:12247  _totalSupply */\n      sload(0x03)\n        /* \"Rizo.sol\":12228:12247  return _totalSupply */\n      swap1\n      pop\n        /* \"Rizo.sol\":12154:12254  function totalSupply() external view override returns (uint256) {... */\n      swap1\n      jump\t// out\n        /* \"Rizo.sol\":19603:20509  function transferFrom(address from, address to, uint256 value) external override returns (bool) {... */\n    tag_48:\n        /* \"Rizo.sol\":19693:19697  bool */\n      0x00\n        /* \"Rizo.sol\":19731:19732  0 */\n      dup1\n        /* \"Rizo.sol\":19717:19733  to != address(0) */\n      0xffffffffffffffffffffffffffffffffffffffff\n      and\n        /* \"Rizo.sol\":19717:19719  to */\n      dup4\n        /* \"Rizo.sol\":19717:19733  to != address(0) */\n      0xffffffffffffffffffffffffffffffffffffffff\n      and\n      eq\n      iszero\n        /* \"Rizo.sol\":19717:19756  to != address(0) || to != address(this) */\n      dup1\n      tag_126\n      jumpi\n      pop\n        /* \"Rizo.sol\":19751:19755  this */\n      address\n        /* \"Rizo.sol\":19737:19756  to != address(this) */\n      0xffffffffffffffffffffffffffffffffffffffff\n      and\n        /* \"Rizo.sol\":19737:19739  to */\n      dup4\n        /* \"Rizo.sol\":19737:19756  to != address(this) */\n      0xffffffffffffffffffffffffffffffffffffffff\n      and\n      eq\n      iszero\n        /* \"Rizo.sol\":19717:19756  to != address(0) || to != address(this) */\n    tag_126:\n        /* \"Rizo.sol\":19709:19757  require(to != address(0) || to != address(this)) */\n      tag_127\n      jumpi\n      0x00\n      dup1\n      revert\n    tag_127:\n        /* \"Rizo.sol\":19779:19789  msg.sender */\n      caller\n        /* \"Rizo.sol\":19771:19789  from != msg.sender */\n      0xffffffffffffffffffffffffffffffffffffffff\n      and\n        /* \"Rizo.sol\":19771:19775  from */\n      dup5\n        /* \"Rizo.sol\":19771:19789  from != msg.sender */\n      0xffffffffffffffffffffffffffffffffffffffff\n      and\n      eq\n        /* \"Rizo.sol\":19767:20227  if (from != msg.sender) {... */\n      tag_128\n      jumpi\n        /* \"Rizo.sol\":19865:19880  uint256 allowed */\n      0x00\n        /* \"Rizo.sol\":19883:19892  allowance */\n      0x08\n        /* \"Rizo.sol\":19883:19898  allowance[from] */\n      0x00\n        /* \"Rizo.sol\":19893:19897  from */\n      dup7\n        /* \"Rizo.sol\":19883:19898  allowance[from] */\n      0xffffffffffffffffffffffffffffffffffffffff\n      and\n      0xffffffffffffffffffffffffffffffffffffffff\n      and\n      dup2\n      mstore\n      0x20\n      add\n      swap1\n      dup2\n      mstore\n      0x20\n      add\n      0x00\n      keccak256\n        /* \"Rizo.sol\":19883:19910  allowance[from][msg.sender] */\n      0x00\n        /* \"Rizo.sol\":19899:19909  msg.sender */\n      caller\n        /* \"Rizo.sol\":19883:19910  allowance[from][msg.sender] */\n      0xffffffffffffffffffffffffffffffffffffffff\n      and\n      0xffffffffffffffffffffffffffffffffffffffff\n      and\n      dup2\n      mstore\n      0x20\n      add\n      swap1\n      dup2\n      mstore\n      0x20\n      add\n      0x00\n      keccak256\n      sload\n        /* \"Rizo.sol\":19865:19910  uint256 allowed = allowance[from][msg.sender] */\n      swap1\n      pop\n        /* \"Rizo.sol\":19939:19956  type(uint256).max */\n      0xffffffffffffffffffffffffffffffffffffffffffffffffffffffffffffffff\n        /* \"Rizo.sol\":19928:19935  allowed */\n      dup2\n        /* \"Rizo.sol\":19928:19956  allowed != type(uint256).max */\n      eq\n        /* \"Rizo.sol\":19924:20217  if (allowed != type(uint256).max) {... */\n      tag_129\n      jumpi\n        /* \"Rizo.sol\":19995:20000  value */\n      dup3\n        /* \"Rizo.sol\":19984:19991  allowed */\n      dup2\n        /* \"Rizo.sol\":19984:20000  allowed >= value */\n      lt\n      iszero\n        /* \"Rizo.sol\":19976:20038  require(allowed >= value, \"WERC10: request exceeds allowance\") */\n      tag_130\n      jumpi\n      mload(0x40)\n      0x08c379a000000000000000000000000000000000000000000000000000000000\n      dup2\n      mstore\n      0x04\n      add\n      tag_131\n      swap1\n      tag_132\n      jump\t// in\n    tag_131:\n      mload(0x40)\n      dup1\n      swap2\n      sub\n      swap1\n      revert\n    tag_130:\n        /* \"Rizo.sol\":20056:20071  uint256 reduced */\n      0x00\n        /* \"Rizo.sol\":20084:20089  value */\n      dup4\n        /* \"Rizo.sol\":20074:20081  allowed */\n      dup3\n        /* \"Rizo.sol\":20074:20089  allowed - value */\n      tag_133\n      swap2\n      swap1\n      tag_134\n      jump\t// in\n    tag_133:\n        /* \"Rizo.sol\":20056:20089  uint256 reduced = allowed - value */\n      swap1\n      pop\n        /* \"Rizo.sol\":20137:20144  reduced */\n      dup1\n        /* \"Rizo.sol\":20107:20116  allowance */\n      0x08\n        /* \"Rizo.sol\":20107:20122  allowance[from] */\n      0x00\n        /* \"Rizo.sol\":20117:20121  from */\n      dup9\n        /* \"Rizo.sol\":20107:20122  allowance[from] */\n      0xffffffffffffffffffffffffffffffffffffffff\n      and\n      0xffffffffffffffffffffffffffffffffffffffff\n      and\n      dup2\n      mstore\n      0x20\n      add\n      swap1\n      dup2\n      mstore\n      0x20\n      add\n      0x00\n      keccak256\n        /* \"Rizo.sol\":20107:20134  allowance[from][msg.sender] */\n      0x00\n        /* \"Rizo.sol\":20123:20133  msg.sender */\n      caller\n        /* \"Rizo.sol\":20107:20134  allowance[from][msg.sender] */\n      0xffffffffffffffffffffffffffffffffffffffff\n      and\n      0xffffffffffffffffffffffffffffffffffffffff\n      and\n      dup2\n      mstore\n      0x20\n      add\n      swap1\n      dup2\n      mstore\n      0x20\n      add\n      0x00\n      keccak256\n        /* \"Rizo.sol\":20107:20144  allowance[from][msg.sender] = reduced */\n      dup2\n      swap1\n      sstore\n      pop\n        /* \"Rizo.sol\":20182:20192  msg.sender */\n      caller\n        /* \"Rizo.sol\":20167:20202  Approval(from, msg.sender, reduced) */\n      0xffffffffffffffffffffffffffffffffffffffff\n      and\n        /* \"Rizo.sol\":20176:20180  from */\n      dup7\n        /* \"Rizo.sol\":20167:20202  Approval(from, msg.sender, reduced) */\n      0xffffffffffffffffffffffffffffffffffffffff\n      and\n      0x8c5be1e5ebec7d5bd14f71427d1e84f3dd0314c0f7b2291e5b200ac8c7c3b925\n        /* \"Rizo.sol\":20194:20201  reduced */\n      dup4\n        /* \"Rizo.sol\":20167:20202  Approval(from, msg.sender, reduced) */\n      mload(0x40)\n      tag_135\n      swap2\n      swap1\n      tag_44\n      jump\t// in\n    tag_135:\n      mload(0x40)\n      dup1\n      swap2\n      sub\n      swap1\n      log3\n        /* \"Rizo.sol\":19924:20217  if (allowed != type(uint256).max) {... */\n      pop\n    tag_129:\n        /* \"Rizo.sol\":19767:20227  if (from != msg.sender) {... */\n      pop\n    tag_128:\n        /* \"Rizo.sol\":20245:20260  uint256 balance */\n      0x00\n        /* \"Rizo.sol\":20263:20272  balanceOf */\n      0x02\n        /* \"Rizo.sol\":20263:20278  balanceOf[from] */\n      0x00\n        /* \"Rizo.sol\":20273:20277  from */\n      dup7\n        /* \"Rizo.sol\":20263:20278  balanceOf[from] */\n      0xffffffffffffffffffffffffffffffffffffffff\n      and\n      0xffffffffffffffffffffffffffffffffffffffff\n      and\n      dup2\n      mstore\n      0x20\n      add\n      swap1\n      dup2\n      mstore\n      0x20\n      add\n      0x00\n      keccak256\n      sload\n        /* \"Rizo.sol\":20245:20278  uint256 balance = balanceOf[from] */\n      swap1\n      pop\n        /* \"Rizo.sol\":20307:20312  value */\n      dup3\n        /* \"Rizo.sol\":20296:20303  balance */\n      dup2\n        /* \"Rizo.sol\":20296:20312  balance >= value */\n      lt\n      iszero\n        /* \"Rizo.sol\":20288:20356  require(balance >= value, \"WERC10: transfer amount exceeds balance\") */\n      tag_136\n      jumpi\n      mload(0x40)\n      0x08c379a000000000000000000000000000000000000000000000000000000000\n      dup2\n      mstore\n      0x04\n      add\n      tag_137\n      swap1\n      tag_138\n      jump\t// in\n    tag_137:\n      mload(0x40)\n      dup1\n      swap2\n      sub\n      swap1\n      revert\n    tag_136:\n        /* \"Rizo.sol\":20395:20400  value */\n      dup3\n        /* \"Rizo.sol\":20385:20392  balance */\n      dup2\n        /* \"Rizo.sol\":20385:20400  balance - value */\n      tag_139\n      swap2\n      swap1\n      tag_134\n      jump\t// in\n    tag_139:\n        /* \"Rizo.sol\":20367:20376  balanceOf */\n      0x02\n        /* \"Rizo.sol\":20367:20382  balanceOf[from] */\n      0x00\n        /* \"Rizo.sol\":20377:20381  from */\n      dup8\n        /* \"Rizo.sol\":20367:20382  balanceOf[from] */\n      0xffffffffffffffffffffffffffffffffffffffff\n      and\n      0xffffffffffffffffffffffffffffffffffffffff\n      and\n      dup2\n      mstore\n      0x20\n      add\n      swap1\n      dup2\n      mstore\n      0x20\n      add\n      0x00\n      keccak256\n        /* \"Rizo.sol\":20367:20400  balanceOf[from] = balance - value */\n      dup2\n      swap1\n      sstore\n      pop\n        /* \"Rizo.sol\":20427:20432  value */\n      dup3\n        /* \"Rizo.sol\":20410:20419  balanceOf */\n      0x02\n        /* \"Rizo.sol\":20410:20423  balanceOf[to] */\n      0x00\n        /* \"Rizo.sol\":20420:20422  to */\n      dup7\n        /* \"Rizo.sol\":20410:20423  balanceOf[to] */\n      0xffffffffffffffffffffffffffffffffffffffff\n      and\n      0xffffffffffffffffffffffffffffffffffffffff\n      and\n      dup2\n      mstore\n      0x20\n      add\n      swap1\n      dup2\n      mstore\n      0x20\n      add\n      0x00\n      keccak256\n      0x00\n        /* \"Rizo.sol\":20410:20432  balanceOf[to] += value */\n      dup3\n      dup3\n      sload\n      tag_140\n      swap2\n      swap1\n      tag_141\n      jump\t// in\n    tag_140:\n      swap3\n      pop\n      pop\n      dup2\n      swap1\n      sstore\n      pop\n        /* \"Rizo.sol\":20462:20464  to */\n      dup4\n        /* \"Rizo.sol\":20447:20472  Transfer(from, to, value) */\n      0xffffffffffffffffffffffffffffffffffffffff\n      and\n        /* \"Rizo.sol\":20456:20460  from */\n      dup6\n        /* \"Rizo.sol\":20447:20472  Transfer(from, to, value) */\n      0xffffffffffffffffffffffffffffffffffffffff\n      and\n      0xddf252ad1be2c89b69c2b068fc378daa952ba7f163c4a11628f55a4df523b3ef\n        /* \"Rizo.sol\":20466:20471  value */\n      dup6\n        /* \"Rizo.sol\":20447:20472  Transfer(from, to, value) */\n      mload(0x40)\n      tag_142\n      swap2\n      swap1\n      tag_44\n      jump\t// in\n    tag_142:\n      mload(0x40)\n      dup1\n      swap2\n      sub\n      swap1\n      log3\n        /* \"Rizo.sol\":20498:20502  true */\n      0x01\n        /* \"Rizo.sol\":20491:20502  return true */\n      swap2\n      pop\n      pop\n        /* \"Rizo.sol\":19603:20509  function transferFrom(address from, address to, uint256 value) external override returns (bool) {... */\n      swap4\n      swap3\n      pop\n      pop\n      pop\n      jump\t// out\n        /* \"Rizo.sol\":8630:8767  bytes32 public constant PERMIT_TYPEHASH = keccak256(\"Permit(address owner,address spender,uint256 value,uint256 nonce,uint256 deadline)\") */\n    tag_51:\n        /* \"Rizo.sol\":8672:8767  keccak256(\"Permit(address owner,address spender,uint256 value,uint256 nonce,uint256 deadline)\") */\n      0x6e71edae12b1b97f4d1f60370fef10105fa2faae0126114a169c64845d6126c9\n        /* \"Rizo.sol\":8630:8767  bytes32 public constant PERMIT_TYPEHASH = keccak256(\"Permit(address owner,address spender,uint256 value,uint256 nonce,uint256 deadline)\") */\n      dup2\n      jump\t// out\n        /* \"Rizo.sol\":8591:8623  uint8  public immutable decimals */\n    tag_54:\n      immutable(\"0xb67a880983cc792f456e97ad17b77e65412bfac33ee1a51a8da6db6a76c94155\")\n      dup2\n      jump\t// out\n        /* \"Rizo.sol\":8915:8956  bytes32 public immutable DOMAIN_SEPARATOR */\n    tag_58:\n      immutable(\"0x4eede269e0c53dc1774f9d2bc345d511093ea6f1ea5cfde86bf50918a800577d\")\n      dup2\n      jump\t// out\n        /* \"Rizo.sol\":21103:21615  function transferAndCall(address to, uint value, bytes calldata data) external override returns (bool) {... */\n    tag_63:\n        /* \"Rizo.sol\":21200:21204  bool */\n      0x00\n        /* \"Rizo.sol\":21238:21239  0 */\n      dup1\n        /* \"Rizo.sol\":21224:21240  to != address(0) */\n      0xffffffffffffffffffffffffffffffffffffffff\n      and\n        /* \"Rizo.sol\":21224:21226  to */\n      dup6\n        /* \"Rizo.sol\":21224:21240  to != address(0) */\n      0xffffffffffffffffffffffffffffffffffffffff\n      and\n      eq\n      iszero\n        /* \"Rizo.sol\":21224:21263  to != address(0) || to != address(this) */\n      dup1\n      tag_144\n      jumpi\n      pop\n        /* \"Rizo.sol\":21258:21262  this */\n      address\n        /* \"Rizo.sol\":21244:21263  to != address(this) */\n      0xffffffffffffffffffffffffffffffffffffffff\n      and\n        /* \"Rizo.sol\":21244:21246  to */\n      dup6\n        /* \"Rizo.sol\":21244:21263  to != address(this) */\n      0xffffffffffffffffffffffffffffffffffffffff\n      and\n      eq\n      iszero\n        /* \"Rizo.sol\":21224:21263  to != address(0) || to != address(this) */\n    tag_144:\n        /* \"Rizo.sol\":21216:21264  require(to != address(0) || to != address(this)) */\n      tag_145\n      jumpi\n      0x00\n      dup1\n      revert\n    tag_145:\n        /* \"Rizo.sol\":21283:21298  uint256 balance */\n      0x00\n        /* \"Rizo.sol\":21301:21310  balanceOf */\n      0x02\n        /* \"Rizo.sol\":21301:21322  balanceOf[msg.sender] */\n      0x00\n        /* \"Rizo.sol\":21311:21321  msg.sender */\n      caller\n        /* \"Rizo.sol\":21301:21322  balanceOf[msg.sender] */\n      0xffffffffffffffffffffffffffffffffffffffff\n      and\n      0xffffffffffffffffffffffffffffffffffffffff\n      and\n      dup2\n      mstore\n      0x20\n      add\n      swap1\n      dup2\n      mstore\n      0x20\n      add\n      0x00\n      keccak256\n      sload\n        /* \"Rizo.sol\":21283:21322  uint256 balance = balanceOf[msg.sender] */\n      swap1\n      pop\n        /* \"Rizo.sol\":21351:21356  value */\n      dup5\n        /* \"Rizo.sol\":21340:21347  balance */\n      dup2\n        /* \"Rizo.sol\":21340:21356  balance >= value */\n      lt\n      iszero\n        /* \"Rizo.sol\":21332:21400  require(balance >= value, \"WERC10: transfer amount exceeds balance\") */\n      tag_146\n      jumpi\n      mload(0x40)\n      0x08c379a000000000000000000000000000000000000000000000000000000000\n      dup2\n      mstore\n      0x04\n      add\n      tag_147\n      swap1\n      tag_138\n      jump\t// in\n    tag_147:\n      mload(0x40)\n      dup1\n      swap2\n      sub\n      swap1\n      revert\n    tag_146:\n        /* \"Rizo.sol\":21445:21450  value */\n      dup5\n        /* \"Rizo.sol\":21435:21442  balance */\n      dup2\n        /* \"Rizo.sol\":21435:21450  balance - value */\n      tag_148\n      swap2\n      swap1\n      tag_134\n      jump\t// in\n    tag_148:\n        /* \"Rizo.sol\":21411:21420  balanceOf */\n      0x02\n        /* \"Rizo.sol\":21411:21432  balanceOf[msg.sender] */\n      0x00\n        /* \"Rizo.sol\":21421:21431  msg.sender */\n      caller\n        /* \"Rizo.sol\":21411:21432  balanceOf[msg.sender] */\n      0xffffffffffffffffffffffffffffffffffffffff\n      and\n      0xffffffffffffffffffffffffffffffffffffffff\n      and\n      dup2\n      mstore\n      0x20\n      add\n      swap1\n      dup2\n      mstore\n      0x20\n      add\n      0x00\n      keccak256\n        /* \"Rizo.sol\":21411:21450  balanceOf[msg.sender] = balance - value */\n      dup2\n      swap1\n      sstore\n      pop\n        /* \"Rizo.sol\":21477:21482  value */\n      dup5\n        /* \"Rizo.sol\":21460:21469  balanceOf */\n      0x02\n        /* \"Rizo.sol\":21460:21473  balanceOf[to] */\n      0x00\n        /* \"Rizo.sol\":21470:21472  to */\n      dup9\n        /* \"Rizo.sol\":21460:21473  balanceOf[to] */\n      0xffffffffffffffffffffffffffffffffffffffff\n      and\n      0xffffffffffffffffffffffffffffffffffffffff\n      and\n      dup2\n      mstore\n      0x20\n      add\n      swap1\n      dup2\n      mstore\n      0x20\n      add\n      0x00\n      keccak256\n      0x00\n        /* \"Rizo.sol\":21460:21482  balanceOf[to] += value */\n      dup3\n      dup3\n      sload\n      tag_149\n      swap2\n      swap1\n      tag_141\n      jump\t// in\n    tag_149:\n      swap3\n      pop\n      pop\n      dup2\n      swap1\n      sstore\n      pop\n        /* \"Rizo.sol\":21518:21520  to */\n      dup6\n        /* \"Rizo.sol\":21497:21528  Transfer(msg.sender, to, value) */\n      0xffffffffffffffffffffffffffffffffffffffff\n      and\n        /* \"Rizo.sol\":21506:21516  msg.sender */\n      caller\n        /* \"Rizo.sol\":21497:21528  Transfer(msg.sender, to, value) */\n      0xffffffffffffffffffffffffffffffffffffffff\n      and\n      0xddf252ad1be2c89b69c2b068fc378daa952ba7f163c4a11628f55a4df523b3ef\n        /* \"Rizo.sol\":21522:21527  value */\n      dup8\n        /* \"Rizo.sol\":21497:21528  Transfer(msg.sender, to, value) */\n      mload(0x40)\n      tag_150\n      swap2\n      swap1\n      tag_44\n      jump\t// in\n    tag_150:\n      mload(0x40)\n      dup1\n      swap2\n      sub\n      swap1\n      log3\n        /* \"Rizo.sol\":21564:21566  to */\n      dup6\n        /* \"Rizo.sol\":21546:21583  ITransferReceiver(to).onTokenTransfer */\n      0xffffffffffffffffffffffffffffffffffffffff\n      and\n      0xa4c0ed36\n        /* \"Rizo.sol\":21584:21594  msg.sender */\n      caller\n        /* \"Rizo.sol\":21596:21601  value */\n      dup8\n        /* \"Rizo.sol\":21603:21607  data */\n      dup8\n      dup8\n        /* \"Rizo.sol\":21546:21608  ITransferReceiver(to).onTokenTransfer(msg.sender, value, data) */\n      mload(0x40)\n      dup6\n      0xffffffff\n      and\n      0xe0\n      shl\n      dup2\n      mstore\n      0x04\n      add\n      tag_151\n      swap5\n      swap4\n      swap3\n      swap2\n      swap1\n      tag_152\n      jump\t// in\n    tag_151:\n      0x20\n      mload(0x40)\n      dup1\n      dup4\n      sub\n      dup2\n      0x00\n      dup8\n      dup1\n      extcodesize\n      iszero\n      dup1\n      iszero\n      tag_153\n      jumpi\n      0x00\n      dup1\n      revert\n    tag_153:\n      pop\n      gas\n      call\n      iszero\n      dup1\n      iszero\n      tag_155\n      jumpi\n      returndatasize\n      0x00\n      dup1\n      returndatacopy\n      revert(0x00, returndatasize)\n    tag_155:\n      pop\n      pop\n      pop\n      pop\n      mload(0x40)\n      returndatasize\n      not(0x1f)\n      0x1f\n      dup3\n      add\n      and\n      dup3\n      add\n      dup1\n      0x40\n      mstore\n      pop\n      dup2\n      add\n      swap1\n      tag_156\n      swap2\n      swap1\n      tag_157\n      jump\t// in\n    tag_156:\n        /* \"Rizo.sol\":21539:21608  return ITransferReceiver(to).onTokenTransfer(msg.sender, value, data) */\n      swap2\n      pop\n      pop\n        /* \"Rizo.sol\":21103:21615  function transferAndCall(address to, uint value, bytes calldata data) external override returns (bool) {... */\n      swap5\n      swap4\n      pop\n      pop\n      pop\n      pop\n      jump\t// out\n        /* \"Rizo.sol\":16106:17011  function transferWithPermit(address target, address to, uint256 value, uint256 deadline, uint8 v, bytes32 r, bytes32 s) external returns (bool) {... */\n    tag_68:\n        /* \"Rizo.sol\":16244:16248  bool */\n      0x00\n        /* \"Rizo.sol\":16287:16295  deadline */\n      dup5\n        /* \"Rizo.sol\":16268:16283  block.timestamp */\n      timestamp\n        /* \"Rizo.sol\":16268:16295  block.timestamp <= deadline */\n      gt\n      iszero\n        /* \"Rizo.sol\":16260:16322  require(block.timestamp <= deadline, \"WERC10: Expired permit\") */\n      tag_159\n      jumpi\n      mload(0x40)\n      0x08c379a000000000000000000000000000000000000000000000000000000000\n      dup2\n      mstore\n      0x04\n      add\n      tag_160\n      swap1\n      tag_161\n      jump\t// in\n    tag_160:\n      mload(0x40)\n      dup1\n      swap2\n      sub\n      swap1\n      revert\n    tag_159:\n        /* \"Rizo.sol\":16333:16351  bytes32 hashStruct */\n      0x00\n        /* \"Rizo.sol\":8817:8909  keccak256(\"Transfer(address owner,address to,uint256 value,uint256 nonce,uint256 deadline)\") */\n      0x42ce63790c28229c123925d83266e77c04d28784552ab68b350a9003226cbd59\n        /* \"Rizo.sol\":16440:16446  target */\n      dup10\n        /* \"Rizo.sol\":16464:16466  to */\n      dup10\n        /* \"Rizo.sol\":16484:16489  value */\n      dup10\n        /* \"Rizo.sol\":16507:16513  nonces */\n      0x07\n        /* \"Rizo.sol\":16507:16521  nonces[target] */\n      0x00\n        /* \"Rizo.sol\":16514:16520  target */\n      dup15\n        /* \"Rizo.sol\":16507:16521  nonces[target] */\n      0xffffffffffffffffffffffffffffffffffffffff\n      and\n      0xffffffffffffffffffffffffffffffffffffffff\n      and\n      dup2\n      mstore\n      0x20\n      add\n      swap1\n      dup2\n      mstore\n      0x20\n      add\n      0x00\n      keccak256\n      0x00\n        /* \"Rizo.sol\":16507:16523  nonces[target]++ */\n      dup2\n      sload\n      dup1\n      swap3\n      swap2\n      swap1\n      tag_162\n      swap1\n      tag_163\n      jump\t// in\n    tag_162:\n      swap2\n      swap1\n      pop\n      sstore\n        /* \"Rizo.sol\":16541:16549  deadline */\n      dup11\n        /* \"Rizo.sol\":16377:16550  abi.encode(... */\n      add(0x20, mload(0x40))\n      tag_164\n      swap7\n      swap6\n      swap5\n      swap4\n      swap3\n      swap2\n      swap1\n      tag_165\n      jump\t// in\n    tag_164:\n      mload(0x40)\n      0x20\n      dup2\n      dup4\n      sub\n      sub\n      dup2\n      mstore\n      swap1\n      0x40\n      mstore\n        /* \"Rizo.sol\":16354:16551  keccak256(... */\n      dup1\n      mload\n      swap1\n      0x20\n      add\n      keccak256\n        /* \"Rizo.sol\":16333:16551  bytes32 hashStruct = keccak256(... */\n      swap1\n      pop\n        /* \"Rizo.sol\":16570:16611  verifyEIP712(target, hashStruct, v, r, s) */\n      tag_166\n        /* \"Rizo.sol\":16583:16589  target */\n      dup10\n        /* \"Rizo.sol\":16591:16601  hashStruct */\n      dup3\n        /* \"Rizo.sol\":16603:16604  v */\n      dup8\n        /* \"Rizo.sol\":16606:16607  r */\n      dup8\n        /* \"Rizo.sol\":16609:16610  s */\n      dup8\n        /* \"Rizo.sol\":16570:16582  verifyEIP712 */\n      tag_167\n        /* \"Rizo.sol\":16570:16611  verifyEIP712(target, hashStruct, v, r, s) */\n      jump\t// in\n    tag_166:\n        /* \"Rizo.sol\":16570:16662  verifyEIP712(target, hashStruct, v, r, s) || verifyPersonalSign(target, hashStruct, v, r, s) */\n      dup1\n      tag_168\n      jumpi\n      pop\n        /* \"Rizo.sol\":16615:16662  verifyPersonalSign(target, hashStruct, v, r, s) */\n      tag_169\n        /* \"Rizo.sol\":16634:16640  target */\n      dup10\n        /* \"Rizo.sol\":16642:16652  hashStruct */\n      dup3\n        /* \"Rizo.sol\":16654:16655  v */\n      dup8\n        /* \"Rizo.sol\":16657:16658  r */\n      dup8\n        /* \"Rizo.sol\":16660:16661  s */\n      dup8\n        /* \"Rizo.sol\":16615:16633  verifyPersonalSign */\n      tag_170\n        /* \"Rizo.sol\":16615:16662  verifyPersonalSign(target, hashStruct, v, r, s) */\n      jump\t// in\n    tag_169:\n        /* \"Rizo.sol\":16570:16662  verifyEIP712(target, hashStruct, v, r, s) || verifyPersonalSign(target, hashStruct, v, r, s) */\n    tag_168:\n        /* \"Rizo.sol\":16562:16663  require(verifyEIP712(target, hashStruct, v, r, s) || verifyPersonalSign(target, hashStruct, v, r, s)) */\n      tag_171\n      jumpi\n      0x00\n      dup1\n      revert\n    tag_171:\n        /* \"Rizo.sol\":16696:16697  0 */\n      0x00\n        /* \"Rizo.sol\":16682:16698  to != address(0) */\n      0xffffffffffffffffffffffffffffffffffffffff\n      and\n        /* \"Rizo.sol\":16682:16684  to */\n      dup9\n        /* \"Rizo.sol\":16682:16698  to != address(0) */\n      0xffffffffffffffffffffffffffffffffffffffff\n      and\n      eq\n      iszero\n        /* \"Rizo.sol\":16682:16721  to != address(0) || to != address(this) */\n      dup1\n      tag_172\n      jumpi\n      pop\n        /* \"Rizo.sol\":16716:16720  this */\n      address\n        /* \"Rizo.sol\":16702:16721  to != address(this) */\n      0xffffffffffffffffffffffffffffffffffffffff\n      and\n        /* \"Rizo.sol\":16702:16704  to */\n      dup9\n        /* \"Rizo.sol\":16702:16721  to != address(this) */\n      0xffffffffffffffffffffffffffffffffffffffff\n      and\n      eq\n      iszero\n        /* \"Rizo.sol\":16682:16721  to != address(0) || to != address(this) */\n    tag_172:\n        /* \"Rizo.sol\":16674:16722  require(to != address(0) || to != address(this)) */\n      tag_173\n      jumpi\n      0x00\n      dup1\n      revert\n    tag_173:\n        /* \"Rizo.sol\":16741:16756  uint256 balance */\n      0x00\n        /* \"Rizo.sol\":16759:16768  balanceOf */\n      0x02\n        /* \"Rizo.sol\":16759:16776  balanceOf[target] */\n      0x00\n        /* \"Rizo.sol\":16769:16775  target */\n      dup12\n        /* \"Rizo.sol\":16759:16776  balanceOf[target] */\n      0xffffffffffffffffffffffffffffffffffffffff\n      and\n      0xffffffffffffffffffffffffffffffffffffffff\n      and\n      dup2\n      mstore\n      0x20\n      add\n      swap1\n      dup2\n      mstore\n      0x20\n      add\n      0x00\n      keccak256\n      sload\n        /* \"Rizo.sol\":16741:16776  uint256 balance = balanceOf[target] */\n      swap1\n      pop\n        /* \"Rizo.sol\":16805:16810  value */\n      dup8\n        /* \"Rizo.sol\":16794:16801  balance */\n      dup2\n        /* \"Rizo.sol\":16794:16810  balance >= value */\n      lt\n      iszero\n        /* \"Rizo.sol\":16786:16854  require(balance >= value, \"WERC10: transfer amount exceeds balance\") */\n      tag_174\n      jumpi\n      mload(0x40)\n      0x08c379a000000000000000000000000000000000000000000000000000000000\n      dup2\n      mstore\n      0x04\n      add\n      tag_175\n      swap1\n      tag_138\n      jump\t// in\n    tag_175:\n      mload(0x40)\n      dup1\n      swap2\n      sub\n      swap1\n      revert\n    tag_174:\n        /* \"Rizo.sol\":16895:16900  value */\n      dup8\n        /* \"Rizo.sol\":16885:16892  balance */\n      dup2\n        /* \"Rizo.sol\":16885:16900  balance - value */\n      tag_176\n      swap2\n      swap1\n      tag_134\n      jump\t// in\n    tag_176:\n        /* \"Rizo.sol\":16865:16874  balanceOf */\n      0x02\n        /* \"Rizo.sol\":16865:16882  balanceOf[target] */\n      0x00\n        /* \"Rizo.sol\":16875:16881  target */\n      dup13\n        /* \"Rizo.sol\":16865:16882  balanceOf[target] */\n      0xffffffffffffffffffffffffffffffffffffffff\n      and\n      0xffffffffffffffffffffffffffffffffffffffff\n      and\n      dup2\n      mstore\n      0x20\n      add\n      swap1\n      dup2\n      mstore\n      0x20\n      add\n      0x00\n      keccak256\n        /* \"Rizo.sol\":16865:16900  balanceOf[target] = balance - value */\n      dup2\n      swap1\n      sstore\n      pop\n        /* \"Rizo.sol\":16927:16932  value */\n      dup8\n        /* \"Rizo.sol\":16910:16919  balanceOf */\n      0x02\n        /* \"Rizo.sol\":16910:16923  balanceOf[to] */\n      0x00\n        /* \"Rizo.sol\":16920:16922  to */\n      dup12\n        /* \"Rizo.sol\":16910:16923  balanceOf[to] */\n      0xffffffffffffffffffffffffffffffffffffffff\n      and\n      0xffffffffffffffffffffffffffffffffffffffff\n      and\n      dup2\n      mstore\n      0x20\n      add\n      swap1\n      dup2\n      mstore\n      0x20\n      add\n      0x00\n      keccak256\n      0x00\n        /* \"Rizo.sol\":16910:16932  balanceOf[to] += value */\n      dup3\n      dup3\n      sload\n      tag_177\n      swap2\n      swap1\n      tag_141\n      jump\t// in\n    tag_177:\n      swap3\n      pop\n      pop\n      dup2\n      swap1\n      sstore\n      pop\n        /* \"Rizo.sol\":16964:16966  to */\n      dup9\n        /* \"Rizo.sol\":16947:16974  Transfer(target, to, value) */\n      0xffffffffffffffffffffffffffffffffffffffff\n      and\n        /* \"Rizo.sol\":16956:16962  target */\n      dup11\n        /* \"Rizo.sol\":16947:16974  Transfer(target, to, value) */\n      0xffffffffffffffffffffffffffffffffffffffff\n      and\n      0xddf252ad1be2c89b69c2b068fc378daa952ba7f163c4a11628f55a4df523b3ef\n        /* \"Rizo.sol\":16968:16973  value */\n      dup11\n        /* \"Rizo.sol\":16947:16974  Transfer(target, to, value) */\n      mload(0x40)\n      tag_178\n      swap2\n      swap1\n      tag_44\n      jump\t// in\n    tag_178:\n      mload(0x40)\n      dup1\n      swap2\n      sub\n      swap1\n      log3\n        /* \"Rizo.sol\":17000:17004  true */\n      0x01\n        /* \"Rizo.sol\":16993:17004  return true */\n      swap3\n      pop\n      pop\n      pop\n        /* \"Rizo.sol\":16106:17011  function transferWithPermit(address target, address to, uint256 value, uint256 deadline, uint8 v, bytes32 r, bytes32 s) external returns (bool) {... */\n      swap8\n      swap7\n      pop\n      pop\n      pop\n      pop\n      pop\n      pop\n      pop\n      jump\t// out\n        /* \"Rizo.sol\":10130:10398  function Swapout(uint256 amount, address bindaddr) public returns (bool) {... */\n    tag_73:\n        /* \"Rizo.sol\":10197:10201  bool */\n      0x00\n        /* \"Rizo.sol\":10241:10242  0 */\n      dup1\n        /* \"Rizo.sol\":10221:10243  bindaddr != address(0) */\n      0xffffffffffffffffffffffffffffffffffffffff\n      and\n        /* \"Rizo.sol\":10221:10229  bindaddr */\n      dup3\n        /* \"Rizo.sol\":10221:10243  bindaddr != address(0) */\n      0xffffffffffffffffffffffffffffffffffffffff\n      and\n      eq\n      iszero\n        /* \"Rizo.sol\":10213:10280  require(bindaddr != address(0), \"bind address is the zero address\") */\n      tag_180\n      jumpi\n      mload(0x40)\n      0x08c379a000000000000000000000000000000000000000000000000000000000\n      dup2\n      mstore\n      0x04\n      add\n      tag_181\n      swap1\n      tag_182\n      jump\t// in\n    tag_181:\n      mload(0x40)\n      dup1\n      swap2\n      sub\n      swap1\n      revert\n    tag_180:\n        /* \"Rizo.sol\":10290:10315  _burn(msg.sender, amount) */\n      tag_183\n        /* \"Rizo.sol\":10296:10306  msg.sender */\n      caller\n        /* \"Rizo.sol\":10308:10314  amount */\n      dup5\n        /* \"Rizo.sol\":10290:10295  _burn */\n      tag_184\n        /* \"Rizo.sol\":10290:10315  _burn(msg.sender, amount) */\n      jump\t// in\n    tag_183:\n        /* \"Rizo.sol\":10353:10361  bindaddr */\n      dup2\n        /* \"Rizo.sol\":10330:10370  LogSwapout(msg.sender, bindaddr, amount) */\n      0xffffffffffffffffffffffffffffffffffffffff\n      and\n        /* \"Rizo.sol\":10341:10351  msg.sender */\n      caller\n        /* \"Rizo.sol\":10330:10370  LogSwapout(msg.sender, bindaddr, amount) */\n      0xffffffffffffffffffffffffffffffffffffffff\n      and\n      0x6b616089d04950dc06c45c6dd787d657980543f89651aec47924752c7d16c888\n        /* \"Rizo.sol\":10363:10369  amount */\n      dup6\n        /* \"Rizo.sol\":10330:10370  LogSwapout(msg.sender, bindaddr, amount) */\n      mload(0x40)\n      tag_185\n      swap2\n      swap1\n      tag_44\n      jump\t// in\n    tag_185:\n      mload(0x40)\n      dup1\n      swap2\n      sub\n      swap1\n      log3\n        /* \"Rizo.sol\":10387:10391  true */\n      0x01\n        /* \"Rizo.sol\":10380:10391  return true */\n      swap1\n      pop\n        /* \"Rizo.sol\":10130:10398  function Swapout(uint256 amount, address bindaddr) public returns (bool) {... */\n      swap3\n      swap2\n      pop\n      pop\n      jump\t// out\n        /* \"Rizo.sol\":9025:9079  mapping (address => uint256) public override balanceOf */\n    tag_78:\n      mstore(0x20, 0x02)\n      dup1\n      0x00\n      mstore\n      keccak256(0x00, 0x40)\n      0x00\n      swap2\n      pop\n      swap1\n      pop\n      sload\n      dup2\n      jump\t// out\n        /* \"Rizo.sol\":10666:10717  mapping (address => uint256) public override nonces */\n    tag_82:\n      mstore(0x20, 0x07)\n      dup1\n      0x00\n      mstore\n      keccak256(0x00, 0x40)\n      0x00\n      swap2\n      pop\n      swap1\n      pop\n      sload\n      dup2\n      jump\t// out\n        /* \"Rizo.sol\":9343:9520  function owner() public view returns (address) {... */\n    tag_85:\n        /* \"Rizo.sol\":9381:9388  address */\n      0x00\n        /* \"Rizo.sol\":9423:9445  _newOwnerEffectiveTime */\n      sload(0x06)\n        /* \"Rizo.sol\":9404:9419  block.timestamp */\n      timestamp\n        /* \"Rizo.sol\":9404:9445  block.timestamp >= _newOwnerEffectiveTime */\n      lt\n        /* \"Rizo.sol\":9400:9488  if (block.timestamp >= _newOwnerEffectiveTime) {... */\n      tag_187\n      jumpi\n        /* \"Rizo.sol\":9468:9477  _newOwner */\n      0x05\n      0x00\n      swap1\n      sload\n      swap1\n      0x0100\n      exp\n      swap1\n      div\n      0xffffffffffffffffffffffffffffffffffffffff\n      and\n        /* \"Rizo.sol\":9461:9477  return _newOwner */\n      swap1\n      pop\n      jump(tag_186)\n        /* \"Rizo.sol\":9400:9488  if (block.timestamp >= _newOwnerEffectiveTime) {... */\n    tag_187:\n        /* \"Rizo.sol\":9504:9513  _oldOwner */\n      0x04\n      0x00\n      swap1\n      sload\n      swap1\n      0x0100\n      exp\n      swap1\n      div\n      0xffffffffffffffffffffffffffffffffffffffff\n      and\n        /* \"Rizo.sol\":9497:9513  return _oldOwner */\n      swap1\n      pop\n        /* \"Rizo.sol\":9343:9520  function owner() public view returns (address) {... */\n    tag_186:\n      swap1\n      jump\t// out\n        /* \"Rizo.sol\":8565:8585  string public symbol */\n    tag_89:\n      0x01\n      dup1\n      sload\n      tag_188\n      swap1\n      tag_117\n      jump\t// in\n    tag_188:\n      dup1\n      0x1f\n      add\n      0x20\n      dup1\n      swap2\n      div\n      mul\n      0x20\n      add\n      mload(0x40)\n      swap1\n      dup2\n      add\n      0x40\n      mstore\n      dup1\n      swap3\n      swap2\n      swap1\n      dup2\n      dup2\n      mstore\n      0x20\n      add\n      dup3\n      dup1\n      sload\n      tag_189\n      swap1\n      tag_117\n      jump\t// in\n    tag_189:\n      dup1\n      iszero\n      tag_190\n      jumpi\n      dup1\n      0x1f\n      lt\n      tag_191\n      jumpi\n      0x0100\n      dup1\n      dup4\n      sload\n      div\n      mul\n      dup4\n      mstore\n      swap2\n      0x20\n      add\n      swap2\n      jump(tag_190)\n    tag_191:\n      dup3\n      add\n      swap2\n      swap1\n      0x00\n      mstore\n      keccak256(0x00, 0x20)\n      swap1\n    tag_192:\n      dup2\n      sload\n      dup2\n      mstore\n      swap1\n      0x01\n      add\n      swap1\n      0x20\n      add\n      dup1\n      dup4\n      gt\n      tag_192\n      jumpi\n      dup3\n      swap1\n      sub\n      0x1f\n      and\n      dup3\n      add\n      swap2\n    tag_190:\n      pop\n      pop\n      pop\n      pop\n      pop\n      dup2\n      jump\t// out\n        /* \"Rizo.sol\":18330:18758  function transfer(address to, uint256 value) external override returns (bool) {... */\n    tag_93:\n        /* \"Rizo.sol\":18402:18406  bool */\n      0x00\n        /* \"Rizo.sol\":18440:18441  0 */\n      dup1\n        /* \"Rizo.sol\":18426:18442  to != address(0) */\n      0xffffffffffffffffffffffffffffffffffffffff\n      and\n        /* \"Rizo.sol\":18426:18428  to */\n      dup4\n        /* \"Rizo.sol\":18426:18442  to != address(0) */\n      0xffffffffffffffffffffffffffffffffffffffff\n      and\n      eq\n      iszero\n        /* \"Rizo.sol\":18426:18465  to != address(0) || to != address(this) */\n      dup1\n      tag_194\n      jumpi\n      pop\n        /* \"Rizo.sol\":18460:18464  this */\n      address\n        /* \"Rizo.sol\":18446:18465  to != address(this) */\n      0xffffffffffffffffffffffffffffffffffffffff\n      and\n        /* \"Rizo.sol\":18446:18448  to */\n      dup4\n        /* \"Rizo.sol\":18446:18465  to != address(this) */\n      0xffffffffffffffffffffffffffffffffffffffff\n      and\n      eq\n      iszero\n        /* \"Rizo.sol\":18426:18465  to != address(0) || to != address(this) */\n    tag_194:\n        /* \"Rizo.sol\":18418:18466  require(to != address(0) || to != address(this)) */\n      tag_195\n      jumpi\n      0x00\n      dup1\n      revert\n    tag_195:\n        /* \"Rizo.sol\":18476:18491  uint256 balance */\n      0x00\n        /* \"Rizo.sol\":18494:18503  balanceOf */\n      0x02\n        /* \"Rizo.sol\":18494:18515  balanceOf[msg.sender] */\n      0x00\n        /* \"Rizo.sol\":18504:18514  msg.sender */\n      caller\n        /* \"Rizo.sol\":18494:18515  balanceOf[msg.sender] */\n      0xffffffffffffffffffffffffffffffffffffffff\n      and\n      0xffffffffffffffffffffffffffffffffffffffff\n      and\n      dup2\n      mstore\n      0x20\n      add\n      swap1\n      dup2\n      mstore\n      0x20\n      add\n      0x00\n      keccak256\n      sload\n        /* \"Rizo.sol\":18476:18515  uint256 balance = balanceOf[msg.sender] */\n      swap1\n      pop\n        /* \"Rizo.sol\":18544:18549  value */\n      dup3\n        /* \"Rizo.sol\":18533:18540  balance */\n      dup2\n        /* \"Rizo.sol\":18533:18549  balance >= value */\n      lt\n      iszero\n        /* \"Rizo.sol\":18525:18593  require(balance >= value, \"WERC10: transfer amount exceeds balance\") */\n      tag_196\n      jumpi\n      mload(0x40)\n      0x08c379a000000000000000000000000000000000000000000000000000000000\n      dup2\n      mstore\n      0x04\n      add\n      tag_197\n      swap1\n      tag_138\n      jump\t// in\n    tag_197:\n      mload(0x40)\n      dup1\n      swap2\n      sub\n      swap1\n      revert\n    tag_196:\n        /* \"Rizo.sol\":18638:18643  value */\n      dup3\n        /* \"Rizo.sol\":18628:18635  balance */\n      dup2\n        /* \"Rizo.sol\":18628:18643  balance - value */\n      tag_198\n      swap2\n      swap1\n      tag_134\n      jump\t// in\n    tag_198:\n        /* \"Rizo.sol\":18604:18613  balanceOf */\n      0x02\n        /* \"Rizo.sol\":18604:18625  balanceOf[msg.sender] */\n      0x00\n        /* \"Rizo.sol\":18614:18624  msg.sender */\n      caller\n        /* \"Rizo.sol\":18604:18625  balanceOf[msg.sender] */\n      0xffffffffffffffffffffffffffffffffffffffff\n      and\n      0xffffffffffffffffffffffffffffffffffffffff\n      and\n      dup2\n      mstore\n      0x20\n      add\n      swap1\n      dup2\n      mstore\n      0x20\n      add\n      0x00\n      keccak256\n        /* \"Rizo.sol\":18604:18643  balanceOf[msg.sender] = balance - value */\n      dup2\n      swap1\n      sstore\n      pop\n        /* \"Rizo.sol\":18670:18675  value */\n      dup3\n        /* \"Rizo.sol\":18653:18662  balanceOf */\n      0x02\n        /* \"Rizo.sol\":18653:18666  balanceOf[to] */\n      0x00\n        /* \"Rizo.sol\":18663:18665  to */\n      dup7\n        /* \"Rizo.sol\":18653:18666  balanceOf[to] */\n      0xffffffffffffffffffffffffffffffffffffffff\n      and\n      0xffffffffffffffffffffffffffffffffffffffff\n      and\n      dup2\n      mstore\n      0x20\n      add\n      swap1\n      dup2\n      mstore\n      0x20\n      add\n      0x00\n      keccak256\n      0x00\n        /* \"Rizo.sol\":18653:18675  balanceOf[to] += value */\n      dup3\n      dup3\n      sload\n      tag_199\n      swap2\n      swap1\n      tag_141\n      jump\t// in\n    tag_199:\n      swap3\n      pop\n      pop\n      dup2\n      swap1\n      sstore\n      pop\n        /* \"Rizo.sol\":18711:18713  to */\n      dup4\n        /* \"Rizo.sol\":18690:18721  Transfer(msg.sender, to, value) */\n      0xffffffffffffffffffffffffffffffffffffffff\n      and\n        /* \"Rizo.sol\":18699:18709  msg.sender */\n      caller\n        /* \"Rizo.sol\":18690:18721  Transfer(msg.sender, to, value) */\n      0xffffffffffffffffffffffffffffffffffffffff\n      and\n      0xddf252ad1be2c89b69c2b068fc378daa952ba7f163c4a11628f55a4df523b3ef\n        /* \"Rizo.sol\":18715:18720  value */\n      dup6\n        /* \"Rizo.sol\":18690:18721  Transfer(msg.sender, to, value) */\n      mload(0x40)\n      tag_200\n      swap2\n      swap1\n      tag_44\n      jump\t// in\n    tag_200:\n      mload(0x40)\n      dup1\n      swap2\n      sub\n      swap1\n      log3\n        /* \"Rizo.sol\":18747:18751  true */\n      0x01\n        /* \"Rizo.sol\":18740:18751  return true */\n      swap2\n      pop\n      pop\n        /* \"Rizo.sol\":18330:18758  function transfer(address to, uint256 value) external override returns (bool) {... */\n      swap3\n      swap2\n      pop\n      pop\n      jump\t// out\n        /* \"Rizo.sol\":9535:9912  function changeDCRMOwner(address newOwner) public onlyOwner returns (bool) {... */\n    tag_97:\n        /* \"Rizo.sol\":9604:9608  bool */\n      0x00\n        /* \"Rizo.sol\":9293:9300  owner() */\n      tag_202\n        /* \"Rizo.sol\":9293:9298  owner */\n      tag_85\n        /* \"Rizo.sol\":9293:9300  owner() */\n      jump\t// in\n    tag_202:\n        /* \"Rizo.sol\":9279:9300  msg.sender == owner() */\n      0xffffffffffffffffffffffffffffffffffffffff\n      and\n        /* \"Rizo.sol\":9279:9289  msg.sender */\n      caller\n        /* \"Rizo.sol\":9279:9300  msg.sender == owner() */\n      0xffffffffffffffffffffffffffffffffffffffff\n      and\n      eq\n        /* \"Rizo.sol\":9271:9315  require(msg.sender == owner(), \"only owner\") */\n      tag_203\n      jumpi\n      mload(0x40)\n      0x08c379a000000000000000000000000000000000000000000000000000000000\n      dup2\n      mstore\n      0x04\n      add\n      tag_204\n      swap1\n      tag_205\n      jump\t// in\n    tag_204:\n      mload(0x40)\n      dup1\n      swap2\n      sub\n      swap1\n      revert\n    tag_203:\n        /* \"Rizo.sol\":9648:9649  0 */\n      0x00\n        /* \"Rizo.sol\":9628:9650  newOwner != address(0) */\n      0xffffffffffffffffffffffffffffffffffffffff\n      and\n        /* \"Rizo.sol\":9628:9636  newOwner */\n      dup3\n        /* \"Rizo.sol\":9628:9650  newOwner != address(0) */\n      0xffffffffffffffffffffffffffffffffffffffff\n      and\n      eq\n      iszero\n        /* \"Rizo.sol\":9620:9684  require(newOwner != address(0), \"new owner is the zero address\") */\n      tag_207\n      jumpi\n      mload(0x40)\n      0x08c379a000000000000000000000000000000000000000000000000000000000\n      dup2\n      mstore\n      0x04\n      add\n      tag_208\n      swap1\n      tag_209\n      jump\t// in\n    tag_208:\n      mload(0x40)\n      dup1\n      swap2\n      sub\n      swap1\n      revert\n    tag_207:\n        /* \"Rizo.sol\":9706:9713  owner() */\n      tag_210\n        /* \"Rizo.sol\":9706:9711  owner */\n      tag_85\n        /* \"Rizo.sol\":9706:9713  owner() */\n      jump\t// in\n    tag_210:\n        /* \"Rizo.sol\":9694:9703  _oldOwner */\n      0x04\n      0x00\n        /* \"Rizo.sol\":9694:9713  _oldOwner = owner() */\n      0x0100\n      exp\n      dup2\n      sload\n      dup2\n      0xffffffffffffffffffffffffffffffffffffffff\n      mul\n      not\n      and\n      swap1\n      dup4\n      0xffffffffffffffffffffffffffffffffffffffff\n      and\n      mul\n      or\n      swap1\n      sstore\n      pop\n        /* \"Rizo.sol\":9735:9743  newOwner */\n      dup2\n        /* \"Rizo.sol\":9723:9732  _newOwner */\n      0x05\n      0x00\n        /* \"Rizo.sol\":9723:9743  _newOwner = newOwner */\n      0x0100\n      exp\n      dup2\n      sload\n      dup2\n      0xffffffffffffffffffffffffffffffffffffffff\n      mul\n      not\n      and\n      swap1\n      dup4\n      0xffffffffffffffffffffffffffffffffffffffff\n      and\n      mul\n      or\n      swap1\n      sstore\n      pop\n        /* \"Rizo.sol\":9796:9805  2*24*3600 */\n      0x02a300\n        /* \"Rizo.sol\":9778:9793  block.timestamp */\n      timestamp\n        /* \"Rizo.sol\":9778:9805  block.timestamp + 2*24*3600 */\n      tag_211\n      swap2\n      swap1\n      tag_141\n      jump\t// in\n    tag_211:\n        /* \"Rizo.sol\":9753:9775  _newOwnerEffectiveTime */\n      0x06\n        /* \"Rizo.sol\":9753:9805  _newOwnerEffectiveTime = block.timestamp + 2*24*3600 */\n      dup2\n      swap1\n      sstore\n      pop\n        /* \"Rizo.sol\":9861:9883  _newOwnerEffectiveTime */\n      sload(0x06)\n        /* \"Rizo.sol\":9850:9859  _newOwner */\n      0x05\n      0x00\n      swap1\n      sload\n      swap1\n      0x0100\n      exp\n      swap1\n      div\n      0xffffffffffffffffffffffffffffffffffffffff\n      and\n        /* \"Rizo.sol\":9820:9884  LogChangeDCRMOwner(_oldOwner, _newOwner, _newOwnerEffectiveTime) */\n      0xffffffffffffffffffffffffffffffffffffffff\n      and\n        /* \"Rizo.sol\":9839:9848  _oldOwner */\n      0x04\n      0x00\n      swap1\n      sload\n      swap1\n      0x0100\n      exp\n      swap1\n      div\n      0xffffffffffffffffffffffffffffffffffffffff\n      and\n        /* \"Rizo.sol\":9820:9884  LogChangeDCRMOwner(_oldOwner, _newOwner, _newOwnerEffectiveTime) */\n      0xffffffffffffffffffffffffffffffffffffffff\n      and\n      0xe1968d4263a733e2597ef67ea6ad267343bba5f8bf0f99d85190e06b05d824d9\n      mload(0x40)\n      mload(0x40)\n      dup1\n      swap2\n      sub\n      swap1\n      log4\n        /* \"Rizo.sol\":9901:9905  true */\n      0x01\n        /* \"Rizo.sol\":9894:9905  return true */\n      swap1\n      pop\n        /* \"Rizo.sol\":9535:9912  function changeDCRMOwner(address newOwner) public onlyOwner returns (bool) {... */\n      swap2\n      swap1\n      pop\n      jump\t// out\n        /* \"Rizo.sol\":14246:14604  function approveAndCall(address spender, uint256 value, bytes calldata data) external override returns (bool) {... */\n    tag_101:\n        /* \"Rizo.sol\":14350:14354  bool */\n      0x00\n        /* \"Rizo.sol\":14448:14453  value */\n      dup4\n        /* \"Rizo.sol\":14415:14424  allowance */\n      0x08\n        /* \"Rizo.sol\":14415:14436  allowance[msg.sender] */\n      0x00\n        /* \"Rizo.sol\":14425:14435  msg.sender */\n      caller\n        /* \"Rizo.sol\":14415:14436  allowance[msg.sender] */\n      0xffffffffffffffffffffffffffffffffffffffff\n      and\n      0xffffffffffffffffffffffffffffffffffffffff\n      and\n      dup2\n      mstore\n      0x20\n      add\n      swap1\n      dup2\n      mstore\n      0x20\n      add\n      0x00\n      keccak256\n        /* \"Rizo.sol\":14415:14445  allowance[msg.sender][spender] */\n      0x00\n        /* \"Rizo.sol\":14437:14444  spender */\n      dup8\n        /* \"Rizo.sol\":14415:14445  allowance[msg.sender][spender] */\n      0xffffffffffffffffffffffffffffffffffffffff\n      and\n      0xffffffffffffffffffffffffffffffffffffffff\n      and\n      dup2\n      mstore\n      0x20\n      add\n      swap1\n      dup2\n      mstore\n      0x20\n      add\n      0x00\n      keccak256\n        /* \"Rizo.sol\":14415:14453  allowance[msg.sender][spender] = value */\n      dup2\n      swap1\n      sstore\n      pop\n        /* \"Rizo.sol\":14489:14496  spender */\n      dup5\n        /* \"Rizo.sol\":14468:14504  Approval(msg.sender, spender, value) */\n      0xffffffffffffffffffffffffffffffffffffffff\n      and\n        /* \"Rizo.sol\":14477:14487  msg.sender */\n      caller\n        /* \"Rizo.sol\":14468:14504  Approval(msg.sender, spender, value) */\n      0xffffffffffffffffffffffffffffffffffffffff\n      and\n      0x8c5be1e5ebec7d5bd14f71427d1e84f3dd0314c0f7b2291e5b200ac8c7c3b925\n        /* \"Rizo.sol\":14498:14503  value */\n      dup7\n        /* \"Rizo.sol\":14468:14504  Approval(msg.sender, spender, value) */\n      mload(0x40)\n      tag_213\n      swap2\n      swap1\n      tag_44\n      jump\t// in\n    tag_213:\n      mload(0x40)\n      dup1\n      swap2\n      sub\n      swap1\n      log3\n        /* \"Rizo.sol\":14548:14555  spender */\n      dup5\n        /* \"Rizo.sol\":14530:14572  IApprovalReceiver(spender).onTokenApproval */\n      0xffffffffffffffffffffffffffffffffffffffff\n      and\n      0xba451f\n        /* \"Rizo.sol\":14573:14583  msg.sender */\n      caller\n        /* \"Rizo.sol\":14585:14590  value */\n      dup7\n        /* \"Rizo.sol\":14592:14596  data */\n      dup7\n      dup7\n        /* \"Rizo.sol\":14530:14597  IApprovalReceiver(spender).onTokenApproval(msg.sender, value, data) */\n      mload(0x40)\n      dup6\n      0xffffffff\n      and\n      0xe0\n      shl\n      dup2\n      mstore\n      0x04\n      add\n      tag_214\n      swap5\n      swap4\n      swap3\n      swap2\n      swap1\n      tag_152\n      jump\t// in\n    tag_214:\n      0x20\n      mload(0x40)\n      dup1\n      dup4\n      sub\n      dup2\n      0x00\n      dup8\n      dup1\n      extcodesize\n      iszero\n      dup1\n      iszero\n      tag_215\n      jumpi\n      0x00\n      dup1\n      revert\n    tag_215:\n      pop\n      gas\n      call\n      iszero\n      dup1\n      iszero\n      tag_217\n      jumpi\n      returndatasize\n      0x00\n      dup1\n      returndatacopy\n      revert(0x00, returndatasize)\n    tag_217:\n      pop\n      pop\n      pop\n      pop\n      mload(0x40)\n      returndatasize\n      not(0x1f)\n      0x1f\n      dup3\n      add\n      and\n      dup3\n      add\n      dup1\n      0x40\n      mstore\n      pop\n      dup2\n      add\n      swap1\n      tag_218\n      swap2\n      swap1\n      tag_157\n      jump\t// in\n    tag_218:\n        /* \"Rizo.sol\":14523:14597  return IApprovalReceiver(spender).onTokenApproval(msg.sender, value, data) */\n      swap1\n      pop\n        /* \"Rizo.sol\":14246:14604  function approveAndCall(address spender, uint256 value, bytes calldata data) external override returns (bool) {... */\n      swap5\n      swap4\n      pop\n      pop\n      pop\n      pop\n      jump\t// out\n        /* \"Rizo.sol\":15410:16100  function permit(address target, address spender, uint256 value, uint256 deadline, uint8 v, bytes32 r, bytes32 s) external override {... */\n    tag_105:\n        /* \"Rizo.sol\":15578:15586  deadline */\n      dup4\n        /* \"Rizo.sol\":15559:15574  block.timestamp */\n      timestamp\n        /* \"Rizo.sol\":15559:15586  block.timestamp <= deadline */\n      gt\n      iszero\n        /* \"Rizo.sol\":15551:15613  require(block.timestamp <= deadline, \"WERC10: Expired permit\") */\n      tag_220\n      jumpi\n      mload(0x40)\n      0x08c379a000000000000000000000000000000000000000000000000000000000\n      dup2\n      mstore\n      0x04\n      add\n      tag_221\n      swap1\n      tag_161\n      jump\t// in\n    tag_221:\n      mload(0x40)\n      dup1\n      swap2\n      sub\n      swap1\n      revert\n    tag_220:\n        /* \"Rizo.sol\":15624:15642  bytes32 hashStruct */\n      0x00\n        /* \"Rizo.sol\":8672:8767  keccak256(\"Permit(address owner,address spender,uint256 value,uint256 nonce,uint256 deadline)\") */\n      0x6e71edae12b1b97f4d1f60370fef10105fa2faae0126114a169c64845d6126c9\n        /* \"Rizo.sol\":15729:15735  target */\n      dup9\n        /* \"Rizo.sol\":15753:15760  spender */\n      dup9\n        /* \"Rizo.sol\":15778:15783  value */\n      dup9\n        /* \"Rizo.sol\":15801:15807  nonces */\n      0x07\n        /* \"Rizo.sol\":15801:15815  nonces[target] */\n      0x00\n        /* \"Rizo.sol\":15808:15814  target */\n      dup14\n        /* \"Rizo.sol\":15801:15815  nonces[target] */\n      0xffffffffffffffffffffffffffffffffffffffff\n      and\n      0xffffffffffffffffffffffffffffffffffffffff\n      and\n      dup2\n      mstore\n      0x20\n      add\n      swap1\n      dup2\n      mstore\n      0x20\n      add\n      0x00\n      keccak256\n      0x00\n        /* \"Rizo.sol\":15801:15817  nonces[target]++ */\n      dup2\n      sload\n      dup1\n      swap3\n      swap2\n      swap1\n      tag_222\n      swap1\n      tag_163\n      jump\t// in\n    tag_222:\n      swap2\n      swap1\n      pop\n      sstore\n        /* \"Rizo.sol\":15835:15843  deadline */\n      dup10\n        /* \"Rizo.sol\":15668:15844  abi.encode(... */\n      add(0x20, mload(0x40))\n      tag_223\n      swap7\n      swap6\n      swap5\n      swap4\n      swap3\n      swap2\n      swap1\n      tag_165\n      jump\t// in\n    tag_223:\n      mload(0x40)\n      0x20\n      dup2\n      dup4\n      sub\n      sub\n      dup2\n      mstore\n      swap1\n      0x40\n      mstore\n        /* \"Rizo.sol\":15645:15845  keccak256(... */\n      dup1\n      mload\n      swap1\n      0x20\n      add\n      keccak256\n        /* \"Rizo.sol\":15624:15845  bytes32 hashStruct = keccak256(... */\n      swap1\n      pop\n        /* \"Rizo.sol\":15864:15905  verifyEIP712(target, hashStruct, v, r, s) */\n      tag_224\n        /* \"Rizo.sol\":15877:15883  target */\n      dup9\n        /* \"Rizo.sol\":15885:15895  hashStruct */\n      dup3\n        /* \"Rizo.sol\":15897:15898  v */\n      dup7\n        /* \"Rizo.sol\":15900:15901  r */\n      dup7\n        /* \"Rizo.sol\":15903:15904  s */\n      dup7\n        /* \"Rizo.sol\":15864:15876  verifyEIP712 */\n      tag_167\n        /* \"Rizo.sol\":15864:15905  verifyEIP712(target, hashStruct, v, r, s) */\n      jump\t// in\n    tag_224:\n        /* \"Rizo.sol\":15864:15956  verifyEIP712(target, hashStruct, v, r, s) || verifyPersonalSign(target, hashStruct, v, r, s) */\n      dup1\n      tag_225\n      jumpi\n      pop\n        /* \"Rizo.sol\":15909:15956  verifyPersonalSign(target, hashStruct, v, r, s) */\n      tag_226\n        /* \"Rizo.sol\":15928:15934  target */\n      dup9\n        /* \"Rizo.sol\":15936:15946  hashStruct */\n      dup3\n        /* \"Rizo.sol\":15948:15949  v */\n      dup7\n        /* \"Rizo.sol\":15951:15952  r */\n      dup7\n        /* \"Rizo.sol\":15954:15955  s */\n      dup7\n        /* \"Rizo.sol\":15909:15927  verifyPersonalSign */\n      tag_170\n        /* \"Rizo.sol\":15909:15956  verifyPersonalSign(target, hashStruct, v, r, s) */\n      jump\t// in\n    tag_226:\n        /* \"Rizo.sol\":15864:15956  verifyEIP712(target, hashStruct, v, r, s) || verifyPersonalSign(target, hashStruct, v, r, s) */\n    tag_225:\n        /* \"Rizo.sol\":15856:15957  require(verifyEIP712(target, hashStruct, v, r, s) || verifyPersonalSign(target, hashStruct, v, r, s)) */\n      tag_227\n      jumpi\n      0x00\n      dup1\n      revert\n    tag_227:\n        /* \"Rizo.sol\":16041:16046  value */\n      dup6\n        /* \"Rizo.sol\":16012:16021  allowance */\n      0x08\n        /* \"Rizo.sol\":16012:16029  allowance[target] */\n      0x00\n        /* \"Rizo.sol\":16022:16028  target */\n      dup11\n        /* \"Rizo.sol\":16012:16029  allowance[target] */\n      0xffffffffffffffffffffffffffffffffffffffff\n      and\n      0xffffffffffffffffffffffffffffffffffffffff\n      and\n      dup2\n      mstore\n      0x20\n      add\n      swap1\n      dup2\n      mstore\n      0x20\n      add\n      0x00\n      keccak256\n        /* \"Rizo.sol\":16012:16038  allowance[target][spender] */\n      0x00\n        /* \"Rizo.sol\":16030:16037  spender */\n      dup10\n        /* \"Rizo.sol\":16012:16038  allowance[target][spender] */\n      0xffffffffffffffffffffffffffffffffffffffff\n      and\n      0xffffffffffffffffffffffffffffffffffffffff\n      and\n      dup2\n      mstore\n      0x20\n      add\n      swap1\n      dup2\n      mstore\n      0x20\n      add\n      0x00\n      keccak256\n        /* \"Rizo.sol\":16012:16046  allowance[target][spender] = value */\n      dup2\n      swap1\n      sstore\n      pop\n        /* \"Rizo.sol\":16078:16085  spender */\n      dup7\n        /* \"Rizo.sol\":16061:16093  Approval(target, spender, value) */\n      0xffffffffffffffffffffffffffffffffffffffff\n      and\n        /* \"Rizo.sol\":16070:16076  target */\n      dup9\n        /* \"Rizo.sol\":16061:16093  Approval(target, spender, value) */\n      0xffffffffffffffffffffffffffffffffffffffff\n      and\n      0x8c5be1e5ebec7d5bd14f71427d1e84f3dd0314c0f7b2291e5b200ac8c7c3b925\n        /* \"Rizo.sol\":16087:16092  value */\n      dup9\n        /* \"Rizo.sol\":16061:16093  Approval(target, spender, value) */\n      mload(0x40)\n      tag_228\n      swap2\n      swap1\n      tag_44\n      jump\t// in\n    tag_228:\n      mload(0x40)\n      dup1\n      swap2\n      sub\n      swap1\n      log3\n        /* \"Rizo.sol\":15410:16100  function permit(address target, address spender, uint256 value, uint256 deadline, uint8 v, bytes32 r, bytes32 s) external override {... */\n      pop\n      pop\n      pop\n      pop\n      pop\n      pop\n      pop\n      pop\n      jump\t// out\n        /* \"Rizo.sol\":10876:10951  mapping (address => mapping (address => uint256)) public override allowance */\n    tag_109:\n      mstore(0x20, 0x08)\n      dup2\n      0x00\n      mstore\n      mstore(0x20, keccak256(0x00, 0x40))\n      dup1\n      0x00\n      mstore\n      keccak256(0x00, 0x40)\n      0x00\n      swap2\n      pop\n      swap2\n      pop\n      pop\n      sload\n      dup2\n      jump\t// out\n        /* \"Rizo.sol\":9918:10124  function Swapin(bytes32 txhash, address account, uint256 amount) public onlyOwner returns (bool) {... */\n    tag_114:\n        /* \"Rizo.sol\":10009:10013  bool */\n      0x00\n        /* \"Rizo.sol\":9293:9300  owner() */\n      tag_230\n        /* \"Rizo.sol\":9293:9298  owner */\n      tag_85\n        /* \"Rizo.sol\":9293:9300  owner() */\n      jump\t// in\n    tag_230:\n        /* \"Rizo.sol\":9279:9300  msg.sender == owner() */\n      0xffffffffffffffffffffffffffffffffffffffff\n      and\n        /* \"Rizo.sol\":9279:9289  msg.sender */\n      caller\n        /* \"Rizo.sol\":9279:9300  msg.sender == owner() */\n      0xffffffffffffffffffffffffffffffffffffffff\n      and\n      eq\n        /* \"Rizo.sol\":9271:9315  require(msg.sender == owner(), \"only owner\") */\n      tag_231\n      jumpi\n      mload(0x40)\n      0x08c379a000000000000000000000000000000000000000000000000000000000\n      dup2\n      mstore\n      0x04\n      add\n      tag_232\n      swap1\n      tag_205\n      jump\t// in\n    tag_232:\n      mload(0x40)\n      dup1\n      swap2\n      sub\n      swap1\n      revert\n    tag_231:\n        /* \"Rizo.sol\":10025:10047  _mint(account, amount) */\n      tag_234\n        /* \"Rizo.sol\":10031:10038  account */\n      dup4\n        /* \"Rizo.sol\":10040:10046  amount */\n      dup4\n        /* \"Rizo.sol\":10025:10030  _mint */\n      tag_235\n        /* \"Rizo.sol\":10025:10047  _mint(account, amount) */\n      jump\t// in\n    tag_234:\n        /* \"Rizo.sol\":10080:10087  account */\n      dup3\n        /* \"Rizo.sol\":10062:10096  LogSwapin(txhash, account, amount) */\n      0xffffffffffffffffffffffffffffffffffffffff\n      and\n        /* \"Rizo.sol\":10072:10078  txhash */\n      dup5\n        /* \"Rizo.sol\":10062:10096  LogSwapin(txhash, account, amount) */\n      0x05d0634fe981be85c22e2942a880821b70095d84e152c3ea3c17a4e4250d9d61\n        /* \"Rizo.sol\":10089:10095  amount */\n      dup5\n        /* \"Rizo.sol\":10062:10096  LogSwapin(txhash, account, amount) */\n      mload(0x40)\n      tag_236\n      swap2\n      swap1\n      tag_44\n      jump\t// in\n    tag_236:\n      mload(0x40)\n      dup1\n      swap2\n      sub\n      swap1\n      log3\n        /* \"Rizo.sol\":10113:10117  true */\n      0x01\n        /* \"Rizo.sol\":10106:10117  return true */\n      swap1\n      pop\n        /* \"Rizo.sol\":9918:10124  function Swapin(bytes32 txhash, address account, uint256 amount) public onlyOwner returns (bool) {... */\n      swap4\n      swap3\n      pop\n      pop\n      pop\n      jump\t// out\n        /* \"Rizo.sol\":17021:17412  function verifyEIP712(address target, bytes32 hashStruct, uint8 v, bytes32 r, bytes32 s) internal view returns (bool) {... */\n    tag_167:\n        /* \"Rizo.sol\":17133:17137  bool */\n      0x00\n        /* \"Rizo.sol\":17149:17161  bytes32 hash */\n      dup1\n        /* \"Rizo.sol\":17249:17265  DOMAIN_SEPARATOR */\n      immutable(\"0x4eede269e0c53dc1774f9d2bc345d511093ea6f1ea5cfde86bf50918a800577d\")\n        /* \"Rizo.sol\":17283:17293  hashStruct */\n      dup7\n        /* \"Rizo.sol\":17187:17294  abi.encodePacked(... */\n      add(0x20, mload(0x40))\n      tag_238\n      swap3\n      swap2\n      swap1\n      tag_239\n      jump\t// in\n    tag_238:\n      mload(0x40)\n      0x20\n      dup2\n      dup4\n      sub\n      sub\n      dup2\n      mstore\n      swap1\n      0x40\n      mstore\n        /* \"Rizo.sol\":17164:17295  keccak256(... */\n      dup1\n      mload\n      swap1\n      0x20\n      add\n      keccak256\n        /* \"Rizo.sol\":17149:17295  bytes32 hash = keccak256(... */\n      swap1\n      pop\n        /* \"Rizo.sol\":17305:17319  address signer */\n      0x00\n        /* \"Rizo.sol\":17322:17346  ecrecover(hash, v, r, s) */\n      0x01\n        /* \"Rizo.sol\":17332:17336  hash */\n      dup3\n        /* \"Rizo.sol\":17338:17339  v */\n      dup8\n        /* \"Rizo.sol\":17341:17342  r */\n      dup8\n        /* \"Rizo.sol\":17344:17345  s */\n      dup8\n        /* \"Rizo.sol\":17322:17346  ecrecover(hash, v, r, s) */\n      mload(0x40)\n      0x00\n      dup2\n      mstore\n      0x20\n      add\n      0x40\n      mstore\n      mload(0x40)\n      tag_240\n      swap5\n      swap4\n      swap3\n      swap2\n      swap1\n      tag_241\n      jump\t// in\n    tag_240:\n      0x20\n      mload(0x40)\n      0x20\n      dup2\n      sub\n      swap1\n      dup1\n      dup5\n      sub\n      swap1\n      dup6\n      gas\n      staticcall\n      iszero\n      dup1\n      iszero\n      tag_243\n      jumpi\n      returndatasize\n      0x00\n      dup1\n      returndatacopy\n      revert(0x00, returndatasize)\n    tag_243:\n      pop\n      pop\n      pop\n      mload(sub(mload(0x40), 0x20))\n        /* \"Rizo.sol\":17305:17346  address signer = ecrecover(hash, v, r, s) */\n      swap1\n      pop\n        /* \"Rizo.sol\":17382:17383  0 */\n      0x00\n        /* \"Rizo.sol\":17364:17384  signer != address(0) */\n      0xffffffffffffffffffffffffffffffffffffffff\n      and\n        /* \"Rizo.sol\":17364:17370  signer */\n      dup2\n        /* \"Rizo.sol\":17364:17384  signer != address(0) */\n      0xffffffffffffffffffffffffffffffffffffffff\n      and\n      eq\n      iszero\n        /* \"Rizo.sol\":17364:17404  signer != address(0) && signer == target */\n      dup1\n      iszero\n      tag_244\n      jumpi\n      pop\n        /* \"Rizo.sol\":17398:17404  target */\n      dup8\n        /* \"Rizo.sol\":17388:17404  signer == target */\n      0xffffffffffffffffffffffffffffffffffffffff\n      and\n        /* \"Rizo.sol\":17388:17394  signer */\n      dup2\n        /* \"Rizo.sol\":17388:17404  signer == target */\n      0xffffffffffffffffffffffffffffffffffffffff\n      and\n      eq\n        /* \"Rizo.sol\":17364:17404  signer != address(0) && signer == target */\n    tag_244:\n        /* \"Rizo.sol\":17356:17405  return (signer != address(0) && signer == target) */\n      swap3\n      pop\n      pop\n      pop\n        /* \"Rizo.sol\":17021:17412  function verifyEIP712(address target, bytes32 hashStruct, uint8 v, bytes32 r, bytes32 s) internal view returns (bool) {... */\n      swap6\n      swap5\n      pop\n      pop\n      pop\n      pop\n      pop\n      jump\t// out\n        /* \"Rizo.sol\":17422:17708  function verifyPersonalSign(address target, bytes32 hashStruct, uint8 v, bytes32 r, bytes32 s) internal pure returns (bool) {... */\n    tag_170:\n        /* \"Rizo.sol\":17540:17544  bool */\n      0x00\n        /* \"Rizo.sol\":17556:17568  bytes32 hash */\n      dup1\n        /* \"Rizo.sol\":17571:17591  prefixed(hashStruct) */\n      tag_246\n        /* \"Rizo.sol\":17580:17590  hashStruct */\n      dup7\n        /* \"Rizo.sol\":17571:17579  prefixed */\n      tag_247\n        /* \"Rizo.sol\":17571:17591  prefixed(hashStruct) */\n      jump\t// in\n    tag_246:\n        /* \"Rizo.sol\":17556:17591  bytes32 hash = prefixed(hashStruct) */\n      swap1\n      pop\n        /* \"Rizo.sol\":17601:17615  address signer */\n      0x00\n        /* \"Rizo.sol\":17618:17642  ecrecover(hash, v, r, s) */\n      0x01\n        /* \"Rizo.sol\":17628:17632  hash */\n      dup3\n        /* \"Rizo.sol\":17634:17635  v */\n      dup8\n        /* \"Rizo.sol\":17637:17638  r */\n      dup8\n        /* \"Rizo.sol\":17640:17641  s */\n      dup8\n        /* \"Rizo.sol\":17618:17642  ecrecover(hash, v, r, s) */\n      mload(0x40)\n      0x00\n      dup2\n      mstore\n      0x20\n      add\n      0x40\n      mstore\n      mload(0x40)\n      tag_248\n      swap5\n      swap4\n      swap3\n      swap2\n      swap1\n      tag_241\n      jump\t// in\n    tag_248:\n      0x20\n      mload(0x40)\n      0x20\n      dup2\n      sub\n      swap1\n      dup1\n      dup5\n      sub\n      swap1\n      dup6\n      gas\n      staticcall\n      iszero\n      dup1\n      iszero\n      tag_250\n      jumpi\n      returndatasize\n      0x00\n      dup1\n      returndatacopy\n      revert(0x00, returndatasize)\n    tag_250:\n      pop\n      pop\n      pop\n      mload(sub(mload(0x40), 0x20))\n        /* \"Rizo.sol\":17601:17642  address signer = ecrecover(hash, v, r, s) */\n      swap1\n      pop\n        /* \"Rizo.sol\":17678:17679  0 */\n      0x00\n        /* \"Rizo.sol\":17660:17680  signer != address(0) */\n      0xffffffffffffffffffffffffffffffffffffffff\n      and\n        /* \"Rizo.sol\":17660:17666  signer */\n      dup2\n        /* \"Rizo.sol\":17660:17680  signer != address(0) */\n      0xffffffffffffffffffffffffffffffffffffffff\n      and\n      eq\n      iszero\n        /* \"Rizo.sol\":17660:17700  signer != address(0) && signer == target */\n      dup1\n      iszero\n      tag_251\n      jumpi\n      pop\n        /* \"Rizo.sol\":17694:17700  target */\n      dup8\n        /* \"Rizo.sol\":17684:17700  signer == target */\n      0xffffffffffffffffffffffffffffffffffffffff\n      and\n        /* \"Rizo.sol\":17684:17690  signer */\n      dup2\n        /* \"Rizo.sol\":17684:17700  signer == target */\n      0xffffffffffffffffffffffffffffffffffffffff\n      and\n      eq\n        /* \"Rizo.sol\":17660:17700  signer != address(0) && signer == target */\n    tag_251:\n        /* \"Rizo.sol\":17652:17701  return (signer != address(0) && signer == target) */\n      swap3\n      pop\n      pop\n      pop\n        /* \"Rizo.sol\":17422:17708  function verifyPersonalSign(address target, bytes32 hashStruct, uint8 v, bytes32 r, bytes32 s) internal pure returns (bool) {... */\n      swap6\n      swap5\n      pop\n      pop\n      pop\n      pop\n      pop\n      jump\t// out\n        /* \"Rizo.sol\":13109:13373  function _burn(address account, uint256 amount) internal {... */\n    tag_184:\n        /* \"Rizo.sol\":13203:13204  0 */\n      0x00\n        /* \"Rizo.sol\":13184:13205  account != address(0) */\n      0xffffffffffffffffffffffffffffffffffffffff\n      and\n        /* \"Rizo.sol\":13184:13191  account */\n      dup3\n        /* \"Rizo.sol\":13184:13205  account != address(0) */\n      0xffffffffffffffffffffffffffffffffffffffff\n      and\n      eq\n      iszero\n        /* \"Rizo.sol\":13176:13243  require(account != address(0), \"ERC20: burn from the zero address\") */\n      tag_253\n      jumpi\n      mload(0x40)\n      0x08c379a000000000000000000000000000000000000000000000000000000000\n      dup2\n      mstore\n      0x04\n      add\n      tag_254\n      swap1\n      tag_255\n      jump\t// in\n    tag_254:\n      mload(0x40)\n      dup1\n      swap2\n      sub\n      swap1\n      revert\n    tag_253:\n        /* \"Rizo.sol\":13276:13282  amount */\n      dup1\n        /* \"Rizo.sol\":13254:13263  balanceOf */\n      0x02\n        /* \"Rizo.sol\":13254:13272  balanceOf[account] */\n      0x00\n        /* \"Rizo.sol\":13264:13271  account */\n      dup5\n        /* \"Rizo.sol\":13254:13272  balanceOf[account] */\n      0xffffffffffffffffffffffffffffffffffffffff\n      and\n      0xffffffffffffffffffffffffffffffffffffffff\n      and\n      dup2\n      mstore\n      0x20\n      add\n      swap1\n      dup2\n      mstore\n      0x20\n      add\n      0x00\n      keccak256\n      0x00\n        /* \"Rizo.sol\":13254:13282  balanceOf[account] -= amount */\n      dup3\n      dup3\n      sload\n      tag_256\n      swap2\n      swap1\n      tag_134\n      jump\t// in\n    tag_256:\n      swap3\n      pop\n      pop\n      dup2\n      swap1\n      sstore\n      pop\n        /* \"Rizo.sol\":13308:13314  amount */\n      dup1\n        /* \"Rizo.sol\":13292:13304  _totalSupply */\n      0x03\n      0x00\n        /* \"Rizo.sol\":13292:13314  _totalSupply -= amount */\n      dup3\n      dup3\n      sload\n      tag_257\n      swap2\n      swap1\n      tag_134\n      jump\t// in\n    tag_257:\n      swap3\n      pop\n      pop\n      dup2\n      swap1\n      sstore\n      pop\n        /* \"Rizo.sol\":13355:13356  0 */\n      0x00\n        /* \"Rizo.sol\":13329:13366  Transfer(account, address(0), amount) */\n      0xffffffffffffffffffffffffffffffffffffffff\n      and\n        /* \"Rizo.sol\":13338:13345  account */\n      dup3\n        /* \"Rizo.sol\":13329:13366  Transfer(account, address(0), amount) */\n      0xffffffffffffffffffffffffffffffffffffffff\n      and\n      0xddf252ad1be2c89b69c2b068fc378daa952ba7f163c4a11628f55a4df523b3ef\n        /* \"Rizo.sol\":13359:13365  amount */\n      dup4\n        /* \"Rizo.sol\":13329:13366  Transfer(account, address(0), amount) */\n      mload(0x40)\n      tag_258\n      swap2\n      swap1\n      tag_44\n      jump\t// in\n    tag_258:\n      mload(0x40)\n      dup1\n      swap2\n      sub\n      swap1\n      log3\n        /* \"Rizo.sol\":13109:13373  function _burn(address account, uint256 amount) internal {... */\n      pop\n      pop\n      jump\t// out\n        /* \"Rizo.sol\":12528:12790  function _mint(address account, uint256 amount) internal {... */\n    tag_235:\n        /* \"Rizo.sol\":12622:12623  0 */\n      0x00\n        /* \"Rizo.sol\":12603:12624  account != address(0) */\n      0xffffffffffffffffffffffffffffffffffffffff\n      and\n        /* \"Rizo.sol\":12603:12610  account */\n      dup3\n        /* \"Rizo.sol\":12603:12624  account != address(0) */\n      0xffffffffffffffffffffffffffffffffffffffff\n      and\n      eq\n      iszero\n        /* \"Rizo.sol\":12595:12660  require(account != address(0), \"ERC20: mint to the zero address\") */\n      tag_260\n      jumpi\n      mload(0x40)\n      0x08c379a000000000000000000000000000000000000000000000000000000000\n      dup2\n      mstore\n      0x04\n      add\n      tag_261\n      swap1\n      tag_262\n      jump\t// in\n    tag_261:\n      mload(0x40)\n      dup1\n      swap2\n      sub\n      swap1\n      revert\n    tag_260:\n        /* \"Rizo.sol\":12687:12693  amount */\n      dup1\n        /* \"Rizo.sol\":12671:12683  _totalSupply */\n      0x03\n      0x00\n        /* \"Rizo.sol\":12671:12693  _totalSupply += amount */\n      dup3\n      dup3\n      sload\n      tag_263\n      swap2\n      swap1\n      tag_141\n      jump\t// in\n    tag_263:\n      swap3\n      pop\n      pop\n      dup2\n      swap1\n      sstore\n      pop\n        /* \"Rizo.sol\":12725:12731  amount */\n      dup1\n        /* \"Rizo.sol\":12703:12712  balanceOf */\n      0x02\n        /* \"Rizo.sol\":12703:12721  balanceOf[account] */\n      0x00\n        /* \"Rizo.sol\":12713:12720  account */\n      dup5\n        /* \"Rizo.sol\":12703:12721  balanceOf[account] */\n      0xffffffffffffffffffffffffffffffffffffffff\n      and\n      0xffffffffffffffffffffffffffffffffffffffff\n      and\n      dup2\n      mstore\n      0x20\n      add\n      swap1\n      dup2\n      mstore\n      0x20\n      add\n      0x00\n      keccak256\n      0x00\n        /* \"Rizo.sol\":12703:12731  balanceOf[account] += amount */\n      dup3\n      dup3\n      sload\n      tag_264\n      swap2\n      swap1\n      tag_141\n      jump\t// in\n    tag_264:\n      swap3\n      pop\n      pop\n      dup2\n      swap1\n      sstore\n      pop\n        /* \"Rizo.sol\":12767:12774  account */\n      dup2\n        /* \"Rizo.sol\":12746:12783  Transfer(address(0), account, amount) */\n      0xffffffffffffffffffffffffffffffffffffffff\n      and\n        /* \"Rizo.sol\":12763:12764  0 */\n      0x00\n        /* \"Rizo.sol\":12746:12783  Transfer(address(0), account, amount) */\n      0xffffffffffffffffffffffffffffffffffffffff\n      and\n      0xddf252ad1be2c89b69c2b068fc378daa952ba7f163c4a11628f55a4df523b3ef\n        /* \"Rizo.sol\":12776:12782  amount */\n      dup4\n        /* \"Rizo.sol\":12746:12783  Transfer(address(0), account, amount) */\n      mload(0x40)\n      tag_265\n      swap2\n      swap1\n      tag_44\n      jump\t// in\n    tag_265:\n      mload(0x40)\n      dup1\n      swap2\n      sub\n      swap1\n      log3\n        /* \"Rizo.sol\":12528:12790  function _mint(address account, uint256 amount) internal {... */\n      pop\n      pop\n      jump\t// out\n        /* \"Rizo.sol\":17783:17940  function prefixed(bytes32 hash) internal pure returns (bytes32) {... */\n    tag_247:\n        /* \"Rizo.sol\":17838:17845  bytes32 */\n      0x00\n        /* \"Rizo.sol\":17927:17931  hash */\n      dup2\n        /* \"Rizo.sol\":17874:17932  abi.encodePacked(\"\\x19Ethereum Signed Message:\\n32\", hash) */\n      add(0x20, mload(0x40))\n      tag_267\n      swap2\n      swap1\n      tag_268\n      jump\t// in\n    tag_267:\n      mload(0x40)\n      0x20\n      dup2\n      dup4\n      sub\n      sub\n      dup2\n      mstore\n      swap1\n      0x40\n      mstore\n        /* \"Rizo.sol\":17864:17933  keccak256(abi.encodePacked(\"\\x19Ethereum Signed Message:\\n32\", hash)) */\n      dup1\n      mload\n      swap1\n      0x20\n      add\n      keccak256\n        /* \"Rizo.sol\":17857:17933  return keccak256(abi.encodePacked(\"\\x19Ethereum Signed Message:\\n32\", hash)) */\n      swap1\n      pop\n        /* \"Rizo.sol\":17783:17940  function prefixed(bytes32 hash) internal pure returns (bytes32) {... */\n      swap2\n      swap1\n      pop\n      jump\t// out\n        /* \"#utility.yul\":7:146   */\n    tag_270:\n      0x00\n        /* \"#utility.yul\":91:97   */\n      dup2\n        /* \"#utility.yul\":78:98   */\n      calldataload\n        /* \"#utility.yul\":69:98   */\n      swap1\n      pop\n        /* \"#utility.yul\":107:140   */\n      tag_272\n        /* \"#utility.yul\":134:139   */\n      dup2\n        /* \"#utility.yul\":107:140   */\n      tag_273\n      jump\t// in\n    tag_272:\n        /* \"#utility.yul\":59:146   */\n      swap3\n      swap2\n      pop\n      pop\n      jump\t// out\n        /* \"#utility.yul\":152:289   */\n    tag_274:\n      0x00\n        /* \"#utility.yul\":237:243   */\n      dup2\n        /* \"#utility.yul\":231:244   */\n      mload\n        /* \"#utility.yul\":222:244   */\n      swap1\n      pop\n        /* \"#utility.yul\":253:283   */\n      tag_276\n        /* \"#utility.yul\":277:282   */\n      dup2\n        /* \"#utility.yul\":253:283   */\n      tag_277\n      jump\t// in\n    tag_276:\n        /* \"#utility.yul\":212:289   */\n      swap3\n      swap2\n      pop\n      pop\n      jump\t// out\n        /* \"#utility.yul\":295:434   */\n    tag_278:\n      0x00\n        /* \"#utility.yul\":379:385   */\n      dup2\n        /* \"#utility.yul\":366:386   */\n      calldataload\n        /* \"#utility.yul\":357:386   */\n      swap1\n      pop\n        /* \"#utility.yul\":395:428   */\n      tag_280\n        /* \"#utility.yul\":422:427   */\n      dup2\n        /* \"#utility.yul\":395:428   */\n      tag_281\n      jump\t// in\n    tag_280:\n        /* \"#utility.yul\":347:434   */\n      swap3\n      swap2\n      pop\n      pop\n      jump\t// out\n        /* \"#utility.yul\":453:804   */\n    tag_282:\n      0x00\n      dup1\n        /* \"#utility.yul\":570:573   */\n      dup4\n        /* \"#utility.yul\":563:567   */\n      0x1f\n        /* \"#utility.yul\":555:561   */\n      dup5\n        /* \"#utility.yul\":551:568   */\n      add\n        /* \"#utility.yul\":547:574   */\n      slt\n        /* \"#utility.yul\":537:539   */\n      tag_284\n      jumpi\n        /* \"#utility.yul\":588:589   */\n      0x00\n        /* \"#utility.yul\":585:586   */\n      dup1\n        /* \"#utility.yul\":578:590   */\n      revert\n        /* \"#utility.yul\":537:539   */\n    tag_284:\n        /* \"#utility.yul\":624:630   */\n      dup3\n        /* \"#utility.yul\":611:631   */\n      calldataload\n        /* \"#utility.yul\":601:631   */\n      swap1\n      pop\n        /* \"#utility.yul\":654:672   */\n      0xffffffffffffffff\n        /* \"#utility.yul\":646:652   */\n      dup2\n        /* \"#utility.yul\":643:673   */\n      gt\n        /* \"#utility.yul\":640:642   */\n      iszero\n      tag_285\n      jumpi\n        /* \"#utility.yul\":686:687   */\n      0x00\n        /* \"#utility.yul\":683:684   */\n      dup1\n        /* \"#utility.yul\":676:688   */\n      revert\n        /* \"#utility.yul\":640:642   */\n    tag_285:\n        /* \"#utility.yul\":723:727   */\n      0x20\n        /* \"#utility.yul\":715:721   */\n      dup4\n        /* \"#utility.yul\":711:728   */\n      add\n        /* \"#utility.yul\":699:728   */\n      swap2\n      pop\n        /* \"#utility.yul\":777:780   */\n      dup4\n        /* \"#utility.yul\":769:773   */\n      0x01\n        /* \"#utility.yul\":761:767   */\n      dup3\n        /* \"#utility.yul\":757:774   */\n      mul\n        /* \"#utility.yul\":747:755   */\n      dup4\n        /* \"#utility.yul\":743:775   */\n      add\n        /* \"#utility.yul\":740:781   */\n      gt\n        /* \"#utility.yul\":737:739   */\n      iszero\n      tag_286\n      jumpi\n        /* \"#utility.yul\":794:795   */\n      0x00\n        /* \"#utility.yul\":791:792   */\n      dup1\n        /* \"#utility.yul\":784:796   */\n      revert\n        /* \"#utility.yul\":737:739   */\n    tag_286:\n        /* \"#utility.yul\":527:804   */\n      swap3\n      pop\n      swap3\n      swap1\n      pop\n      jump\t// out\n        /* \"#utility.yul\":810:949   */\n    tag_287:\n      0x00\n        /* \"#utility.yul\":894:900   */\n      dup2\n        /* \"#utility.yul\":881:901   */\n      calldataload\n        /* \"#utility.yul\":872:901   */\n      swap1\n      pop\n        /* \"#utility.yul\":910:943   */\n      tag_289\n        /* \"#utility.yul\":937:942   */\n      dup2\n        /* \"#utility.yul\":910:943   */\n      tag_290\n      jump\t// in\n    tag_289:\n        /* \"#utility.yul\":862:949   */\n      swap3\n      swap2\n      pop\n      pop\n      jump\t// out\n        /* \"#utility.yul\":955:1090   */\n    tag_291:\n      0x00\n        /* \"#utility.yul\":1037:1043   */\n      dup2\n        /* \"#utility.yul\":1024:1044   */\n      calldataload\n        /* \"#utility.yul\":1015:1044   */\n      swap1\n      pop\n        /* \"#utility.yul\":1053:1084   */\n      tag_293\n        /* \"#utility.yul\":1078:1083   */\n      dup2\n        /* \"#utility.yul\":1053:1084   */\n      tag_294\n      jump\t// in\n    tag_293:\n        /* \"#utility.yul\":1005:1090   */\n      swap3\n      swap2\n      pop\n      pop\n      jump\t// out\n        /* \"#utility.yul\":1096:1358   */\n    tag_77:\n      0x00\n        /* \"#utility.yul\":1204:1206   */\n      0x20\n        /* \"#utility.yul\":1192:1201   */\n      dup3\n        /* \"#utility.yul\":1183:1190   */\n      dup5\n        /* \"#utility.yul\":1179:1202   */\n      sub\n        /* \"#utility.yul\":1175:1207   */\n      slt\n        /* \"#utility.yul\":1172:1174   */\n      iszero\n      tag_296\n      jumpi\n        /* \"#utility.yul\":1220:1221   */\n      0x00\n        /* \"#utility.yul\":1217:1218   */\n      dup1\n        /* \"#utility.yul\":1210:1222   */\n      revert\n        /* \"#utility.yul\":1172:1174   */\n    tag_296:\n        /* \"#utility.yul\":1263:1264   */\n      0x00\n        /* \"#utility.yul\":1288:1341   */\n      tag_297\n        /* \"#utility.yul\":1333:1340   */\n      dup5\n        /* \"#utility.yul\":1324:1330   */\n      dup3\n        /* \"#utility.yul\":1313:1322   */\n      dup6\n        /* \"#utility.yul\":1309:1331   */\n      add\n        /* \"#utility.yul\":1288:1341   */\n      tag_270\n      jump\t// in\n    tag_297:\n        /* \"#utility.yul\":1278:1341   */\n      swap2\n      pop\n        /* \"#utility.yul\":1234:1351   */\n      pop\n        /* \"#utility.yul\":1162:1358   */\n      swap3\n      swap2\n      pop\n      pop\n      jump\t// out\n        /* \"#utility.yul\":1364:1771   */\n    tag_108:\n      0x00\n      dup1\n        /* \"#utility.yul\":1489:1491   */\n      0x40\n        /* \"#utility.yul\":1477:1486   */\n      dup4\n        /* \"#utility.yul\":1468:1475   */\n      dup6\n        /* \"#utility.yul\":1464:1487   */\n      sub\n        /* \"#utility.yul\":1460:1492   */\n      slt\n        /* \"#utility.yul\":1457:1459   */\n      iszero\n      tag_299\n      jumpi\n        /* \"#utility.yul\":1505:1506   */\n      0x00\n        /* \"#utility.yul\":1502:1503   */\n      dup1\n        /* \"#utility.yul\":1495:1507   */\n      revert\n        /* \"#utility.yul\":1457:1459   */\n    tag_299:\n        /* \"#utility.yul\":1548:1549   */\n      0x00\n        /* \"#utility.yul\":1573:1626   */\n      tag_300\n        /* \"#utility.yul\":1618:1625   */\n      dup6\n        /* \"#utility.yul\":1609:1615   */\n      dup3\n        /* \"#utility.yul\":1598:1607   */\n      dup7\n        /* \"#utility.yul\":1594:1616   */\n      add\n        /* \"#utility.yul\":1573:1626   */\n      tag_270\n      jump\t// in\n    tag_300:\n        /* \"#utility.yul\":1563:1626   */\n      swap3\n      pop\n        /* \"#utility.yul\":1519:1636   */\n      pop\n        /* \"#utility.yul\":1675:1677   */\n      0x20\n        /* \"#utility.yul\":1701:1754   */\n      tag_301\n        /* \"#utility.yul\":1746:1753   */\n      dup6\n        /* \"#utility.yul\":1737:1743   */\n      dup3\n        /* \"#utility.yul\":1726:1735   */\n      dup7\n        /* \"#utility.yul\":1722:1744   */\n      add\n        /* \"#utility.yul\":1701:1754   */\n      tag_270\n      jump\t// in\n    tag_301:\n        /* \"#utility.yul\":1691:1754   */\n      swap2\n      pop\n        /* \"#utility.yul\":1646:1764   */\n      pop\n        /* \"#utility.yul\":1447:1771   */\n      swap3\n      pop\n      swap3\n      swap1\n      pop\n      jump\t// out\n        /* \"#utility.yul\":1777:2329   */\n    tag_47:\n      0x00\n      dup1\n      0x00\n        /* \"#utility.yul\":1919:1921   */\n      0x60\n        /* \"#utility.yul\":1907:1916   */\n      dup5\n        /* \"#utility.yul\":1898:1905   */\n      dup7\n        /* \"#utility.yul\":1894:1917   */\n      sub\n        /* \"#utility.yul\":1890:1922   */\n      slt\n        /* \"#utility.yul\":1887:1889   */\n      iszero\n      tag_303\n      jumpi\n        /* \"#utility.yul\":1935:1936   */\n      0x00\n        /* \"#utility.yul\":1932:1933   */\n      dup1\n        /* \"#utility.yul\":1925:1937   */\n      revert\n        /* \"#utility.yul\":1887:1889   */\n    tag_303:\n        /* \"#utility.yul\":1978:1979   */\n      0x00\n        /* \"#utility.yul\":2003:2056   */\n      tag_304\n        /* \"#utility.yul\":2048:2055   */\n      dup7\n        /* \"#utility.yul\":2039:2045   */\n      dup3\n        /* \"#utility.yul\":2028:2037   */\n      dup8\n        /* \"#utility.yul\":2024:2046   */\n      add\n        /* \"#utility.yul\":2003:2056   */\n      tag_270\n      jump\t// in\n    tag_304:\n        /* \"#utility.yul\":1993:2056   */\n      swap4\n      pop\n        /* \"#utility.yul\":1949:2066   */\n      pop\n        /* \"#utility.yul\":2105:2107   */\n      0x20\n        /* \"#utility.yul\":2131:2184   */\n      tag_305\n        /* \"#utility.yul\":2176:2183   */\n      dup7\n        /* \"#utility.yul\":2167:2173   */\n      dup3\n        /* \"#utility.yul\":2156:2165   */\n      dup8\n        /* \"#utility.yul\":2152:2174   */\n      add\n        /* \"#utility.yul\":2131:2184   */\n      tag_270\n      jump\t// in\n    tag_305:\n        /* \"#utility.yul\":2121:2184   */\n      swap3\n      pop\n        /* \"#utility.yul\":2076:2194   */\n      pop\n        /* \"#utility.yul\":2233:2235   */\n      0x40\n        /* \"#utility.yul\":2259:2312   */\n      tag_306\n        /* \"#utility.yul\":2304:2311   */\n      dup7\n        /* \"#utility.yul\":2295:2301   */\n      dup3\n        /* \"#utility.yul\":2284:2293   */\n      dup8\n        /* \"#utility.yul\":2280:2302   */\n      add\n        /* \"#utility.yul\":2259:2312   */\n      tag_287\n      jump\t// in\n    tag_306:\n        /* \"#utility.yul\":2249:2312   */\n      swap2\n      pop\n        /* \"#utility.yul\":2204:2322   */\n      pop\n        /* \"#utility.yul\":1877:2329   */\n      swap3\n      pop\n      swap3\n      pop\n      swap3\n      jump\t// out\n        /* \"#utility.yul\":2335:3467   */\n    tag_67:\n      0x00\n      dup1\n      0x00\n      dup1\n      0x00\n      dup1\n      0x00\n        /* \"#utility.yul\":2543:2546   */\n      0xe0\n        /* \"#utility.yul\":2531:2540   */\n      dup9\n        /* \"#utility.yul\":2522:2529   */\n      dup11\n        /* \"#utility.yul\":2518:2541   */\n      sub\n        /* \"#utility.yul\":2514:2547   */\n      slt\n        /* \"#utility.yul\":2511:2513   */\n      iszero\n      tag_308\n      jumpi\n        /* \"#utility.yul\":2560:2561   */\n      0x00\n        /* \"#utility.yul\":2557:2558   */\n      dup1\n        /* \"#utility.yul\":2550:2562   */\n      revert\n        /* \"#utility.yul\":2511:2513   */\n    tag_308:\n        /* \"#utility.yul\":2603:2604   */\n      0x00\n        /* \"#utility.yul\":2628:2681   */\n      tag_309\n        /* \"#utility.yul\":2673:2680   */\n      dup11\n        /* \"#utility.yul\":2664:2670   */\n      dup3\n        /* \"#utility.yul\":2653:2662   */\n      dup12\n        /* \"#utility.yul\":2649:2671   */\n      add\n        /* \"#utility.yul\":2628:2681   */\n      tag_270\n      jump\t// in\n    tag_309:\n        /* \"#utility.yul\":2618:2681   */\n      swap8\n      pop\n        /* \"#utility.yul\":2574:2691   */\n      pop\n        /* \"#utility.yul\":2730:2732   */\n      0x20\n        /* \"#utility.yul\":2756:2809   */\n      tag_310\n        /* \"#utility.yul\":2801:2808   */\n      dup11\n        /* \"#utility.yul\":2792:2798   */\n      dup3\n        /* \"#utility.yul\":2781:2790   */\n      dup12\n        /* \"#utility.yul\":2777:2799   */\n      add\n        /* \"#utility.yul\":2756:2809   */\n      tag_270\n      jump\t// in\n    tag_310:\n        /* \"#utility.yul\":2746:2809   */\n      swap7\n      pop\n        /* \"#utility.yul\":2701:2819   */\n      pop\n        /* \"#utility.yul\":2858:2860   */\n      0x40\n        /* \"#utility.yul\":2884:2937   */\n      tag_311\n        /* \"#utility.yul\":2929:2936   */\n      dup11\n        /* \"#utility.yul\":2920:2926   */\n      dup3\n        /* \"#utility.yul\":2909:2918   */\n      dup12\n        /* \"#utility.yul\":2905:2927   */\n      add\n        /* \"#utility.yul\":2884:2937   */\n      tag_287\n      jump\t// in\n    tag_311:\n        /* \"#utility.yul\":2874:2937   */\n      swap6\n      pop\n        /* \"#utility.yul\":2829:2947   */\n      pop\n        /* \"#utility.yul\":2986:2988   */\n      0x60\n        /* \"#utility.yul\":3012:3065   */\n      tag_312\n        /* \"#utility.yul\":3057:3064   */\n      dup11\n        /* \"#utility.yul\":3048:3054   */\n      dup3\n        /* \"#utility.yul\":3037:3046   */\n      dup12\n        /* \"#utility.yul\":3033:3055   */\n      add\n        /* \"#utility.yul\":3012:3065   */\n      tag_287\n      jump\t// in\n    tag_312:\n        /* \"#utility.yul\":3002:3065   */\n      swap5\n      pop\n        /* \"#utility.yul\":2957:3075   */\n      pop\n        /* \"#utility.yul\":3114:3117   */\n      0x80\n        /* \"#utility.yul\":3141:3192   */\n      tag_313\n        /* \"#utility.yul\":3184:3191   */\n      dup11\n        /* \"#utility.yul\":3175:3181   */\n      dup3\n        /* \"#utility.yul\":3164:3173   */\n      dup12\n        /* \"#utility.yul\":3160:3182   */\n      add\n        /* \"#utility.yul\":3141:3192   */\n      tag_291\n      jump\t// in\n    tag_313:\n        /* \"#utility.yul\":3131:3192   */\n      swap4\n      pop\n        /* \"#utility.yul\":3085:3202   */\n      pop\n        /* \"#utility.yul\":3241:3244   */\n      0xa0\n        /* \"#utility.yul\":3268:3321   */\n      tag_314\n        /* \"#utility.yul\":3313:3320   */\n      dup11\n        /* \"#utility.yul\":3304:3310   */\n      dup3\n        /* \"#utility.yul\":3293:3302   */\n      dup12\n        /* \"#utility.yul\":3289:3311   */\n      add\n        /* \"#utility.yul\":3268:3321   */\n      tag_278\n      jump\t// in\n    tag_314:\n        /* \"#utility.yul\":3258:3321   */\n      swap3\n      pop\n        /* \"#utility.yul\":3212:3331   */\n      pop\n        /* \"#utility.yul\":3370:3373   */\n      0xc0\n        /* \"#utility.yul\":3397:3450   */\n      tag_315\n        /* \"#utility.yul\":3442:3449   */\n      dup11\n        /* \"#utility.yul\":3433:3439   */\n      dup3\n        /* \"#utility.yul\":3422:3431   */\n      dup12\n        /* \"#utility.yul\":3418:3440   */\n      add\n        /* \"#utility.yul\":3397:3450   */\n      tag_278\n      jump\t// in\n    tag_315:\n        /* \"#utility.yul\":3387:3450   */\n      swap2\n      pop\n        /* \"#utility.yul\":3341:3460   */\n      pop\n        /* \"#utility.yul\":2501:3467   */\n      swap3\n      swap6\n      swap9\n      swap2\n      swap5\n      swap8\n      pop\n      swap3\n      swap6\n      pop\n      jump\t// out\n        /* \"#utility.yul\":3473:3880   */\n    tag_37:\n      0x00\n      dup1\n        /* \"#utility.yul\":3598:3600   */\n      0x40\n        /* \"#utility.yul\":3586:3595   */\n      dup4\n        /* \"#utility.yul\":3577:3584   */\n      dup6\n        /* \"#utility.yul\":3573:3596   */\n      sub\n        /* \"#utility.yul\":3569:3601   */\n      slt\n        /* \"#utility.yul\":3566:3568   */\n      iszero\n      tag_317\n      jumpi\n        /* \"#utility.yul\":3614:3615   */\n      0x00\n        /* \"#utility.yul\":3611:3612   */\n      dup1\n        /* \"#utility.yul\":3604:3616   */\n      revert\n        /* \"#utility.yul\":3566:3568   */\n    tag_317:\n        /* \"#utility.yul\":3657:3658   */\n      0x00\n        /* \"#utility.yul\":3682:3735   */\n      tag_318\n        /* \"#utility.yul\":3727:3734   */\n      dup6\n        /* \"#utility.yul\":3718:3724   */\n      dup3\n        /* \"#utility.yul\":3707:3716   */\n      dup7\n        /* \"#utility.yul\":3703:3725   */\n      add\n        /* \"#utility.yul\":3682:3735   */\n      tag_270\n      jump\t// in\n    tag_318:\n        /* \"#utility.yul\":3672:3735   */\n      swap3\n      pop\n        /* \"#utility.yul\":3628:3745   */\n      pop\n        /* \"#utility.yul\":3784:3786   */\n      0x20\n        /* \"#utility.yul\":3810:3863   */\n      tag_319\n        /* \"#utility.yul\":3855:3862   */\n      dup6\n        /* \"#utility.yul\":3846:3852   */\n      dup3\n        /* \"#utility.yul\":3835:3844   */\n      dup7\n        /* \"#utility.yul\":3831:3853   */\n      add\n        /* \"#utility.yul\":3810:3863   */\n      tag_287\n      jump\t// in\n    tag_319:\n        /* \"#utility.yul\":3800:3863   */\n      swap2\n      pop\n        /* \"#utility.yul\":3755:3873   */\n      pop\n        /* \"#utility.yul\":3556:3880   */\n      swap3\n      pop\n      swap3\n      swap1\n      pop\n      jump\t// out\n        /* \"#utility.yul\":3886:4569   */\n    tag_62:\n      0x00\n      dup1\n      0x00\n      dup1\n        /* \"#utility.yul\":4047:4049   */\n      0x60\n        /* \"#utility.yul\":4035:4044   */\n      dup6\n        /* \"#utility.yul\":4026:4033   */\n      dup8\n        /* \"#utility.yul\":4022:4045   */\n      sub\n        /* \"#utility.yul\":4018:4050   */\n      slt\n        /* \"#utility.yul\":4015:4017   */\n      iszero\n      tag_321\n      jumpi\n        /* \"#utility.yul\":4063:4064   */\n      0x00\n        /* \"#utility.yul\":4060:4061   */\n      dup1\n        /* \"#utility.yul\":4053:4065   */\n      revert\n        /* \"#utility.yul\":4015:4017   */\n    tag_321:\n        /* \"#utility.yul\":4106:4107   */\n      0x00\n        /* \"#utility.yul\":4131:4184   */\n      tag_322\n        /* \"#utility.yul\":4176:4183   */\n      dup8\n        /* \"#utility.yul\":4167:4173   */\n      dup3\n        /* \"#utility.yul\":4156:4165   */\n      dup9\n        /* \"#utility.yul\":4152:4174   */\n      add\n        /* \"#utility.yul\":4131:4184   */\n      tag_270\n      jump\t// in\n    tag_322:\n        /* \"#utility.yul\":4121:4184   */\n      swap5\n      pop\n        /* \"#utility.yul\":4077:4194   */\n      pop\n        /* \"#utility.yul\":4233:4235   */\n      0x20\n        /* \"#utility.yul\":4259:4312   */\n      tag_323\n        /* \"#utility.yul\":4304:4311   */\n      dup8\n        /* \"#utility.yul\":4295:4301   */\n      dup3\n        /* \"#utility.yul\":4284:4293   */\n      dup9\n        /* \"#utility.yul\":4280:4302   */\n      add\n        /* \"#utility.yul\":4259:4312   */\n      tag_287\n      jump\t// in\n    tag_323:\n        /* \"#utility.yul\":4249:4312   */\n      swap4\n      pop\n        /* \"#utility.yul\":4204:4322   */\n      pop\n        /* \"#utility.yul\":4389:4391   */\n      0x40\n        /* \"#utility.yul\":4378:4387   */\n      dup6\n        /* \"#utility.yul\":4374:4392   */\n      add\n        /* \"#utility.yul\":4361:4393   */\n      calldataload\n        /* \"#utility.yul\":4420:4438   */\n      0xffffffffffffffff\n        /* \"#utility.yul\":4412:4418   */\n      dup2\n        /* \"#utility.yul\":4409:4439   */\n      gt\n        /* \"#utility.yul\":4406:4408   */\n      iszero\n      tag_324\n      jumpi\n        /* \"#utility.yul\":4452:4453   */\n      0x00\n        /* \"#utility.yul\":4449:4450   */\n      dup1\n        /* \"#utility.yul\":4442:4454   */\n      revert\n        /* \"#utility.yul\":4406:4408   */\n    tag_324:\n        /* \"#utility.yul\":4488:4552   */\n      tag_325\n        /* \"#utility.yul\":4544:4551   */\n      dup8\n        /* \"#utility.yul\":4535:4541   */\n      dup3\n        /* \"#utility.yul\":4524:4533   */\n      dup9\n        /* \"#utility.yul\":4520:4542   */\n      add\n        /* \"#utility.yul\":4488:4552   */\n      tag_282\n      jump\t// in\n    tag_325:\n        /* \"#utility.yul\":4470:4552   */\n      swap3\n      pop\n      swap3\n      pop\n        /* \"#utility.yul\":4332:4562   */\n      pop\n        /* \"#utility.yul\":4005:4569   */\n      swap3\n      swap6\n      swap2\n      swap5\n      pop\n      swap3\n      pop\n      jump\t// out\n        /* \"#utility.yul\":4575:4853   */\n    tag_157:\n      0x00\n        /* \"#utility.yul\":4691:4693   */\n      0x20\n        /* \"#utility.yul\":4679:4688   */\n      dup3\n        /* \"#utility.yul\":4670:4677   */\n      dup5\n        /* \"#utility.yul\":4666:4689   */\n      sub\n        /* \"#utility.yul\":4662:4694   */\n      slt\n        /* \"#utility.yul\":4659:4661   */\n      iszero\n      tag_327\n      jumpi\n        /* \"#utility.yul\":4707:4708   */\n      0x00\n        /* \"#utility.yul\":4704:4705   */\n      dup1\n        /* \"#utility.yul\":4697:4709   */\n      revert\n        /* \"#utility.yul\":4659:4661   */\n    tag_327:\n        /* \"#utility.yul\":4750:4751   */\n      0x00\n        /* \"#utility.yul\":4775:4836   */\n      tag_328\n        /* \"#utility.yul\":4828:4835   */\n      dup5\n        /* \"#utility.yul\":4819:4825   */\n      dup3\n        /* \"#utility.yul\":4808:4817   */\n      dup6\n        /* \"#utility.yul\":4804:4826   */\n      add\n        /* \"#utility.yul\":4775:4836   */\n      tag_274\n      jump\t// in\n    tag_328:\n        /* \"#utility.yul\":4765:4836   */\n      swap2\n      pop\n        /* \"#utility.yul\":4721:4846   */\n      pop\n        /* \"#utility.yul\":4649:4853   */\n      swap3\n      swap2\n      pop\n      pop\n      jump\t// out\n        /* \"#utility.yul\":4859:5411   */\n    tag_113:\n      0x00\n      dup1\n      0x00\n        /* \"#utility.yul\":5001:5003   */\n      0x60\n        /* \"#utility.yul\":4989:4998   */\n      dup5\n        /* \"#utility.yul\":4980:4987   */\n      dup7\n        /* \"#utility.yul\":4976:4999   */\n      sub\n        /* \"#utility.yul\":4972:5004   */\n      slt\n        /* \"#utility.yul\":4969:4971   */\n      iszero\n      tag_330\n      jumpi\n        /* \"#utility.yul\":5017:5018   */\n      0x00\n        /* \"#utility.yul\":5014:5015   */\n      dup1\n        /* \"#utility.yul\":5007:5019   */\n      revert\n        /* \"#utility.yul\":4969:4971   */\n    tag_330:\n        /* \"#utility.yul\":5060:5061   */\n      0x00\n        /* \"#utility.yul\":5085:5138   */\n      tag_331\n        /* \"#utility.yul\":5130:5137   */\n      dup7\n        /* \"#utility.yul\":5121:5127   */\n      dup3\n        /* \"#utility.yul\":5110:5119   */\n      dup8\n        /* \"#utility.yul\":5106:5128   */\n      add\n        /* \"#utility.yul\":5085:5138   */\n      tag_278\n      jump\t// in\n    tag_331:\n        /* \"#utility.yul\":5075:5138   */\n      swap4\n      pop\n        /* \"#utility.yul\":5031:5148   */\n      pop\n        /* \"#utility.yul\":5187:5189   */\n      0x20\n        /* \"#utility.yul\":5213:5266   */\n      tag_332\n        /* \"#utility.yul\":5258:5265   */\n      dup7\n        /* \"#utility.yul\":5249:5255   */\n      dup3\n        /* \"#utility.yul\":5238:5247   */\n      dup8\n        /* \"#utility.yul\":5234:5256   */\n      add\n        /* \"#utility.yul\":5213:5266   */\n      tag_270\n      jump\t// in\n    tag_332:\n        /* \"#utility.yul\":5203:5266   */\n      swap3\n      pop\n        /* \"#utility.yul\":5158:5276   */\n      pop\n        /* \"#utility.yul\":5315:5317   */\n      0x40\n        /* \"#utility.yul\":5341:5394   */\n      tag_333\n        /* \"#utility.yul\":5386:5393   */\n      dup7\n        /* \"#utility.yul\":5377:5383   */\n      dup3\n        /* \"#utility.yul\":5366:5375   */\n      dup8\n        /* \"#utility.yul\":5362:5384   */\n      add\n        /* \"#utility.yul\":5341:5394   */\n      tag_287\n      jump\t// in\n    tag_333:\n        /* \"#utility.yul\":5331:5394   */\n      swap2\n      pop\n        /* \"#utility.yul\":5286:5404   */\n      pop\n        /* \"#utility.yul\":4959:5411   */\n      swap3\n      pop\n      swap3\n      pop\n      swap3\n      jump\t// out\n        /* \"#utility.yul\":5417:5824   */\n    tag_72:\n      0x00\n      dup1\n        /* \"#utility.yul\":5542:5544   */\n      0x40\n        /* \"#utility.yul\":5530:5539   */\n      dup4\n        /* \"#utility.yul\":5521:5528   */\n      dup6\n        /* \"#utility.yul\":5517:5540   */\n      sub\n        /* \"#utility.yul\":5513:5545   */\n      slt\n        /* \"#utility.yul\":5510:5512   */\n      iszero\n      tag_335\n      jumpi\n        /* \"#utility.yul\":5558:5559   */\n      0x00\n        /* \"#utility.yul\":5555:5556   */\n      dup1\n        /* \"#utility.yul\":5548:5560   */\n      revert\n        /* \"#utility.yul\":5510:5512   */\n    tag_335:\n        /* \"#utility.yul\":5601:5602   */\n      0x00\n        /* \"#utility.yul\":5626:5679   */\n      tag_336\n        /* \"#utility.yul\":5671:5678   */\n      dup6\n        /* \"#utility.yul\":5662:5668   */\n      dup3\n        /* \"#utility.yul\":5651:5660   */\n      dup7\n        /* \"#utility.yul\":5647:5669   */\n      add\n        /* \"#utility.yul\":5626:5679   */\n      tag_287\n      jump\t// in\n    tag_336:\n        /* \"#utility.yul\":5616:5679   */\n      swap3\n      pop\n        /* \"#utility.yul\":5572:5689   */\n      pop\n        /* \"#utility.yul\":5728:5730   */\n      0x20\n        /* \"#utility.yul\":5754:5807   */\n      tag_337\n        /* \"#utility.yul\":5799:5806   */\n      dup6\n        /* \"#utility.yul\":5790:5796   */\n      dup3\n        /* \"#utility.yul\":5779:5788   */\n      dup7\n        /* \"#utility.yul\":5775:5797   */\n      add\n        /* \"#utility.yul\":5754:5807   */\n      tag_270\n      jump\t// in\n    tag_337:\n        /* \"#utility.yul\":5744:5807   */\n      swap2\n      pop\n        /* \"#utility.yul\":5699:5817   */\n      pop\n        /* \"#utility.yul\":5500:5824   */\n      swap3\n      pop\n      swap3\n      swap1\n      pop\n      jump\t// out\n        /* \"#utility.yul\":5830:5948   */\n    tag_338:\n        /* \"#utility.yul\":5917:5941   */\n      tag_340\n        /* \"#utility.yul\":5935:5940   */\n      dup2\n        /* \"#utility.yul\":5917:5941   */\n      tag_341\n      jump\t// in\n    tag_340:\n        /* \"#utility.yul\":5912:5915   */\n      dup3\n        /* \"#utility.yul\":5905:5942   */\n      mstore\n        /* \"#utility.yul\":5895:5948   */\n      pop\n      pop\n      jump\t// out\n        /* \"#utility.yul\":5954:6063   */\n    tag_342:\n        /* \"#utility.yul\":6035:6056   */\n      tag_344\n        /* \"#utility.yul\":6050:6055   */\n      dup2\n        /* \"#utility.yul\":6035:6056   */\n      tag_345\n      jump\t// in\n    tag_344:\n        /* \"#utility.yul\":6030:6033   */\n      dup3\n        /* \"#utility.yul\":6023:6057   */\n      mstore\n        /* \"#utility.yul\":6013:6063   */\n      pop\n      pop\n      jump\t// out\n        /* \"#utility.yul\":6069:6187   */\n    tag_346:\n        /* \"#utility.yul\":6156:6180   */\n      tag_348\n        /* \"#utility.yul\":6174:6179   */\n      dup2\n        /* \"#utility.yul\":6156:6180   */\n      tag_349\n      jump\t// in\n    tag_348:\n        /* \"#utility.yul\":6151:6154   */\n      dup3\n        /* \"#utility.yul\":6144:6181   */\n      mstore\n        /* \"#utility.yul\":6134:6187   */\n      pop\n      pop\n      jump\t// out\n        /* \"#utility.yul\":6193:6350   */\n    tag_350:\n        /* \"#utility.yul\":6298:6343   */\n      tag_352\n        /* \"#utility.yul\":6318:6342   */\n      tag_353\n        /* \"#utility.yul\":6336:6341   */\n      dup3\n        /* \"#utility.yul\":6318:6342   */\n      tag_349\n      jump\t// in\n    tag_353:\n        /* \"#utility.yul\":6298:6343   */\n      tag_354\n      jump\t// in\n    tag_352:\n        /* \"#utility.yul\":6293:6296   */\n      dup3\n        /* \"#utility.yul\":6286:6344   */\n      mstore\n        /* \"#utility.yul\":6276:6350   */\n      pop\n      pop\n      jump\t// out\n        /* \"#utility.yul\":6378:6679   */\n    tag_355:\n      0x00\n        /* \"#utility.yul\":6495:6565   */\n      tag_357\n        /* \"#utility.yul\":6558:6564   */\n      dup4\n        /* \"#utility.yul\":6553:6556   */\n      dup6\n        /* \"#utility.yul\":6495:6565   */\n      tag_358\n      jump\t// in\n    tag_357:\n        /* \"#utility.yul\":6488:6565   */\n      swap4\n      pop\n        /* \"#utility.yul\":6575:6618   */\n      tag_359\n        /* \"#utility.yul\":6611:6617   */\n      dup4\n        /* \"#utility.yul\":6606:6609   */\n      dup6\n        /* \"#utility.yul\":6599:6604   */\n      dup5\n        /* \"#utility.yul\":6575:6618   */\n      tag_360\n      jump\t// in\n    tag_359:\n        /* \"#utility.yul\":6643:6672   */\n      tag_361\n        /* \"#utility.yul\":6665:6671   */\n      dup4\n        /* \"#utility.yul\":6643:6672   */\n      tag_362\n      jump\t// in\n    tag_361:\n        /* \"#utility.yul\":6638:6641   */\n      dup5\n        /* \"#utility.yul\":6634:6673   */\n      add\n        /* \"#utility.yul\":6627:6673   */\n      swap1\n      pop\n        /* \"#utility.yul\":6478:6679   */\n      swap4\n      swap3\n      pop\n      pop\n      pop\n      jump\t// out\n        /* \"#utility.yul\":6685:7049   */\n    tag_363:\n      0x00\n        /* \"#utility.yul\":6801:6840   */\n      tag_365\n        /* \"#utility.yul\":6834:6839   */\n      dup3\n        /* \"#utility.yul\":6801:6840   */\n      tag_366\n      jump\t// in\n    tag_365:\n        /* \"#utility.yul\":6856:6927   */\n      tag_367\n        /* \"#utility.yul\":6920:6926   */\n      dup2\n        /* \"#utility.yul\":6915:6918   */\n      dup6\n        /* \"#utility.yul\":6856:6927   */\n      tag_368\n      jump\t// in\n    tag_367:\n        /* \"#utility.yul\":6849:6927   */\n      swap4\n      pop\n        /* \"#utility.yul\":6936:6988   */\n      tag_369\n        /* \"#utility.yul\":6981:6987   */\n      dup2\n        /* \"#utility.yul\":6976:6979   */\n      dup6\n        /* \"#utility.yul\":6969:6973   */\n      0x20\n        /* \"#utility.yul\":6962:6967   */\n      dup7\n        /* \"#utility.yul\":6958:6974   */\n      add\n        /* \"#utility.yul\":6936:6988   */\n      tag_370\n      jump\t// in\n    tag_369:\n        /* \"#utility.yul\":7013:7042   */\n      tag_371\n        /* \"#utility.yul\":7035:7041   */\n      dup2\n        /* \"#utility.yul\":7013:7042   */\n      tag_362\n      jump\t// in\n    tag_371:\n        /* \"#utility.yul\":7008:7011   */\n      dup5\n        /* \"#utility.yul\":7004:7043   */\n      add\n        /* \"#utility.yul\":6997:7043   */\n      swap2\n      pop\n        /* \"#utility.yul\":6777:7049   */\n      pop\n      swap3\n      swap2\n      pop\n      pop\n      jump\t// out\n        /* \"#utility.yul\":7055:7457   */\n    tag_372:\n      0x00\n        /* \"#utility.yul\":7236:7321   */\n      tag_374\n        /* \"#utility.yul\":7318:7320   */\n      0x1c\n        /* \"#utility.yul\":7313:7316   */\n      dup4\n        /* \"#utility.yul\":7236:7321   */\n      tag_375\n      jump\t// in\n    tag_374:\n        /* \"#utility.yul\":7229:7321   */\n      swap2\n      pop\n        /* \"#utility.yul\":7330:7423   */\n      tag_376\n        /* \"#utility.yul\":7419:7422   */\n      dup3\n        /* \"#utility.yul\":7330:7423   */\n      tag_377\n      jump\t// in\n    tag_376:\n        /* \"#utility.yul\":7448:7450   */\n      0x1c\n        /* \"#utility.yul\":7443:7446   */\n      dup3\n        /* \"#utility.yul\":7439:7451   */\n      add\n        /* \"#utility.yul\":7432:7451   */\n      swap1\n      pop\n        /* \"#utility.yul\":7219:7457   */\n      swap2\n      swap1\n      pop\n      jump\t// out\n        /* \"#utility.yul\":7463:7863   */\n    tag_378:\n      0x00\n        /* \"#utility.yul\":7644:7728   */\n      tag_380\n        /* \"#utility.yul\":7726:7727   */\n      0x02\n        /* \"#utility.yul\":7721:7724   */\n      dup4\n        /* \"#utility.yul\":7644:7728   */\n      tag_375\n      jump\t// in\n    tag_380:\n        /* \"#utility.yul\":7637:7728   */\n      swap2\n      pop\n        /* \"#utility.yul\":7737:7830   */\n      tag_381\n        /* \"#utility.yul\":7826:7829   */\n      dup3\n        /* \"#utility.yul\":7737:7830   */\n      tag_382\n      jump\t// in\n    tag_381:\n        /* \"#utility.yul\":7855:7856   */\n      0x02\n        /* \"#utility.yul\":7850:7853   */\n      dup3\n        /* \"#utility.yul\":7846:7857   */\n      add\n        /* \"#utility.yul\":7839:7857   */\n      swap1\n      pop\n        /* \"#utility.yul\":7627:7863   */\n      swap2\n      swap1\n      pop\n      jump\t// out\n        /* \"#utility.yul\":7869:8235   */\n    tag_383:\n      0x00\n        /* \"#utility.yul\":8032:8099   */\n      tag_385\n        /* \"#utility.yul\":8096:8098   */\n      0x1d\n        /* \"#utility.yul\":8091:8094   */\n      dup4\n        /* \"#utility.yul\":8032:8099   */\n      tag_368\n      jump\t// in\n    tag_385:\n        /* \"#utility.yul\":8025:8099   */\n      swap2\n      pop\n        /* \"#utility.yul\":8108:8201   */\n      tag_386\n        /* \"#utility.yul\":8197:8200   */\n      dup3\n        /* \"#utility.yul\":8108:8201   */\n      tag_387\n      jump\t// in\n    tag_386:\n        /* \"#utility.yul\":8226:8228   */\n      0x20\n        /* \"#utility.yul\":8221:8224   */\n      dup3\n        /* \"#utility.yul\":8217:8229   */\n      add\n        /* \"#utility.yul\":8210:8229   */\n      swap1\n      pop\n        /* \"#utility.yul\":8015:8235   */\n      swap2\n      swap1\n      pop\n      jump\t// out\n        /* \"#utility.yul\":8241:8607   */\n    tag_388:\n      0x00\n        /* \"#utility.yul\":8404:8471   */\n      tag_390\n        /* \"#utility.yul\":8468:8470   */\n      0x16\n        /* \"#utility.yul\":8463:8466   */\n      dup4\n        /* \"#utility.yul\":8404:8471   */\n      tag_368\n      jump\t// in\n    tag_390:\n        /* \"#utility.yul\":8397:8471   */\n      swap2\n      pop\n        /* \"#utility.yul\":8480:8573   */\n      tag_391\n        /* \"#utility.yul\":8569:8572   */\n      dup3\n        /* \"#utility.yul\":8480:8573   */\n      tag_392\n      jump\t// in\n    tag_391:\n        /* \"#utility.yul\":8598:8600   */\n      0x20\n        /* \"#utility.yul\":8593:8596   */\n      dup3\n        /* \"#utility.yul\":8589:8601   */\n      add\n        /* \"#utility.yul\":8582:8601   */\n      swap1\n      pop\n        /* \"#utility.yul\":8387:8607   */\n      swap2\n      swap1\n      pop\n      jump\t// out\n        /* \"#utility.yul\":8613:8979   */\n    tag_393:\n      0x00\n        /* \"#utility.yul\":8776:8843   */\n      tag_395\n        /* \"#utility.yul\":8840:8842   */\n      0x20\n        /* \"#utility.yul\":8835:8838   */\n      dup4\n        /* \"#utility.yul\":8776:8843   */\n      tag_368\n      jump\t// in\n    tag_395:\n        /* \"#utility.yul\":8769:8843   */\n      swap2\n      pop\n        /* \"#utility.yul\":8852:8945   */\n      tag_396\n        /* \"#utility.yul\":8941:8944   */\n      dup3\n        /* \"#utility.yul\":8852:8945   */\n      tag_397\n      jump\t// in\n    tag_396:\n        /* \"#utility.yul\":8970:8972   */\n      0x20\n        /* \"#utility.yul\":8965:8968   */\n      dup3\n        /* \"#utility.yul\":8961:8973   */\n      add\n        /* \"#utility.yul\":8954:8973   */\n      swap1\n      pop\n        /* \"#utility.yul\":8759:8979   */\n      swap2\n      swap1\n      pop\n      jump\t// out\n        /* \"#utility.yul\":8985:9351   */\n    tag_398:\n      0x00\n        /* \"#utility.yul\":9148:9215   */\n      tag_400\n        /* \"#utility.yul\":9212:9214   */\n      0x0a\n        /* \"#utility.yul\":9207:9210   */\n      dup4\n        /* \"#utility.yul\":9148:9215   */\n      tag_368\n      jump\t// in\n    tag_400:\n        /* \"#utility.yul\":9141:9215   */\n      swap2\n      pop\n        /* \"#utility.yul\":9224:9317   */\n      tag_401\n        /* \"#utility.yul\":9313:9316   */\n      dup3\n        /* \"#utility.yul\":9224:9317   */\n      tag_402\n      jump\t// in\n    tag_401:\n        /* \"#utility.yul\":9342:9344   */\n      0x20\n        /* \"#utility.yul\":9337:9340   */\n      dup3\n        /* \"#utility.yul\":9333:9345   */\n      add\n        /* \"#utility.yul\":9326:9345   */\n      swap1\n      pop\n        /* \"#utility.yul\":9131:9351   */\n      swap2\n      swap1\n      pop\n      jump\t// out\n        /* \"#utility.yul\":9357:9723   */\n    tag_403:\n      0x00\n        /* \"#utility.yul\":9520:9587   */\n      tag_405\n        /* \"#utility.yul\":9584:9586   */\n      0x21\n        /* \"#utility.yul\":9579:9582   */\n      dup4\n        /* \"#utility.yul\":9520:9587   */\n      tag_368\n      jump\t// in\n    tag_405:\n        /* \"#utility.yul\":9513:9587   */\n      swap2\n      pop\n        /* \"#utility.yul\":9596:9689   */\n      tag_406\n        /* \"#utility.yul\":9685:9688   */\n      dup3\n        /* \"#utility.yul\":9596:9689   */\n      tag_407\n      jump\t// in\n    tag_406:\n        /* \"#utility.yul\":9714:9716   */\n      0x40\n        /* \"#utility.yul\":9709:9712   */\n      dup3\n        /* \"#utility.yul\":9705:9717   */\n      add\n        /* \"#utility.yul\":9698:9717   */\n      swap1\n      pop\n        /* \"#utility.yul\":9503:9723   */\n      swap2\n      swap1\n      pop\n      jump\t// out\n        /* \"#utility.yul\":9729:10095   */\n    tag_408:\n      0x00\n        /* \"#utility.yul\":9892:9959   */\n      tag_410\n        /* \"#utility.yul\":9956:9958   */\n      0x21\n        /* \"#utility.yul\":9951:9954   */\n      dup4\n        /* \"#utility.yul\":9892:9959   */\n      tag_368\n      jump\t// in\n    tag_410:\n        /* \"#utility.yul\":9885:9959   */\n      swap2\n      pop\n        /* \"#utility.yul\":9968:10061   */\n      tag_411\n        /* \"#utility.yul\":10057:10060   */\n      dup3\n        /* \"#utility.yul\":9968:10061   */\n      tag_412\n      jump\t// in\n    tag_411:\n        /* \"#utility.yul\":10086:10088   */\n      0x40\n        /* \"#utility.yul\":10081:10084   */\n      dup3\n        /* \"#utility.yul\":10077:10089   */\n      add\n        /* \"#utility.yul\":10070:10089   */\n      swap1\n      pop\n        /* \"#utility.yul\":9875:10095   */\n      swap2\n      swap1\n      pop\n      jump\t// out\n        /* \"#utility.yul\":10101:10467   */\n    tag_413:\n      0x00\n        /* \"#utility.yul\":10264:10331   */\n      tag_415\n        /* \"#utility.yul\":10328:10330   */\n      0x1f\n        /* \"#utility.yul\":10323:10326   */\n      dup4\n        /* \"#utility.yul\":10264:10331   */\n      tag_368\n      jump\t// in\n    tag_415:\n        /* \"#utility.yul\":10257:10331   */\n      swap2\n      pop\n        /* \"#utility.yul\":10340:10433   */\n      tag_416\n        /* \"#utility.yul\":10429:10432   */\n      dup3\n        /* \"#utility.yul\":10340:10433   */\n      tag_417\n      jump\t// in\n    tag_416:\n        /* \"#utility.yul\":10458:10460   */\n      0x20\n        /* \"#utility.yul\":10453:10456   */\n      dup3\n        /* \"#utility.yul\":10449:10461   */\n      add\n        /* \"#utility.yul\":10442:10461   */\n      swap1\n      pop\n        /* \"#utility.yul\":10247:10467   */\n      swap2\n      swap1\n      pop\n      jump\t// out\n        /* \"#utility.yul\":10473:10839   */\n    tag_418:\n      0x00\n        /* \"#utility.yul\":10636:10703   */\n      tag_420\n        /* \"#utility.yul\":10700:10702   */\n      0x27\n        /* \"#utility.yul\":10695:10698   */\n      dup4\n        /* \"#utility.yul\":10636:10703   */\n      tag_368\n      jump\t// in\n    tag_420:\n        /* \"#utility.yul\":10629:10703   */\n      swap2\n      pop\n        /* \"#utility.yul\":10712:10805   */\n      tag_421\n        /* \"#utility.yul\":10801:10804   */\n      dup3\n        /* \"#utility.yul\":10712:10805   */\n      tag_422\n      jump\t// in\n    tag_421:\n        /* \"#utility.yul\":10830:10832   */\n      0x40\n        /* \"#utility.yul\":10825:10828   */\n      dup3\n        /* \"#utility.yul\":10821:10833   */\n      add\n        /* \"#utility.yul\":10814:10833   */\n      swap1\n      pop\n        /* \"#utility.yul\":10619:10839   */\n      swap2\n      swap1\n      pop\n      jump\t// out\n        /* \"#utility.yul\":10845:10963   */\n    tag_423:\n        /* \"#utility.yul\":10932:10956   */\n      tag_425\n        /* \"#utility.yul\":10950:10955   */\n      dup2\n        /* \"#utility.yul\":10932:10956   */\n      tag_426\n      jump\t// in\n    tag_425:\n        /* \"#utility.yul\":10927:10930   */\n      dup3\n        /* \"#utility.yul\":10920:10957   */\n      mstore\n        /* \"#utility.yul\":10910:10963   */\n      pop\n      pop\n      jump\t// out\n        /* \"#utility.yul\":10969:11081   */\n    tag_427:\n        /* \"#utility.yul\":11052:11074   */\n      tag_429\n        /* \"#utility.yul\":11068:11073   */\n      dup2\n        /* \"#utility.yul\":11052:11074   */\n      tag_430\n      jump\t// in\n    tag_429:\n        /* \"#utility.yul\":11047:11050   */\n      dup3\n        /* \"#utility.yul\":11040:11075   */\n      mstore\n        /* \"#utility.yul\":11030:11081   */\n      pop\n      pop\n      jump\t// out\n        /* \"#utility.yul\":11087:11609   */\n    tag_268:\n      0x00\n        /* \"#utility.yul\":11322:11470   */\n      tag_432\n        /* \"#utility.yul\":11466:11469   */\n      dup3\n        /* \"#utility.yul\":11322:11470   */\n      tag_372\n      jump\t// in\n    tag_432:\n        /* \"#utility.yul\":11315:11470   */\n      swap2\n      pop\n        /* \"#utility.yul\":11480:11555   */\n      tag_433\n        /* \"#utility.yul\":11551:11554   */\n      dup3\n        /* \"#utility.yul\":11542:11548   */\n      dup5\n        /* \"#utility.yul\":11480:11555   */\n      tag_350\n      jump\t// in\n    tag_433:\n        /* \"#utility.yul\":11580:11582   */\n      0x20\n        /* \"#utility.yul\":11575:11578   */\n      dup3\n        /* \"#utility.yul\":11571:11583   */\n      add\n        /* \"#utility.yul\":11564:11583   */\n      swap2\n      pop\n        /* \"#utility.yul\":11600:11603   */\n      dup2\n        /* \"#utility.yul\":11593:11603   */\n      swap1\n      pop\n        /* \"#utility.yul\":11304:11609   */\n      swap3\n      swap2\n      pop\n      pop\n      jump\t// out\n        /* \"#utility.yul\":11615:12278   */\n    tag_239:\n      0x00\n        /* \"#utility.yul\":11878:12026   */\n      tag_435\n        /* \"#utility.yul\":12022:12025   */\n      dup3\n        /* \"#utility.yul\":11878:12026   */\n      tag_378\n      jump\t// in\n    tag_435:\n        /* \"#utility.yul\":11871:12026   */\n      swap2\n      pop\n        /* \"#utility.yul\":12036:12111   */\n      tag_436\n        /* \"#utility.yul\":12107:12110   */\n      dup3\n        /* \"#utility.yul\":12098:12104   */\n      dup6\n        /* \"#utility.yul\":12036:12111   */\n      tag_350\n      jump\t// in\n    tag_436:\n        /* \"#utility.yul\":12136:12138   */\n      0x20\n        /* \"#utility.yul\":12131:12134   */\n      dup3\n        /* \"#utility.yul\":12127:12139   */\n      add\n        /* \"#utility.yul\":12120:12139   */\n      swap2\n      pop\n        /* \"#utility.yul\":12149:12224   */\n      tag_437\n        /* \"#utility.yul\":12220:12223   */\n      dup3\n        /* \"#utility.yul\":12211:12217   */\n      dup5\n        /* \"#utility.yul\":12149:12224   */\n      tag_350\n      jump\t// in\n    tag_437:\n        /* \"#utility.yul\":12249:12251   */\n      0x20\n        /* \"#utility.yul\":12244:12247   */\n      dup3\n        /* \"#utility.yul\":12240:12252   */\n      add\n        /* \"#utility.yul\":12233:12252   */\n      swap2\n      pop\n        /* \"#utility.yul\":12269:12272   */\n      dup2\n        /* \"#utility.yul\":12262:12272   */\n      swap1\n      pop\n        /* \"#utility.yul\":11860:12278   */\n      swap4\n      swap3\n      pop\n      pop\n      pop\n      jump\t// out\n        /* \"#utility.yul\":12284:12506   */\n    tag_87:\n      0x00\n        /* \"#utility.yul\":12415:12417   */\n      0x20\n        /* \"#utility.yul\":12404:12413   */\n      dup3\n        /* \"#utility.yul\":12400:12418   */\n      add\n        /* \"#utility.yul\":12392:12418   */\n      swap1\n      pop\n        /* \"#utility.yul\":12428:12499   */\n      tag_439\n        /* \"#utility.yul\":12496:12497   */\n      0x00\n        /* \"#utility.yul\":12485:12494   */\n      dup4\n        /* \"#utility.yul\":12481:12498   */\n      add\n        /* \"#utility.yul\":12472:12478   */\n      dup5\n        /* \"#utility.yul\":12428:12499   */\n      tag_338\n      jump\t// in\n    tag_439:\n        /* \"#utility.yul\":12382:12506   */\n      swap3\n      swap2\n      pop\n      pop\n      jump\t// out\n        /* \"#utility.yul\":12512:13061   */\n    tag_152:\n      0x00\n        /* \"#utility.yul\":12727:12729   */\n      0x60\n        /* \"#utility.yul\":12716:12725   */\n      dup3\n        /* \"#utility.yul\":12712:12730   */\n      add\n        /* \"#utility.yul\":12704:12730   */\n      swap1\n      pop\n        /* \"#utility.yul\":12740:12811   */\n      tag_441\n        /* \"#utility.yul\":12808:12809   */\n      0x00\n        /* \"#utility.yul\":12797:12806   */\n      dup4\n        /* \"#utility.yul\":12793:12810   */\n      add\n        /* \"#utility.yul\":12784:12790   */\n      dup8\n        /* \"#utility.yul\":12740:12811   */\n      tag_338\n      jump\t// in\n    tag_441:\n        /* \"#utility.yul\":12821:12893   */\n      tag_442\n        /* \"#utility.yul\":12889:12891   */\n      0x20\n        /* \"#utility.yul\":12878:12887   */\n      dup4\n        /* \"#utility.yul\":12874:12892   */\n      add\n        /* \"#utility.yul\":12865:12871   */\n      dup7\n        /* \"#utility.yul\":12821:12893   */\n      tag_423\n      jump\t// in\n    tag_442:\n        /* \"#utility.yul\":12940:12949   */\n      dup2\n        /* \"#utility.yul\":12934:12938   */\n      dup2\n        /* \"#utility.yul\":12930:12950   */\n      sub\n        /* \"#utility.yul\":12925:12927   */\n      0x40\n        /* \"#utility.yul\":12914:12923   */\n      dup4\n        /* \"#utility.yul\":12910:12928   */\n      add\n        /* \"#utility.yul\":12903:12951   */\n      mstore\n        /* \"#utility.yul\":12968:13054   */\n      tag_443\n        /* \"#utility.yul\":13049:13053   */\n      dup2\n        /* \"#utility.yul\":13040:13046   */\n      dup5\n        /* \"#utility.yul\":13032:13038   */\n      dup7\n        /* \"#utility.yul\":12968:13054   */\n      tag_355\n      jump\t// in\n    tag_443:\n        /* \"#utility.yul\":12960:13054   */\n      swap1\n      pop\n        /* \"#utility.yul\":12694:13061   */\n      swap6\n      swap5\n      pop\n      pop\n      pop\n      pop\n      pop\n      jump\t// out\n        /* \"#utility.yul\":13067:13277   */\n    tag_40:\n      0x00\n        /* \"#utility.yul\":13192:13194   */\n      0x20\n        /* \"#utility.yul\":13181:13190   */\n      dup3\n        /* \"#utility.yul\":13177:13195   */\n      add\n        /* \"#utility.yul\":13169:13195   */\n      swap1\n      pop\n        /* \"#utility.yul\":13205:13270   */\n      tag_445\n        /* \"#utility.yul\":13267:13268   */\n      0x00\n        /* \"#utility.yul\":13256:13265   */\n      dup4\n        /* \"#utility.yul\":13252:13269   */\n      add\n        /* \"#utility.yul\":13243:13249   */\n      dup5\n        /* \"#utility.yul\":13205:13270   */\n      tag_342\n      jump\t// in\n    tag_445:\n        /* \"#utility.yul\":13159:13277   */\n      swap3\n      swap2\n      pop\n      pop\n      jump\t// out\n        /* \"#utility.yul\":13283:13505   */\n    tag_30:\n      0x00\n        /* \"#utility.yul\":13414:13416   */\n      0x20\n        /* \"#utility.yul\":13403:13412   */\n      dup3\n        /* \"#utility.yul\":13399:13417   */\n      add\n        /* \"#utility.yul\":13391:13417   */\n      swap1\n      pop\n        /* \"#utility.yul\":13427:13498   */\n      tag_447\n        /* \"#utility.yul\":13495:13496   */\n      0x00\n        /* \"#utility.yul\":13484:13493   */\n      dup4\n        /* \"#utility.yul\":13480:13497   */\n      add\n        /* \"#utility.yul\":13471:13477   */\n      dup5\n        /* \"#utility.yul\":13427:13498   */\n      tag_346\n      jump\t// in\n    tag_447:\n        /* \"#utility.yul\":13381:13505   */\n      swap3\n      swap2\n      pop\n      pop\n      jump\t// out\n        /* \"#utility.yul\":13511:14286   */\n    tag_165:\n      0x00\n        /* \"#utility.yul\":13782:13785   */\n      0xc0\n        /* \"#utility.yul\":13771:13780   */\n      dup3\n        /* \"#utility.yul\":13767:13786   */\n      add\n        /* \"#utility.yul\":13759:13786   */\n      swap1\n      pop\n        /* \"#utility.yul\":13796:13867   */\n      tag_449\n        /* \"#utility.yul\":13864:13865   */\n      0x00\n        /* \"#utility.yul\":13853:13862   */\n      dup4\n        /* \"#utility.yul\":13849:13866   */\n      add\n        /* \"#utility.yul\":13840:13846   */\n      dup10\n        /* \"#utility.yul\":13796:13867   */\n      tag_346\n      jump\t// in\n    tag_449:\n        /* \"#utility.yul\":13877:13949   */\n      tag_450\n        /* \"#utility.yul\":13945:13947   */\n      0x20\n        /* \"#utility.yul\":13934:13943   */\n      dup4\n        /* \"#utility.yul\":13930:13948   */\n      add\n        /* \"#utility.yul\":13921:13927   */\n      dup9\n        /* \"#utility.yul\":13877:13949   */\n      tag_338\n      jump\t// in\n    tag_450:\n        /* \"#utility.yul\":13959:14031   */\n      tag_451\n        /* \"#utility.yul\":14027:14029   */\n      0x40\n        /* \"#utility.yul\":14016:14025   */\n      dup4\n        /* \"#utility.yul\":14012:14030   */\n      add\n        /* \"#utility.yul\":14003:14009   */\n      dup8\n        /* \"#utility.yul\":13959:14031   */\n      tag_338\n      jump\t// in\n    tag_451:\n        /* \"#utility.yul\":14041:14113   */\n      tag_452\n        /* \"#utility.yul\":14109:14111   */\n      0x60\n        /* \"#utility.yul\":14098:14107   */\n      dup4\n        /* \"#utility.yul\":14094:14112   */\n      add\n        /* \"#utility.yul\":14085:14091   */\n      dup7\n        /* \"#utility.yul\":14041:14113   */\n      tag_423\n      jump\t// in\n    tag_452:\n        /* \"#utility.yul\":14123:14196   */\n      tag_453\n        /* \"#utility.yul\":14191:14194   */\n      0x80\n        /* \"#utility.yul\":14180:14189   */\n      dup4\n        /* \"#utility.yul\":14176:14195   */\n      add\n        /* \"#utility.yul\":14167:14173   */\n      dup6\n        /* \"#utility.yul\":14123:14196   */\n      tag_423\n      jump\t// in\n    tag_453:\n        /* \"#utility.yul\":14206:14279   */\n      tag_454\n        /* \"#utility.yul\":14274:14277   */\n      0xa0\n        /* \"#utility.yul\":14263:14272   */\n      dup4\n        /* \"#utility.yul\":14259:14278   */\n      add\n        /* \"#utility.yul\":14250:14256   */\n      dup5\n        /* \"#utility.yul\":14206:14279   */\n      tag_423\n      jump\t// in\n    tag_454:\n        /* \"#utility.yul\":13749:14286   */\n      swap8\n      swap7\n      pop\n      pop\n      pop\n      pop\n      pop\n      pop\n      pop\n      jump\t// out\n        /* \"#utility.yul\":14292:14837   */\n    tag_241:\n      0x00\n        /* \"#utility.yul\":14503:14506   */\n      0x80\n        /* \"#utility.yul\":14492:14501   */\n      dup3\n        /* \"#utility.yul\":14488:14507   */\n      add\n        /* \"#utility.yul\":14480:14507   */\n      swap1\n      pop\n        /* \"#utility.yul\":14517:14588   */\n      tag_456\n        /* \"#utility.yul\":14585:14586   */\n      0x00\n        /* \"#utility.yul\":14574:14583   */\n      dup4\n        /* \"#utility.yul\":14570:14587   */\n      add\n        /* \"#utility.yul\":14561:14567   */\n      dup8\n        /* \"#utility.yul\":14517:14588   */\n      tag_346\n      jump\t// in\n    tag_456:\n        /* \"#utility.yul\":14598:14666   */\n      tag_457\n        /* \"#utility.yul\":14662:14664   */\n      0x20\n        /* \"#utility.yul\":14651:14660   */\n      dup4\n        /* \"#utility.yul\":14647:14665   */\n      add\n        /* \"#utility.yul\":14638:14644   */\n      dup7\n        /* \"#utility.yul\":14598:14666   */\n      tag_427\n      jump\t// in\n    tag_457:\n        /* \"#utility.yul\":14676:14748   */\n      tag_458\n        /* \"#utility.yul\":14744:14746   */\n      0x40\n        /* \"#utility.yul\":14733:14742   */\n      dup4\n        /* \"#utility.yul\":14729:14747   */\n      add\n        /* \"#utility.yul\":14720:14726   */\n      dup6\n        /* \"#utility.yul\":14676:14748   */\n      tag_346\n      jump\t// in\n    tag_458:\n        /* \"#utility.yul\":14758:14830   */\n      tag_459\n        /* \"#utility.yul\":14826:14828   */\n      0x60\n        /* \"#utility.yul\":14815:14824   */\n      dup4\n        /* \"#utility.yul\":14811:14829   */\n      add\n        /* \"#utility.yul\":14802:14808   */\n      dup5\n        /* \"#utility.yul\":14758:14830   */\n      tag_346\n      jump\t// in\n    tag_459:\n        /* \"#utility.yul\":14470:14837   */\n      swap6\n      swap5\n      pop\n      pop\n      pop\n      pop\n      pop\n      jump\t// out\n        /* \"#utility.yul\":14843:15156   */\n    tag_34:\n      0x00\n        /* \"#utility.yul\":14994:14996   */\n      0x20\n        /* \"#utility.yul\":14983:14992   */\n      dup3\n        /* \"#utility.yul\":14979:14997   */\n      add\n        /* \"#utility.yul\":14971:14997   */\n      swap1\n      pop\n        /* \"#utility.yul\":15043:15052   */\n      dup2\n        /* \"#utility.yul\":15037:15041   */\n      dup2\n        /* \"#utility.yul\":15033:15053   */\n      sub\n        /* \"#utility.yul\":15029:15030   */\n      0x00\n        /* \"#utility.yul\":15018:15027   */\n      dup4\n        /* \"#utility.yul\":15014:15031   */\n      add\n        /* \"#utility.yul\":15007:15054   */\n      mstore\n        /* \"#utility.yul\":15071:15149   */\n      tag_461\n        /* \"#utility.yul\":15144:15148   */\n      dup2\n        /* \"#utility.yul\":15135:15141   */\n      dup5\n        /* \"#utility.yul\":15071:15149   */\n      tag_363\n      jump\t// in\n    tag_461:\n        /* \"#utility.yul\":15063:15149   */\n      swap1\n      pop\n        /* \"#utility.yul\":14961:15156   */\n      swap3\n      swap2\n      pop\n      pop\n      jump\t// out\n        /* \"#utility.yul\":15162:15581   */\n    tag_209:\n      0x00\n        /* \"#utility.yul\":15366:15368   */\n      0x20\n        /* \"#utility.yul\":15355:15364   */\n      dup3\n        /* \"#utility.yul\":15351:15369   */\n      add\n        /* \"#utility.yul\":15343:15369   */\n      swap1\n      pop\n        /* \"#utility.yul\":15415:15424   */\n      dup2\n        /* \"#utility.yul\":15409:15413   */\n      dup2\n        /* \"#utility.yul\":15405:15425   */\n      sub\n        /* \"#utility.yul\":15401:15402   */\n      0x00\n        /* \"#utility.yul\":15390:15399   */\n      dup4\n        /* \"#utility.yul\":15386:15403   */\n      add\n        /* \"#utility.yul\":15379:15426   */\n      mstore\n        /* \"#utility.yul\":15443:15574   */\n      tag_463\n        /* \"#utility.yul\":15569:15573   */\n      dup2\n        /* \"#utility.yul\":15443:15574   */\n      tag_383\n      jump\t// in\n    tag_463:\n        /* \"#utility.yul\":15435:15574   */\n      swap1\n      pop\n        /* \"#utility.yul\":15333:15581   */\n      swap2\n      swap1\n      pop\n      jump\t// out\n        /* \"#utility.yul\":15587:16006   */\n    tag_161:\n      0x00\n        /* \"#utility.yul\":15791:15793   */\n      0x20\n        /* \"#utility.yul\":15780:15789   */\n      dup3\n        /* \"#utility.yul\":15776:15794   */\n      add\n        /* \"#utility.yul\":15768:15794   */\n      swap1\n      pop\n        /* \"#utility.yul\":15840:15849   */\n      dup2\n        /* \"#utility.yul\":15834:15838   */\n      dup2\n        /* \"#utility.yul\":15830:15850   */\n      sub\n        /* \"#utility.yul\":15826:15827   */\n      0x00\n        /* \"#utility.yul\":15815:15824   */\n      dup4\n        /* \"#utility.yul\":15811:15828   */\n      add\n        /* \"#utility.yul\":15804:15851   */\n      mstore\n        /* \"#utility.yul\":15868:15999   */\n      tag_465\n        /* \"#utility.yul\":15994:15998   */\n      dup2\n        /* \"#utility.yul\":15868:15999   */\n      tag_388\n      jump\t// in\n    tag_465:\n        /* \"#utility.yul\":15860:15999   */\n      swap1\n      pop\n        /* \"#utility.yul\":15758:16006   */\n      swap2\n      swap1\n      pop\n      jump\t// out\n        /* \"#utility.yul\":16012:16431   */\n    tag_182:\n      0x00\n        /* \"#utility.yul\":16216:16218   */\n      0x20\n        /* \"#utility.yul\":16205:16214   */\n      dup3\n        /* \"#utility.yul\":16201:16219   */\n      add\n        /* \"#utility.yul\":16193:16219   */\n      swap1\n      pop\n        /* \"#utility.yul\":16265:16274   */\n      dup2\n        /* \"#utility.yul\":16259:16263   */\n      dup2\n        /* \"#utility.yul\":16255:16275   */\n      sub\n        /* \"#utility.yul\":16251:16252   */\n      0x00\n        /* \"#utility.yul\":16240:16249   */\n      dup4\n        /* \"#utility.yul\":16236:16253   */\n      add\n        /* \"#utility.yul\":16229:16276   */\n      mstore\n        /* \"#utility.yul\":16293:16424   */\n      tag_467\n        /* \"#utility.yul\":16419:16423   */\n      dup2\n        /* \"#utility.yul\":16293:16424   */\n      tag_393\n      jump\t// in\n    tag_467:\n        /* \"#utility.yul\":16285:16424   */\n      swap1\n      pop\n        /* \"#utility.yul\":16183:16431   */\n      swap2\n      swap1\n      pop\n      jump\t// out\n        /* \"#utility.yul\":16437:16856   */\n    tag_205:\n      0x00\n        /* \"#utility.yul\":16641:16643   */\n      0x20\n        /* \"#utility.yul\":16630:16639   */\n      dup3\n        /* \"#utility.yul\":16626:16644   */\n      add\n        /* \"#utility.yul\":16618:16644   */\n      swap1\n      pop\n        /* \"#utility.yul\":16690:16699   */\n      dup2\n        /* \"#utility.yul\":16684:16688   */\n      dup2\n        /* \"#utility.yul\":16680:16700   */\n      sub\n        /* \"#utility.yul\":16676:16677   */\n      0x00\n        /* \"#utility.yul\":16665:16674   */\n      dup4\n        /* \"#utility.yul\":16661:16678   */\n      add\n        /* \"#utility.yul\":16654:16701   */\n      mstore\n        /* \"#utility.yul\":16718:16849   */\n      tag_469\n        /* \"#utility.yul\":16844:16848   */\n      dup2\n        /* \"#utility.yul\":16718:16849   */\n      tag_398\n      jump\t// in\n    tag_469:\n        /* \"#utility.yul\":16710:16849   */\n      swap1\n      pop\n        /* \"#utility.yul\":16608:16856   */\n      swap2\n      swap1\n      pop\n      jump\t// out\n        /* \"#utility.yul\":16862:17281   */\n    tag_255:\n      0x00\n        /* \"#utility.yul\":17066:17068   */\n      0x20\n        /* \"#utility.yul\":17055:17064   */\n      dup3\n        /* \"#utility.yul\":17051:17069   */\n      add\n        /* \"#utility.yul\":17043:17069   */\n      swap1\n      pop\n        /* \"#utility.yul\":17115:17124   */\n      dup2\n        /* \"#utility.yul\":17109:17113   */\n      dup2\n        /* \"#utility.yul\":17105:17125   */\n      sub\n        /* \"#utility.yul\":17101:17102   */\n      0x00\n        /* \"#utility.yul\":17090:17099   */\n      dup4\n        /* \"#utility.yul\":17086:17103   */\n      add\n        /* \"#utility.yul\":17079:17126   */\n      mstore\n        /* \"#utility.yul\":17143:17274   */\n      tag_471\n        /* \"#utility.yul\":17269:17273   */\n      dup2\n        /* \"#utility.yul\":17143:17274   */\n      tag_403\n      jump\t// in\n    tag_471:\n        /* \"#utility.yul\":17135:17274   */\n      swap1\n      pop\n        /* \"#utility.yul\":17033:17281   */\n      swap2\n      swap1\n      pop\n      jump\t// out\n        /* \"#utility.yul\":17287:17706   */\n    tag_132:\n      0x00\n        /* \"#utility.yul\":17491:17493   */\n      0x20\n        /* \"#utility.yul\":17480:17489   */\n      dup3\n        /* \"#utility.yul\":17476:17494   */\n      add\n        /* \"#utility.yul\":17468:17494   */\n      swap1\n      pop\n        /* \"#utility.yul\":17540:17549   */\n      dup2\n        /* \"#utility.yul\":17534:17538   */\n      dup2\n        /* \"#utility.yul\":17530:17550   */\n      sub\n        /* \"#utility.yul\":17526:17527   */\n      0x00\n        /* \"#utility.yul\":17515:17524   */\n      dup4\n        /* \"#utility.yul\":17511:17528   */\n      add\n        /* \"#utility.yul\":17504:17551   */\n      mstore\n        /* \"#utility.yul\":17568:17699   */\n      tag_473\n        /* \"#utility.yul\":17694:17698   */\n      dup2\n        /* \"#utility.yul\":17568:17699   */\n      tag_408\n      jump\t// in\n    tag_473:\n        /* \"#utility.yul\":17560:17699   */\n      swap1\n      pop\n        /* \"#utility.yul\":17458:17706   */\n      swap2\n      swap1\n      pop\n      jump\t// out\n        /* \"#utility.yul\":17712:18131   */\n    tag_262:\n      0x00\n        /* \"#utility.yul\":17916:17918   */\n      0x20\n        /* \"#utility.yul\":17905:17914   */\n      dup3\n        /* \"#utility.yul\":17901:17919   */\n      add\n        /* \"#utility.yul\":17893:17919   */\n      swap1\n      pop\n        /* \"#utility.yul\":17965:17974   */\n      dup2\n        /* \"#utility.yul\":17959:17963   */\n      dup2\n        /* \"#utility.yul\":17955:17975   */\n      sub\n        /* \"#utility.yul\":17951:17952   */\n      0x00\n        /* \"#utility.yul\":17940:17949   */\n      dup4\n        /* \"#utility.yul\":17936:17953   */\n      add\n        /* \"#utility.yul\":17929:17976   */\n      mstore\n        /* \"#utility.yul\":17993:18124   */\n      tag_475\n        /* \"#utility.yul\":18119:18123   */\n      dup2\n        /* \"#utility.yul\":17993:18124   */\n      tag_413\n      jump\t// in\n    tag_475:\n        /* \"#utility.yul\":17985:18124   */\n      swap1\n      pop\n        /* \"#utility.yul\":17883:18131   */\n      swap2\n      swap1\n      pop\n      jump\t// out\n        /* \"#utility.yul\":18137:18556   */\n    tag_138:\n      0x00\n        /* \"#utility.yul\":18341:18343   */\n      0x20\n        /* \"#utility.yul\":18330:18339   */\n      dup3\n        /* \"#utility.yul\":18326:18344   */\n      add\n        /* \"#utility.yul\":18318:18344   */\n      swap1\n      pop\n        /* \"#utility.yul\":18390:18399   */\n      dup2\n        /* \"#utility.yul\":18384:18388   */\n      dup2\n        /* \"#utility.yul\":18380:18400   */\n      sub\n        /* \"#utility.yul\":18376:18377   */\n      0x00\n        /* \"#utility.yul\":18365:18374   */\n      dup4\n        /* \"#utility.yul\":18361:18378   */\n      add\n        /* \"#utility.yul\":18354:18401   */\n      mstore\n        /* \"#utility.yul\":18418:18549   */\n      tag_477\n        /* \"#utility.yul\":18544:18548   */\n      dup2\n        /* \"#utility.yul\":18418:18549   */\n      tag_418\n      jump\t// in\n    tag_477:\n        /* \"#utility.yul\":18410:18549   */\n      swap1\n      pop\n        /* \"#utility.yul\":18308:18556   */\n      swap2\n      swap1\n      pop\n      jump\t// out\n        /* \"#utility.yul\":18562:18784   */\n    tag_44:\n      0x00\n        /* \"#utility.yul\":18693:18695   */\n      0x20\n        /* \"#utility.yul\":18682:18691   */\n      dup3\n        /* \"#utility.yul\":18678:18696   */\n      add\n        /* \"#utility.yul\":18670:18696   */\n      swap1\n      pop\n        /* \"#utility.yul\":18706:18777   */\n      tag_479\n        /* \"#utility.yul\":18774:18775   */\n      0x00\n        /* \"#utility.yul\":18763:18772   */\n      dup4\n        /* \"#utility.yul\":18759:18776   */\n      add\n        /* \"#utility.yul\":18750:18756   */\n      dup5\n        /* \"#utility.yul\":18706:18777   */\n      tag_423\n      jump\t// in\n    tag_479:\n        /* \"#utility.yul\":18660:18784   */\n      swap3\n      swap2\n      pop\n      pop\n      jump\t// out\n        /* \"#utility.yul\":18790:19004   */\n    tag_56:\n      0x00\n        /* \"#utility.yul\":18917:18919   */\n      0x20\n        /* \"#utility.yul\":18906:18915   */\n      dup3\n        /* \"#utility.yul\":18902:18920   */\n      add\n        /* \"#utility.yul\":18894:18920   */\n      swap1\n      pop\n        /* \"#utility.yul\":18930:18997   */\n      tag_481\n        /* \"#utility.yul\":18994:18995   */\n      0x00\n        /* \"#utility.yul\":18983:18992   */\n      dup4\n        /* \"#utility.yul\":18979:18996   */\n      add\n        /* \"#utility.yul\":18970:18976   */\n      dup5\n        /* \"#utility.yul\":18930:18997   */\n      tag_427\n      jump\t// in\n    tag_481:\n        /* \"#utility.yul\":18884:19004   */\n      swap3\n      swap2\n      pop\n      pop\n      jump\t// out\n        /* \"#utility.yul\":19010:19109   */\n    tag_366:\n      0x00\n        /* \"#utility.yul\":19096:19101   */\n      dup2\n        /* \"#utility.yul\":19090:19102   */\n      mload\n        /* \"#utility.yul\":19080:19102   */\n      swap1\n      pop\n        /* \"#utility.yul\":19069:19109   */\n      swap2\n      swap1\n      pop\n      jump\t// out\n        /* \"#utility.yul\":19115:19283   */\n    tag_358:\n      0x00\n        /* \"#utility.yul\":19232:19238   */\n      dup3\n        /* \"#utility.yul\":19227:19230   */\n      dup3\n        /* \"#utility.yul\":19220:19239   */\n      mstore\n        /* \"#utility.yul\":19272:19276   */\n      0x20\n        /* \"#utility.yul\":19267:19270   */\n      dup3\n        /* \"#utility.yul\":19263:19277   */\n      add\n        /* \"#utility.yul\":19248:19277   */\n      swap1\n      pop\n        /* \"#utility.yul\":19210:19283   */\n      swap3\n      swap2\n      pop\n      pop\n      jump\t// out\n        /* \"#utility.yul\":19289:19458   */\n    tag_368:\n      0x00\n        /* \"#utility.yul\":19407:19413   */\n      dup3\n        /* \"#utility.yul\":19402:19405   */\n      dup3\n        /* \"#utility.yul\":19395:19414   */\n      mstore\n        /* \"#utility.yul\":19447:19451   */\n      0x20\n        /* \"#utility.yul\":19442:19445   */\n      dup3\n        /* \"#utility.yul\":19438:19452   */\n      add\n        /* \"#utility.yul\":19423:19452   */\n      swap1\n      pop\n        /* \"#utility.yul\":19385:19458   */\n      swap3\n      swap2\n      pop\n      pop\n      jump\t// out\n        /* \"#utility.yul\":19464:19612   */\n    tag_375:\n      0x00\n        /* \"#utility.yul\":19603:19606   */\n      dup2\n        /* \"#utility.yul\":19588:19606   */\n      swap1\n      pop\n        /* \"#utility.yul\":19578:19612   */\n      swap3\n      swap2\n      pop\n      pop\n      jump\t// out\n        /* \"#utility.yul\":19618:19923   */\n    tag_141:\n      0x00\n        /* \"#utility.yul\":19677:19697   */\n      tag_487\n        /* \"#utility.yul\":19695:19696   */\n      dup3\n        /* \"#utility.yul\":19677:19697   */\n      tag_426\n      jump\t// in\n    tag_487:\n        /* \"#utility.yul\":19672:19697   */\n      swap2\n      pop\n        /* \"#utility.yul\":19711:19731   */\n      tag_488\n        /* \"#utility.yul\":19729:19730   */\n      dup4\n        /* \"#utility.yul\":19711:19731   */\n      tag_426\n      jump\t// in\n    tag_488:\n        /* \"#utility.yul\":19706:19731   */\n      swap3\n      pop\n        /* \"#utility.yul\":19865:19866   */\n      dup3\n        /* \"#utility.yul\":19797:19863   */\n      0xffffffffffffffffffffffffffffffffffffffffffffffffffffffffffffffff\n        /* \"#utility.yul\":19793:19867   */\n      sub\n        /* \"#utility.yul\":19790:19791   */\n      dup3\n        /* \"#utility.yul\":19787:19868   */\n      gt\n        /* \"#utility.yul\":19784:19786   */\n      iszero\n      tag_489\n      jumpi\n        /* \"#utility.yul\":19871:19889   */\n      tag_490\n      tag_491\n      jump\t// in\n    tag_490:\n        /* \"#utility.yul\":19784:19786   */\n    tag_489:\n        /* \"#utility.yul\":19915:19916   */\n      dup3\n        /* \"#utility.yul\":19912:19913   */\n      dup3\n        /* \"#utility.yul\":19908:19917   */\n      add\n        /* \"#utility.yul\":19901:19917   */\n      swap1\n      pop\n        /* \"#utility.yul\":19662:19923   */\n      swap3\n      swap2\n      pop\n      pop\n      jump\t// out\n        /* \"#utility.yul\":19929:20120   */\n    tag_134:\n      0x00\n        /* \"#utility.yul\":19989:20009   */\n      tag_493\n        /* \"#utility.yul\":20007:20008   */\n      dup3\n        /* \"#utility.yul\":19989:20009   */\n      tag_426\n      jump\t// in\n    tag_493:\n        /* \"#utility.yul\":19984:20009   */\n      swap2\n      pop\n        /* \"#utility.yul\":20023:20043   */\n      tag_494\n        /* \"#utility.yul\":20041:20042   */\n      dup4\n        /* \"#utility.yul\":20023:20043   */\n      tag_426\n      jump\t// in\n    tag_494:\n        /* \"#utility.yul\":20018:20043   */\n      swap3\n      pop\n        /* \"#utility.yul\":20062:20063   */\n      dup3\n        /* \"#utility.yul\":20059:20060   */\n      dup3\n        /* \"#utility.yul\":20056:20064   */\n      lt\n        /* \"#utility.yul\":20053:20055   */\n      iszero\n      tag_495\n      jumpi\n        /* \"#utility.yul\":20067:20085   */\n      tag_496\n      tag_491\n      jump\t// in\n    tag_496:\n        /* \"#utility.yul\":20053:20055   */\n    tag_495:\n        /* \"#utility.yul\":20112:20113   */\n      dup3\n        /* \"#utility.yul\":20109:20110   */\n      dup3\n        /* \"#utility.yul\":20105:20114   */\n      sub\n        /* \"#utility.yul\":20097:20114   */\n      swap1\n      pop\n        /* \"#utility.yul\":19974:20120   */\n      swap3\n      swap2\n      pop\n      pop\n      jump\t// out\n        /* \"#utility.yul\":20126:20222   */\n    tag_341:\n      0x00\n        /* \"#utility.yul\":20192:20216   */\n      tag_498\n        /* \"#utility.yul\":20210:20215   */\n      dup3\n        /* \"#utility.yul\":20192:20216   */\n      tag_499\n      jump\t// in\n    tag_498:\n        /* \"#utility.yul\":20181:20216   */\n      swap1\n      pop\n        /* \"#utility.yul\":20171:20222   */\n      swap2\n      swap1\n      pop\n      jump\t// out\n        /* \"#utility.yul\":20228:20318   */\n    tag_345:\n      0x00\n        /* \"#utility.yul\":20305:20310   */\n      dup2\n        /* \"#utility.yul\":20298:20311   */\n      iszero\n        /* \"#utility.yul\":20291:20312   */\n      iszero\n        /* \"#utility.yul\":20280:20312   */\n      swap1\n      pop\n        /* \"#utility.yul\":20270:20318   */\n      swap2\n      swap1\n      pop\n      jump\t// out\n        /* \"#utility.yul\":20324:20401   */\n    tag_349:\n      0x00\n        /* \"#utility.yul\":20390:20395   */\n      dup2\n        /* \"#utility.yul\":20379:20395   */\n      swap1\n      pop\n        /* \"#utility.yul\":20369:20401   */\n      swap2\n      swap1\n      pop\n      jump\t// out\n        /* \"#utility.yul\":20407:20533   */\n    tag_499:\n      0x00\n        /* \"#utility.yul\":20484:20526   */\n      0xffffffffffffffffffffffffffffffffffffffff\n        /* \"#utility.yul\":20477:20482   */\n      dup3\n        /* \"#utility.yul\":20473:20527   */\n      and\n        /* \"#utility.yul\":20462:20527   */\n      swap1\n      pop\n        /* \"#utility.yul\":20452:20533   */\n      swap2\n      swap1\n      pop\n      jump\t// out\n        /* \"#utility.yul\":20539:20616   */\n    tag_426:\n      0x00\n        /* \"#utility.yul\":20605:20610   */\n      dup2\n        /* \"#utility.yul\":20594:20610   */\n      swap1\n      pop\n        /* \"#utility.yul\":20584:20616   */\n      swap2\n      swap1\n      pop\n      jump\t// out\n        /* \"#utility.yul\":20622:20708   */\n    tag_430:\n      0x00\n        /* \"#utility.yul\":20697:20701   */\n      0xff\n        /* \"#utility.yul\":20690:20695   */\n      dup3\n        /* \"#utility.yul\":20686:20702   */\n      and\n        /* \"#utility.yul\":20675:20702   */\n      swap1\n      pop\n        /* \"#utility.yul\":20665:20708   */\n      swap2\n      swap1\n      pop\n      jump\t// out\n        /* \"#utility.yul\":20714:20868   */\n    tag_360:\n        /* \"#utility.yul\":20798:20804   */\n      dup3\n        /* \"#utility.yul\":20793:20796   */\n      dup2\n        /* \"#utility.yul\":20788:20791   */\n      dup4\n        /* \"#utility.yul\":20775:20805   */\n      calldatacopy\n        /* \"#utility.yul\":20860:20861   */\n      0x00\n        /* \"#utility.yul\":20851:20857   */\n      dup4\n        /* \"#utility.yul\":20846:20849   */\n      dup4\n        /* \"#utility.yul\":20842:20858   */\n      add\n        /* \"#utility.yul\":20835:20862   */\n      mstore\n        /* \"#utility.yul\":20765:20868   */\n      pop\n      pop\n      pop\n      jump\t// out\n        /* \"#utility.yul\":20874:21181   */\n    tag_370:\n        /* \"#utility.yul\":20942:20943   */\n      0x00\n        /* \"#utility.yul\":20952:21065   */\n    tag_507:\n        /* \"#utility.yul\":20966:20972   */\n      dup4\n        /* \"#utility.yul\":20963:20964   */\n      dup2\n        /* \"#utility.yul\":20960:20973   */\n      lt\n        /* \"#utility.yul\":20952:21065   */\n      iszero\n      tag_509\n      jumpi\n        /* \"#utility.yul\":21051:21052   */\n      dup1\n        /* \"#utility.yul\":21046:21049   */\n      dup3\n        /* \"#utility.yul\":21042:21053   */\n      add\n        /* \"#utility.yul\":21036:21054   */\n      mload\n        /* \"#utility.yul\":21032:21033   */\n      dup2\n        /* \"#utility.yul\":21027:21030   */\n      dup5\n        /* \"#utility.yul\":21023:21034   */\n      add\n        /* \"#utility.yul\":21016:21055   */\n      mstore\n        /* \"#utility.yul\":20988:20990   */\n      0x20\n        /* \"#utility.yul\":20985:20986   */\n      dup2\n        /* \"#utility.yul\":20981:20991   */\n      add\n        /* \"#utility.yul\":20976:20991   */\n      swap1\n      pop\n        /* \"#utility.yul\":20952:21065   */\n      jump(tag_507)\n    tag_509:\n        /* \"#utility.yul\":21083:21089   */\n      dup4\n        /* \"#utility.yul\":21080:21081   */\n      dup2\n        /* \"#utility.yul\":21077:21090   */\n      gt\n        /* \"#utility.yul\":21074:21076   */\n      iszero\n      tag_510\n      jumpi\n        /* \"#utility.yul\":21163:21164   */\n      0x00\n        /* \"#utility.yul\":21154:21160   */\n      dup5\n        /* \"#utility.yul\":21149:21152   */\n      dup5\n        /* \"#utility.yul\":21145:21161   */\n      add\n        /* \"#utility.yul\":21138:21165   */\n      mstore\n        /* \"#utility.yul\":21074:21076   */\n    tag_510:\n        /* \"#utility.yul\":20923:21181   */\n      pop\n      pop\n      pop\n      pop\n      jump\t// out\n        /* \"#utility.yul\":21187:21507   */\n    tag_117:\n      0x00\n        /* \"#utility.yul\":21268:21269   */\n      0x02\n        /* \"#utility.yul\":21262:21266   */\n      dup3\n        /* \"#utility.yul\":21258:21270   */\n      div\n        /* \"#utility.yul\":21248:21270   */\n      swap1\n      pop\n        /* \"#utility.yul\":21315:21316   */\n      0x01\n        /* \"#utility.yul\":21309:21313   */\n      dup3\n        /* \"#utility.yul\":21305:21317   */\n      and\n        /* \"#utility.yul\":21336:21354   */\n      dup1\n        /* \"#utility.yul\":21326:21328   */\n      tag_512\n      jumpi\n        /* \"#utility.yul\":21392:21396   */\n      0x7f\n        /* \"#utility.yul\":21384:21390   */\n      dup3\n        /* \"#utility.yul\":21380:21397   */\n      and\n        /* \"#utility.yul\":21370:21397   */\n      swap2\n      pop\n        /* \"#utility.yul\":21326:21328   */\n    tag_512:\n        /* \"#utility.yul\":21454:21456   */\n      0x20\n        /* \"#utility.yul\":21446:21452   */\n      dup3\n        /* \"#utility.yul\":21443:21457   */\n      lt\n        /* \"#utility.yul\":21423:21441   */\n      dup2\n        /* \"#utility.yul\":21420:21458   */\n      eq\n        /* \"#utility.yul\":21417:21419   */\n      iszero\n      tag_513\n      jumpi\n        /* \"#utility.yul\":21473:21491   */\n      tag_514\n      tag_515\n      jump\t// in\n    tag_514:\n        /* \"#utility.yul\":21417:21419   */\n    tag_513:\n        /* \"#utility.yul\":21238:21507   */\n      pop\n      swap2\n      swap1\n      pop\n      jump\t// out\n        /* \"#utility.yul\":21513:21746   */\n    tag_163:\n      0x00\n        /* \"#utility.yul\":21575:21599   */\n      tag_517\n        /* \"#utility.yul\":21593:21598   */\n      dup3\n        /* \"#utility.yul\":21575:21599   */\n      tag_426\n      jump\t// in\n    tag_517:\n        /* \"#utility.yul\":21566:21599   */\n      swap2\n      pop\n        /* \"#utility.yul\":21621:21687   */\n      0xffffffffffffffffffffffffffffffffffffffffffffffffffffffffffffffff\n        /* \"#utility.yul\":21614:21619   */\n      dup3\n        /* \"#utility.yul\":21611:21688   */\n      eq\n        /* \"#utility.yul\":21608:21610   */\n      iszero\n      tag_518\n      jumpi\n        /* \"#utility.yul\":21691:21709   */\n      tag_519\n      tag_491\n      jump\t// in\n    tag_519:\n        /* \"#utility.yul\":21608:21610   */\n    tag_518:\n        /* \"#utility.yul\":21738:21739   */\n      0x01\n        /* \"#utility.yul\":21731:21736   */\n      dup3\n        /* \"#utility.yul\":21727:21740   */\n      add\n        /* \"#utility.yul\":21720:21740   */\n      swap1\n      pop\n        /* \"#utility.yul\":21556:21746   */\n      swap2\n      swap1\n      pop\n      jump\t// out\n        /* \"#utility.yul\":21752:21831   */\n    tag_354:\n      0x00\n        /* \"#utility.yul\":21820:21825   */\n      dup2\n        /* \"#utility.yul\":21809:21825   */\n      swap1\n      pop\n        /* \"#utility.yul\":21799:21831   */\n      swap2\n      swap1\n      pop\n      jump\t// out\n        /* \"#utility.yul\":21837:22017   */\n    tag_491:\n        /* \"#utility.yul\":21885:21962   */\n      0x4e487b7100000000000000000000000000000000000000000000000000000000\n        /* \"#utility.yul\":21882:21883   */\n      0x00\n        /* \"#utility.yul\":21875:21963   */\n      mstore\n        /* \"#utility.yul\":21982:21986   */\n      0x11\n        /* \"#utility.yul\":21979:21980   */\n      0x04\n        /* \"#utility.yul\":21972:21987   */\n      mstore\n        /* \"#utility.yul\":22006:22010   */\n      0x24\n        /* \"#utility.yul\":22003:22004   */\n      0x00\n        /* \"#utility.yul\":21996:22011   */\n      revert\n        /* \"#utility.yul\":22023:22203   */\n    tag_515:\n        /* \"#utility.yul\":22071:22148   */\n      0x4e487b7100000000000000000000000000000000000000000000000000000000\n        /* \"#utility.yul\":22068:22069   */\n      0x00\n        /* \"#utility.yul\":22061:22149   */\n      mstore\n        /* \"#utility.yul\":22168:22172   */\n      0x22\n        /* \"#utility.yul\":22165:22166   */\n      0x04\n        /* \"#utility.yul\":22158:22173   */\n      mstore\n        /* \"#utility.yul\":22192:22196   */\n      0x24\n        /* \"#utility.yul\":22189:22190   */\n      0x00\n        /* \"#utility.yul\":22182:22197   */\n      revert\n        /* \"#utility.yul\":22209:22311   */\n    tag_362:\n      0x00\n        /* \"#utility.yul\":22301:22303   */\n      0x1f\n        /* \"#utility.yul\":22297:22304   */\n      not\n        /* \"#utility.yul\":22292:22294   */\n      0x1f\n        /* \"#utility.yul\":22285:22290   */\n      dup4\n        /* \"#utility.yul\":22281:22295   */\n      add\n        /* \"#utility.yul\":22277:22305   */\n      and\n        /* \"#utility.yul\":22267:22305   */\n      swap1\n      pop\n        /* \"#utility.yul\":22257:22311   */\n      swap2\n      swap1\n      pop\n      jump\t// out\n        /* \"#utility.yul\":22317:22531   */\n    tag_377:\n        /* \"#utility.yul\":22457:22523   */\n      0x19457468657265756d205369676e6564204d6573736167653a0a333200000000\n        /* \"#utility.yul\":22453:22454   */\n      0x00\n        /* \"#utility.yul\":22445:22451   */\n      dup3\n        /* \"#utility.yul\":22441:22455   */\n      add\n        /* \"#utility.yul\":22434:22524   */\n      mstore\n        /* \"#utility.yul\":22423:22531   */\n      pop\n      jump\t// out\n        /* \"#utility.yul\":22537:22751   */\n    tag_382:\n        /* \"#utility.yul\":22677:22743   */\n      0x1901000000000000000000000000000000000000000000000000000000000000\n        /* \"#utility.yul\":22673:22674   */\n      0x00\n        /* \"#utility.yul\":22665:22671   */\n      dup3\n        /* \"#utility.yul\":22661:22675   */\n      add\n        /* \"#utility.yul\":22654:22744   */\n      mstore\n        /* \"#utility.yul\":22643:22751   */\n      pop\n      jump\t// out\n        /* \"#utility.yul\":22757:22936   */\n    tag_387:\n        /* \"#utility.yul\":22897:22928   */\n      0x6e6577206f776e657220697320746865207a65726f2061646472657373000000\n        /* \"#utility.yul\":22893:22894   */\n      0x00\n        /* \"#utility.yul\":22885:22891   */\n      dup3\n        /* \"#utility.yul\":22881:22895   */\n      add\n        /* \"#utility.yul\":22874:22929   */\n      mstore\n        /* \"#utility.yul\":22863:22936   */\n      pop\n      jump\t// out\n        /* \"#utility.yul\":22942:23114   */\n    tag_392:\n        /* \"#utility.yul\":23082:23106   */\n      0x5745524331303a2045787069726564207065726d697400000000000000000000\n        /* \"#utility.yul\":23078:23079   */\n      0x00\n        /* \"#utility.yul\":23070:23076   */\n      dup3\n        /* \"#utility.yul\":23066:23080   */\n      add\n        /* \"#utility.yul\":23059:23107   */\n      mstore\n        /* \"#utility.yul\":23048:23114   */\n      pop\n      jump\t// out\n        /* \"#utility.yul\":23120:23302   */\n    tag_397:\n        /* \"#utility.yul\":23260:23294   */\n      0x62696e64206164647265737320697320746865207a65726f2061646472657373\n        /* \"#utility.yul\":23256:23257   */\n      0x00\n        /* \"#utility.yul\":23248:23254   */\n      dup3\n        /* \"#utility.yul\":23244:23258   */\n      add\n        /* \"#utility.yul\":23237:23295   */\n      mstore\n        /* \"#utility.yul\":23226:23302   */\n      pop\n      jump\t// out\n        /* \"#utility.yul\":23308:23468   */\n    tag_402:\n        /* \"#utility.yul\":23448:23460   */\n      0x6f6e6c79206f776e657200000000000000000000000000000000000000000000\n        /* \"#utility.yul\":23444:23445   */\n      0x00\n        /* \"#utility.yul\":23436:23442   */\n      dup3\n        /* \"#utility.yul\":23432:23446   */\n      add\n        /* \"#utility.yul\":23425:23461   */\n      mstore\n        /* \"#utility.yul\":23414:23468   */\n      pop\n      jump\t// out\n        /* \"#utility.yul\":23474:23694   */\n    tag_407:\n        /* \"#utility.yul\":23614:23648   */\n      0x45524332303a206275726e2066726f6d20746865207a65726f20616464726573\n        /* \"#utility.yul\":23610:23611   */\n      0x00\n        /* \"#utility.yul\":23602:23608   */\n      dup3\n        /* \"#utility.yul\":23598:23612   */\n      add\n        /* \"#utility.yul\":23591:23649   */\n      mstore\n        /* \"#utility.yul\":23683:23686   */\n      0x7300000000000000000000000000000000000000000000000000000000000000\n        /* \"#utility.yul\":23678:23680   */\n      0x20\n        /* \"#utility.yul\":23670:23676   */\n      dup3\n        /* \"#utility.yul\":23666:23681   */\n      add\n        /* \"#utility.yul\":23659:23687   */\n      mstore\n        /* \"#utility.yul\":23580:23694   */\n      pop\n      jump\t// out\n        /* \"#utility.yul\":23700:23920   */\n    tag_412:\n        /* \"#utility.yul\":23840:23874   */\n      0x5745524331303a2072657175657374206578636565647320616c6c6f77616e63\n        /* \"#utility.yul\":23836:23837   */\n      0x00\n        /* \"#utility.yul\":23828:23834   */\n      dup3\n        /* \"#utility.yul\":23824:23838   */\n      add\n        /* \"#utility.yul\":23817:23875   */\n      mstore\n        /* \"#utility.yul\":23909:23912   */\n      0x6500000000000000000000000000000000000000000000000000000000000000\n        /* \"#utility.yul\":23904:23906   */\n      0x20\n        /* \"#utility.yul\":23896:23902   */\n      dup3\n        /* \"#utility.yul\":23892:23907   */\n      add\n        /* \"#utility.yul\":23885:23913   */\n      mstore\n        /* \"#utility.yul\":23806:23920   */\n      pop\n      jump\t// out\n        /* \"#utility.yul\":23926:24107   */\n    tag_417:\n        /* \"#utility.yul\":24066:24099   */\n      0x45524332303a206d696e7420746f20746865207a65726f206164647265737300\n        /* \"#utility.yul\":24062:24063   */\n      0x00\n        /* \"#utility.yul\":24054:24060   */\n      dup3\n        /* \"#utility.yul\":24050:24064   */\n      add\n        /* \"#utility.yul\":24043:24100   */\n      mstore\n        /* \"#utility.yul\":24032:24107   */\n      pop\n      jump\t// out\n        /* \"#utility.yul\":24113:24339   */\n    tag_422:\n        /* \"#utility.yul\":24253:24287   */\n      0x5745524331303a207472616e7366657220616d6f756e74206578636565647320\n        /* \"#utility.yul\":24249:24250   */\n      0x00\n        /* \"#utility.yul\":24241:24247   */\n      dup3\n        /* \"#utility.yul\":24237:24251   */\n      add\n        /* \"#utility.yul\":24230:24288   */\n      mstore\n        /* \"#utility.yul\":24322:24331   */\n      0x62616c616e636500000000000000000000000000000000000000000000000000\n        /* \"#utility.yul\":24317:24319   */\n      0x20\n        /* \"#utility.yul\":24309:24315   */\n      dup3\n        /* \"#utility.yul\":24305:24320   */\n      add\n        /* \"#utility.yul\":24298:24332   */\n      mstore\n        /* \"#utility.yul\":24219:24339   */\n      pop\n      jump\t// out\n        /* \"#utility.yul\":24345:24467   */\n    tag_273:\n        /* \"#utility.yul\":24418:24442   */\n      tag_535\n        /* \"#utility.yul\":24436:24441   */\n      dup2\n        /* \"#utility.yul\":24418:24442   */\n      tag_341\n      jump\t// in\n    tag_535:\n        /* \"#utility.yul\":24411:24416   */\n      dup2\n        /* \"#utility.yul\":24408:24443   */\n      eq\n        /* \"#utility.yul\":24398:24400   */\n      tag_536\n      jumpi\n        /* \"#utility.yul\":24457:24458   */\n      0x00\n        /* \"#utility.yul\":24454:24455   */\n      dup1\n        /* \"#utility.yul\":24447:24459   */\n      revert\n        /* \"#utility.yul\":24398:24400   */\n    tag_536:\n        /* \"#utility.yul\":24388:24467   */\n      pop\n      jump\t// out\n        /* \"#utility.yul\":24473:24589   */\n    tag_277:\n        /* \"#utility.yul\":24543:24564   */\n      tag_538\n        /* \"#utility.yul\":24558:24563   */\n      dup2\n        /* \"#utility.yul\":24543:24564   */\n      tag_345\n      jump\t// in\n    tag_538:\n        /* \"#utility.yul\":24536:24541   */\n      dup2\n        /* \"#utility.yul\":24533:24565   */\n      eq\n        /* \"#utility.yul\":24523:24525   */\n      tag_539\n      jumpi\n        /* \"#utility.yul\":24579:24580   */\n      0x00\n        /* \"#utility.yul\":24576:24577   */\n      dup1\n        /* \"#utility.yul\":24569:24581   */\n      revert\n        /* \"#utility.yul\":24523:24525   */\n    tag_539:\n        /* \"#utility.yul\":24513:24589   */\n      pop\n      jump\t// out\n        /* \"#utility.yul\":24595:24717   */\n    tag_281:\n        /* \"#utility.yul\":24668:24692   */\n      tag_541\n        /* \"#utility.yul\":24686:24691   */\n      dup2\n        /* \"#utility.yul\":24668:24692   */\n      tag_349\n      jump\t// in\n    tag_541:\n        /* \"#utility.yul\":24661:24666   */\n      dup2\n        /* \"#utility.yul\":24658:24693   */\n      eq\n        /* \"#utility.yul\":24648:24650   */\n      tag_542\n      jumpi\n        /* \"#utility.yul\":24707:24708   */\n      0x00\n        /* \"#utility.yul\":24704:24705   */\n      dup1\n        /* \"#utility.yul\":24697:24709   */\n      revert\n        /* \"#utility.yul\":24648:24650   */\n    tag_542:\n        /* \"#utility.yul\":24638:24717   */\n      pop\n      jump\t// out\n        /* \"#utility.yul\":24723:24845   */\n    tag_290:\n        /* \"#utility.yul\":24796:24820   */\n      tag_544\n        /* \"#utility.yul\":24814:24819   */\n      dup2\n        /* \"#utility.yul\":24796:24820   */\n      tag_426\n      jump\t// in\n    tag_544:\n        /* \"#utility.yul\":24789:24794   */\n      dup2\n        /* \"#utility.yul\":24786:24821   */\n      eq\n        /* \"#utility.yul\":24776:24778   */\n      tag_545\n      jumpi\n        /* \"#utility.yul\":24835:24836   */\n      0x00\n        /* \"#utility.yul\":24832:24833   */\n      dup1\n        /* \"#utility.yul\":24825:24837   */\n      revert\n        /* \"#utility.yul\":24776:24778   */\n    tag_545:\n        /* \"#utility.yul\":24766:24845   */\n      pop\n      jump\t// out\n        /* \"#utility.yul\":24851:24969   */\n    tag_294:\n        /* \"#utility.yul\":24922:24944   */\n      tag_547\n        /* \"#utility.yul\":24938:24943   */\n      dup2\n        /* \"#utility.yul\":24922:24944   */\n      tag_430\n      jump\t// in\n    tag_547:\n        /* \"#utility.yul\":24915:24920   */\n      dup2\n        /* \"#utility.yul\":24912:24945   */\n      eq\n        /* \"#utility.yul\":24902:24904   */\n      tag_548\n      jumpi\n        /* \"#utility.yul\":24959:24960   */\n      0x00\n        /* \"#utility.yul\":24956:24957   */\n      dup1\n        /* \"#utility.yul\":24949:24961   */\n      revert\n        /* \"#utility.yul\":24902:24904   */\n    tag_548:\n        /* \"#utility.yul\":24892:24969   */\n      pop\n      jump\t// out\n\n    auxdata: 0xa26469706673582212206c5672f9685999f5c1b1a0c4c645306963e45313691d3905cf612c1a4d9de37e64736f6c63430008010033\n}\n",
				"bytecode": {
					"linkReferences": {},
					"object": "60c06040523480156200001157600080fd5b50604051620039313803806200393183398181016040528101906200003791906200045c565b83600090805190602001906200004f9291906200030c565b508260019080519060200190620000689291906200030c565b508160ff1660808160ff1660f81b8152505060008260ff16600a6200008e9190620007dc565b651319718a5000620000a1919062000919565b9050620000b58282620001ba60201b60201c565b81600560006101000a81548173ffffffffffffffffffffffffffffffffffffffff021916908373ffffffffffffffffffffffffffffffffffffffff1602179055504260068190555060004690507f8b73c3c69bb8fe3d512ecc4cf759cc79239f7b179b0ffacaa9a75d522b39400f6000604051620001349190620005df565b60405180910390206040518060400160405280600181526020017f310000000000000000000000000000000000000000000000000000000000000081525080519060200120833060405160200162000191959493929190620005f8565b6040516020818303038152906040528051906020012060a0818152505050505050505062000b79565b600073ffffffffffffffffffffffffffffffffffffffff168273ffffffffffffffffffffffffffffffffffffffff1614156200022d576040517f08c379a0000000000000000000000000000000000000000000000000000000008152600401620002249062000655565b60405180910390fd5b806003600082825462000241919062000724565b9250508190555080600260008473ffffffffffffffffffffffffffffffffffffffff1673ffffffffffffffffffffffffffffffffffffffff168152602001908152602001600020600082825462000299919062000724565b925050819055508173ffffffffffffffffffffffffffffffffffffffff16600073ffffffffffffffffffffffffffffffffffffffff167fddf252ad1be2c89b69c2b068fc378daa952ba7f163c4a11628f55a4df523b3ef8360405162000300919062000677565b60405180910390a35050565b8280546200031a9062000a05565b90600052602060002090601f0160209004810192826200033e57600085556200038a565b82601f106200035957805160ff19168380011785556200038a565b828001600101855582156200038a579182015b82811115620003895782518255916020019190600101906200036c565b5b5090506200039991906200039d565b5090565b5b80821115620003b85760008160009055506001016200039e565b5090565b6000620003d3620003cd84620006bd565b62000694565b905082815260208101848484011115620003ec57600080fd5b620003f9848285620009cf565b509392505050565b600081519050620004128162000b45565b92915050565b600082601f8301126200042a57600080fd5b81516200043c848260208601620003bc565b91505092915050565b600081519050620004568162000b5f565b92915050565b600080600080608085870312156200047357600080fd5b600085015167ffffffffffffffff8111156200048e57600080fd5b6200049c8782880162000418565b945050602085015167ffffffffffffffff811115620004ba57600080fd5b620004c88782880162000418565b9350506040620004db8782880162000445565b9250506060620004ee8782880162000401565b91505092959194509250565b62000505816200097a565b82525050565b62000516816200098e565b82525050565b600081546200052b8162000a05565b62000537818662000708565b9450600182166000811462000555576001811462000567576200059e565b60ff198316865281860193506200059e565b6200057285620006f3565b60005b83811015620005965781548189015260018201915060208101905062000575565b838801955050505b50505092915050565b6000620005b6601f8362000713565b9150620005c38262000b1c565b602082019050919050565b620005d981620009b8565b82525050565b6000620005ed82846200051c565b915081905092915050565b600060a0820190506200060f60008301886200050b565b6200061e60208301876200050b565b6200062d60408301866200050b565b6200063c6060830185620005ce565b6200064b6080830184620004fa565b9695505050505050565b600060208201905081810360008301526200067081620005a7565b9050919050565b60006020820190506200068e6000830184620005ce565b92915050565b6000620006a0620006b3565b9050620006ae828262000a3b565b919050565b6000604051905090565b600067ffffffffffffffff821115620006db57620006da62000acf565b5b620006e68262000afe565b9050602081019050919050565b60008190508160005260206000209050919050565b600081905092915050565b600082825260208201905092915050565b60006200073182620009b8565b91506200073e83620009b8565b9250827fffffffffffffffffffffffffffffffffffffffffffffffffffffffffffffffff0382111562000776576200077562000a71565b5b828201905092915050565b6000808291508390505b6001851115620007d357808604811115620007ab57620007aa62000a71565b5b6001851615620007bb5780820291505b8081029050620007cb8562000b0f565b94506200078b565b94509492505050565b6000620007e982620009b8565b9150620007f683620009b8565b9250620008257fffffffffffffffffffffffffffffffffffffffffffffffffffffffffffffffff84846200082d565b905092915050565b6000826200083f576001905062000912565b816200084f576000905062000912565b81600181146200086857600281146200087357620008a9565b600191505062000912565b60ff84111562000888576200088762000a71565b5b8360020a915084821115620008a257620008a162000a71565b5b5062000912565b5060208310610133831016604e8410600b8410161715620008e35782820a905083811115620008dd57620008dc62000a71565b5b62000912565b620008f2848484600162000781565b925090508184048111156200090c576200090b62000a71565b5b81810290505b9392505050565b60006200092682620009b8565b91506200093383620009b8565b9250817fffffffffffffffffffffffffffffffffffffffffffffffffffffffffffffffff04831182151516156200096f576200096e62000a71565b5b828202905092915050565b6000620009878262000998565b9050919050565b6000819050919050565b600073ffffffffffffffffffffffffffffffffffffffff82169050919050565b6000819050919050565b600060ff82169050919050565b60005b83811015620009ef578082015181840152602081019050620009d2565b83811115620009ff576000848401525b50505050565b6000600282049050600182168062000a1e57607f821691505b6020821081141562000a355762000a3462000aa0565b5b50919050565b62000a468262000afe565b810181811067ffffffffffffffff8211171562000a685762000a6762000acf565b5b80604052505050565b7f4e487b7100000000000000000000000000000000000000000000000000000000600052601160045260246000fd5b7f4e487b7100000000000000000000000000000000000000000000000000000000600052602260045260246000fd5b7f4e487b7100000000000000000000000000000000000000000000000000000000600052604160045260246000fd5b6000601f19601f8301169050919050565b60008160011c9050919050565b7f45524332303a206d696e7420746f20746865207a65726f206164647265737300600082015250565b62000b50816200097a565b811462000b5c57600080fd5b50565b62000b6a81620009c2565b811462000b7657600080fd5b50565b60805160f81c60a051612d8862000ba960003960008181610aa60152611b6001526000610a820152612d886000f3fe608060405234801561001057600080fd5b50600436106101365760003560e01c8063628d6cba116100b8578063a9059cbb1161007c578063a9059cbb1461037b578063b524f3a5146103ab578063cae9ca51146103db578063d505accf1461040b578063dd62ed3e14610427578063ec126c771461045757610136565b8063628d6cba146102af57806370a08231146102df5780637ecebe001461030f5780638da5cb5b1461033f57806395d89b411461035d57610136565b806330adf81f116100ff57806330adf81f146101f5578063313ce567146102135780633644e515146102315780634000aea01461024f578063605629d61461027f57610136565b8062bf26f41461013b57806306fdde0314610159578063095ea7b31461017757806318160ddd146101a757806323b872dd146101c5575b600080fd5b610143610487565b6040516101509190612663565b60405180910390f35b6101616104ab565b60405161016e9190612724565b60405180910390f35b610191600480360381019061018c919061220e565b610539565b60405161019e9190612648565b60405180910390f35b6101af61062b565b6040516101bc9190612846565b60405180910390f35b6101df60048036038101906101da9190612121565b610635565b6040516101ec9190612648565b60405180910390f35b6101fd610a5c565b60405161020a9190612663565b60405180910390f35b61021b610a80565b6040516102289190612861565b60405180910390f35b610239610aa4565b6040516102469190612663565b60405180910390f35b6102696004803603810190610264919061224a565b610ac8565b6040516102769190612648565b60405180910390f35b61029960048036038101906102949190612170565b610d67565b6040516102a69190612648565b60405180910390f35b6102c960048036038101906102c4919061232e565b611091565b6040516102d69190612648565b60405180910390f35b6102f960048036038101906102f491906120bc565b61117b565b6040516103069190612846565b60405180910390f35b610329600480360381019061032491906120bc565b611193565b6040516103369190612846565b60405180910390f35b6103476111ab565b60405161035491906125ed565b60405180910390f35b610365611209565b6040516103729190612724565b60405180910390f35b6103956004803603810190610390919061220e565b611297565b6040516103a29190612648565b60405180910390f35b6103c560048036038101906103c091906120bc565b6114a5565b6040516103d29190612648565b60405180910390f35b6103f560048036038101906103f0919061224a565b6116d4565b6040516104029190612648565b60405180910390f35b61042560048036038101906104209190612170565b611856565b005b610441600480360381019061043c91906120e5565b611a5b565b60405161044e9190612846565b60405180910390f35b610471600480360381019061046c91906122df565b611a80565b60405161047e9190612648565b60405180910390f35b7f42ce63790c28229c123925d83266e77c04d28784552ab68b350a9003226cbd5981565b600080546104b8906129df565b80601f01602080910402602001604051908101604052809291908181526020018280546104e4906129df565b80156105315780601f1061050657610100808354040283529160200191610531565b820191906000526020600020905b81548152906001019060200180831161051457829003601f168201915b505050505081565b600081600860003373ffffffffffffffffffffffffffffffffffffffff1673ffffffffffffffffffffffffffffffffffffffff16815260200190815260200160002060008573ffffffffffffffffffffffffffffffffffffffff1673ffffffffffffffffffffffffffffffffffffffff168152602001908152602001600020819055508273ffffffffffffffffffffffffffffffffffffffff163373ffffffffffffffffffffffffffffffffffffffff167f8c5be1e5ebec7d5bd14f71427d1e84f3dd0314c0f7b2291e5b200ac8c7c3b925846040516106199190612846565b60405180910390a36001905092915050565b6000600354905090565b60008073ffffffffffffffffffffffffffffffffffffffff168373ffffffffffffffffffffffffffffffffffffffff1614158061069e57503073ffffffffffffffffffffffffffffffffffffffff168373ffffffffffffffffffffffffffffffffffffffff1614155b6106a757600080fd5b3373ffffffffffffffffffffffffffffffffffffffff168473ffffffffffffffffffffffffffffffffffffffff16146108bf576000600860008673ffffffffffffffffffffffffffffffffffffffff1673ffffffffffffffffffffffffffffffffffffffff16815260200190815260200160002060003373ffffffffffffffffffffffffffffffffffffffff1673ffffffffffffffffffffffffffffffffffffffff1681526020019081526020016000205490507fffffffffffffffffffffffffffffffffffffffffffffffffffffffffffffffff81146108bd57828110156107c5576040517f08c379a00000000000000000000000000000000000000000000000000000000081526004016107bc906127e6565b60405180910390fd5b600083826107d3919061290a565b905080600860008873ffffffffffffffffffffffffffffffffffffffff1673ffffffffffffffffffffffffffffffffffffffff16815260200190815260200160002060003373ffffffffffffffffffffffffffffffffffffffff1673ffffffffffffffffffffffffffffffffffffffff168152602001908152602001600020819055503373ffffffffffffffffffffffffffffffffffffffff168673ffffffffffffffffffffffffffffffffffffffff167f8c5be1e5ebec7d5bd14f71427d1e84f3dd0314c0f7b2291e5b200ac8c7c3b925836040516108b39190612846565b60405180910390a3505b505b6000600260008673ffffffffffffffffffffffffffffffffffffffff1673ffffffffffffffffffffffffffffffffffffffff16815260200190815260200160002054905082811015610946576040517f08c379a000000000000000000000000000000000000000000000000000000000815260040161093d90612826565b60405180910390fd5b8281610952919061290a565b600260008773ffffffffffffffffffffffffffffffffffffffff1673ffffffffffffffffffffffffffffffffffffffff1681526020019081526020016000208190555082600260008673ffffffffffffffffffffffffffffffffffffffff1673ffffffffffffffffffffffffffffffffffffffff16815260200190815260200160002060008282546109e491906128b4565b925050819055508373ffffffffffffffffffffffffffffffffffffffff168573ffffffffffffffffffffffffffffffffffffffff167fddf252ad1be2c89b69c2b068fc378daa952ba7f163c4a11628f55a4df523b3ef85604051610a489190612846565b60405180910390a360019150509392505050565b7f6e71edae12b1b97f4d1f60370fef10105fa2faae0126114a169c64845d6126c981565b7f000000000000000000000000000000000000000000000000000000000000000081565b7f000000000000000000000000000000000000000000000000000000000000000081565b60008073ffffffffffffffffffffffffffffffffffffffff168573ffffffffffffffffffffffffffffffffffffffff16141580610b3157503073ffffffffffffffffffffffffffffffffffffffff168573ffffffffffffffffffffffffffffffffffffffff1614155b610b3a57600080fd5b6000600260003373ffffffffffffffffffffffffffffffffffffffff1673ffffffffffffffffffffffffffffffffffffffff16815260200190815260200160002054905084811015610bc1576040517f08c379a0000000000000000000000000000000000000000000000000000000008152600401610bb890612826565b60405180910390fd5b8481610bcd919061290a565b600260003373ffffffffffffffffffffffffffffffffffffffff1673ffffffffffffffffffffffffffffffffffffffff1681526020019081526020016000208190555084600260008873ffffffffffffffffffffffffffffffffffffffff1673ffffffffffffffffffffffffffffffffffffffff1681526020019081526020016000206000828254610c5f91906128b4565b925050819055508573ffffffffffffffffffffffffffffffffffffffff163373ffffffffffffffffffffffffffffffffffffffff167fddf252ad1be2c89b69c2b068fc378daa952ba7f163c4a11628f55a4df523b3ef87604051610cc39190612846565b60405180910390a38573ffffffffffffffffffffffffffffffffffffffff1663a4c0ed36338787876040518563ffffffff1660e01b8152600401610d0a9493929190612608565b602060405180830381600087803b158015610d2457600080fd5b505af1158015610d38573d6000803e3d6000fd5b505050506040513d601f19601f82011682018060405250810190610d5c91906122b6565b915050949350505050565b600084421115610dac576040517f08c379a0000000000000000000000000000000000000000000000000000000008152600401610da390612766565b60405180910390fd5b60007f42ce63790c28229c123925d83266e77c04d28784552ab68b350a9003226cbd59898989600760008e73ffffffffffffffffffffffffffffffffffffffff1673ffffffffffffffffffffffffffffffffffffffff1681526020019081526020016000206000815480929190610e2290612a11565b919050558a604051602001610e3c9695949392919061267e565b604051602081830303815290604052805190602001209050610e618982878787611b5b565b80610e755750610e748982878787611c71565b5b610e7e57600080fd5b600073ffffffffffffffffffffffffffffffffffffffff168873ffffffffffffffffffffffffffffffffffffffff16141580610ee657503073ffffffffffffffffffffffffffffffffffffffff168873ffffffffffffffffffffffffffffffffffffffff1614155b610eef57600080fd5b6000600260008b73ffffffffffffffffffffffffffffffffffffffff1673ffffffffffffffffffffffffffffffffffffffff16815260200190815260200160002054905087811015610f76576040517f08c379a0000000000000000000000000000000000000000000000000000000008152600401610f6d90612826565b60405180910390fd5b8781610f82919061290a565b600260008c73ffffffffffffffffffffffffffffffffffffffff1673ffffffffffffffffffffffffffffffffffffffff1681526020019081526020016000208190555087600260008b73ffffffffffffffffffffffffffffffffffffffff1673ffffffffffffffffffffffffffffffffffffffff168152602001908152602001600020600082825461101491906128b4565b925050819055508873ffffffffffffffffffffffffffffffffffffffff168a73ffffffffffffffffffffffffffffffffffffffff167fddf252ad1be2c89b69c2b068fc378daa952ba7f163c4a11628f55a4df523b3ef8a6040516110789190612846565b60405180910390a3600192505050979650505050505050565b60008073ffffffffffffffffffffffffffffffffffffffff168273ffffffffffffffffffffffffffffffffffffffff161415611102576040517f08c379a00000000000000000000000000000000000000000000000000000000081526004016110f990612786565b60405180910390fd5b61110c3384611d47565b8173ffffffffffffffffffffffffffffffffffffffff163373ffffffffffffffffffffffffffffffffffffffff167f6b616089d04950dc06c45c6dd787d657980543f89651aec47924752c7d16c888856040516111699190612846565b60405180910390a36001905092915050565b60026020528060005260406000206000915090505481565b60076020528060005260406000206000915090505481565b600060065442106111e057600560009054906101000a900473ffffffffffffffffffffffffffffffffffffffff169050611206565b600460009054906101000a900473ffffffffffffffffffffffffffffffffffffffff1690505b90565b60018054611216906129df565b80601f0160208091040260200160405190810160405280929190818152602001828054611242906129df565b801561128f5780601f106112645761010080835404028352916020019161128f565b820191906000526020600020905b81548152906001019060200180831161127257829003601f168201915b505050505081565b60008073ffffffffffffffffffffffffffffffffffffffff168373ffffffffffffffffffffffffffffffffffffffff1614158061130057503073ffffffffffffffffffffffffffffffffffffffff168373ffffffffffffffffffffffffffffffffffffffff1614155b61130957600080fd5b6000600260003373ffffffffffffffffffffffffffffffffffffffff1673ffffffffffffffffffffffffffffffffffffffff16815260200190815260200160002054905082811015611390576040517f08c379a000000000000000000000000000000000000000000000000000000000815260040161138790612826565b60405180910390fd5b828161139c919061290a565b600260003373ffffffffffffffffffffffffffffffffffffffff1673ffffffffffffffffffffffffffffffffffffffff1681526020019081526020016000208190555082600260008673ffffffffffffffffffffffffffffffffffffffff1673ffffffffffffffffffffffffffffffffffffffff168152602001908152602001600020600082825461142e91906128b4565b925050819055508373ffffffffffffffffffffffffffffffffffffffff163373ffffffffffffffffffffffffffffffffffffffff167fddf252ad1be2c89b69c2b068fc378daa952ba7f163c4a11628f55a4df523b3ef856040516114929190612846565b60405180910390a3600191505092915050565b60006114af6111ab565b73ffffffffffffffffffffffffffffffffffffffff163373ffffffffffffffffffffffffffffffffffffffff161461151c576040517f08c379a0000000000000000000000000000000000000000000000000000000008152600401611513906127a6565b60405180910390fd5b600073ffffffffffffffffffffffffffffffffffffffff168273ffffffffffffffffffffffffffffffffffffffff16141561158c576040517f08c379a000000000000000000000000000000000000000000000000000000000815260040161158390612746565b60405180910390fd5b6115946111ab565b600460006101000a81548173ffffffffffffffffffffffffffffffffffffffff021916908373ffffffffffffffffffffffffffffffffffffffff16021790555081600560006101000a81548173ffffffffffffffffffffffffffffffffffffffff021916908373ffffffffffffffffffffffffffffffffffffffff1602179055506202a3004261162491906128b4565b600681905550600654600560009054906101000a900473ffffffffffffffffffffffffffffffffffffffff1673ffffffffffffffffffffffffffffffffffffffff16600460009054906101000a900473ffffffffffffffffffffffffffffffffffffffff1673ffffffffffffffffffffffffffffffffffffffff167fe1968d4263a733e2597ef67ea6ad267343bba5f8bf0f99d85190e06b05d824d960405160405180910390a460019050919050565b600083600860003373ffffffffffffffffffffffffffffffffffffffff1673ffffffffffffffffffffffffffffffffffffffff16815260200190815260200160002060008773ffffffffffffffffffffffffffffffffffffffff1673ffffffffffffffffffffffffffffffffffffffff168152602001908152602001600020819055508473ffffffffffffffffffffffffffffffffffffffff163373ffffffffffffffffffffffffffffffffffffffff167f8c5be1e5ebec7d5bd14f71427d1e84f3dd0314c0f7b2291e5b200ac8c7c3b925866040516117b49190612846565b60405180910390a38473ffffffffffffffffffffffffffffffffffffffff1662ba451f338686866040518563ffffffff1660e01b81526004016117fa9493929190612608565b602060405180830381600087803b15801561181457600080fd5b505af1158015611828573d6000803e3d6000fd5b505050506040513d601f19601f8201168201806040525081019061184c91906122b6565b9050949350505050565b83421115611899576040517f08c379a000000000000000000000000000000000000000000000000000000000815260040161189090612766565b60405180910390fd5b60007f6e71edae12b1b97f4d1f60370fef10105fa2faae0126114a169c64845d6126c9888888600760008d73ffffffffffffffffffffffffffffffffffffffff1673ffffffffffffffffffffffffffffffffffffffff168152602001908152602001600020600081548092919061190f90612a11565b91905055896040516020016119299695949392919061267e565b60405160208183030381529060405280519060200120905061194e8882868686611b5b565b8061196257506119618882868686611c71565b5b61196b57600080fd5b85600860008a73ffffffffffffffffffffffffffffffffffffffff1673ffffffffffffffffffffffffffffffffffffffff16815260200190815260200160002060008973ffffffffffffffffffffffffffffffffffffffff1673ffffffffffffffffffffffffffffffffffffffff168152602001908152602001600020819055508673ffffffffffffffffffffffffffffffffffffffff168873ffffffffffffffffffffffffffffffffffffffff167f8c5be1e5ebec7d5bd14f71427d1e84f3dd0314c0f7b2291e5b200ac8c7c3b92588604051611a499190612846565b60405180910390a35050505050505050565b6008602052816000526040600020602052806000526040600020600091509150505481565b6000611a8a6111ab565b73ffffffffffffffffffffffffffffffffffffffff163373ffffffffffffffffffffffffffffffffffffffff1614611af7576040517f08c379a0000000000000000000000000000000000000000000000000000000008152600401611aee906127a6565b60405180910390fd5b611b018383611e90565b8273ffffffffffffffffffffffffffffffffffffffff16847f05d0634fe981be85c22e2942a880821b70095d84e152c3ea3c17a4e4250d9d6184604051611b489190612846565b60405180910390a3600190509392505050565b6000807f000000000000000000000000000000000000000000000000000000000000000086604051602001611b919291906125b6565b604051602081830303815290604052805190602001209050600060018287878760405160008152602001604052604051611bce94939291906126df565b6020604051602081039080840390855afa158015611bf0573d6000803e3d6000fd5b505050602060405103519050600073ffffffffffffffffffffffffffffffffffffffff168173ffffffffffffffffffffffffffffffffffffffff1614158015611c6457508773ffffffffffffffffffffffffffffffffffffffff168173ffffffffffffffffffffffffffffffffffffffff16145b9250505095945050505050565b600080611c7d86611fd9565b9050600060018287878760405160008152602001604052604051611ca494939291906126df565b6020604051602081039080840390855afa158015611cc6573d6000803e3d6000fd5b505050602060405103519050600073ffffffffffffffffffffffffffffffffffffffff168173ffffffffffffffffffffffffffffffffffffffff1614158015611d3a57508773ffffffffffffffffffffffffffffffffffffffff168173ffffffffffffffffffffffffffffffffffffffff16145b9250505095945050505050565b600073ffffffffffffffffffffffffffffffffffffffff168273ffffffffffffffffffffffffffffffffffffffff161415611db7576040517f08c379a0000000000000000000000000000000000000000000000000000000008152600401611dae906127c6565b60405180910390fd5b80600260008473ffffffffffffffffffffffffffffffffffffffff1673ffffffffffffffffffffffffffffffffffffffff1681526020019081526020016000206000828254611e06919061290a565b925050819055508060036000828254611e1f919061290a565b92505081905550600073ffffffffffffffffffffffffffffffffffffffff168273ffffffffffffffffffffffffffffffffffffffff167fddf252ad1be2c89b69c2b068fc378daa952ba7f163c4a11628f55a4df523b3ef83604051611e849190612846565b60405180910390a35050565b600073ffffffffffffffffffffffffffffffffffffffff168273ffffffffffffffffffffffffffffffffffffffff161415611f00576040517f08c379a0000000000000000000000000000000000000000000000000000000008152600401611ef790612806565b60405180910390fd5b8060036000828254611f1291906128b4565b9250508190555080600260008473ffffffffffffffffffffffffffffffffffffffff1673ffffffffffffffffffffffffffffffffffffffff1681526020019081526020016000206000828254611f6891906128b4565b925050819055508173ffffffffffffffffffffffffffffffffffffffff16600073ffffffffffffffffffffffffffffffffffffffff167fddf252ad1be2c89b69c2b068fc378daa952ba7f163c4a11628f55a4df523b3ef83604051611fcd9190612846565b60405180910390a35050565b600081604051602001611fec9190612590565b604051602081830303815290604052805190602001209050919050565b60008135905061201881612cdf565b92915050565b60008151905061202d81612cf6565b92915050565b60008135905061204281612d0d565b92915050565b60008083601f84011261205a57600080fd5b8235905067ffffffffffffffff81111561207357600080fd5b60208301915083600182028301111561208b57600080fd5b9250929050565b6000813590506120a181612d24565b92915050565b6000813590506120b681612d3b565b92915050565b6000602082840312156120ce57600080fd5b60006120dc84828501612009565b91505092915050565b600080604083850312156120f857600080fd5b600061210685828601612009565b925050602061211785828601612009565b9150509250929050565b60008060006060848603121561213657600080fd5b600061214486828701612009565b935050602061215586828701612009565b925050604061216686828701612092565b9150509250925092565b600080600080600080600060e0888a03121561218b57600080fd5b60006121998a828b01612009565b97505060206121aa8a828b01612009565b96505060406121bb8a828b01612092565b95505060606121cc8a828b01612092565b94505060806121dd8a828b016120a7565b93505060a06121ee8a828b01612033565b92505060c06121ff8a828b01612033565b91505092959891949750929550565b6000806040838503121561222157600080fd5b600061222f85828601612009565b925050602061224085828601612092565b9150509250929050565b6000806000806060858703121561226057600080fd5b600061226e87828801612009565b945050602061227f87828801612092565b935050604085013567ffffffffffffffff81111561229c57600080fd5b6122a887828801612048565b925092505092959194509250565b6000602082840312156122c857600080fd5b60006122d68482850161201e565b91505092915050565b6000806000606084860312156122f457600080fd5b600061230286828701612033565b935050602061231386828701612009565b925050604061232486828701612092565b9150509250925092565b6000806040838503121561234157600080fd5b600061234f85828601612092565b925050602061236085828601612009565b9150509250929050565b6123738161293e565b82525050565b61238281612950565b82525050565b6123918161295c565b82525050565b6123a86123a38261295c565b612a5a565b82525050565b60006123ba8385612887565b93506123c783858461299d565b6123d083612ac2565b840190509392505050565b60006123e68261287c565b6123f08185612898565b93506124008185602086016129ac565b61240981612ac2565b840191505092915050565b6000612421601c836128a9565b915061242c82612ad3565b601c82019050919050565b60006124446002836128a9565b915061244f82612afc565b600282019050919050565b6000612467601d83612898565b915061247282612b25565b602082019050919050565b600061248a601683612898565b915061249582612b4e565b602082019050919050565b60006124ad602083612898565b91506124b882612b77565b602082019050919050565b60006124d0600a83612898565b91506124db82612ba0565b602082019050919050565b60006124f3602183612898565b91506124fe82612bc9565b604082019050919050565b6000612516602183612898565b915061252182612c18565b604082019050919050565b6000612539601f83612898565b915061254482612c67565b602082019050919050565b600061255c602783612898565b915061256782612c90565b604082019050919050565b61257b81612986565b82525050565b61258a81612990565b82525050565b600061259b82612414565b91506125a78284612397565b60208201915081905092915050565b60006125c182612437565b91506125cd8285612397565b6020820191506125dd8284612397565b6020820191508190509392505050565b6000602082019050612602600083018461236a565b92915050565b600060608201905061261d600083018761236a565b61262a6020830186612572565b818103604083015261263d8184866123ae565b905095945050505050565b600060208201905061265d6000830184612379565b92915050565b60006020820190506126786000830184612388565b92915050565b600060c0820190506126936000830189612388565b6126a0602083018861236a565b6126ad604083018761236a565b6126ba6060830186612572565b6126c76080830185612572565b6126d460a0830184612572565b979650505050505050565b60006080820190506126f46000830187612388565b6127016020830186612581565b61270e6040830185612388565b61271b6060830184612388565b95945050505050565b6000602082019050818103600083015261273e81846123db565b905092915050565b6000602082019050818103600083015261275f8161245a565b9050919050565b6000602082019050818103600083015261277f8161247d565b9050919050565b6000602082019050818103600083015261279f816124a0565b9050919050565b600060208201905081810360008301526127bf816124c3565b9050919050565b600060208201905081810360008301526127df816124e6565b9050919050565b600060208201905081810360008301526127ff81612509565b9050919050565b6000602082019050818103600083015261281f8161252c565b9050919050565b6000602082019050818103600083015261283f8161254f565b9050919050565b600060208201905061285b6000830184612572565b92915050565b60006020820190506128766000830184612581565b92915050565b600081519050919050565b600082825260208201905092915050565b600082825260208201905092915050565b600081905092915050565b60006128bf82612986565b91506128ca83612986565b9250827fffffffffffffffffffffffffffffffffffffffffffffffffffffffffffffffff038211156128ff576128fe612a64565b5b828201905092915050565b600061291582612986565b915061292083612986565b92508282101561293357612932612a64565b5b828203905092915050565b600061294982612966565b9050919050565b60008115159050919050565b6000819050919050565b600073ffffffffffffffffffffffffffffffffffffffff82169050919050565b6000819050919050565b600060ff82169050919050565b82818337600083830152505050565b60005b838110156129ca5780820151818401526020810190506129af565b838111156129d9576000848401525b50505050565b600060028204905060018216806129f757607f821691505b60208210811415612a0b57612a0a612a93565b5b50919050565b6000612a1c82612986565b91507fffffffffffffffffffffffffffffffffffffffffffffffffffffffffffffffff821415612a4f57612a4e612a64565b5b600182019050919050565b6000819050919050565b7f4e487b7100000000000000000000000000000000000000000000000000000000600052601160045260246000fd5b7f4e487b7100000000000000000000000000000000000000000000000000000000600052602260045260246000fd5b6000601f19601f8301169050919050565b7f19457468657265756d205369676e6564204d6573736167653a0a333200000000600082015250565b7f1901000000000000000000000000000000000000000000000000000000000000600082015250565b7f6e6577206f776e657220697320746865207a65726f2061646472657373000000600082015250565b7f5745524331303a2045787069726564207065726d697400000000000000000000600082015250565b7f62696e64206164647265737320697320746865207a65726f2061646472657373600082015250565b7f6f6e6c79206f776e657200000000000000000000000000000000000000000000600082015250565b7f45524332303a206275726e2066726f6d20746865207a65726f2061646472657360008201527f7300000000000000000000000000000000000000000000000000000000000000602082015250565b7f5745524331303a2072657175657374206578636565647320616c6c6f77616e6360008201527f6500000000000000000000000000000000000000000000000000000000000000602082015250565b7f45524332303a206d696e7420746f20746865207a65726f206164647265737300600082015250565b7f5745524331303a207472616e7366657220616d6f756e7420657863656564732060008201527f62616c616e636500000000000000000000000000000000000000000000000000602082015250565b612ce88161293e565b8114612cf357600080fd5b50565b612cff81612950565b8114612d0a57600080fd5b50565b612d168161295c565b8114612d2157600080fd5b50565b612d2d81612986565b8114612d3857600080fd5b50565b612d4481612990565b8114612d4f57600080fd5b5056fea26469706673582212206c5672f9685999f5c1b1a0c4c645306963e45313691d3905cf612c1a4d9de37e64736f6c63430008010033",
					"opcodes": "PUSH1 0xC0 PUSH1 0x40 MSTORE CALLVALUE DUP1 ISZERO PUSH3 0x11 JUMPI PUSH1 0x0 DUP1 REVERT JUMPDEST POP PUSH1 0x40 MLOAD PUSH3 0x3931 CODESIZE SUB DUP1 PUSH3 0x3931 DUP4 CODECOPY DUP2 DUP2 ADD PUSH1 0x40 MSTORE DUP2 ADD SWAP1 PUSH3 0x37 SWAP2 SWAP1 PUSH3 0x45C JUMP JUMPDEST DUP4 PUSH1 0x0 SWAP1 DUP1 MLOAD SWAP1 PUSH1 0x20 ADD SWAP1 PUSH3 0x4F SWAP3 SWAP2 SWAP1 PUSH3 0x30C JUMP JUMPDEST POP DUP3 PUSH1 0x1 SWAP1 DUP1 MLOAD SWAP1 PUSH1 0x20 ADD SWAP1 PUSH3 0x68 SWAP3 SWAP2 SWAP1 PUSH3 0x30C JUMP JUMPDEST POP DUP2 PUSH1 0xFF AND PUSH1 0x80 DUP2 PUSH1 0xFF AND PUSH1 0xF8 SHL DUP2 MSTORE POP POP PUSH1 0x0 DUP3 PUSH1 0xFF AND PUSH1 0xA PUSH3 0x8E SWAP2 SWAP1 PUSH3 0x7DC JUMP JUMPDEST PUSH6 0x1319718A5000 PUSH3 0xA1 SWAP2 SWAP1 PUSH3 0x919 JUMP JUMPDEST SWAP1 POP PUSH3 0xB5 DUP3 DUP3 PUSH3 0x1BA PUSH1 0x20 SHL PUSH1 0x20 SHR JUMP JUMPDEST DUP2 PUSH1 0x5 PUSH1 0x0 PUSH2 0x100 EXP DUP2 SLOAD DUP2 PUSH20 0xFFFFFFFFFFFFFFFFFFFFFFFFFFFFFFFFFFFFFFFF MUL NOT AND SWAP1 DUP4 PUSH20 0xFFFFFFFFFFFFFFFFFFFFFFFFFFFFFFFFFFFFFFFF AND MUL OR SWAP1 SSTORE POP TIMESTAMP PUSH1 0x6 DUP2 SWAP1 SSTORE POP PUSH1 0x0 CHAINID SWAP1 POP PUSH32 0x8B73C3C69BB8FE3D512ECC4CF759CC79239F7B179B0FFACAA9A75D522B39400F PUSH1 0x0 PUSH1 0x40 MLOAD PUSH3 0x134 SWAP2 SWAP1 PUSH3 0x5DF JUMP JUMPDEST PUSH1 0x40 MLOAD DUP1 SWAP2 SUB SWAP1 KECCAK256 PUSH1 0x40 MLOAD DUP1 PUSH1 0x40 ADD PUSH1 0x40 MSTORE DUP1 PUSH1 0x1 DUP2 MSTORE PUSH1 0x20 ADD PUSH32 0x3100000000000000000000000000000000000000000000000000000000000000 DUP2 MSTORE POP DUP1 MLOAD SWAP1 PUSH1 0x20 ADD KECCAK256 DUP4 ADDRESS PUSH1 0x40 MLOAD PUSH1 0x20 ADD PUSH3 0x191 SWAP6 SWAP5 SWAP4 SWAP3 SWAP2 SWAP1 PUSH3 0x5F8 JUMP JUMPDEST PUSH1 0x40 MLOAD PUSH1 0x20 DUP2 DUP4 SUB SUB DUP2 MSTORE SWAP1 PUSH1 0x40 MSTORE DUP1 MLOAD SWAP1 PUSH1 0x20 ADD KECCAK256 PUSH1 0xA0 DUP2 DUP2 MSTORE POP POP POP POP POP POP POP POP PUSH3 0xB79 JUMP JUMPDEST PUSH1 0x0 PUSH20 0xFFFFFFFFFFFFFFFFFFFFFFFFFFFFFFFFFFFFFFFF AND DUP3 PUSH20 0xFFFFFFFFFFFFFFFFFFFFFFFFFFFFFFFFFFFFFFFF AND EQ ISZERO PUSH3 0x22D JUMPI PUSH1 0x40 MLOAD PUSH32 0x8C379A000000000000000000000000000000000000000000000000000000000 DUP2 MSTORE PUSH1 0x4 ADD PUSH3 0x224 SWAP1 PUSH3 0x655 JUMP JUMPDEST PUSH1 0x40 MLOAD DUP1 SWAP2 SUB SWAP1 REVERT JUMPDEST DUP1 PUSH1 0x3 PUSH1 0x0 DUP3 DUP3 SLOAD PUSH3 0x241 SWAP2 SWAP1 PUSH3 0x724 JUMP JUMPDEST SWAP3 POP POP DUP2 SWAP1 SSTORE POP DUP1 PUSH1 0x2 PUSH1 0x0 DUP5 PUSH20 0xFFFFFFFFFFFFFFFFFFFFFFFFFFFFFFFFFFFFFFFF AND PUSH20 0xFFFFFFFFFFFFFFFFFFFFFFFFFFFFFFFFFFFFFFFF AND DUP2 MSTORE PUSH1 0x20 ADD SWAP1 DUP2 MSTORE PUSH1 0x20 ADD PUSH1 0x0 KECCAK256 PUSH1 0x0 DUP3 DUP3 SLOAD PUSH3 0x299 SWAP2 SWAP1 PUSH3 0x724 JUMP JUMPDEST SWAP3 POP POP DUP2 SWAP1 SSTORE POP DUP2 PUSH20 0xFFFFFFFFFFFFFFFFFFFFFFFFFFFFFFFFFFFFFFFF AND PUSH1 0x0 PUSH20 0xFFFFFFFFFFFFFFFFFFFFFFFFFFFFFFFFFFFFFFFF AND PUSH32 0xDDF252AD1BE2C89B69C2B068FC378DAA952BA7F163C4A11628F55A4DF523B3EF DUP4 PUSH1 0x40 MLOAD PUSH3 0x300 SWAP2 SWAP1 PUSH3 0x677 JUMP JUMPDEST PUSH1 0x40 MLOAD DUP1 SWAP2 SUB SWAP1 LOG3 POP POP JUMP JUMPDEST DUP3 DUP1 SLOAD PUSH3 0x31A SWAP1 PUSH3 0xA05 JUMP JUMPDEST SWAP1 PUSH1 0x0 MSTORE PUSH1 0x20 PUSH1 0x0 KECCAK256 SWAP1 PUSH1 0x1F ADD PUSH1 0x20 SWAP1 DIV DUP2 ADD SWAP3 DUP3 PUSH3 0x33E JUMPI PUSH1 0x0 DUP6 SSTORE PUSH3 0x38A JUMP JUMPDEST DUP3 PUSH1 0x1F LT PUSH3 0x359 JUMPI DUP1 MLOAD PUSH1 0xFF NOT AND DUP4 DUP1 ADD OR DUP6 SSTORE PUSH3 0x38A JUMP JUMPDEST DUP3 DUP1 ADD PUSH1 0x1 ADD DUP6 SSTORE DUP3 ISZERO PUSH3 0x38A JUMPI SWAP2 DUP3 ADD JUMPDEST DUP3 DUP2 GT ISZERO PUSH3 0x389 JUMPI DUP3 MLOAD DUP3 SSTORE SWAP2 PUSH1 0x20 ADD SWAP2 SWAP1 PUSH1 0x1 ADD SWAP1 PUSH3 0x36C JUMP JUMPDEST JUMPDEST POP SWAP1 POP PUSH3 0x399 SWAP2 SWAP1 PUSH3 0x39D JUMP JUMPDEST POP SWAP1 JUMP JUMPDEST JUMPDEST DUP1 DUP3 GT ISZERO PUSH3 0x3B8 JUMPI PUSH1 0x0 DUP2 PUSH1 0x0 SWAP1 SSTORE POP PUSH1 0x1 ADD PUSH3 0x39E JUMP JUMPDEST POP SWAP1 JUMP JUMPDEST PUSH1 0x0 PUSH3 0x3D3 PUSH3 0x3CD DUP5 PUSH3 0x6BD JUMP JUMPDEST PUSH3 0x694 JUMP JUMPDEST SWAP1 POP DUP3 DUP2 MSTORE PUSH1 0x20 DUP2 ADD DUP5 DUP5 DUP5 ADD GT ISZERO PUSH3 0x3EC JUMPI PUSH1 0x0 DUP1 REVERT JUMPDEST PUSH3 0x3F9 DUP5 DUP3 DUP6 PUSH3 0x9CF JUMP JUMPDEST POP SWAP4 SWAP3 POP POP POP JUMP JUMPDEST PUSH1 0x0 DUP2 MLOAD SWAP1 POP PUSH3 0x412 DUP2 PUSH3 0xB45 JUMP JUMPDEST SWAP3 SWAP2 POP POP JUMP JUMPDEST PUSH1 0x0 DUP3 PUSH1 0x1F DUP4 ADD SLT PUSH3 0x42A JUMPI PUSH1 0x0 DUP1 REVERT JUMPDEST DUP2 MLOAD PUSH3 0x43C DUP5 DUP3 PUSH1 0x20 DUP7 ADD PUSH3 0x3BC JUMP JUMPDEST SWAP2 POP POP SWAP3 SWAP2 POP POP JUMP JUMPDEST PUSH1 0x0 DUP2 MLOAD SWAP1 POP PUSH3 0x456 DUP2 PUSH3 0xB5F JUMP JUMPDEST SWAP3 SWAP2 POP POP JUMP JUMPDEST PUSH1 0x0 DUP1 PUSH1 0x0 DUP1 PUSH1 0x80 DUP6 DUP8 SUB SLT ISZERO PUSH3 0x473 JUMPI PUSH1 0x0 DUP1 REVERT JUMPDEST PUSH1 0x0 DUP6 ADD MLOAD PUSH8 0xFFFFFFFFFFFFFFFF DUP2 GT ISZERO PUSH3 0x48E JUMPI PUSH1 0x0 DUP1 REVERT JUMPDEST PUSH3 0x49C DUP8 DUP3 DUP9 ADD PUSH3 0x418 JUMP JUMPDEST SWAP5 POP POP PUSH1 0x20 DUP6 ADD MLOAD PUSH8 0xFFFFFFFFFFFFFFFF DUP2 GT ISZERO PUSH3 0x4BA JUMPI PUSH1 0x0 DUP1 REVERT JUMPDEST PUSH3 0x4C8 DUP8 DUP3 DUP9 ADD PUSH3 0x418 JUMP JUMPDEST SWAP4 POP POP PUSH1 0x40 PUSH3 0x4DB DUP8 DUP3 DUP9 ADD PUSH3 0x445 JUMP JUMPDEST SWAP3 POP POP PUSH1 0x60 PUSH3 0x4EE DUP8 DUP3 DUP9 ADD PUSH3 0x401 JUMP JUMPDEST SWAP2 POP POP SWAP3 SWAP6 SWAP2 SWAP5 POP SWAP3 POP JUMP JUMPDEST PUSH3 0x505 DUP2 PUSH3 0x97A JUMP JUMPDEST DUP3 MSTORE POP POP JUMP JUMPDEST PUSH3 0x516 DUP2 PUSH3 0x98E JUMP JUMPDEST DUP3 MSTORE POP POP JUMP JUMPDEST PUSH1 0x0 DUP2 SLOAD PUSH3 0x52B DUP2 PUSH3 0xA05 JUMP JUMPDEST PUSH3 0x537 DUP2 DUP7 PUSH3 0x708 JUMP JUMPDEST SWAP5 POP PUSH1 0x1 DUP3 AND PUSH1 0x0 DUP2 EQ PUSH3 0x555 JUMPI PUSH1 0x1 DUP2 EQ PUSH3 0x567 JUMPI PUSH3 0x59E JUMP JUMPDEST PUSH1 0xFF NOT DUP4 AND DUP7 MSTORE DUP2 DUP7 ADD SWAP4 POP PUSH3 0x59E JUMP JUMPDEST PUSH3 0x572 DUP6 PUSH3 0x6F3 JUMP JUMPDEST PUSH1 0x0 JUMPDEST DUP4 DUP2 LT ISZERO PUSH3 0x596 JUMPI DUP2 SLOAD DUP2 DUP10 ADD MSTORE PUSH1 0x1 DUP3 ADD SWAP2 POP PUSH1 0x20 DUP2 ADD SWAP1 POP PUSH3 0x575 JUMP JUMPDEST DUP4 DUP9 ADD SWAP6 POP POP POP JUMPDEST POP POP POP SWAP3 SWAP2 POP POP JUMP JUMPDEST PUSH1 0x0 PUSH3 0x5B6 PUSH1 0x1F DUP4 PUSH3 0x713 JUMP JUMPDEST SWAP2 POP PUSH3 0x5C3 DUP3 PUSH3 0xB1C JUMP JUMPDEST PUSH1 0x20 DUP3 ADD SWAP1 POP SWAP2 SWAP1 POP JUMP JUMPDEST PUSH3 0x5D9 DUP2 PUSH3 0x9B8 JUMP JUMPDEST DUP3 MSTORE POP POP JUMP JUMPDEST PUSH1 0x0 PUSH3 0x5ED DUP3 DUP5 PUSH3 0x51C JUMP JUMPDEST SWAP2 POP DUP2 SWAP1 POP SWAP3 SWAP2 POP POP JUMP JUMPDEST PUSH1 0x0 PUSH1 0xA0 DUP3 ADD SWAP1 POP PUSH3 0x60F PUSH1 0x0 DUP4 ADD DUP9 PUSH3 0x50B JUMP JUMPDEST PUSH3 0x61E PUSH1 0x20 DUP4 ADD DUP8 PUSH3 0x50B JUMP JUMPDEST PUSH3 0x62D PUSH1 0x40 DUP4 ADD DUP7 PUSH3 0x50B JUMP JUMPDEST PUSH3 0x63C PUSH1 0x60 DUP4 ADD DUP6 PUSH3 0x5CE JUMP JUMPDEST PUSH3 0x64B PUSH1 0x80 DUP4 ADD DUP5 PUSH3 0x4FA JUMP JUMPDEST SWAP7 SWAP6 POP POP POP POP POP POP JUMP JUMPDEST PUSH1 0x0 PUSH1 0x20 DUP3 ADD SWAP1 POP DUP2 DUP2 SUB PUSH1 0x0 DUP4 ADD MSTORE PUSH3 0x670 DUP2 PUSH3 0x5A7 JUMP JUMPDEST SWAP1 POP SWAP2 SWAP1 POP JUMP JUMPDEST PUSH1 0x0 PUSH1 0x20 DUP3 ADD SWAP1 POP PUSH3 0x68E PUSH1 0x0 DUP4 ADD DUP5 PUSH3 0x5CE JUMP JUMPDEST SWAP3 SWAP2 POP POP JUMP JUMPDEST PUSH1 0x0 PUSH3 0x6A0 PUSH3 0x6B3 JUMP JUMPDEST SWAP1 POP PUSH3 0x6AE DUP3 DUP3 PUSH3 0xA3B JUMP JUMPDEST SWAP2 SWAP1 POP JUMP JUMPDEST PUSH1 0x0 PUSH1 0x40 MLOAD SWAP1 POP SWAP1 JUMP JUMPDEST PUSH1 0x0 PUSH8 0xFFFFFFFFFFFFFFFF DUP3 GT ISZERO PUSH3 0x6DB JUMPI PUSH3 0x6DA PUSH3 0xACF JUMP JUMPDEST JUMPDEST PUSH3 0x6E6 DUP3 PUSH3 0xAFE JUMP JUMPDEST SWAP1 POP PUSH1 0x20 DUP2 ADD SWAP1 POP SWAP2 SWAP1 POP JUMP JUMPDEST PUSH1 0x0 DUP2 SWAP1 POP DUP2 PUSH1 0x0 MSTORE PUSH1 0x20 PUSH1 0x0 KECCAK256 SWAP1 POP SWAP2 SWAP1 POP JUMP JUMPDEST PUSH1 0x0 DUP2 SWAP1 POP SWAP3 SWAP2 POP POP JUMP JUMPDEST PUSH1 0x0 DUP3 DUP3 MSTORE PUSH1 0x20 DUP3 ADD SWAP1 POP SWAP3 SWAP2 POP POP JUMP JUMPDEST PUSH1 0x0 PUSH3 0x731 DUP3 PUSH3 0x9B8 JUMP JUMPDEST SWAP2 POP PUSH3 0x73E DUP4 PUSH3 0x9B8 JUMP JUMPDEST SWAP3 POP DUP3 PUSH32 0xFFFFFFFFFFFFFFFFFFFFFFFFFFFFFFFFFFFFFFFFFFFFFFFFFFFFFFFFFFFFFFFF SUB DUP3 GT ISZERO PUSH3 0x776 JUMPI PUSH3 0x775 PUSH3 0xA71 JUMP JUMPDEST JUMPDEST DUP3 DUP3 ADD SWAP1 POP SWAP3 SWAP2 POP POP JUMP JUMPDEST PUSH1 0x0 DUP1 DUP3 SWAP2 POP DUP4 SWAP1 POP JUMPDEST PUSH1 0x1 DUP6 GT ISZERO PUSH3 0x7D3 JUMPI DUP1 DUP7 DIV DUP2 GT ISZERO PUSH3 0x7AB JUMPI PUSH3 0x7AA PUSH3 0xA71 JUMP JUMPDEST JUMPDEST PUSH1 0x1 DUP6 AND ISZERO PUSH3 0x7BB JUMPI DUP1 DUP3 MUL SWAP2 POP JUMPDEST DUP1 DUP2 MUL SWAP1 POP PUSH3 0x7CB DUP6 PUSH3 0xB0F JUMP JUMPDEST SWAP5 POP PUSH3 0x78B JUMP JUMPDEST SWAP5 POP SWAP5 SWAP3 POP POP POP JUMP JUMPDEST PUSH1 0x0 PUSH3 0x7E9 DUP3 PUSH3 0x9B8 JUMP JUMPDEST SWAP2 POP PUSH3 0x7F6 DUP4 PUSH3 0x9B8 JUMP JUMPDEST SWAP3 POP PUSH3 0x825 PUSH32 0xFFFFFFFFFFFFFFFFFFFFFFFFFFFFFFFFFFFFFFFFFFFFFFFFFFFFFFFFFFFFFFFF DUP5 DUP5 PUSH3 0x82D JUMP JUMPDEST SWAP1 POP SWAP3 SWAP2 POP POP JUMP JUMPDEST PUSH1 0x0 DUP3 PUSH3 0x83F JUMPI PUSH1 0x1 SWAP1 POP PUSH3 0x912 JUMP JUMPDEST DUP2 PUSH3 0x84F JUMPI PUSH1 0x0 SWAP1 POP PUSH3 0x912 JUMP JUMPDEST DUP2 PUSH1 0x1 DUP2 EQ PUSH3 0x868 JUMPI PUSH1 0x2 DUP2 EQ PUSH3 0x873 JUMPI PUSH3 0x8A9 JUMP JUMPDEST PUSH1 0x1 SWAP2 POP POP PUSH3 0x912 JUMP JUMPDEST PUSH1 0xFF DUP5 GT ISZERO PUSH3 0x888 JUMPI PUSH3 0x887 PUSH3 0xA71 JUMP JUMPDEST JUMPDEST DUP4 PUSH1 0x2 EXP SWAP2 POP DUP5 DUP3 GT ISZERO PUSH3 0x8A2 JUMPI PUSH3 0x8A1 PUSH3 0xA71 JUMP JUMPDEST JUMPDEST POP PUSH3 0x912 JUMP JUMPDEST POP PUSH1 0x20 DUP4 LT PUSH2 0x133 DUP4 LT AND PUSH1 0x4E DUP5 LT PUSH1 0xB DUP5 LT AND OR ISZERO PUSH3 0x8E3 JUMPI DUP3 DUP3 EXP SWAP1 POP DUP4 DUP2 GT ISZERO PUSH3 0x8DD JUMPI PUSH3 0x8DC PUSH3 0xA71 JUMP JUMPDEST JUMPDEST PUSH3 0x912 JUMP JUMPDEST PUSH3 0x8F2 DUP5 DUP5 DUP5 PUSH1 0x1 PUSH3 0x781 JUMP JUMPDEST SWAP3 POP SWAP1 POP DUP2 DUP5 DIV DUP2 GT ISZERO PUSH3 0x90C JUMPI PUSH3 0x90B PUSH3 0xA71 JUMP JUMPDEST JUMPDEST DUP2 DUP2 MUL SWAP1 POP JUMPDEST SWAP4 SWAP3 POP POP POP JUMP JUMPDEST PUSH1 0x0 PUSH3 0x926 DUP3 PUSH3 0x9B8 JUMP JUMPDEST SWAP2 POP PUSH3 0x933 DUP4 PUSH3 0x9B8 JUMP JUMPDEST SWAP3 POP DUP2 PUSH32 0xFFFFFFFFFFFFFFFFFFFFFFFFFFFFFFFFFFFFFFFFFFFFFFFFFFFFFFFFFFFFFFFF DIV DUP4 GT DUP3 ISZERO ISZERO AND ISZERO PUSH3 0x96F JUMPI PUSH3 0x96E PUSH3 0xA71 JUMP JUMPDEST JUMPDEST DUP3 DUP3 MUL SWAP1 POP SWAP3 SWAP2 POP POP JUMP JUMPDEST PUSH1 0x0 PUSH3 0x987 DUP3 PUSH3 0x998 JUMP JUMPDEST SWAP1 POP SWAP2 SWAP1 POP JUMP JUMPDEST PUSH1 0x0 DUP2 SWAP1 POP SWAP2 SWAP1 POP JUMP JUMPDEST PUSH1 0x0 PUSH20 0xFFFFFFFFFFFFFFFFFFFFFFFFFFFFFFFFFFFFFFFF DUP3 AND SWAP1 POP SWAP2 SWAP1 POP JUMP JUMPDEST PUSH1 0x0 DUP2 SWAP1 POP SWAP2 SWAP1 POP JUMP JUMPDEST PUSH1 0x0 PUSH1 0xFF DUP3 AND SWAP1 POP SWAP2 SWAP1 POP JUMP JUMPDEST PUSH1 0x0 JUMPDEST DUP4 DUP2 LT ISZERO PUSH3 0x9EF JUMPI DUP1 DUP3 ADD MLOAD DUP2 DUP5 ADD MSTORE PUSH1 0x20 DUP2 ADD SWAP1 POP PUSH3 0x9D2 JUMP JUMPDEST DUP4 DUP2 GT ISZERO PUSH3 0x9FF JUMPI PUSH1 0x0 DUP5 DUP5 ADD MSTORE JUMPDEST POP POP POP POP JUMP JUMPDEST PUSH1 0x0 PUSH1 0x2 DUP3 DIV SWAP1 POP PUSH1 0x1 DUP3 AND DUP1 PUSH3 0xA1E JUMPI PUSH1 0x7F DUP3 AND SWAP2 POP JUMPDEST PUSH1 0x20 DUP3 LT DUP2 EQ ISZERO PUSH3 0xA35 JUMPI PUSH3 0xA34 PUSH3 0xAA0 JUMP JUMPDEST JUMPDEST POP SWAP2 SWAP1 POP JUMP JUMPDEST PUSH3 0xA46 DUP3 PUSH3 0xAFE JUMP JUMPDEST DUP2 ADD DUP2 DUP2 LT PUSH8 0xFFFFFFFFFFFFFFFF DUP3 GT OR ISZERO PUSH3 0xA68 JUMPI PUSH3 0xA67 PUSH3 0xACF JUMP JUMPDEST JUMPDEST DUP1 PUSH1 0x40 MSTORE POP POP POP JUMP JUMPDEST PUSH32 0x4E487B7100000000000000000000000000000000000000000000000000000000 PUSH1 0x0 MSTORE PUSH1 0x11 PUSH1 0x4 MSTORE PUSH1 0x24 PUSH1 0x0 REVERT JUMPDEST PUSH32 0x4E487B7100000000000000000000000000000000000000000000000000000000 PUSH1 0x0 MSTORE PUSH1 0x22 PUSH1 0x4 MSTORE PUSH1 0x24 PUSH1 0x0 REVERT JUMPDEST PUSH32 0x4E487B7100000000000000000000000000000000000000000000000000000000 PUSH1 0x0 MSTORE PUSH1 0x41 PUSH1 0x4 MSTORE PUSH1 0x24 PUSH1 0x0 REVERT JUMPDEST PUSH1 0x0 PUSH1 0x1F NOT PUSH1 0x1F DUP4 ADD AND SWAP1 POP SWAP2 SWAP1 POP JUMP JUMPDEST PUSH1 0x0 DUP2 PUSH1 0x1 SHR SWAP1 POP SWAP2 SWAP1 POP JUMP JUMPDEST PUSH32 0x45524332303A206D696E7420746F20746865207A65726F206164647265737300 PUSH1 0x0 DUP3 ADD MSTORE POP JUMP JUMPDEST PUSH3 0xB50 DUP2 PUSH3 0x97A JUMP JUMPDEST DUP2 EQ PUSH3 0xB5C JUMPI PUSH1 0x0 DUP1 REVERT JUMPDEST POP JUMP JUMPDEST PUSH3 0xB6A DUP2 PUSH3 0x9C2 JUMP JUMPDEST DUP2 EQ PUSH3 0xB76 JUMPI PUSH1 0x0 DUP1 REVERT JUMPDEST POP JUMP JUMPDEST PUSH1 0x80 MLOAD PUSH1 0xF8 SHR PUSH1 0xA0 MLOAD PUSH2 0x2D88 PUSH3 0xBA9 PUSH1 0x0 CODECOPY PUSH1 0x0 DUP2 DUP2 PUSH2 0xAA6 ADD MSTORE PUSH2 0x1B60 ADD MSTORE PUSH1 0x0 PUSH2 0xA82 ADD MSTORE PUSH2 0x2D88 PUSH1 0x0 RETURN INVALID PUSH1 0x80 PUSH1 0x40 MSTORE CALLVALUE DUP1 ISZERO PUSH2 0x10 JUMPI PUSH1 0x0 DUP1 REVERT JUMPDEST POP PUSH1 0x4 CALLDATASIZE LT PUSH2 0x136 JUMPI PUSH1 0x0 CALLDATALOAD PUSH1 0xE0 SHR DUP1 PUSH4 0x628D6CBA GT PUSH2 0xB8 JUMPI DUP1 PUSH4 0xA9059CBB GT PUSH2 0x7C JUMPI DUP1 PUSH4 0xA9059CBB EQ PUSH2 0x37B JUMPI DUP1 PUSH4 0xB524F3A5 EQ PUSH2 0x3AB JUMPI DUP1 PUSH4 0xCAE9CA51 EQ PUSH2 0x3DB JUMPI DUP1 PUSH4 0xD505ACCF EQ PUSH2 0x40B JUMPI DUP1 PUSH4 0xDD62ED3E EQ PUSH2 0x427 JUMPI DUP1 PUSH4 0xEC126C77 EQ PUSH2 0x457 JUMPI PUSH2 0x136 JUMP JUMPDEST DUP1 PUSH4 0x628D6CBA EQ PUSH2 0x2AF JUMPI DUP1 PUSH4 0x70A08231 EQ PUSH2 0x2DF JUMPI DUP1 PUSH4 0x7ECEBE00 EQ PUSH2 0x30F JUMPI DUP1 PUSH4 0x8DA5CB5B EQ PUSH2 0x33F JUMPI DUP1 PUSH4 0x95D89B41 EQ PUSH2 0x35D JUMPI PUSH2 0x136 JUMP JUMPDEST DUP1 PUSH4 0x30ADF81F GT PUSH2 0xFF JUMPI DUP1 PUSH4 0x30ADF81F EQ PUSH2 0x1F5 JUMPI DUP1 PUSH4 0x313CE567 EQ PUSH2 0x213 JUMPI DUP1 PUSH4 0x3644E515 EQ PUSH2 0x231 JUMPI DUP1 PUSH4 0x4000AEA0 EQ PUSH2 0x24F JUMPI DUP1 PUSH4 0x605629D6 EQ PUSH2 0x27F JUMPI PUSH2 0x136 JUMP JUMPDEST DUP1 PUSH3 0xBF26F4 EQ PUSH2 0x13B JUMPI DUP1 PUSH4 0x6FDDE03 EQ PUSH2 0x159 JUMPI DUP1 PUSH4 0x95EA7B3 EQ PUSH2 0x177 JUMPI DUP1 PUSH4 0x18160DDD EQ PUSH2 0x1A7 JUMPI DUP1 PUSH4 0x23B872DD EQ PUSH2 0x1C5 JUMPI JUMPDEST PUSH1 0x0 DUP1 REVERT JUMPDEST PUSH2 0x143 PUSH2 0x487 JUMP JUMPDEST PUSH1 0x40 MLOAD PUSH2 0x150 SWAP2 SWAP1 PUSH2 0x2663 JUMP JUMPDEST PUSH1 0x40 MLOAD DUP1 SWAP2 SUB SWAP1 RETURN JUMPDEST PUSH2 0x161 PUSH2 0x4AB JUMP JUMPDEST PUSH1 0x40 MLOAD PUSH2 0x16E SWAP2 SWAP1 PUSH2 0x2724 JUMP JUMPDEST PUSH1 0x40 MLOAD DUP1 SWAP2 SUB SWAP1 RETURN JUMPDEST PUSH2 0x191 PUSH1 0x4 DUP1 CALLDATASIZE SUB DUP2 ADD SWAP1 PUSH2 0x18C SWAP2 SWAP1 PUSH2 0x220E JUMP JUMPDEST PUSH2 0x539 JUMP JUMPDEST PUSH1 0x40 MLOAD PUSH2 0x19E SWAP2 SWAP1 PUSH2 0x2648 JUMP JUMPDEST PUSH1 0x40 MLOAD DUP1 SWAP2 SUB SWAP1 RETURN JUMPDEST PUSH2 0x1AF PUSH2 0x62B JUMP JUMPDEST PUSH1 0x40 MLOAD PUSH2 0x1BC SWAP2 SWAP1 PUSH2 0x2846 JUMP JUMPDEST PUSH1 0x40 MLOAD DUP1 SWAP2 SUB SWAP1 RETURN JUMPDEST PUSH2 0x1DF PUSH1 0x4 DUP1 CALLDATASIZE SUB DUP2 ADD SWAP1 PUSH2 0x1DA SWAP2 SWAP1 PUSH2 0x2121 JUMP JUMPDEST PUSH2 0x635 JUMP JUMPDEST PUSH1 0x40 MLOAD PUSH2 0x1EC SWAP2 SWAP1 PUSH2 0x2648 JUMP JUMPDEST PUSH1 0x40 MLOAD DUP1 SWAP2 SUB SWAP1 RETURN JUMPDEST PUSH2 0x1FD PUSH2 0xA5C JUMP JUMPDEST PUSH1 0x40 MLOAD PUSH2 0x20A SWAP2 SWAP1 PUSH2 0x2663 JUMP JUMPDEST PUSH1 0x40 MLOAD DUP1 SWAP2 SUB SWAP1 RETURN JUMPDEST PUSH2 0x21B PUSH2 0xA80 JUMP JUMPDEST PUSH1 0x40 MLOAD PUSH2 0x228 SWAP2 SWAP1 PUSH2 0x2861 JUMP JUMPDEST PUSH1 0x40 MLOAD DUP1 SWAP2 SUB SWAP1 RETURN JUMPDEST PUSH2 0x239 PUSH2 0xAA4 JUMP JUMPDEST PUSH1 0x40 MLOAD PUSH2 0x246 SWAP2 SWAP1 PUSH2 0x2663 JUMP JUMPDEST PUSH1 0x40 MLOAD DUP1 SWAP2 SUB SWAP1 RETURN JUMPDEST PUSH2 0x269 PUSH1 0x4 DUP1 CALLDATASIZE SUB DUP2 ADD SWAP1 PUSH2 0x264 SWAP2 SWAP1 PUSH2 0x224A JUMP JUMPDEST PUSH2 0xAC8 JUMP JUMPDEST PUSH1 0x40 MLOAD PUSH2 0x276 SWAP2 SWAP1 PUSH2 0x2648 JUMP JUMPDEST PUSH1 0x40 MLOAD DUP1 SWAP2 SUB SWAP1 RETURN JUMPDEST PUSH2 0x299 PUSH1 0x4 DUP1 CALLDATASIZE SUB DUP2 ADD SWAP1 PUSH2 0x294 SWAP2 SWAP1 PUSH2 0x2170 JUMP JUMPDEST PUSH2 0xD67 JUMP JUMPDEST PUSH1 0x40 MLOAD PUSH2 0x2A6 SWAP2 SWAP1 PUSH2 0x2648 JUMP JUMPDEST PUSH1 0x40 MLOAD DUP1 SWAP2 SUB SWAP1 RETURN JUMPDEST PUSH2 0x2C9 PUSH1 0x4 DUP1 CALLDATASIZE SUB DUP2 ADD SWAP1 PUSH2 0x2C4 SWAP2 SWAP1 PUSH2 0x232E JUMP JUMPDEST PUSH2 0x1091 JUMP JUMPDEST PUSH1 0x40 MLOAD PUSH2 0x2D6 SWAP2 SWAP1 PUSH2 0x2648 JUMP JUMPDEST PUSH1 0x40 MLOAD DUP1 SWAP2 SUB SWAP1 RETURN JUMPDEST PUSH2 0x2F9 PUSH1 0x4 DUP1 CALLDATASIZE SUB DUP2 ADD SWAP1 PUSH2 0x2F4 SWAP2 SWAP1 PUSH2 0x20BC JUMP JUMPDEST PUSH2 0x117B JUMP JUMPDEST PUSH1 0x40 MLOAD PUSH2 0x306 SWAP2 SWAP1 PUSH2 0x2846 JUMP JUMPDEST PUSH1 0x40 MLOAD DUP1 SWAP2 SUB SWAP1 RETURN JUMPDEST PUSH2 0x329 PUSH1 0x4 DUP1 CALLDATASIZE SUB DUP2 ADD SWAP1 PUSH2 0x324 SWAP2 SWAP1 PUSH2 0x20BC JUMP JUMPDEST PUSH2 0x1193 JUMP JUMPDEST PUSH1 0x40 MLOAD PUSH2 0x336 SWAP2 SWAP1 PUSH2 0x2846 JUMP JUMPDEST PUSH1 0x40 MLOAD DUP1 SWAP2 SUB SWAP1 RETURN JUMPDEST PUSH2 0x347 PUSH2 0x11AB JUMP JUMPDEST PUSH1 0x40 MLOAD PUSH2 0x354 SWAP2 SWAP1 PUSH2 0x25ED JUMP JUMPDEST PUSH1 0x40 MLOAD DUP1 SWAP2 SUB SWAP1 RETURN JUMPDEST PUSH2 0x365 PUSH2 0x1209 JUMP JUMPDEST PUSH1 0x40 MLOAD PUSH2 0x372 SWAP2 SWAP1 PUSH2 0x2724 JUMP JUMPDEST PUSH1 0x40 MLOAD DUP1 SWAP2 SUB SWAP1 RETURN JUMPDEST PUSH2 0x395 PUSH1 0x4 DUP1 CALLDATASIZE SUB DUP2 ADD SWAP1 PUSH2 0x390 SWAP2 SWAP1 PUSH2 0x220E JUMP JUMPDEST PUSH2 0x1297 JUMP JUMPDEST PUSH1 0x40 MLOAD PUSH2 0x3A2 SWAP2 SWAP1 PUSH2 0x2648 JUMP JUMPDEST PUSH1 0x40 MLOAD DUP1 SWAP2 SUB SWAP1 RETURN JUMPDEST PUSH2 0x3C5 PUSH1 0x4 DUP1 CALLDATASIZE SUB DUP2 ADD SWAP1 PUSH2 0x3C0 SWAP2 SWAP1 PUSH2 0x20BC JUMP JUMPDEST PUSH2 0x14A5 JUMP JUMPDEST PUSH1 0x40 MLOAD PUSH2 0x3D2 SWAP2 SWAP1 PUSH2 0x2648 JUMP JUMPDEST PUSH1 0x40 MLOAD DUP1 SWAP2 SUB SWAP1 RETURN JUMPDEST PUSH2 0x3F5 PUSH1 0x4 DUP1 CALLDATASIZE SUB DUP2 ADD SWAP1 PUSH2 0x3F0 SWAP2 SWAP1 PUSH2 0x224A JUMP JUMPDEST PUSH2 0x16D4 JUMP JUMPDEST PUSH1 0x40 MLOAD PUSH2 0x402 SWAP2 SWAP1 PUSH2 0x2648 JUMP JUMPDEST PUSH1 0x40 MLOAD DUP1 SWAP2 SUB SWAP1 RETURN JUMPDEST PUSH2 0x425 PUSH1 0x4 DUP1 CALLDATASIZE SUB DUP2 ADD SWAP1 PUSH2 0x420 SWAP2 SWAP1 PUSH2 0x2170 JUMP JUMPDEST PUSH2 0x1856 JUMP JUMPDEST STOP JUMPDEST PUSH2 0x441 PUSH1 0x4 DUP1 CALLDATASIZE SUB DUP2 ADD SWAP1 PUSH2 0x43C SWAP2 SWAP1 PUSH2 0x20E5 JUMP JUMPDEST PUSH2 0x1A5B JUMP JUMPDEST PUSH1 0x40 MLOAD PUSH2 0x44E SWAP2 SWAP1 PUSH2 0x2846 JUMP JUMPDEST PUSH1 0x40 MLOAD DUP1 SWAP2 SUB SWAP1 RETURN JUMPDEST PUSH2 0x471 PUSH1 0x4 DUP1 CALLDATASIZE SUB DUP2 ADD SWAP1 PUSH2 0x46C SWAP2 SWAP1 PUSH2 0x22DF JUMP JUMPDEST PUSH2 0x1A80 JUMP JUMPDEST PUSH1 0x40 MLOAD PUSH2 0x47E SWAP2 SWAP1 PUSH2 0x2648 JUMP JUMPDEST PUSH1 0x40 MLOAD DUP1 SWAP2 SUB SWAP1 RETURN JUMPDEST PUSH32 0x42CE63790C28229C123925D83266E77C04D28784552AB68B350A9003226CBD59 DUP2 JUMP JUMPDEST PUSH1 0x0 DUP1 SLOAD PUSH2 0x4B8 SWAP1 PUSH2 0x29DF JUMP JUMPDEST DUP1 PUSH1 0x1F ADD PUSH1 0x20 DUP1 SWAP2 DIV MUL PUSH1 0x20 ADD PUSH1 0x40 MLOAD SWAP1 DUP2 ADD PUSH1 0x40 MSTORE DUP1 SWAP3 SWAP2 SWAP1 DUP2 DUP2 MSTORE PUSH1 0x20 ADD DUP3 DUP1 SLOAD PUSH2 0x4E4 SWAP1 PUSH2 0x29DF JUMP JUMPDEST DUP1 ISZERO PUSH2 0x531 JUMPI DUP1 PUSH1 0x1F LT PUSH2 0x506 JUMPI PUSH2 0x100 DUP1 DUP4 SLOAD DIV MUL DUP4 MSTORE SWAP2 PUSH1 0x20 ADD SWAP2 PUSH2 0x531 JUMP JUMPDEST DUP3 ADD SWAP2 SWAP1 PUSH1 0x0 MSTORE PUSH1 0x20 PUSH1 0x0 KECCAK256 SWAP1 JUMPDEST DUP2 SLOAD DUP2 MSTORE SWAP1 PUSH1 0x1 ADD SWAP1 PUSH1 0x20 ADD DUP1 DUP4 GT PUSH2 0x514 JUMPI DUP3 SWAP1 SUB PUSH1 0x1F AND DUP3 ADD SWAP2 JUMPDEST POP POP POP POP POP DUP2 JUMP JUMPDEST PUSH1 0x0 DUP2 PUSH1 0x8 PUSH1 0x0 CALLER PUSH20 0xFFFFFFFFFFFFFFFFFFFFFFFFFFFFFFFFFFFFFFFF AND PUSH20 0xFFFFFFFFFFFFFFFFFFFFFFFFFFFFFFFFFFFFFFFF AND DUP2 MSTORE PUSH1 0x20 ADD SWAP1 DUP2 MSTORE PUSH1 0x20 ADD PUSH1 0x0 KECCAK256 PUSH1 0x0 DUP6 PUSH20 0xFFFFFFFFFFFFFFFFFFFFFFFFFFFFFFFFFFFFFFFF AND PUSH20 0xFFFFFFFFFFFFFFFFFFFFFFFFFFFFFFFFFFFFFFFF AND DUP2 MSTORE PUSH1 0x20 ADD SWAP1 DUP2 MSTORE PUSH1 0x20 ADD PUSH1 0x0 KECCAK256 DUP2 SWAP1 SSTORE POP DUP3 PUSH20 0xFFFFFFFFFFFFFFFFFFFFFFFFFFFFFFFFFFFFFFFF AND CALLER PUSH20 0xFFFFFFFFFFFFFFFFFFFFFFFFFFFFFFFFFFFFFFFF AND PUSH32 0x8C5BE1E5EBEC7D5BD14F71427D1E84F3DD0314C0F7B2291E5B200AC8C7C3B925 DUP5 PUSH1 0x40 MLOAD PUSH2 0x619 SWAP2 SWAP1 PUSH2 0x2846 JUMP JUMPDEST PUSH1 0x40 MLOAD DUP1 SWAP2 SUB SWAP1 LOG3 PUSH1 0x1 SWAP1 POP SWAP3 SWAP2 POP POP JUMP JUMPDEST PUSH1 0x0 PUSH1 0x3 SLOAD SWAP1 POP SWAP1 JUMP JUMPDEST PUSH1 0x0 DUP1 PUSH20 0xFFFFFFFFFFFFFFFFFFFFFFFFFFFFFFFFFFFFFFFF AND DUP4 PUSH20 0xFFFFFFFFFFFFFFFFFFFFFFFFFFFFFFFFFFFFFFFF AND EQ ISZERO DUP1 PUSH2 0x69E JUMPI POP ADDRESS PUSH20 0xFFFFFFFFFFFFFFFFFFFFFFFFFFFFFFFFFFFFFFFF AND DUP4 PUSH20 0xFFFFFFFFFFFFFFFFFFFFFFFFFFFFFFFFFFFFFFFF AND EQ ISZERO JUMPDEST PUSH2 0x6A7 JUMPI PUSH1 0x0 DUP1 REVERT JUMPDEST CALLER PUSH20 0xFFFFFFFFFFFFFFFFFFFFFFFFFFFFFFFFFFFFFFFF AND DUP5 PUSH20 0xFFFFFFFFFFFFFFFFFFFFFFFFFFFFFFFFFFFFFFFF AND EQ PUSH2 0x8BF JUMPI PUSH1 0x0 PUSH1 0x8 PUSH1 0x0 DUP7 PUSH20 0xFFFFFFFFFFFFFFFFFFFFFFFFFFFFFFFFFFFFFFFF AND PUSH20 0xFFFFFFFFFFFFFFFFFFFFFFFFFFFFFFFFFFFFFFFF AND DUP2 MSTORE PUSH1 0x20 ADD SWAP1 DUP2 MSTORE PUSH1 0x20 ADD PUSH1 0x0 KECCAK256 PUSH1 0x0 CALLER PUSH20 0xFFFFFFFFFFFFFFFFFFFFFFFFFFFFFFFFFFFFFFFF AND PUSH20 0xFFFFFFFFFFFFFFFFFFFFFFFFFFFFFFFFFFFFFFFF AND DUP2 MSTORE PUSH1 0x20 ADD SWAP1 DUP2 MSTORE PUSH1 0x20 ADD PUSH1 0x0 KECCAK256 SLOAD SWAP1 POP PUSH32 0xFFFFFFFFFFFFFFFFFFFFFFFFFFFFFFFFFFFFFFFFFFFFFFFFFFFFFFFFFFFFFFFF DUP2 EQ PUSH2 0x8BD JUMPI DUP3 DUP2 LT ISZERO PUSH2 0x7C5 JUMPI PUSH1 0x40 MLOAD PUSH32 0x8C379A000000000000000000000000000000000000000000000000000000000 DUP2 MSTORE PUSH1 0x4 ADD PUSH2 0x7BC SWAP1 PUSH2 0x27E6 JUMP JUMPDEST PUSH1 0x40 MLOAD DUP1 SWAP2 SUB SWAP1 REVERT JUMPDEST PUSH1 0x0 DUP4 DUP3 PUSH2 0x7D3 SWAP2 SWAP1 PUSH2 0x290A JUMP JUMPDEST SWAP1 POP DUP1 PUSH1 0x8 PUSH1 0x0 DUP9 PUSH20 0xFFFFFFFFFFFFFFFFFFFFFFFFFFFFFFFFFFFFFFFF AND PUSH20 0xFFFFFFFFFFFFFFFFFFFFFFFFFFFFFFFFFFFFFFFF AND DUP2 MSTORE PUSH1 0x20 ADD SWAP1 DUP2 MSTORE PUSH1 0x20 ADD PUSH1 0x0 KECCAK256 PUSH1 0x0 CALLER PUSH20 0xFFFFFFFFFFFFFFFFFFFFFFFFFFFFFFFFFFFFFFFF AND PUSH20 0xFFFFFFFFFFFFFFFFFFFFFFFFFFFFFFFFFFFFFFFF AND DUP2 MSTORE PUSH1 0x20 ADD SWAP1 DUP2 MSTORE PUSH1 0x20 ADD PUSH1 0x0 KECCAK256 DUP2 SWAP1 SSTORE POP CALLER PUSH20 0xFFFFFFFFFFFFFFFFFFFFFFFFFFFFFFFFFFFFFFFF AND DUP7 PUSH20 0xFFFFFFFFFFFFFFFFFFFFFFFFFFFFFFFFFFFFFFFF AND PUSH32 0x8C5BE1E5EBEC7D5BD14F71427D1E84F3DD0314C0F7B2291E5B200AC8C7C3B925 DUP4 PUSH1 0x40 MLOAD PUSH2 0x8B3 SWAP2 SWAP1 PUSH2 0x2846 JUMP JUMPDEST PUSH1 0x40 MLOAD DUP1 SWAP2 SUB SWAP1 LOG3 POP JUMPDEST POP JUMPDEST PUSH1 0x0 PUSH1 0x2 PUSH1 0x0 DUP7 PUSH20 0xFFFFFFFFFFFFFFFFFFFFFFFFFFFFFFFFFFFFFFFF AND PUSH20 0xFFFFFFFFFFFFFFFFFFFFFFFFFFFFFFFFFFFFFFFF AND DUP2 MSTORE PUSH1 0x20 ADD SWAP1 DUP2 MSTORE PUSH1 0x20 ADD PUSH1 0x0 KECCAK256 SLOAD SWAP1 POP DUP3 DUP2 LT ISZERO PUSH2 0x946 JUMPI PUSH1 0x40 MLOAD PUSH32 0x8C379A000000000000000000000000000000000000000000000000000000000 DUP2 MSTORE PUSH1 0x4 ADD PUSH2 0x93D SWAP1 PUSH2 0x2826 JUMP JUMPDEST PUSH1 0x40 MLOAD DUP1 SWAP2 SUB SWAP1 REVERT JUMPDEST DUP3 DUP2 PUSH2 0x952 SWAP2 SWAP1 PUSH2 0x290A JUMP JUMPDEST PUSH1 0x2 PUSH1 0x0 DUP8 PUSH20 0xFFFFFFFFFFFFFFFFFFFFFFFFFFFFFFFFFFFFFFFF AND PUSH20 0xFFFFFFFFFFFFFFFFFFFFFFFFFFFFFFFFFFFFFFFF AND DUP2 MSTORE PUSH1 0x20 ADD SWAP1 DUP2 MSTORE PUSH1 0x20 ADD PUSH1 0x0 KECCAK256 DUP2 SWAP1 SSTORE POP DUP3 PUSH1 0x2 PUSH1 0x0 DUP7 PUSH20 0xFFFFFFFFFFFFFFFFFFFFFFFFFFFFFFFFFFFFFFFF AND PUSH20 0xFFFFFFFFFFFFFFFFFFFFFFFFFFFFFFFFFFFFFFFF AND DUP2 MSTORE PUSH1 0x20 ADD SWAP1 DUP2 MSTORE PUSH1 0x20 ADD PUSH1 0x0 KECCAK256 PUSH1 0x0 DUP3 DUP3 SLOAD PUSH2 0x9E4 SWAP2 SWAP1 PUSH2 0x28B4 JUMP JUMPDEST SWAP3 POP POP DUP2 SWAP1 SSTORE POP DUP4 PUSH20 0xFFFFFFFFFFFFFFFFFFFFFFFFFFFFFFFFFFFFFFFF AND DUP6 PUSH20 0xFFFFFFFFFFFFFFFFFFFFFFFFFFFFFFFFFFFFFFFF AND PUSH32 0xDDF252AD1BE2C89B69C2B068FC378DAA952BA7F163C4A11628F55A4DF523B3EF DUP6 PUSH1 0x40 MLOAD PUSH2 0xA48 SWAP2 SWAP1 PUSH2 0x2846 JUMP JUMPDEST PUSH1 0x40 MLOAD DUP1 SWAP2 SUB SWAP1 LOG3 PUSH1 0x1 SWAP2 POP POP SWAP4 SWAP3 POP POP POP JUMP JUMPDEST PUSH32 0x6E71EDAE12B1B97F4D1F60370FEF10105FA2FAAE0126114A169C64845D6126C9 DUP2 JUMP JUMPDEST PUSH32 0x0 DUP2 JUMP JUMPDEST PUSH32 0x0 DUP2 JUMP JUMPDEST PUSH1 0x0 DUP1 PUSH20 0xFFFFFFFFFFFFFFFFFFFFFFFFFFFFFFFFFFFFFFFF AND DUP6 PUSH20 0xFFFFFFFFFFFFFFFFFFFFFFFFFFFFFFFFFFFFFFFF AND EQ ISZERO DUP1 PUSH2 0xB31 JUMPI POP ADDRESS PUSH20 0xFFFFFFFFFFFFFFFFFFFFFFFFFFFFFFFFFFFFFFFF AND DUP6 PUSH20 0xFFFFFFFFFFFFFFFFFFFFFFFFFFFFFFFFFFFFFFFF AND EQ ISZERO JUMPDEST PUSH2 0xB3A JUMPI PUSH1 0x0 DUP1 REVERT JUMPDEST PUSH1 0x0 PUSH1 0x2 PUSH1 0x0 CALLER PUSH20 0xFFFFFFFFFFFFFFFFFFFFFFFFFFFFFFFFFFFFFFFF AND PUSH20 0xFFFFFFFFFFFFFFFFFFFFFFFFFFFFFFFFFFFFFFFF AND DUP2 MSTORE PUSH1 0x20 ADD SWAP1 DUP2 MSTORE PUSH1 0x20 ADD PUSH1 0x0 KECCAK256 SLOAD SWAP1 POP DUP5 DUP2 LT ISZERO PUSH2 0xBC1 JUMPI PUSH1 0x40 MLOAD PUSH32 0x8C379A000000000000000000000000000000000000000000000000000000000 DUP2 MSTORE PUSH1 0x4 ADD PUSH2 0xBB8 SWAP1 PUSH2 0x2826 JUMP JUMPDEST PUSH1 0x40 MLOAD DUP1 SWAP2 SUB SWAP1 REVERT JUMPDEST DUP5 DUP2 PUSH2 0xBCD SWAP2 SWAP1 PUSH2 0x290A JUMP JUMPDEST PUSH1 0x2 PUSH1 0x0 CALLER PUSH20 0xFFFFFFFFFFFFFFFFFFFFFFFFFFFFFFFFFFFFFFFF AND PUSH20 0xFFFFFFFFFFFFFFFFFFFFFFFFFFFFFFFFFFFFFFFF AND DUP2 MSTORE PUSH1 0x20 ADD SWAP1 DUP2 MSTORE PUSH1 0x20 ADD PUSH1 0x0 KECCAK256 DUP2 SWAP1 SSTORE POP DUP5 PUSH1 0x2 PUSH1 0x0 DUP9 PUSH20 0xFFFFFFFFFFFFFFFFFFFFFFFFFFFFFFFFFFFFFFFF AND PUSH20 0xFFFFFFFFFFFFFFFFFFFFFFFFFFFFFFFFFFFFFFFF AND DUP2 MSTORE PUSH1 0x20 ADD SWAP1 DUP2 MSTORE PUSH1 0x20 ADD PUSH1 0x0 KECCAK256 PUSH1 0x0 DUP3 DUP3 SLOAD PUSH2 0xC5F SWAP2 SWAP1 PUSH2 0x28B4 JUMP JUMPDEST SWAP3 POP POP DUP2 SWAP1 SSTORE POP DUP6 PUSH20 0xFFFFFFFFFFFFFFFFFFFFFFFFFFFFFFFFFFFFFFFF AND CALLER PUSH20 0xFFFFFFFFFFFFFFFFFFFFFFFFFFFFFFFFFFFFFFFF AND PUSH32 0xDDF252AD1BE2C89B69C2B068FC378DAA952BA7F163C4A11628F55A4DF523B3EF DUP8 PUSH1 0x40 MLOAD PUSH2 0xCC3 SWAP2 SWAP1 PUSH2 0x2846 JUMP JUMPDEST PUSH1 0x40 MLOAD DUP1 SWAP2 SUB SWAP1 LOG3 DUP6 PUSH20 0xFFFFFFFFFFFFFFFFFFFFFFFFFFFFFFFFFFFFFFFF AND PUSH4 0xA4C0ED36 CALLER DUP8 DUP8 DUP8 PUSH1 0x40 MLOAD DUP6 PUSH4 0xFFFFFFFF AND PUSH1 0xE0 SHL DUP2 MSTORE PUSH1 0x4 ADD PUSH2 0xD0A SWAP5 SWAP4 SWAP3 SWAP2 SWAP1 PUSH2 0x2608 JUMP JUMPDEST PUSH1 0x20 PUSH1 0x40 MLOAD DUP1 DUP4 SUB DUP2 PUSH1 0x0 DUP8 DUP1 EXTCODESIZE ISZERO DUP1 ISZERO PUSH2 0xD24 JUMPI PUSH1 0x0 DUP1 REVERT JUMPDEST POP GAS CALL ISZERO DUP1 ISZERO PUSH2 0xD38 JUMPI RETURNDATASIZE PUSH1 0x0 DUP1 RETURNDATACOPY RETURNDATASIZE PUSH1 0x0 REVERT JUMPDEST POP POP POP POP PUSH1 0x40 MLOAD RETURNDATASIZE PUSH1 0x1F NOT PUSH1 0x1F DUP3 ADD AND DUP3 ADD DUP1 PUSH1 0x40 MSTORE POP DUP2 ADD SWAP1 PUSH2 0xD5C SWAP2 SWAP1 PUSH2 0x22B6 JUMP JUMPDEST SWAP2 POP POP SWAP5 SWAP4 POP POP POP POP JUMP JUMPDEST PUSH1 0x0 DUP5 TIMESTAMP GT ISZERO PUSH2 0xDAC JUMPI PUSH1 0x40 MLOAD PUSH32 0x8C379A000000000000000000000000000000000000000000000000000000000 DUP2 MSTORE PUSH1 0x4 ADD PUSH2 0xDA3 SWAP1 PUSH2 0x2766 JUMP JUMPDEST PUSH1 0x40 MLOAD DUP1 SWAP2 SUB SWAP1 REVERT JUMPDEST PUSH1 0x0 PUSH32 0x42CE63790C28229C123925D83266E77C04D28784552AB68B350A9003226CBD59 DUP10 DUP10 DUP10 PUSH1 0x7 PUSH1 0x0 DUP15 PUSH20 0xFFFFFFFFFFFFFFFFFFFFFFFFFFFFFFFFFFFFFFFF AND PUSH20 0xFFFFFFFFFFFFFFFFFFFFFFFFFFFFFFFFFFFFFFFF AND DUP2 MSTORE PUSH1 0x20 ADD SWAP1 DUP2 MSTORE PUSH1 0x20 ADD PUSH1 0x0 KECCAK256 PUSH1 0x0 DUP2 SLOAD DUP1 SWAP3 SWAP2 SWAP1 PUSH2 0xE22 SWAP1 PUSH2 0x2A11 JUMP JUMPDEST SWAP2 SWAP1 POP SSTORE DUP11 PUSH1 0x40 MLOAD PUSH1 0x20 ADD PUSH2 0xE3C SWAP7 SWAP6 SWAP5 SWAP4 SWAP3 SWAP2 SWAP1 PUSH2 0x267E JUMP JUMPDEST PUSH1 0x40 MLOAD PUSH1 0x20 DUP2 DUP4 SUB SUB DUP2 MSTORE SWAP1 PUSH1 0x40 MSTORE DUP1 MLOAD SWAP1 PUSH1 0x20 ADD KECCAK256 SWAP1 POP PUSH2 0xE61 DUP10 DUP3 DUP8 DUP8 DUP8 PUSH2 0x1B5B JUMP JUMPDEST DUP1 PUSH2 0xE75 JUMPI POP PUSH2 0xE74 DUP10 DUP3 DUP8 DUP8 DUP8 PUSH2 0x1C71 JUMP JUMPDEST JUMPDEST PUSH2 0xE7E JUMPI PUSH1 0x0 DUP1 REVERT JUMPDEST PUSH1 0x0 PUSH20 0xFFFFFFFFFFFFFFFFFFFFFFFFFFFFFFFFFFFFFFFF AND DUP9 PUSH20 0xFFFFFFFFFFFFFFFFFFFFFFFFFFFFFFFFFFFFFFFF AND EQ ISZERO DUP1 PUSH2 0xEE6 JUMPI POP ADDRESS PUSH20 0xFFFFFFFFFFFFFFFFFFFFFFFFFFFFFFFFFFFFFFFF AND DUP9 PUSH20 0xFFFFFFFFFFFFFFFFFFFFFFFFFFFFFFFFFFFFFFFF AND EQ ISZERO JUMPDEST PUSH2 0xEEF JUMPI PUSH1 0x0 DUP1 REVERT JUMPDEST PUSH1 0x0 PUSH1 0x2 PUSH1 0x0 DUP12 PUSH20 0xFFFFFFFFFFFFFFFFFFFFFFFFFFFFFFFFFFFFFFFF AND PUSH20 0xFFFFFFFFFFFFFFFFFFFFFFFFFFFFFFFFFFFFFFFF AND DUP2 MSTORE PUSH1 0x20 ADD SWAP1 DUP2 MSTORE PUSH1 0x20 ADD PUSH1 0x0 KECCAK256 SLOAD SWAP1 POP DUP8 DUP2 LT ISZERO PUSH2 0xF76 JUMPI PUSH1 0x40 MLOAD PUSH32 0x8C379A000000000000000000000000000000000000000000000000000000000 DUP2 MSTORE PUSH1 0x4 ADD PUSH2 0xF6D SWAP1 PUSH2 0x2826 JUMP JUMPDEST PUSH1 0x40 MLOAD DUP1 SWAP2 SUB SWAP1 REVERT JUMPDEST DUP8 DUP2 PUSH2 0xF82 SWAP2 SWAP1 PUSH2 0x290A JUMP JUMPDEST PUSH1 0x2 PUSH1 0x0 DUP13 PUSH20 0xFFFFFFFFFFFFFFFFFFFFFFFFFFFFFFFFFFFFFFFF AND PUSH20 0xFFFFFFFFFFFFFFFFFFFFFFFFFFFFFFFFFFFFFFFF AND DUP2 MSTORE PUSH1 0x20 ADD SWAP1 DUP2 MSTORE PUSH1 0x20 ADD PUSH1 0x0 KECCAK256 DUP2 SWAP1 SSTORE POP DUP8 PUSH1 0x2 PUSH1 0x0 DUP12 PUSH20 0xFFFFFFFFFFFFFFFFFFFFFFFFFFFFFFFFFFFFFFFF AND PUSH20 0xFFFFFFFFFFFFFFFFFFFFFFFFFFFFFFFFFFFFFFFF AND DUP2 MSTORE PUSH1 0x20 ADD SWAP1 DUP2 MSTORE PUSH1 0x20 ADD PUSH1 0x0 KECCAK256 PUSH1 0x0 DUP3 DUP3 SLOAD PUSH2 0x1014 SWAP2 SWAP1 PUSH2 0x28B4 JUMP JUMPDEST SWAP3 POP POP DUP2 SWAP1 SSTORE POP DUP9 PUSH20 0xFFFFFFFFFFFFFFFFFFFFFFFFFFFFFFFFFFFFFFFF AND DUP11 PUSH20 0xFFFFFFFFFFFFFFFFFFFFFFFFFFFFFFFFFFFFFFFF AND PUSH32 0xDDF252AD1BE2C89B69C2B068FC378DAA952BA7F163C4A11628F55A4DF523B3EF DUP11 PUSH1 0x40 MLOAD PUSH2 0x1078 SWAP2 SWAP1 PUSH2 0x2846 JUMP JUMPDEST PUSH1 0x40 MLOAD DUP1 SWAP2 SUB SWAP1 LOG3 PUSH1 0x1 SWAP3 POP POP POP SWAP8 SWAP7 POP POP POP POP POP POP POP JUMP JUMPDEST PUSH1 0x0 DUP1 PUSH20 0xFFFFFFFFFFFFFFFFFFFFFFFFFFFFFFFFFFFFFFFF AND DUP3 PUSH20 0xFFFFFFFFFFFFFFFFFFFFFFFFFFFFFFFFFFFFFFFF AND EQ ISZERO PUSH2 0x1102 JUMPI PUSH1 0x40 MLOAD PUSH32 0x8C379A000000000000000000000000000000000000000000000000000000000 DUP2 MSTORE PUSH1 0x4 ADD PUSH2 0x10F9 SWAP1 PUSH2 0x2786 JUMP JUMPDEST PUSH1 0x40 MLOAD DUP1 SWAP2 SUB SWAP1 REVERT JUMPDEST PUSH2 0x110C CALLER DUP5 PUSH2 0x1D47 JUMP JUMPDEST DUP2 PUSH20 0xFFFFFFFFFFFFFFFFFFFFFFFFFFFFFFFFFFFFFFFF AND CALLER PUSH20 0xFFFFFFFFFFFFFFFFFFFFFFFFFFFFFFFFFFFFFFFF AND PUSH32 0x6B616089D04950DC06C45C6DD787D657980543F89651AEC47924752C7D16C888 DUP6 PUSH1 0x40 MLOAD PUSH2 0x1169 SWAP2 SWAP1 PUSH2 0x2846 JUMP JUMPDEST PUSH1 0x40 MLOAD DUP1 SWAP2 SUB SWAP1 LOG3 PUSH1 0x1 SWAP1 POP SWAP3 SWAP2 POP POP JUMP JUMPDEST PUSH1 0x2 PUSH1 0x20 MSTORE DUP1 PUSH1 0x0 MSTORE PUSH1 0x40 PUSH1 0x0 KECCAK256 PUSH1 0x0 SWAP2 POP SWAP1 POP SLOAD DUP2 JUMP JUMPDEST PUSH1 0x7 PUSH1 0x20 MSTORE DUP1 PUSH1 0x0 MSTORE PUSH1 0x40 PUSH1 0x0 KECCAK256 PUSH1 0x0 SWAP2 POP SWAP1 POP SLOAD DUP2 JUMP JUMPDEST PUSH1 0x0 PUSH1 0x6 SLOAD TIMESTAMP LT PUSH2 0x11E0 JUMPI PUSH1 0x5 PUSH1 0x0 SWAP1 SLOAD SWAP1 PUSH2 0x100 EXP SWAP1 DIV PUSH20 0xFFFFFFFFFFFFFFFFFFFFFFFFFFFFFFFFFFFFFFFF AND SWAP1 POP PUSH2 0x1206 JUMP JUMPDEST PUSH1 0x4 PUSH1 0x0 SWAP1 SLOAD SWAP1 PUSH2 0x100 EXP SWAP1 DIV PUSH20 0xFFFFFFFFFFFFFFFFFFFFFFFFFFFFFFFFFFFFFFFF AND SWAP1 POP JUMPDEST SWAP1 JUMP JUMPDEST PUSH1 0x1 DUP1 SLOAD PUSH2 0x1216 SWAP1 PUSH2 0x29DF JUMP JUMPDEST DUP1 PUSH1 0x1F ADD PUSH1 0x20 DUP1 SWAP2 DIV MUL PUSH1 0x20 ADD PUSH1 0x40 MLOAD SWAP1 DUP2 ADD PUSH1 0x40 MSTORE DUP1 SWAP3 SWAP2 SWAP1 DUP2 DUP2 MSTORE PUSH1 0x20 ADD DUP3 DUP1 SLOAD PUSH2 0x1242 SWAP1 PUSH2 0x29DF JUMP JUMPDEST DUP1 ISZERO PUSH2 0x128F JUMPI DUP1 PUSH1 0x1F LT PUSH2 0x1264 JUMPI PUSH2 0x100 DUP1 DUP4 SLOAD DIV MUL DUP4 MSTORE SWAP2 PUSH1 0x20 ADD SWAP2 PUSH2 0x128F JUMP JUMPDEST DUP3 ADD SWAP2 SWAP1 PUSH1 0x0 MSTORE PUSH1 0x20 PUSH1 0x0 KECCAK256 SWAP1 JUMPDEST DUP2 SLOAD DUP2 MSTORE SWAP1 PUSH1 0x1 ADD SWAP1 PUSH1 0x20 ADD DUP1 DUP4 GT PUSH2 0x1272 JUMPI DUP3 SWAP1 SUB PUSH1 0x1F AND DUP3 ADD SWAP2 JUMPDEST POP POP POP POP POP DUP2 JUMP JUMPDEST PUSH1 0x0 DUP1 PUSH20 0xFFFFFFFFFFFFFFFFFFFFFFFFFFFFFFFFFFFFFFFF AND DUP4 PUSH20 0xFFFFFFFFFFFFFFFFFFFFFFFFFFFFFFFFFFFFFFFF AND EQ ISZERO DUP1 PUSH2 0x1300 JUMPI POP ADDRESS PUSH20 0xFFFFFFFFFFFFFFFFFFFFFFFFFFFFFFFFFFFFFFFF AND DUP4 PUSH20 0xFFFFFFFFFFFFFFFFFFFFFFFFFFFFFFFFFFFFFFFF AND EQ ISZERO JUMPDEST PUSH2 0x1309 JUMPI PUSH1 0x0 DUP1 REVERT JUMPDEST PUSH1 0x0 PUSH1 0x2 PUSH1 0x0 CALLER PUSH20 0xFFFFFFFFFFFFFFFFFFFFFFFFFFFFFFFFFFFFFFFF AND PUSH20 0xFFFFFFFFFFFFFFFFFFFFFFFFFFFFFFFFFFFFFFFF AND DUP2 MSTORE PUSH1 0x20 ADD SWAP1 DUP2 MSTORE PUSH1 0x20 ADD PUSH1 0x0 KECCAK256 SLOAD SWAP1 POP DUP3 DUP2 LT ISZERO PUSH2 0x1390 JUMPI PUSH1 0x40 MLOAD PUSH32 0x8C379A000000000000000000000000000000000000000000000000000000000 DUP2 MSTORE PUSH1 0x4 ADD PUSH2 0x1387 SWAP1 PUSH2 0x2826 JUMP JUMPDEST PUSH1 0x40 MLOAD DUP1 SWAP2 SUB SWAP1 REVERT JUMPDEST DUP3 DUP2 PUSH2 0x139C SWAP2 SWAP1 PUSH2 0x290A JUMP JUMPDEST PUSH1 0x2 PUSH1 0x0 CALLER PUSH20 0xFFFFFFFFFFFFFFFFFFFFFFFFFFFFFFFFFFFFFFFF AND PUSH20 0xFFFFFFFFFFFFFFFFFFFFFFFFFFFFFFFFFFFFFFFF AND DUP2 MSTORE PUSH1 0x20 ADD SWAP1 DUP2 MSTORE PUSH1 0x20 ADD PUSH1 0x0 KECCAK256 DUP2 SWAP1 SSTORE POP DUP3 PUSH1 0x2 PUSH1 0x0 DUP7 PUSH20 0xFFFFFFFFFFFFFFFFFFFFFFFFFFFFFFFFFFFFFFFF AND PUSH20 0xFFFFFFFFFFFFFFFFFFFFFFFFFFFFFFFFFFFFFFFF AND DUP2 MSTORE PUSH1 0x20 ADD SWAP1 DUP2 MSTORE PUSH1 0x20 ADD PUSH1 0x0 KECCAK256 PUSH1 0x0 DUP3 DUP3 SLOAD PUSH2 0x142E SWAP2 SWAP1 PUSH2 0x28B4 JUMP JUMPDEST SWAP3 POP POP DUP2 SWAP1 SSTORE POP DUP4 PUSH20 0xFFFFFFFFFFFFFFFFFFFFFFFFFFFFFFFFFFFFFFFF AND CALLER PUSH20 0xFFFFFFFFFFFFFFFFFFFFFFFFFFFFFFFFFFFFFFFF AND PUSH32 0xDDF252AD1BE2C89B69C2B068FC378DAA952BA7F163C4A11628F55A4DF523B3EF DUP6 PUSH1 0x40 MLOAD PUSH2 0x1492 SWAP2 SWAP1 PUSH2 0x2846 JUMP JUMPDEST PUSH1 0x40 MLOAD DUP1 SWAP2 SUB SWAP1 LOG3 PUSH1 0x1 SWAP2 POP POP SWAP3 SWAP2 POP POP JUMP JUMPDEST PUSH1 0x0 PUSH2 0x14AF PUSH2 0x11AB JUMP JUMPDEST PUSH20 0xFFFFFFFFFFFFFFFFFFFFFFFFFFFFFFFFFFFFFFFF AND CALLER PUSH20 0xFFFFFFFFFFFFFFFFFFFFFFFFFFFFFFFFFFFFFFFF AND EQ PUSH2 0x151C JUMPI PUSH1 0x40 MLOAD PUSH32 0x8C379A000000000000000000000000000000000000000000000000000000000 DUP2 MSTORE PUSH1 0x4 ADD PUSH2 0x1513 SWAP1 PUSH2 0x27A6 JUMP JUMPDEST PUSH1 0x40 MLOAD DUP1 SWAP2 SUB SWAP1 REVERT JUMPDEST PUSH1 0x0 PUSH20 0xFFFFFFFFFFFFFFFFFFFFFFFFFFFFFFFFFFFFFFFF AND DUP3 PUSH20 0xFFFFFFFFFFFFFFFFFFFFFFFFFFFFFFFFFFFFFFFF AND EQ ISZERO PUSH2 0x158C JUMPI PUSH1 0x40 MLOAD PUSH32 0x8C379A000000000000000000000000000000000000000000000000000000000 DUP2 MSTORE PUSH1 0x4 ADD PUSH2 0x1583 SWAP1 PUSH2 0x2746 JUMP JUMPDEST PUSH1 0x40 MLOAD DUP1 SWAP2 SUB SWAP1 REVERT JUMPDEST PUSH2 0x1594 PUSH2 0x11AB JUMP JUMPDEST PUSH1 0x4 PUSH1 0x0 PUSH2 0x100 EXP DUP2 SLOAD DUP2 PUSH20 0xFFFFFFFFFFFFFFFFFFFFFFFFFFFFFFFFFFFFFFFF MUL NOT AND SWAP1 DUP4 PUSH20 0xFFFFFFFFFFFFFFFFFFFFFFFFFFFFFFFFFFFFFFFF AND MUL OR SWAP1 SSTORE POP DUP2 PUSH1 0x5 PUSH1 0x0 PUSH2 0x100 EXP DUP2 SLOAD DUP2 PUSH20 0xFFFFFFFFFFFFFFFFFFFFFFFFFFFFFFFFFFFFFFFF MUL NOT AND SWAP1 DUP4 PUSH20 0xFFFFFFFFFFFFFFFFFFFFFFFFFFFFFFFFFFFFFFFF AND MUL OR SWAP1 SSTORE POP PUSH3 0x2A300 TIMESTAMP PUSH2 0x1624 SWAP2 SWAP1 PUSH2 0x28B4 JUMP JUMPDEST PUSH1 0x6 DUP2 SWAP1 SSTORE POP PUSH1 0x6 SLOAD PUSH1 0x5 PUSH1 0x0 SWAP1 SLOAD SWAP1 PUSH2 0x100 EXP SWAP1 DIV PUSH20 0xFFFFFFFFFFFFFFFFFFFFFFFFFFFFFFFFFFFFFFFF AND PUSH20 0xFFFFFFFFFFFFFFFFFFFFFFFFFFFFFFFFFFFFFFFF AND PUSH1 0x4 PUSH1 0x0 SWAP1 SLOAD SWAP1 PUSH2 0x100 EXP SWAP1 DIV PUSH20 0xFFFFFFFFFFFFFFFFFFFFFFFFFFFFFFFFFFFFFFFF AND PUSH20 0xFFFFFFFFFFFFFFFFFFFFFFFFFFFFFFFFFFFFFFFF AND PUSH32 0xE1968D4263A733E2597EF67EA6AD267343BBA5F8BF0F99D85190E06B05D824D9 PUSH1 0x40 MLOAD PUSH1 0x40 MLOAD DUP1 SWAP2 SUB SWAP1 LOG4 PUSH1 0x1 SWAP1 POP SWAP2 SWAP1 POP JUMP JUMPDEST PUSH1 0x0 DUP4 PUSH1 0x8 PUSH1 0x0 CALLER PUSH20 0xFFFFFFFFFFFFFFFFFFFFFFFFFFFFFFFFFFFFFFFF AND PUSH20 0xFFFFFFFFFFFFFFFFFFFFFFFFFFFFFFFFFFFFFFFF AND DUP2 MSTORE PUSH1 0x20 ADD SWAP1 DUP2 MSTORE PUSH1 0x20 ADD PUSH1 0x0 KECCAK256 PUSH1 0x0 DUP8 PUSH20 0xFFFFFFFFFFFFFFFFFFFFFFFFFFFFFFFFFFFFFFFF AND PUSH20 0xFFFFFFFFFFFFFFFFFFFFFFFFFFFFFFFFFFFFFFFF AND DUP2 MSTORE PUSH1 0x20 ADD SWAP1 DUP2 MSTORE PUSH1 0x20 ADD PUSH1 0x0 KECCAK256 DUP2 SWAP1 SSTORE POP DUP5 PUSH20 0xFFFFFFFFFFFFFFFFFFFFFFFFFFFFFFFFFFFFFFFF AND CALLER PUSH20 0xFFFFFFFFFFFFFFFFFFFFFFFFFFFFFFFFFFFFFFFF AND PUSH32 0x8C5BE1E5EBEC7D5BD14F71427D1E84F3DD0314C0F7B2291E5B200AC8C7C3B925 DUP7 PUSH1 0x40 MLOAD PUSH2 0x17B4 SWAP2 SWAP1 PUSH2 0x2846 JUMP JUMPDEST PUSH1 0x40 MLOAD DUP1 SWAP2 SUB SWAP1 LOG3 DUP5 PUSH20 0xFFFFFFFFFFFFFFFFFFFFFFFFFFFFFFFFFFFFFFFF AND PUSH3 0xBA451F CALLER DUP7 DUP7 DUP7 PUSH1 0x40 MLOAD DUP6 PUSH4 0xFFFFFFFF AND PUSH1 0xE0 SHL DUP2 MSTORE PUSH1 0x4 ADD PUSH2 0x17FA SWAP5 SWAP4 SWAP3 SWAP2 SWAP1 PUSH2 0x2608 JUMP JUMPDEST PUSH1 0x20 PUSH1 0x40 MLOAD DUP1 DUP4 SUB DUP2 PUSH1 0x0 DUP8 DUP1 EXTCODESIZE ISZERO DUP1 ISZERO PUSH2 0x1814 JUMPI PUSH1 0x0 DUP1 REVERT JUMPDEST POP GAS CALL ISZERO DUP1 ISZERO PUSH2 0x1828 JUMPI RETURNDATASIZE PUSH1 0x0 DUP1 RETURNDATACOPY RETURNDATASIZE PUSH1 0x0 REVERT JUMPDEST POP POP POP POP PUSH1 0x40 MLOAD RETURNDATASIZE PUSH1 0x1F NOT PUSH1 0x1F DUP3 ADD AND DUP3 ADD DUP1 PUSH1 0x40 MSTORE POP DUP2 ADD SWAP1 PUSH2 0x184C SWAP2 SWAP1 PUSH2 0x22B6 JUMP JUMPDEST SWAP1 POP SWAP5 SWAP4 POP POP POP POP JUMP JUMPDEST DUP4 TIMESTAMP GT ISZERO PUSH2 0x1899 JUMPI PUSH1 0x40 MLOAD PUSH32 0x8C379A000000000000000000000000000000000000000000000000000000000 DUP2 MSTORE PUSH1 0x4 ADD PUSH2 0x1890 SWAP1 PUSH2 0x2766 JUMP JUMPDEST PUSH1 0x40 MLOAD DUP1 SWAP2 SUB SWAP1 REVERT JUMPDEST PUSH1 0x0 PUSH32 0x6E71EDAE12B1B97F4D1F60370FEF10105FA2FAAE0126114A169C64845D6126C9 DUP9 DUP9 DUP9 PUSH1 0x7 PUSH1 0x0 DUP14 PUSH20 0xFFFFFFFFFFFFFFFFFFFFFFFFFFFFFFFFFFFFFFFF AND PUSH20 0xFFFFFFFFFFFFFFFFFFFFFFFFFFFFFFFFFFFFFFFF AND DUP2 MSTORE PUSH1 0x20 ADD SWAP1 DUP2 MSTORE PUSH1 0x20 ADD PUSH1 0x0 KECCAK256 PUSH1 0x0 DUP2 SLOAD DUP1 SWAP3 SWAP2 SWAP1 PUSH2 0x190F SWAP1 PUSH2 0x2A11 JUMP JUMPDEST SWAP2 SWAP1 POP SSTORE DUP10 PUSH1 0x40 MLOAD PUSH1 0x20 ADD PUSH2 0x1929 SWAP7 SWAP6 SWAP5 SWAP4 SWAP3 SWAP2 SWAP1 PUSH2 0x267E JUMP JUMPDEST PUSH1 0x40 MLOAD PUSH1 0x20 DUP2 DUP4 SUB SUB DUP2 MSTORE SWAP1 PUSH1 0x40 MSTORE DUP1 MLOAD SWAP1 PUSH1 0x20 ADD KECCAK256 SWAP1 POP PUSH2 0x194E DUP9 DUP3 DUP7 DUP7 DUP7 PUSH2 0x1B5B JUMP JUMPDEST DUP1 PUSH2 0x1962 JUMPI POP PUSH2 0x1961 DUP9 DUP3 DUP7 DUP7 DUP7 PUSH2 0x1C71 JUMP JUMPDEST JUMPDEST PUSH2 0x196B JUMPI PUSH1 0x0 DUP1 REVERT JUMPDEST DUP6 PUSH1 0x8 PUSH1 0x0 DUP11 PUSH20 0xFFFFFFFFFFFFFFFFFFFFFFFFFFFFFFFFFFFFFFFF AND PUSH20 0xFFFFFFFFFFFFFFFFFFFFFFFFFFFFFFFFFFFFFFFF AND DUP2 MSTORE PUSH1 0x20 ADD SWAP1 DUP2 MSTORE PUSH1 0x20 ADD PUSH1 0x0 KECCAK256 PUSH1 0x0 DUP10 PUSH20 0xFFFFFFFFFFFFFFFFFFFFFFFFFFFFFFFFFFFFFFFF AND PUSH20 0xFFFFFFFFFFFFFFFFFFFFFFFFFFFFFFFFFFFFFFFF AND DUP2 MSTORE PUSH1 0x20 ADD SWAP1 DUP2 MSTORE PUSH1 0x20 ADD PUSH1 0x0 KECCAK256 DUP2 SWAP1 SSTORE POP DUP7 PUSH20 0xFFFFFFFFFFFFFFFFFFFFFFFFFFFFFFFFFFFFFFFF AND DUP9 PUSH20 0xFFFFFFFFFFFFFFFFFFFFFFFFFFFFFFFFFFFFFFFF AND PUSH32 0x8C5BE1E5EBEC7D5BD14F71427D1E84F3DD0314C0F7B2291E5B200AC8C7C3B925 DUP9 PUSH1 0x40 MLOAD PUSH2 0x1A49 SWAP2 SWAP1 PUSH2 0x2846 JUMP JUMPDEST PUSH1 0x40 MLOAD DUP1 SWAP2 SUB SWAP1 LOG3 POP POP POP POP POP POP POP POP JUMP JUMPDEST PUSH1 0x8 PUSH1 0x20 MSTORE DUP2 PUSH1 0x0 MSTORE PUSH1 0x40 PUSH1 0x0 KECCAK256 PUSH1 0x20 MSTORE DUP1 PUSH1 0x0 MSTORE PUSH1 0x40 PUSH1 0x0 KECCAK256 PUSH1 0x0 SWAP2 POP SWAP2 POP POP SLOAD DUP2 JUMP JUMPDEST PUSH1 0x0 PUSH2 0x1A8A PUSH2 0x11AB JUMP JUMPDEST PUSH20 0xFFFFFFFFFFFFFFFFFFFFFFFFFFFFFFFFFFFFFFFF AND CALLER PUSH20 0xFFFFFFFFFFFFFFFFFFFFFFFFFFFFFFFFFFFFFFFF AND EQ PUSH2 0x1AF7 JUMPI PUSH1 0x40 MLOAD PUSH32 0x8C379A000000000000000000000000000000000000000000000000000000000 DUP2 MSTORE PUSH1 0x4 ADD PUSH2 0x1AEE SWAP1 PUSH2 0x27A6 JUMP JUMPDEST PUSH1 0x40 MLOAD DUP1 SWAP2 SUB SWAP1 REVERT JUMPDEST PUSH2 0x1B01 DUP4 DUP4 PUSH2 0x1E90 JUMP JUMPDEST DUP3 PUSH20 0xFFFFFFFFFFFFFFFFFFFFFFFFFFFFFFFFFFFFFFFF AND DUP5 PUSH32 0x5D0634FE981BE85C22E2942A880821B70095D84E152C3EA3C17A4E4250D9D61 DUP5 PUSH1 0x40 MLOAD PUSH2 0x1B48 SWAP2 SWAP1 PUSH2 0x2846 JUMP JUMPDEST PUSH1 0x40 MLOAD DUP1 SWAP2 SUB SWAP1 LOG3 PUSH1 0x1 SWAP1 POP SWAP4 SWAP3 POP POP POP JUMP JUMPDEST PUSH1 0x0 DUP1 PUSH32 0x0 DUP7 PUSH1 0x40 MLOAD PUSH1 0x20 ADD PUSH2 0x1B91 SWAP3 SWAP2 SWAP1 PUSH2 0x25B6 JUMP JUMPDEST PUSH1 0x40 MLOAD PUSH1 0x20 DUP2 DUP4 SUB SUB DUP2 MSTORE SWAP1 PUSH1 0x40 MSTORE DUP1 MLOAD SWAP1 PUSH1 0x20 ADD KECCAK256 SWAP1 POP PUSH1 0x0 PUSH1 0x1 DUP3 DUP8 DUP8 DUP8 PUSH1 0x40 MLOAD PUSH1 0x0 DUP2 MSTORE PUSH1 0x20 ADD PUSH1 0x40 MSTORE PUSH1 0x40 MLOAD PUSH2 0x1BCE SWAP5 SWAP4 SWAP3 SWAP2 SWAP1 PUSH2 0x26DF JUMP JUMPDEST PUSH1 0x20 PUSH1 0x40 MLOAD PUSH1 0x20 DUP2 SUB SWAP1 DUP1 DUP5 SUB SWAP1 DUP6 GAS STATICCALL ISZERO DUP1 ISZERO PUSH2 0x1BF0 JUMPI RETURNDATASIZE PUSH1 0x0 DUP1 RETURNDATACOPY RETURNDATASIZE PUSH1 0x0 REVERT JUMPDEST POP POP POP PUSH1 0x20 PUSH1 0x40 MLOAD SUB MLOAD SWAP1 POP PUSH1 0x0 PUSH20 0xFFFFFFFFFFFFFFFFFFFFFFFFFFFFFFFFFFFFFFFF AND DUP2 PUSH20 0xFFFFFFFFFFFFFFFFFFFFFFFFFFFFFFFFFFFFFFFF AND EQ ISZERO DUP1 ISZERO PUSH2 0x1C64 JUMPI POP DUP8 PUSH20 0xFFFFFFFFFFFFFFFFFFFFFFFFFFFFFFFFFFFFFFFF AND DUP2 PUSH20 0xFFFFFFFFFFFFFFFFFFFFFFFFFFFFFFFFFFFFFFFF AND EQ JUMPDEST SWAP3 POP POP POP SWAP6 SWAP5 POP POP POP POP POP JUMP JUMPDEST PUSH1 0x0 DUP1 PUSH2 0x1C7D DUP7 PUSH2 0x1FD9 JUMP JUMPDEST SWAP1 POP PUSH1 0x0 PUSH1 0x1 DUP3 DUP8 DUP8 DUP8 PUSH1 0x40 MLOAD PUSH1 0x0 DUP2 MSTORE PUSH1 0x20 ADD PUSH1 0x40 MSTORE PUSH1 0x40 MLOAD PUSH2 0x1CA4 SWAP5 SWAP4 SWAP3 SWAP2 SWAP1 PUSH2 0x26DF JUMP JUMPDEST PUSH1 0x20 PUSH1 0x40 MLOAD PUSH1 0x20 DUP2 SUB SWAP1 DUP1 DUP5 SUB SWAP1 DUP6 GAS STATICCALL ISZERO DUP1 ISZERO PUSH2 0x1CC6 JUMPI RETURNDATASIZE PUSH1 0x0 DUP1 RETURNDATACOPY RETURNDATASIZE PUSH1 0x0 REVERT JUMPDEST POP POP POP PUSH1 0x20 PUSH1 0x40 MLOAD SUB MLOAD SWAP1 POP PUSH1 0x0 PUSH20 0xFFFFFFFFFFFFFFFFFFFFFFFFFFFFFFFFFFFFFFFF AND DUP2 PUSH20 0xFFFFFFFFFFFFFFFFFFFFFFFFFFFFFFFFFFFFFFFF AND EQ ISZERO DUP1 ISZERO PUSH2 0x1D3A JUMPI POP DUP8 PUSH20 0xFFFFFFFFFFFFFFFFFFFFFFFFFFFFFFFFFFFFFFFF AND DUP2 PUSH20 0xFFFFFFFFFFFFFFFFFFFFFFFFFFFFFFFFFFFFFFFF AND EQ JUMPDEST SWAP3 POP POP POP SWAP6 SWAP5 POP POP POP POP POP JUMP JUMPDEST PUSH1 0x0 PUSH20 0xFFFFFFFFFFFFFFFFFFFFFFFFFFFFFFFFFFFFFFFF AND DUP3 PUSH20 0xFFFFFFFFFFFFFFFFFFFFFFFFFFFFFFFFFFFFFFFF AND EQ ISZERO PUSH2 0x1DB7 JUMPI PUSH1 0x40 MLOAD PUSH32 0x8C379A000000000000000000000000000000000000000000000000000000000 DUP2 MSTORE PUSH1 0x4 ADD PUSH2 0x1DAE SWAP1 PUSH2 0x27C6 JUMP JUMPDEST PUSH1 0x40 MLOAD DUP1 SWAP2 SUB SWAP1 REVERT JUMPDEST DUP1 PUSH1 0x2 PUSH1 0x0 DUP5 PUSH20 0xFFFFFFFFFFFFFFFFFFFFFFFFFFFFFFFFFFFFFFFF AND PUSH20 0xFFFFFFFFFFFFFFFFFFFFFFFFFFFFFFFFFFFFFFFF AND DUP2 MSTORE PUSH1 0x20 ADD SWAP1 DUP2 MSTORE PUSH1 0x20 ADD PUSH1 0x0 KECCAK256 PUSH1 0x0 DUP3 DUP3 SLOAD PUSH2 0x1E06 SWAP2 SWAP1 PUSH2 0x290A JUMP JUMPDEST SWAP3 POP POP DUP2 SWAP1 SSTORE POP DUP1 PUSH1 0x3 PUSH1 0x0 DUP3 DUP3 SLOAD PUSH2 0x1E1F SWAP2 SWAP1 PUSH2 0x290A JUMP JUMPDEST SWAP3 POP POP DUP2 SWAP1 SSTORE POP PUSH1 0x0 PUSH20 0xFFFFFFFFFFFFFFFFFFFFFFFFFFFFFFFFFFFFFFFF AND DUP3 PUSH20 0xFFFFFFFFFFFFFFFFFFFFFFFFFFFFFFFFFFFFFFFF AND PUSH32 0xDDF252AD1BE2C89B69C2B068FC378DAA952BA7F163C4A11628F55A4DF523B3EF DUP4 PUSH1 0x40 MLOAD PUSH2 0x1E84 SWAP2 SWAP1 PUSH2 0x2846 JUMP JUMPDEST PUSH1 0x40 MLOAD DUP1 SWAP2 SUB SWAP1 LOG3 POP POP JUMP JUMPDEST PUSH1 0x0 PUSH20 0xFFFFFFFFFFFFFFFFFFFFFFFFFFFFFFFFFFFFFFFF AND DUP3 PUSH20 0xFFFFFFFFFFFFFFFFFFFFFFFFFFFFFFFFFFFFFFFF AND EQ ISZERO PUSH2 0x1F00 JUMPI PUSH1 0x40 MLOAD PUSH32 0x8C379A000000000000000000000000000000000000000000000000000000000 DUP2 MSTORE PUSH1 0x4 ADD PUSH2 0x1EF7 SWAP1 PUSH2 0x2806 JUMP JUMPDEST PUSH1 0x40 MLOAD DUP1 SWAP2 SUB SWAP1 REVERT JUMPDEST DUP1 PUSH1 0x3 PUSH1 0x0 DUP3 DUP3 SLOAD PUSH2 0x1F12 SWAP2 SWAP1 PUSH2 0x28B4 JUMP JUMPDEST SWAP3 POP POP DUP2 SWAP1 SSTORE POP DUP1 PUSH1 0x2 PUSH1 0x0 DUP5 PUSH20 0xFFFFFFFFFFFFFFFFFFFFFFFFFFFFFFFFFFFFFFFF AND PUSH20 0xFFFFFFFFFFFFFFFFFFFFFFFFFFFFFFFFFFFFFFFF AND DUP2 MSTORE PUSH1 0x20 ADD SWAP1 DUP2 MSTORE PUSH1 0x20 ADD PUSH1 0x0 KECCAK256 PUSH1 0x0 DUP3 DUP3 SLOAD PUSH2 0x1F68 SWAP2 SWAP1 PUSH2 0x28B4 JUMP JUMPDEST SWAP3 POP POP DUP2 SWAP1 SSTORE POP DUP2 PUSH20 0xFFFFFFFFFFFFFFFFFFFFFFFFFFFFFFFFFFFFFFFF AND PUSH1 0x0 PUSH20 0xFFFFFFFFFFFFFFFFFFFFFFFFFFFFFFFFFFFFFFFF AND PUSH32 0xDDF252AD1BE2C89B69C2B068FC378DAA952BA7F163C4A11628F55A4DF523B3EF DUP4 PUSH1 0x40 MLOAD PUSH2 0x1FCD SWAP2 SWAP1 PUSH2 0x2846 JUMP JUMPDEST PUSH1 0x40 MLOAD DUP1 SWAP2 SUB SWAP1 LOG3 POP POP JUMP JUMPDEST PUSH1 0x0 DUP2 PUSH1 0x40 MLOAD PUSH1 0x20 ADD PUSH2 0x1FEC SWAP2 SWAP1 PUSH2 0x2590 JUMP JUMPDEST PUSH1 0x40 MLOAD PUSH1 0x20 DUP2 DUP4 SUB SUB DUP2 MSTORE SWAP1 PUSH1 0x40 MSTORE DUP1 MLOAD SWAP1 PUSH1 0x20 ADD KECCAK256 SWAP1 POP SWAP2 SWAP1 POP JUMP JUMPDEST PUSH1 0x0 DUP2 CALLDATALOAD SWAP1 POP PUSH2 0x2018 DUP2 PUSH2 0x2CDF JUMP JUMPDEST SWAP3 SWAP2 POP POP JUMP JUMPDEST PUSH1 0x0 DUP2 MLOAD SWAP1 POP PUSH2 0x202D DUP2 PUSH2 0x2CF6 JUMP JUMPDEST SWAP3 SWAP2 POP POP JUMP JUMPDEST PUSH1 0x0 DUP2 CALLDATALOAD SWAP1 POP PUSH2 0x2042 DUP2 PUSH2 0x2D0D JUMP JUMPDEST SWAP3 SWAP2 POP POP JUMP JUMPDEST PUSH1 0x0 DUP1 DUP4 PUSH1 0x1F DUP5 ADD SLT PUSH2 0x205A JUMPI PUSH1 0x0 DUP1 REVERT JUMPDEST DUP3 CALLDATALOAD SWAP1 POP PUSH8 0xFFFFFFFFFFFFFFFF DUP2 GT ISZERO PUSH2 0x2073 JUMPI PUSH1 0x0 DUP1 REVERT JUMPDEST PUSH1 0x20 DUP4 ADD SWAP2 POP DUP4 PUSH1 0x1 DUP3 MUL DUP4 ADD GT ISZERO PUSH2 0x208B JUMPI PUSH1 0x0 DUP1 REVERT JUMPDEST SWAP3 POP SWAP3 SWAP1 POP JUMP JUMPDEST PUSH1 0x0 DUP2 CALLDATALOAD SWAP1 POP PUSH2 0x20A1 DUP2 PUSH2 0x2D24 JUMP JUMPDEST SWAP3 SWAP2 POP POP JUMP JUMPDEST PUSH1 0x0 DUP2 CALLDATALOAD SWAP1 POP PUSH2 0x20B6 DUP2 PUSH2 0x2D3B JUMP JUMPDEST SWAP3 SWAP2 POP POP JUMP JUMPDEST PUSH1 0x0 PUSH1 0x20 DUP3 DUP5 SUB SLT ISZERO PUSH2 0x20CE JUMPI PUSH1 0x0 DUP1 REVERT JUMPDEST PUSH1 0x0 PUSH2 0x20DC DUP5 DUP3 DUP6 ADD PUSH2 0x2009 JUMP JUMPDEST SWAP2 POP POP SWAP3 SWAP2 POP POP JUMP JUMPDEST PUSH1 0x0 DUP1 PUSH1 0x40 DUP4 DUP6 SUB SLT ISZERO PUSH2 0x20F8 JUMPI PUSH1 0x0 DUP1 REVERT JUMPDEST PUSH1 0x0 PUSH2 0x2106 DUP6 DUP3 DUP7 ADD PUSH2 0x2009 JUMP JUMPDEST SWAP3 POP POP PUSH1 0x20 PUSH2 0x2117 DUP6 DUP3 DUP7 ADD PUSH2 0x2009 JUMP JUMPDEST SWAP2 POP POP SWAP3 POP SWAP3 SWAP1 POP JUMP JUMPDEST PUSH1 0x0 DUP1 PUSH1 0x0 PUSH1 0x60 DUP5 DUP7 SUB SLT ISZERO PUSH2 0x2136 JUMPI PUSH1 0x0 DUP1 REVERT JUMPDEST PUSH1 0x0 PUSH2 0x2144 DUP7 DUP3 DUP8 ADD PUSH2 0x2009 JUMP JUMPDEST SWAP4 POP POP PUSH1 0x20 PUSH2 0x2155 DUP7 DUP3 DUP8 ADD PUSH2 0x2009 JUMP JUMPDEST SWAP3 POP POP PUSH1 0x40 PUSH2 0x2166 DUP7 DUP3 DUP8 ADD PUSH2 0x2092 JUMP JUMPDEST SWAP2 POP POP SWAP3 POP SWAP3 POP SWAP3 JUMP JUMPDEST PUSH1 0x0 DUP1 PUSH1 0x0 DUP1 PUSH1 0x0 DUP1 PUSH1 0x0 PUSH1 0xE0 DUP9 DUP11 SUB SLT ISZERO PUSH2 0x218B JUMPI PUSH1 0x0 DUP1 REVERT JUMPDEST PUSH1 0x0 PUSH2 0x2199 DUP11 DUP3 DUP12 ADD PUSH2 0x2009 JUMP JUMPDEST SWAP8 POP POP PUSH1 0x20 PUSH2 0x21AA DUP11 DUP3 DUP12 ADD PUSH2 0x2009 JUMP JUMPDEST SWAP7 POP POP PUSH1 0x40 PUSH2 0x21BB DUP11 DUP3 DUP12 ADD PUSH2 0x2092 JUMP JUMPDEST SWAP6 POP POP PUSH1 0x60 PUSH2 0x21CC DUP11 DUP3 DUP12 ADD PUSH2 0x2092 JUMP JUMPDEST SWAP5 POP POP PUSH1 0x80 PUSH2 0x21DD DUP11 DUP3 DUP12 ADD PUSH2 0x20A7 JUMP JUMPDEST SWAP4 POP POP PUSH1 0xA0 PUSH2 0x21EE DUP11 DUP3 DUP12 ADD PUSH2 0x2033 JUMP JUMPDEST SWAP3 POP POP PUSH1 0xC0 PUSH2 0x21FF DUP11 DUP3 DUP12 ADD PUSH2 0x2033 JUMP JUMPDEST SWAP2 POP POP SWAP3 SWAP6 SWAP9 SWAP2 SWAP5 SWAP8 POP SWAP3 SWAP6 POP JUMP JUMPDEST PUSH1 0x0 DUP1 PUSH1 0x40 DUP4 DUP6 SUB SLT ISZERO PUSH2 0x2221 JUMPI PUSH1 0x0 DUP1 REVERT JUMPDEST PUSH1 0x0 PUSH2 0x222F DUP6 DUP3 DUP7 ADD PUSH2 0x2009 JUMP JUMPDEST SWAP3 POP POP PUSH1 0x20 PUSH2 0x2240 DUP6 DUP3 DUP7 ADD PUSH2 0x2092 JUMP JUMPDEST SWAP2 POP POP SWAP3 POP SWAP3 SWAP1 POP JUMP JUMPDEST PUSH1 0x0 DUP1 PUSH1 0x0 DUP1 PUSH1 0x60 DUP6 DUP8 SUB SLT ISZERO PUSH2 0x2260 JUMPI PUSH1 0x0 DUP1 REVERT JUMPDEST PUSH1 0x0 PUSH2 0x226E DUP8 DUP3 DUP9 ADD PUSH2 0x2009 JUMP JUMPDEST SWAP5 POP POP PUSH1 0x20 PUSH2 0x227F DUP8 DUP3 DUP9 ADD PUSH2 0x2092 JUMP JUMPDEST SWAP4 POP POP PUSH1 0x40 DUP6 ADD CALLDATALOAD PUSH8 0xFFFFFFFFFFFFFFFF DUP2 GT ISZERO PUSH2 0x229C JUMPI PUSH1 0x0 DUP1 REVERT JUMPDEST PUSH2 0x22A8 DUP8 DUP3 DUP9 ADD PUSH2 0x2048 JUMP JUMPDEST SWAP3 POP SWAP3 POP POP SWAP3 SWAP6 SWAP2 SWAP5 POP SWAP3 POP JUMP JUMPDEST PUSH1 0x0 PUSH1 0x20 DUP3 DUP5 SUB SLT ISZERO PUSH2 0x22C8 JUMPI PUSH1 0x0 DUP1 REVERT JUMPDEST PUSH1 0x0 PUSH2 0x22D6 DUP5 DUP3 DUP6 ADD PUSH2 0x201E JUMP JUMPDEST SWAP2 POP POP SWAP3 SWAP2 POP POP JUMP JUMPDEST PUSH1 0x0 DUP1 PUSH1 0x0 PUSH1 0x60 DUP5 DUP7 SUB SLT ISZERO PUSH2 0x22F4 JUMPI PUSH1 0x0 DUP1 REVERT JUMPDEST PUSH1 0x0 PUSH2 0x2302 DUP7 DUP3 DUP8 ADD PUSH2 0x2033 JUMP JUMPDEST SWAP4 POP POP PUSH1 0x20 PUSH2 0x2313 DUP7 DUP3 DUP8 ADD PUSH2 0x2009 JUMP JUMPDEST SWAP3 POP POP PUSH1 0x40 PUSH2 0x2324 DUP7 DUP3 DUP8 ADD PUSH2 0x2092 JUMP JUMPDEST SWAP2 POP POP SWAP3 POP SWAP3 POP SWAP3 JUMP JUMPDEST PUSH1 0x0 DUP1 PUSH1 0x40 DUP4 DUP6 SUB SLT ISZERO PUSH2 0x2341 JUMPI PUSH1 0x0 DUP1 REVERT JUMPDEST PUSH1 0x0 PUSH2 0x234F DUP6 DUP3 DUP7 ADD PUSH2 0x2092 JUMP JUMPDEST SWAP3 POP POP PUSH1 0x20 PUSH2 0x2360 DUP6 DUP3 DUP7 ADD PUSH2 0x2009 JUMP JUMPDEST SWAP2 POP POP SWAP3 POP SWAP3 SWAP1 POP JUMP JUMPDEST PUSH2 0x2373 DUP2 PUSH2 0x293E JUMP JUMPDEST DUP3 MSTORE POP POP JUMP JUMPDEST PUSH2 0x2382 DUP2 PUSH2 0x2950 JUMP JUMPDEST DUP3 MSTORE POP POP JUMP JUMPDEST PUSH2 0x2391 DUP2 PUSH2 0x295C JUMP JUMPDEST DUP3 MSTORE POP POP JUMP JUMPDEST PUSH2 0x23A8 PUSH2 0x23A3 DUP3 PUSH2 0x295C JUMP JUMPDEST PUSH2 0x2A5A JUMP JUMPDEST DUP3 MSTORE POP POP JUMP JUMPDEST PUSH1 0x0 PUSH2 0x23BA DUP4 DUP6 PUSH2 0x2887 JUMP JUMPDEST SWAP4 POP PUSH2 0x23C7 DUP4 DUP6 DUP5 PUSH2 0x299D JUMP JUMPDEST PUSH2 0x23D0 DUP4 PUSH2 0x2AC2 JUMP JUMPDEST DUP5 ADD SWAP1 POP SWAP4 SWAP3 POP POP POP JUMP JUMPDEST PUSH1 0x0 PUSH2 0x23E6 DUP3 PUSH2 0x287C JUMP JUMPDEST PUSH2 0x23F0 DUP2 DUP6 PUSH2 0x2898 JUMP JUMPDEST SWAP4 POP PUSH2 0x2400 DUP2 DUP6 PUSH1 0x20 DUP7 ADD PUSH2 0x29AC JUMP JUMPDEST PUSH2 0x2409 DUP2 PUSH2 0x2AC2 JUMP JUMPDEST DUP5 ADD SWAP2 POP POP SWAP3 SWAP2 POP POP JUMP JUMPDEST PUSH1 0x0 PUSH2 0x2421 PUSH1 0x1C DUP4 PUSH2 0x28A9 JUMP JUMPDEST SWAP2 POP PUSH2 0x242C DUP3 PUSH2 0x2AD3 JUMP JUMPDEST PUSH1 0x1C DUP3 ADD SWAP1 POP SWAP2 SWAP1 POP JUMP JUMPDEST PUSH1 0x0 PUSH2 0x2444 PUSH1 0x2 DUP4 PUSH2 0x28A9 JUMP JUMPDEST SWAP2 POP PUSH2 0x244F DUP3 PUSH2 0x2AFC JUMP JUMPDEST PUSH1 0x2 DUP3 ADD SWAP1 POP SWAP2 SWAP1 POP JUMP JUMPDEST PUSH1 0x0 PUSH2 0x2467 PUSH1 0x1D DUP4 PUSH2 0x2898 JUMP JUMPDEST SWAP2 POP PUSH2 0x2472 DUP3 PUSH2 0x2B25 JUMP JUMPDEST PUSH1 0x20 DUP3 ADD SWAP1 POP SWAP2 SWAP1 POP JUMP JUMPDEST PUSH1 0x0 PUSH2 0x248A PUSH1 0x16 DUP4 PUSH2 0x2898 JUMP JUMPDEST SWAP2 POP PUSH2 0x2495 DUP3 PUSH2 0x2B4E JUMP JUMPDEST PUSH1 0x20 DUP3 ADD SWAP1 POP SWAP2 SWAP1 POP JUMP JUMPDEST PUSH1 0x0 PUSH2 0x24AD PUSH1 0x20 DUP4 PUSH2 0x2898 JUMP JUMPDEST SWAP2 POP PUSH2 0x24B8 DUP3 PUSH2 0x2B77 JUMP JUMPDEST PUSH1 0x20 DUP3 ADD SWAP1 POP SWAP2 SWAP1 POP JUMP JUMPDEST PUSH1 0x0 PUSH2 0x24D0 PUSH1 0xA DUP4 PUSH2 0x2898 JUMP JUMPDEST SWAP2 POP PUSH2 0x24DB DUP3 PUSH2 0x2BA0 JUMP JUMPDEST PUSH1 0x20 DUP3 ADD SWAP1 POP SWAP2 SWAP1 POP JUMP JUMPDEST PUSH1 0x0 PUSH2 0x24F3 PUSH1 0x21 DUP4 PUSH2 0x2898 JUMP JUMPDEST SWAP2 POP PUSH2 0x24FE DUP3 PUSH2 0x2BC9 JUMP JUMPDEST PUSH1 0x40 DUP3 ADD SWAP1 POP SWAP2 SWAP1 POP JUMP JUMPDEST PUSH1 0x0 PUSH2 0x2516 PUSH1 0x21 DUP4 PUSH2 0x2898 JUMP JUMPDEST SWAP2 POP PUSH2 0x2521 DUP3 PUSH2 0x2C18 JUMP JUMPDEST PUSH1 0x40 DUP3 ADD SWAP1 POP SWAP2 SWAP1 POP JUMP JUMPDEST PUSH1 0x0 PUSH2 0x2539 PUSH1 0x1F DUP4 PUSH2 0x2898 JUMP JUMPDEST SWAP2 POP PUSH2 0x2544 DUP3 PUSH2 0x2C67 JUMP JUMPDEST PUSH1 0x20 DUP3 ADD SWAP1 POP SWAP2 SWAP1 POP JUMP JUMPDEST PUSH1 0x0 PUSH2 0x255C PUSH1 0x27 DUP4 PUSH2 0x2898 JUMP JUMPDEST SWAP2 POP PUSH2 0x2567 DUP3 PUSH2 0x2C90 JUMP JUMPDEST PUSH1 0x40 DUP3 ADD SWAP1 POP SWAP2 SWAP1 POP JUMP JUMPDEST PUSH2 0x257B DUP2 PUSH2 0x2986 JUMP JUMPDEST DUP3 MSTORE POP POP JUMP JUMPDEST PUSH2 0x258A DUP2 PUSH2 0x2990 JUMP JUMPDEST DUP3 MSTORE POP POP JUMP JUMPDEST PUSH1 0x0 PUSH2 0x259B DUP3 PUSH2 0x2414 JUMP JUMPDEST SWAP2 POP PUSH2 0x25A7 DUP3 DUP5 PUSH2 0x2397 JUMP JUMPDEST PUSH1 0x20 DUP3 ADD SWAP2 POP DUP2 SWAP1 POP SWAP3 SWAP2 POP POP JUMP JUMPDEST PUSH1 0x0 PUSH2 0x25C1 DUP3 PUSH2 0x2437 JUMP JUMPDEST SWAP2 POP PUSH2 0x25CD DUP3 DUP6 PUSH2 0x2397 JUMP JUMPDEST PUSH1 0x20 DUP3 ADD SWAP2 POP PUSH2 0x25DD DUP3 DUP5 PUSH2 0x2397 JUMP JUMPDEST PUSH1 0x20 DUP3 ADD SWAP2 POP DUP2 SWAP1 POP SWAP4 SWAP3 POP POP POP JUMP JUMPDEST PUSH1 0x0 PUSH1 0x20 DUP3 ADD SWAP1 POP PUSH2 0x2602 PUSH1 0x0 DUP4 ADD DUP5 PUSH2 0x236A JUMP JUMPDEST SWAP3 SWAP2 POP POP JUMP JUMPDEST PUSH1 0x0 PUSH1 0x60 DUP3 ADD SWAP1 POP PUSH2 0x261D PUSH1 0x0 DUP4 ADD DUP8 PUSH2 0x236A JUMP JUMPDEST PUSH2 0x262A PUSH1 0x20 DUP4 ADD DUP7 PUSH2 0x2572 JUMP JUMPDEST DUP2 DUP2 SUB PUSH1 0x40 DUP4 ADD MSTORE PUSH2 0x263D DUP2 DUP5 DUP7 PUSH2 0x23AE JUMP JUMPDEST SWAP1 POP SWAP6 SWAP5 POP POP POP POP POP JUMP JUMPDEST PUSH1 0x0 PUSH1 0x20 DUP3 ADD SWAP1 POP PUSH2 0x265D PUSH1 0x0 DUP4 ADD DUP5 PUSH2 0x2379 JUMP JUMPDEST SWAP3 SWAP2 POP POP JUMP JUMPDEST PUSH1 0x0 PUSH1 0x20 DUP3 ADD SWAP1 POP PUSH2 0x2678 PUSH1 0x0 DUP4 ADD DUP5 PUSH2 0x2388 JUMP JUMPDEST SWAP3 SWAP2 POP POP JUMP JUMPDEST PUSH1 0x0 PUSH1 0xC0 DUP3 ADD SWAP1 POP PUSH2 0x2693 PUSH1 0x0 DUP4 ADD DUP10 PUSH2 0x2388 JUMP JUMPDEST PUSH2 0x26A0 PUSH1 0x20 DUP4 ADD DUP9 PUSH2 0x236A JUMP JUMPDEST PUSH2 0x26AD PUSH1 0x40 DUP4 ADD DUP8 PUSH2 0x236A JUMP JUMPDEST PUSH2 0x26BA PUSH1 0x60 DUP4 ADD DUP7 PUSH2 0x2572 JUMP JUMPDEST PUSH2 0x26C7 PUSH1 0x80 DUP4 ADD DUP6 PUSH2 0x2572 JUMP JUMPDEST PUSH2 0x26D4 PUSH1 0xA0 DUP4 ADD DUP5 PUSH2 0x2572 JUMP JUMPDEST SWAP8 SWAP7 POP POP POP POP POP POP POP JUMP JUMPDEST PUSH1 0x0 PUSH1 0x80 DUP3 ADD SWAP1 POP PUSH2 0x26F4 PUSH1 0x0 DUP4 ADD DUP8 PUSH2 0x2388 JUMP JUMPDEST PUSH2 0x2701 PUSH1 0x20 DUP4 ADD DUP7 PUSH2 0x2581 JUMP JUMPDEST PUSH2 0x270E PUSH1 0x40 DUP4 ADD DUP6 PUSH2 0x2388 JUMP JUMPDEST PUSH2 0x271B PUSH1 0x60 DUP4 ADD DUP5 PUSH2 0x2388 JUMP JUMPDEST SWAP6 SWAP5 POP POP POP POP POP JUMP JUMPDEST PUSH1 0x0 PUSH1 0x20 DUP3 ADD SWAP1 POP DUP2 DUP2 SUB PUSH1 0x0 DUP4 ADD MSTORE PUSH2 0x273E DUP2 DUP5 PUSH2 0x23DB JUMP JUMPDEST SWAP1 POP SWAP3 SWAP2 POP POP JUMP JUMPDEST PUSH1 0x0 PUSH1 0x20 DUP3 ADD SWAP1 POP DUP2 DUP2 SUB PUSH1 0x0 DUP4 ADD MSTORE PUSH2 0x275F DUP2 PUSH2 0x245A JUMP JUMPDEST SWAP1 POP SWAP2 SWAP1 POP JUMP JUMPDEST PUSH1 0x0 PUSH1 0x20 DUP3 ADD SWAP1 POP DUP2 DUP2 SUB PUSH1 0x0 DUP4 ADD MSTORE PUSH2 0x277F DUP2 PUSH2 0x247D JUMP JUMPDEST SWAP1 POP SWAP2 SWAP1 POP JUMP JUMPDEST PUSH1 0x0 PUSH1 0x20 DUP3 ADD SWAP1 POP DUP2 DUP2 SUB PUSH1 0x0 DUP4 ADD MSTORE PUSH2 0x279F DUP2 PUSH2 0x24A0 JUMP JUMPDEST SWAP1 POP SWAP2 SWAP1 POP JUMP JUMPDEST PUSH1 0x0 PUSH1 0x20 DUP3 ADD SWAP1 POP DUP2 DUP2 SUB PUSH1 0x0 DUP4 ADD MSTORE PUSH2 0x27BF DUP2 PUSH2 0x24C3 JUMP JUMPDEST SWAP1 POP SWAP2 SWAP1 POP JUMP JUMPDEST PUSH1 0x0 PUSH1 0x20 DUP3 ADD SWAP1 POP DUP2 DUP2 SUB PUSH1 0x0 DUP4 ADD MSTORE PUSH2 0x27DF DUP2 PUSH2 0x24E6 JUMP JUMPDEST SWAP1 POP SWAP2 SWAP1 POP JUMP JUMPDEST PUSH1 0x0 PUSH1 0x20 DUP3 ADD SWAP1 POP DUP2 DUP2 SUB PUSH1 0x0 DUP4 ADD MSTORE PUSH2 0x27FF DUP2 PUSH2 0x2509 JUMP JUMPDEST SWAP1 POP SWAP2 SWAP1 POP JUMP JUMPDEST PUSH1 0x0 PUSH1 0x20 DUP3 ADD SWAP1 POP DUP2 DUP2 SUB PUSH1 0x0 DUP4 ADD MSTORE PUSH2 0x281F DUP2 PUSH2 0x252C JUMP JUMPDEST SWAP1 POP SWAP2 SWAP1 POP JUMP JUMPDEST PUSH1 0x0 PUSH1 0x20 DUP3 ADD SWAP1 POP DUP2 DUP2 SUB PUSH1 0x0 DUP4 ADD MSTORE PUSH2 0x283F DUP2 PUSH2 0x254F JUMP JUMPDEST SWAP1 POP SWAP2 SWAP1 POP JUMP JUMPDEST PUSH1 0x0 PUSH1 0x20 DUP3 ADD SWAP1 POP PUSH2 0x285B PUSH1 0x0 DUP4 ADD DUP5 PUSH2 0x2572 JUMP JUMPDEST SWAP3 SWAP2 POP POP JUMP JUMPDEST PUSH1 0x0 PUSH1 0x20 DUP3 ADD SWAP1 POP PUSH2 0x2876 PUSH1 0x0 DUP4 ADD DUP5 PUSH2 0x2581 JUMP JUMPDEST SWAP3 SWAP2 POP POP JUMP JUMPDEST PUSH1 0x0 DUP2 MLOAD SWAP1 POP SWAP2 SWAP1 POP JUMP JUMPDEST PUSH1 0x0 DUP3 DUP3 MSTORE PUSH1 0x20 DUP3 ADD SWAP1 POP SWAP3 SWAP2 POP POP JUMP JUMPDEST PUSH1 0x0 DUP3 DUP3 MSTORE PUSH1 0x20 DUP3 ADD SWAP1 POP SWAP3 SWAP2 POP POP JUMP JUMPDEST PUSH1 0x0 DUP2 SWAP1 POP SWAP3 SWAP2 POP POP JUMP JUMPDEST PUSH1 0x0 PUSH2 0x28BF DUP3 PUSH2 0x2986 JUMP JUMPDEST SWAP2 POP PUSH2 0x28CA DUP4 PUSH2 0x2986 JUMP JUMPDEST SWAP3 POP DUP3 PUSH32 0xFFFFFFFFFFFFFFFFFFFFFFFFFFFFFFFFFFFFFFFFFFFFFFFFFFFFFFFFFFFFFFFF SUB DUP3 GT ISZERO PUSH2 0x28FF JUMPI PUSH2 0x28FE PUSH2 0x2A64 JUMP JUMPDEST JUMPDEST DUP3 DUP3 ADD SWAP1 POP SWAP3 SWAP2 POP POP JUMP JUMPDEST PUSH1 0x0 PUSH2 0x2915 DUP3 PUSH2 0x2986 JUMP JUMPDEST SWAP2 POP PUSH2 0x2920 DUP4 PUSH2 0x2986 JUMP JUMPDEST SWAP3 POP DUP3 DUP3 LT ISZERO PUSH2 0x2933 JUMPI PUSH2 0x2932 PUSH2 0x2A64 JUMP JUMPDEST JUMPDEST DUP3 DUP3 SUB SWAP1 POP SWAP3 SWAP2 POP POP JUMP JUMPDEST PUSH1 0x0 PUSH2 0x2949 DUP3 PUSH2 0x2966 JUMP JUMPDEST SWAP1 POP SWAP2 SWAP1 POP JUMP JUMPDEST PUSH1 0x0 DUP2 ISZERO ISZERO SWAP1 POP SWAP2 SWAP1 POP JUMP JUMPDEST PUSH1 0x0 DUP2 SWAP1 POP SWAP2 SWAP1 POP JUMP JUMPDEST PUSH1 0x0 PUSH20 0xFFFFFFFFFFFFFFFFFFFFFFFFFFFFFFFFFFFFFFFF DUP3 AND SWAP1 POP SWAP2 SWAP1 POP JUMP JUMPDEST PUSH1 0x0 DUP2 SWAP1 POP SWAP2 SWAP1 POP JUMP JUMPDEST PUSH1 0x0 PUSH1 0xFF DUP3 AND SWAP1 POP SWAP2 SWAP1 POP JUMP JUMPDEST DUP3 DUP2 DUP4 CALLDATACOPY PUSH1 0x0 DUP4 DUP4 ADD MSTORE POP POP POP JUMP JUMPDEST PUSH1 0x0 JUMPDEST DUP4 DUP2 LT ISZERO PUSH2 0x29CA JUMPI DUP1 DUP3 ADD MLOAD DUP2 DUP5 ADD MSTORE PUSH1 0x20 DUP2 ADD SWAP1 POP PUSH2 0x29AF JUMP JUMPDEST DUP4 DUP2 GT ISZERO PUSH2 0x29D9 JUMPI PUSH1 0x0 DUP5 DUP5 ADD MSTORE JUMPDEST POP POP POP POP JUMP JUMPDEST PUSH1 0x0 PUSH1 0x2 DUP3 DIV SWAP1 POP PUSH1 0x1 DUP3 AND DUP1 PUSH2 0x29F7 JUMPI PUSH1 0x7F DUP3 AND SWAP2 POP JUMPDEST PUSH1 0x20 DUP3 LT DUP2 EQ ISZERO PUSH2 0x2A0B JUMPI PUSH2 0x2A0A PUSH2 0x2A93 JUMP JUMPDEST JUMPDEST POP SWAP2 SWAP1 POP JUMP JUMPDEST PUSH1 0x0 PUSH2 0x2A1C DUP3 PUSH2 0x2986 JUMP JUMPDEST SWAP2 POP PUSH32 0xFFFFFFFFFFFFFFFFFFFFFFFFFFFFFFFFFFFFFFFFFFFFFFFFFFFFFFFFFFFFFFFF DUP3 EQ ISZERO PUSH2 0x2A4F JUMPI PUSH2 0x2A4E PUSH2 0x2A64 JUMP JUMPDEST JUMPDEST PUSH1 0x1 DUP3 ADD SWAP1 POP SWAP2 SWAP1 POP JUMP JUMPDEST PUSH1 0x0 DUP2 SWAP1 POP SWAP2 SWAP1 POP JUMP JUMPDEST PUSH32 0x4E487B7100000000000000000000000000000000000000000000000000000000 PUSH1 0x0 MSTORE PUSH1 0x11 PUSH1 0x4 MSTORE PUSH1 0x24 PUSH1 0x0 REVERT JUMPDEST PUSH32 0x4E487B7100000000000000000000000000000000000000000000000000000000 PUSH1 0x0 MSTORE PUSH1 0x22 PUSH1 0x4 MSTORE PUSH1 0x24 PUSH1 0x0 REVERT JUMPDEST PUSH1 0x0 PUSH1 0x1F NOT PUSH1 0x1F DUP4 ADD AND SWAP1 POP SWAP2 SWAP1 POP JUMP JUMPDEST PUSH32 0x19457468657265756D205369676E6564204D6573736167653A0A333200000000 PUSH1 0x0 DUP3 ADD MSTORE POP JUMP JUMPDEST PUSH32 0x1901000000000000000000000000000000000000000000000000000000000000 PUSH1 0x0 DUP3 ADD MSTORE POP JUMP JUMPDEST PUSH32 0x6E6577206F776E657220697320746865207A65726F2061646472657373000000 PUSH1 0x0 DUP3 ADD MSTORE POP JUMP JUMPDEST PUSH32 0x5745524331303A2045787069726564207065726D697400000000000000000000 PUSH1 0x0 DUP3 ADD MSTORE POP JUMP JUMPDEST PUSH32 0x62696E64206164647265737320697320746865207A65726F2061646472657373 PUSH1 0x0 DUP3 ADD MSTORE POP JUMP JUMPDEST PUSH32 0x6F6E6C79206F776E657200000000000000000000000000000000000000000000 PUSH1 0x0 DUP3 ADD MSTORE POP JUMP JUMPDEST PUSH32 0x45524332303A206275726E2066726F6D20746865207A65726F20616464726573 PUSH1 0x0 DUP3 ADD MSTORE PUSH32 0x7300000000000000000000000000000000000000000000000000000000000000 PUSH1 0x20 DUP3 ADD MSTORE POP JUMP JUMPDEST PUSH32 0x5745524331303A2072657175657374206578636565647320616C6C6F77616E63 PUSH1 0x0 DUP3 ADD MSTORE PUSH32 0x6500000000000000000000000000000000000000000000000000000000000000 PUSH1 0x20 DUP3 ADD MSTORE POP JUMP JUMPDEST PUSH32 0x45524332303A206D696E7420746F20746865207A65726F206164647265737300 PUSH1 0x0 DUP3 ADD MSTORE POP JUMP JUMPDEST PUSH32 0x5745524331303A207472616E7366657220616D6F756E74206578636565647320 PUSH1 0x0 DUP3 ADD MSTORE PUSH32 0x62616C616E636500000000000000000000000000000000000000000000000000 PUSH1 0x20 DUP3 ADD MSTORE POP JUMP JUMPDEST PUSH2 0x2CE8 DUP2 PUSH2 0x293E JUMP JUMPDEST DUP2 EQ PUSH2 0x2CF3 JUMPI PUSH1 0x0 DUP1 REVERT JUMPDEST POP JUMP JUMPDEST PUSH2 0x2CFF DUP2 PUSH2 0x2950 JUMP JUMPDEST DUP2 EQ PUSH2 0x2D0A JUMPI PUSH1 0x0 DUP1 REVERT JUMPDEST POP JUMP JUMPDEST PUSH2 0x2D16 DUP2 PUSH2 0x295C JUMP JUMPDEST DUP2 EQ PUSH2 0x2D21 JUMPI PUSH1 0x0 DUP1 REVERT JUMPDEST POP JUMP JUMPDEST PUSH2 0x2D2D DUP2 PUSH2 0x2986 JUMP JUMPDEST DUP2 EQ PUSH2 0x2D38 JUMPI PUSH1 0x0 DUP1 REVERT JUMPDEST POP JUMP JUMPDEST PUSH2 0x2D44 DUP2 PUSH2 0x2990 JUMP JUMPDEST DUP2 EQ PUSH2 0x2D4F JUMPI PUSH1 0x0 DUP1 REVERT JUMPDEST POP JUMP INVALID LOG2 PUSH5 0x6970667358 0x22 SLT KECCAK256 PUSH13 0x5672F9685999F5C1B1A0C4C645 ADDRESS PUSH10 0x63E45313691D3905CF61 0x2C BYTE 0x4D SWAP14 0xE3 PUSH31 0x64736F6C634300080100330000000000000000000000000000000000000000 "
				},
				"gasEstimates": {
					"creation": {
						"codeDepositCost": "2331200",
						"executionCost": "infinite",
						"totalCost": "infinite"
					},
					"external": {
						"DOMAIN_SEPARATOR()": "infinite",
						"PERMIT_TYPEHASH()": "352",
						"Swapin(bytes32,address,uint256)": "infinite",
						"Swapout(uint256,address)": "infinite",
						"TRANSFER_TYPEHASH()": "353",
						"allowance(address,address)": "infinite",
						"approve(address,uint256)": "infinite",
						"approveAndCall(address,uint256,bytes)": "infinite",
						"balanceOf(address)": "1559",
						"changeDCRMOwner(address)": "infinite",
						"decimals()": "infinite",
						"name()": "infinite",
						"nonces(address)": "1581",
						"owner()": "2144",
						"permit(address,address,uint256,uint256,uint8,bytes32,bytes32)": "infinite",
						"symbol()": "infinite",
						"totalSupply()": "1227",
						"transfer(address,uint256)": "infinite",
						"transferAndCall(address,uint256,bytes)": "infinite",
						"transferFrom(address,address,uint256)": "infinite",
						"transferWithPermit(address,address,uint256,uint256,uint8,bytes32,bytes32)": "infinite"
					},
					"internal": {
						"_burn(address,uint256)": "infinite",
						"_mint(address,uint256)": "infinite",
						"prefixed(bytes32)": "infinite",
						"verifyEIP712(address,bytes32,uint8,bytes32,bytes32)": "infinite",
						"verifyPersonalSign(address,bytes32,uint8,bytes32,bytes32)": "infinite"
					}
				},
				"methodIdentifiers": {
					"DOMAIN_SEPARATOR()": "3644e515",
					"PERMIT_TYPEHASH()": "30adf81f",
					"Swapin(bytes32,address,uint256)": "ec126c77",
					"Swapout(uint256,address)": "628d6cba",
					"TRANSFER_TYPEHASH()": "00bf26f4",
					"allowance(address,address)": "dd62ed3e",
					"approve(address,uint256)": "095ea7b3",
					"approveAndCall(address,uint256,bytes)": "cae9ca51",
					"balanceOf(address)": "70a08231",
					"changeDCRMOwner(address)": "b524f3a5",
					"decimals()": "313ce567",
					"name()": "06fdde03",
					"nonces(address)": "7ecebe00",
					"owner()": "8da5cb5b",
					"permit(address,address,uint256,uint256,uint8,bytes32,bytes32)": "d505accf",
					"symbol()": "95d89b41",
					"totalSupply()": "18160ddd",
					"transfer(address,uint256)": "a9059cbb",
					"transferAndCall(address,uint256,bytes)": "4000aea0",
					"transferFrom(address,address,uint256)": "23b872dd",
					"transferWithPermit(address,address,uint256,uint256,uint8,bytes32,bytes32)": "605629d6"
				}
			},
			"storageLayout": {
				"storage": [
					{
						"astId": 343,
						"contract": "Rizo.sol:Rizo",
						"label": "name",
						"offset": 0,
						"slot": "0",
						"type": "t_string_storage"
					},
					{
						"astId": 345,
						"contract": "Rizo.sol:Rizo",
						"label": "symbol",
						"offset": 0,
						"slot": "1",
						"type": "t_string_storage"
					},
					{
						"astId": 365,
						"contract": "Rizo.sol:Rizo",
						"label": "balanceOf",
						"offset": 0,
						"slot": "2",
						"type": "t_mapping(t_address,t_uint256)"
					},
					{
						"astId": 367,
						"contract": "Rizo.sol:Rizo",
						"label": "_totalSupply",
						"offset": 0,
						"slot": "3",
						"type": "t_uint256"
					},
					{
						"astId": 369,
						"contract": "Rizo.sol:Rizo",
						"label": "_oldOwner",
						"offset": 0,
						"slot": "4",
						"type": "t_address"
					},
					{
						"astId": 371,
						"contract": "Rizo.sol:Rizo",
						"label": "_newOwner",
						"offset": 0,
						"slot": "5",
						"type": "t_address"
					},
					{
						"astId": 373,
						"contract": "Rizo.sol:Rizo",
						"label": "_newOwnerEffectiveTime",
						"offset": 0,
						"slot": "6",
						"type": "t_uint256"
					},
					{
						"astId": 518,
						"contract": "Rizo.sol:Rizo",
						"label": "nonces",
						"offset": 0,
						"slot": "7",
						"type": "t_mapping(t_address,t_uint256)"
					},
					{
						"astId": 526,
						"contract": "Rizo.sol:Rizo",
						"label": "allowance",
						"offset": 0,
						"slot": "8",
						"type": "t_mapping(t_address,t_mapping(t_address,t_uint256))"
					}
				],
				"types": {
					"t_address": {
						"encoding": "inplace",
						"label": "address",
						"numberOfBytes": "20"
					},
					"t_mapping(t_address,t_mapping(t_address,t_uint256))": {
						"encoding": "mapping",
						"key": "t_address",
						"label": "mapping(address => mapping(address => uint256))",
						"numberOfBytes": "32",
						"value": "t_mapping(t_address,t_uint256)"
					},
					"t_mapping(t_address,t_uint256)": {
						"encoding": "mapping",
						"key": "t_address",
						"label": "mapping(address => uint256)",
						"numberOfBytes": "32",
						"value": "t_uint256"
					},
					"t_string_storage": {
						"encoding": "bytes",
						"label": "string",
						"numberOfBytes": "32"
					},
					"t_uint256": {
						"encoding": "inplace",
						"label": "uint256",
						"numberOfBytes": "32"
					}
				}
			},
			"userdoc": {
				"kind": "user",
				"methods": {},
				"version": 1
			}
		}
	}
}